{
	"toy/gusdnr/contracts/store.sol": {
		"Marketplace": {
			"abi": [
				{
					"inputs": [],
					"stateMutability": "nonpayable",
					"type": "constructor"
				},
				{
					"anonymous": false,
					"inputs": [
						{
							"indexed": false,
							"internalType": "address",
							"name": "owner",
							"type": "address"
						},
						{
							"indexed": false,
							"internalType": "address",
							"name": "spender",
							"type": "address"
						},
						{
							"indexed": false,
							"internalType": "uint256",
							"name": "value",
							"type": "uint256"
						}
					],
					"name": "Approval",
					"type": "event"
				},
				{
					"anonymous": false,
					"inputs": [
						{
							"indexed": false,
							"internalType": "address",
							"name": "form",
							"type": "address"
						},
						{
							"indexed": false,
							"internalType": "address",
							"name": "to",
							"type": "address"
						},
						{
							"indexed": false,
							"internalType": "uint256",
							"name": "value",
							"type": "uint256"
						}
					],
					"name": "Transfer",
					"type": "event"
				},
				{
					"inputs": [
						{
							"internalType": "uint256",
							"name": "",
							"type": "uint256"
						}
					],
					"name": "allProducts",
					"outputs": [
						{
							"internalType": "string",
							"name": "name",
							"type": "string"
						},
						{
							"internalType": "uint256",
							"name": "price",
							"type": "uint256"
						},
						{
							"internalType": "bool",
							"name": "forSale",
							"type": "bool"
						},
						{
							"internalType": "address",
							"name": "owner",
							"type": "address"
						}
					],
					"stateMutability": "view",
					"type": "function"
				},
				{
					"inputs": [
						{
							"internalType": "address",
							"name": "",
							"type": "address"
						},
						{
							"internalType": "address",
							"name": "",
							"type": "address"
						}
					],
					"name": "allowance",
					"outputs": [
						{
							"internalType": "uint256",
							"name": "",
							"type": "uint256"
						}
					],
					"stateMutability": "view",
					"type": "function"
				},
				{
					"inputs": [
						{
							"internalType": "address",
							"name": "spender",
							"type": "address"
						},
						{
							"internalType": "uint256",
							"name": "amount",
							"type": "uint256"
						}
					],
					"name": "approve",
					"outputs": [
						{
							"internalType": "bool",
							"name": "",
							"type": "bool"
						}
					],
					"stateMutability": "nonpayable",
					"type": "function"
				},
				{
					"inputs": [
						{
							"internalType": "address",
							"name": "account",
							"type": "address"
						}
					],
					"name": "balanceOf",
					"outputs": [
						{
							"internalType": "uint256",
							"name": "",
							"type": "uint256"
						}
					],
					"stateMutability": "view",
					"type": "function"
				},
				{
					"inputs": [
						{
							"internalType": "address",
							"name": "",
							"type": "address"
						}
					],
					"name": "balances",
					"outputs": [
						{
							"internalType": "uint256",
							"name": "",
							"type": "uint256"
						}
					],
					"stateMutability": "view",
					"type": "function"
				},
				{
					"inputs": [
						{
							"internalType": "uint256",
							"name": "amount",
							"type": "uint256"
						}
					],
					"name": "burn",
					"outputs": [],
					"stateMutability": "nonpayable",
					"type": "function"
				},
				{
					"inputs": [],
					"name": "decimals",
					"outputs": [
						{
							"internalType": "uint8",
							"name": "",
							"type": "uint8"
						}
					],
					"stateMutability": "view",
					"type": "function"
				},
				{
					"inputs": [
						{
							"internalType": "uint256",
							"name": "",
							"type": "uint256"
						}
					],
					"name": "forSaleProducts",
					"outputs": [
						{
							"internalType": "string",
							"name": "name",
							"type": "string"
						},
						{
							"internalType": "uint256",
							"name": "price",
							"type": "uint256"
						},
						{
							"internalType": "bool",
							"name": "forSale",
							"type": "bool"
						},
						{
							"internalType": "address",
							"name": "owner",
							"type": "address"
						}
					],
					"stateMutability": "view",
					"type": "function"
				},
				{
					"inputs": [
						{
							"internalType": "uint256",
							"name": "productId",
							"type": "uint256"
						}
					],
					"name": "listProduct",
					"outputs": [],
					"stateMutability": "nonpayable",
					"type": "function"
				},
				{
					"inputs": [],
					"name": "name",
					"outputs": [
						{
							"internalType": "string",
							"name": "",
							"type": "string"
						}
					],
					"stateMutability": "view",
					"type": "function"
				},
				{
					"inputs": [
						{
							"internalType": "uint256",
							"name": "productId",
							"type": "uint256"
						}
					],
					"name": "purchaseProduct",
					"outputs": [],
					"stateMutability": "nonpayable",
					"type": "function"
				},
				{
					"inputs": [
						{
							"internalType": "string",
							"name": "name",
							"type": "string"
						},
						{
							"internalType": "uint256",
							"name": "price",
							"type": "uint256"
						}
					],
					"name": "registerProduct",
					"outputs": [],
					"stateMutability": "nonpayable",
					"type": "function"
				},
				{
					"inputs": [],
					"name": "showAllUserProducts",
					"outputs": [
						{
							"components": [
								{
									"internalType": "string",
									"name": "name",
									"type": "string"
								},
								{
									"internalType": "uint256",
									"name": "price",
									"type": "uint256"
								},
								{
									"internalType": "bool",
									"name": "forSale",
									"type": "bool"
								},
								{
									"internalType": "address",
									"name": "owner",
									"type": "address"
								}
							],
							"internalType": "struct Marketplace.Product[]",
							"name": "",
							"type": "tuple[]"
						}
					],
					"stateMutability": "view",
					"type": "function"
				},
				{
					"inputs": [],
					"name": "symbol",
					"outputs": [
						{
							"internalType": "string",
							"name": "",
							"type": "string"
						}
					],
					"stateMutability": "view",
					"type": "function"
				},
				{
					"inputs": [],
					"name": "token",
					"outputs": [
						{
							"internalType": "contract ERC20",
							"name": "",
							"type": "address"
						}
					],
					"stateMutability": "view",
					"type": "function"
				},
				{
					"inputs": [],
					"name": "totalSupply",
					"outputs": [
						{
							"internalType": "uint256",
							"name": "",
							"type": "uint256"
						}
					],
					"stateMutability": "view",
					"type": "function"
				},
				{
					"inputs": [
						{
							"internalType": "address",
							"name": "to",
							"type": "address"
						},
						{
							"internalType": "uint256",
							"name": "amount",
							"type": "uint256"
						}
					],
					"name": "transfer",
					"outputs": [
						{
							"internalType": "bool",
							"name": "",
							"type": "bool"
						}
					],
					"stateMutability": "nonpayable",
					"type": "function"
				},
				{
					"inputs": [
						{
							"internalType": "address",
							"name": "spender",
							"type": "address"
						},
						{
							"internalType": "address",
							"name": "to",
							"type": "address"
						},
						{
							"internalType": "uint256",
							"name": "amount",
							"type": "uint256"
						}
					],
					"name": "transferFrom",
					"outputs": [
						{
							"internalType": "bool",
							"name": "",
							"type": "bool"
						}
					],
					"stateMutability": "nonpayable",
					"type": "function"
				},
				{
					"inputs": [
						{
							"internalType": "address",
							"name": "",
							"type": "address"
						},
						{
							"internalType": "uint256",
							"name": "",
							"type": "uint256"
						}
					],
					"name": "userProducts",
					"outputs": [
						{
							"internalType": "string",
							"name": "name",
							"type": "string"
						},
						{
							"internalType": "uint256",
							"name": "price",
							"type": "uint256"
						},
						{
							"internalType": "bool",
							"name": "forSale",
							"type": "bool"
						},
						{
							"internalType": "address",
							"name": "owner",
							"type": "address"
						}
					],
					"stateMutability": "view",
					"type": "function"
				},
				{
					"stateMutability": "payable",
					"type": "receive"
				}
			],
			"devdoc": {
				"kind": "dev",
				"methods": {},
				"version": 1
			},
			"evm": {
				"assembly": "    /* \"toy/gusdnr/contracts/store.sol\":1553:3927  contract Marketplace is ERC20 {... */\n  mstore(0x40, 0x80)\n    /* \"toy/gusdnr/contracts/ERC20.sol\":504:506  18 */\n  0x12\n    /* \"toy/gusdnr/contracts/ERC20.sol\":480:506  uint8 public decimals = 18 */\n  0x02\n  exp(0x0100, 0x00)\n  dup2\n  sload\n  dup2\n  0xff\n  mul\n  not\n  and\n  swap1\n  dup4\n  0xff\n  and\n  mul\n  or\n  swap1\n  sstore\n  pop\n    /* \"toy/gusdnr/contracts/store.sol\":1769:1779  1000 ether */\n  0x3635c9adc5dea00000\n    /* \"toy/gusdnr/contracts/store.sol\":1740:1779  uint256 private tokenPrice = 1000 ether */\n  0x08\n  sstore\n    /* \"toy/gusdnr/contracts/store.sol\":2051:2096  constructor() ERC20(\"store\", \"STR\", 10000) {} */\n  callvalue\n  dup1\n  iszero\n  tag_1\n  jumpi\n  0x00\n  dup1\n  revert\ntag_1:\n  pop\n    /* \"toy/gusdnr/contracts/ERC20.sol\":1323:1879  constructor(string memory _name, string memory _symbol, uint256 _amount) {... */\n  mload(0x40)\n  dup1\n  0x40\n  add\n  0x40\n  mstore\n  dup1\n  0x05\n  dup2\n  mstore\n  0x20\n  add\n  0x73746f7265000000000000000000000000000000000000000000000000000000\n  dup2\n  mstore\n  pop\n  mload(0x40)\n  dup1\n  0x40\n  add\n  0x40\n  mstore\n  dup1\n  0x03\n  dup2\n  mstore\n  0x20\n  add\n  0x5354520000000000000000000000000000000000000000000000000000000000\n  dup2\n  mstore\n  pop\n    /* \"toy/gusdnr/contracts/store.sol\":2087:2092  10000 */\n  0x2710\n    /* \"toy/gusdnr/contracts/ERC20.sol\":1602:1612  msg.sender */\n  caller\n    /* \"toy/gusdnr/contracts/ERC20.sol\":1594:1599  owner */\n  0x04\n  0x00\n    /* \"toy/gusdnr/contracts/ERC20.sol\":1594:1612  owner = msg.sender */\n  0x0100\n  exp\n  dup2\n  sload\n  dup2\n  0xffffffffffffffffffffffffffffffffffffffff\n  mul\n  not\n  and\n  swap1\n  dup4\n  0xffffffffffffffffffffffffffffffffffffffff\n  and\n  mul\n  or\n  swap1\n  sstore\n  pop\n    /* \"toy/gusdnr/contracts/ERC20.sol\":1629:1634  _name */\n  dup3\n    /* \"toy/gusdnr/contracts/ERC20.sol\":1622:1626  name */\n  0x00\n    /* \"toy/gusdnr/contracts/ERC20.sol\":1622:1634  name = _name */\n  swap1\n  dup2\n  tag_5\n  swap2\n  swap1\n  tag_6\n  jump\t// in\ntag_5:\n  pop\n    /* \"toy/gusdnr/contracts/ERC20.sol\":1666:1673  _symbol */\n  dup2\n    /* \"toy/gusdnr/contracts/ERC20.sol\":1657:1663  symbol */\n  0x01\n    /* \"toy/gusdnr/contracts/ERC20.sol\":1657:1673  symbol = _symbol */\n  swap1\n  dup2\n  tag_7\n  swap2\n  swap1\n  tag_6\n  jump\t// in\ntag_7:\n  pop\n    /* \"toy/gusdnr/contracts/ERC20.sol\":1831:1872  mint(_amount * (10 ** uint256(decimals))) */\n  tag_8\n    /* \"toy/gusdnr/contracts/ERC20.sol\":1861:1869  decimals */\n  0x02\n  0x00\n  swap1\n  sload\n  swap1\n  0x0100\n  exp\n  swap1\n  div\n  0xff\n  and\n    /* \"toy/gusdnr/contracts/ERC20.sol\":1853:1870  uint256(decimals) */\n  0xff\n  and\n    /* \"toy/gusdnr/contracts/ERC20.sol\":1847:1849  10 */\n  0x0a\n    /* \"toy/gusdnr/contracts/ERC20.sol\":1847:1870  10 ** uint256(decimals) */\n  tag_9\n  swap2\n  swap1\n  tag_10\n  jump\t// in\ntag_9:\n    /* \"toy/gusdnr/contracts/ERC20.sol\":1836:1843  _amount */\n  dup3\n    /* \"toy/gusdnr/contracts/ERC20.sol\":1836:1871  _amount * (10 ** uint256(decimals)) */\n  tag_11\n  swap2\n  swap1\n  tag_12\n  jump\t// in\ntag_11:\n    /* \"toy/gusdnr/contracts/ERC20.sol\":1831:1835  mint */\n  shl(0x20, tag_13)\n    /* \"toy/gusdnr/contracts/ERC20.sol\":1831:1872  mint(_amount * (10 ** uint256(decimals))) */\n  0x20\n  shr\n  jump\t// in\ntag_8:\n    /* \"toy/gusdnr/contracts/ERC20.sol\":1323:1879  constructor(string memory _name, string memory _symbol, uint256 _amount) {... */\n  pop\n  pop\n  pop\n    /* \"toy/gusdnr/contracts/store.sol\":1553:3927  contract Marketplace is ERC20 {... */\n  jump(tag_15)\n    /* \"toy/gusdnr/contracts/ERC20.sol\":5433:5547  function mint(uint amount) internal {... */\ntag_13:\n    /* \"toy/gusdnr/contracts/ERC20.sol\":5503:5509  amount */\n  dup1\n    /* \"toy/gusdnr/contracts/ERC20.sol\":5479:5487  balances */\n  0x05\n    /* \"toy/gusdnr/contracts/ERC20.sol\":5479:5499  balances[msg.sender] */\n  0x00\n    /* \"toy/gusdnr/contracts/ERC20.sol\":5488:5498  msg.sender */\n  caller\n    /* \"toy/gusdnr/contracts/ERC20.sol\":5479:5499  balances[msg.sender] */\n  0xffffffffffffffffffffffffffffffffffffffff\n  and\n  0xffffffffffffffffffffffffffffffffffffffff\n  and\n  dup2\n  mstore\n  0x20\n  add\n  swap1\n  dup2\n  mstore\n  0x20\n  add\n  0x00\n  keccak256\n  0x00\n    /* \"toy/gusdnr/contracts/ERC20.sol\":5479:5509  balances[msg.sender] += amount */\n  dup3\n  dup3\n  sload\n  tag_17\n  swap2\n  swap1\n  tag_18\n  jump\t// in\ntag_17:\n  swap3\n  pop\n  pop\n  dup2\n  swap1\n  sstore\n  pop\n    /* \"toy/gusdnr/contracts/ERC20.sol\":5534:5540  amount */\n  dup1\n    /* \"toy/gusdnr/contracts/ERC20.sol\":5519:5530  totalSupply */\n  0x03\n  0x00\n    /* \"toy/gusdnr/contracts/ERC20.sol\":5519:5540  totalSupply += amount */\n  dup3\n  dup3\n  sload\n  tag_19\n  swap2\n  swap1\n  tag_18\n  jump\t// in\ntag_19:\n  swap3\n  pop\n  pop\n  dup2\n  swap1\n  sstore\n  pop\n    /* \"toy/gusdnr/contracts/ERC20.sol\":5433:5547  function mint(uint amount) internal {... */\n  pop\n  jump\t// out\n    /* \"#utility.yul\":7:106   */\ntag_20:\n    /* \"#utility.yul\":59:65   */\n  0x00\n    /* \"#utility.yul\":93:98   */\n  dup2\n    /* \"#utility.yul\":87:99   */\n  mload\n    /* \"#utility.yul\":77:99   */\n  swap1\n  pop\n    /* \"#utility.yul\":7:106   */\n  swap2\n  swap1\n  pop\n  jump\t// out\n    /* \"#utility.yul\":112:292   */\ntag_21:\n    /* \"#utility.yul\":160:237   */\n  0x4e487b7100000000000000000000000000000000000000000000000000000000\n    /* \"#utility.yul\":157:158   */\n  0x00\n    /* \"#utility.yul\":150:238   */\n  mstore\n    /* \"#utility.yul\":257:261   */\n  0x41\n    /* \"#utility.yul\":254:255   */\n  0x04\n    /* \"#utility.yul\":247:262   */\n  mstore\n    /* \"#utility.yul\":281:285   */\n  0x24\n    /* \"#utility.yul\":278:279   */\n  0x00\n    /* \"#utility.yul\":271:286   */\n  revert\n    /* \"#utility.yul\":298:478   */\ntag_22:\n    /* \"#utility.yul\":346:423   */\n  0x4e487b7100000000000000000000000000000000000000000000000000000000\n    /* \"#utility.yul\":343:344   */\n  0x00\n    /* \"#utility.yul\":336:424   */\n  mstore\n    /* \"#utility.yul\":443:447   */\n  0x22\n    /* \"#utility.yul\":440:441   */\n  0x04\n    /* \"#utility.yul\":433:448   */\n  mstore\n    /* \"#utility.yul\":467:471   */\n  0x24\n    /* \"#utility.yul\":464:465   */\n  0x00\n    /* \"#utility.yul\":457:472   */\n  revert\n    /* \"#utility.yul\":484:804   */\ntag_23:\n    /* \"#utility.yul\":528:534   */\n  0x00\n    /* \"#utility.yul\":565:566   */\n  0x02\n    /* \"#utility.yul\":559:563   */\n  dup3\n    /* \"#utility.yul\":555:567   */\n  div\n    /* \"#utility.yul\":545:567   */\n  swap1\n  pop\n    /* \"#utility.yul\":612:613   */\n  0x01\n    /* \"#utility.yul\":606:610   */\n  dup3\n    /* \"#utility.yul\":602:614   */\n  and\n    /* \"#utility.yul\":633:651   */\n  dup1\n    /* \"#utility.yul\":623:704   */\n  tag_49\n  jumpi\n    /* \"#utility.yul\":689:693   */\n  0x7f\n    /* \"#utility.yul\":681:687   */\n  dup3\n    /* \"#utility.yul\":677:694   */\n  and\n    /* \"#utility.yul\":667:694   */\n  swap2\n  pop\n    /* \"#utility.yul\":623:704   */\ntag_49:\n    /* \"#utility.yul\":751:753   */\n  0x20\n    /* \"#utility.yul\":743:749   */\n  dup3\n    /* \"#utility.yul\":740:754   */\n  lt\n    /* \"#utility.yul\":720:738   */\n  dup2\n    /* \"#utility.yul\":717:755   */\n  sub\n    /* \"#utility.yul\":714:798   */\n  tag_50\n  jumpi\n    /* \"#utility.yul\":770:788   */\n  tag_51\n  tag_22\n  jump\t// in\ntag_51:\n    /* \"#utility.yul\":714:798   */\ntag_50:\n    /* \"#utility.yul\":535:804   */\n  pop\n    /* \"#utility.yul\":484:804   */\n  swap2\n  swap1\n  pop\n  jump\t// out\n    /* \"#utility.yul\":810:951   */\ntag_24:\n    /* \"#utility.yul\":859:863   */\n  0x00\n    /* \"#utility.yul\":882:885   */\n  dup2\n    /* \"#utility.yul\":874:885   */\n  swap1\n  pop\n    /* \"#utility.yul\":905:908   */\n  dup2\n    /* \"#utility.yul\":902:903   */\n  0x00\n    /* \"#utility.yul\":895:909   */\n  mstore\n    /* \"#utility.yul\":939:943   */\n  0x20\n    /* \"#utility.yul\":936:937   */\n  0x00\n    /* \"#utility.yul\":926:944   */\n  keccak256\n    /* \"#utility.yul\":918:944   */\n  swap1\n  pop\n    /* \"#utility.yul\":810:951   */\n  swap2\n  swap1\n  pop\n  jump\t// out\n    /* \"#utility.yul\":957:1050   */\ntag_25:\n    /* \"#utility.yul\":994:1000   */\n  0x00\n    /* \"#utility.yul\":1041:1043   */\n  0x20\n    /* \"#utility.yul\":1036:1038   */\n  0x1f\n    /* \"#utility.yul\":1029:1034   */\n  dup4\n    /* \"#utility.yul\":1025:1039   */\n  add\n    /* \"#utility.yul\":1021:1044   */\n  div\n    /* \"#utility.yul\":1011:1044   */\n  swap1\n  pop\n    /* \"#utility.yul\":957:1050   */\n  swap2\n  swap1\n  pop\n  jump\t// out\n    /* \"#utility.yul\":1056:1163   */\ntag_26:\n    /* \"#utility.yul\":1100:1108   */\n  0x00\n    /* \"#utility.yul\":1150:1155   */\n  dup3\n    /* \"#utility.yul\":1144:1148   */\n  dup3\n    /* \"#utility.yul\":1140:1156   */\n  shl\n    /* \"#utility.yul\":1119:1156   */\n  swap1\n  pop\n    /* \"#utility.yul\":1056:1163   */\n  swap3\n  swap2\n  pop\n  pop\n  jump\t// out\n    /* \"#utility.yul\":1169:1562   */\ntag_27:\n    /* \"#utility.yul\":1238:1244   */\n  0x00\n    /* \"#utility.yul\":1288:1289   */\n  0x08\n    /* \"#utility.yul\":1276:1286   */\n  dup4\n    /* \"#utility.yul\":1272:1290   */\n  mul\n    /* \"#utility.yul\":1311:1408   */\n  tag_56\n    /* \"#utility.yul\":1341:1407   */\n  0xffffffffffffffffffffffffffffffffffffffffffffffffffffffffffffffff\n    /* \"#utility.yul\":1330:1339   */\n  dup3\n    /* \"#utility.yul\":1311:1408   */\n  tag_26\n  jump\t// in\ntag_56:\n    /* \"#utility.yul\":1429:1468   */\n  tag_57\n    /* \"#utility.yul\":1459:1467   */\n  dup7\n    /* \"#utility.yul\":1448:1457   */\n  dup4\n    /* \"#utility.yul\":1429:1468   */\n  tag_26\n  jump\t// in\ntag_57:\n    /* \"#utility.yul\":1417:1468   */\n  swap6\n  pop\n    /* \"#utility.yul\":1501:1505   */\n  dup1\n    /* \"#utility.yul\":1497:1506   */\n  not\n    /* \"#utility.yul\":1490:1495   */\n  dup5\n    /* \"#utility.yul\":1486:1507   */\n  and\n    /* \"#utility.yul\":1477:1507   */\n  swap4\n  pop\n    /* \"#utility.yul\":1550:1554   */\n  dup1\n    /* \"#utility.yul\":1540:1548   */\n  dup7\n    /* \"#utility.yul\":1536:1555   */\n  and\n    /* \"#utility.yul\":1529:1534   */\n  dup5\n    /* \"#utility.yul\":1526:1556   */\n  or\n    /* \"#utility.yul\":1516:1556   */\n  swap3\n  pop\n    /* \"#utility.yul\":1245:1562   */\n  pop\n  pop\n    /* \"#utility.yul\":1169:1562   */\n  swap4\n  swap3\n  pop\n  pop\n  pop\n  jump\t// out\n    /* \"#utility.yul\":1568:1645   */\ntag_28:\n    /* \"#utility.yul\":1605:1612   */\n  0x00\n    /* \"#utility.yul\":1634:1639   */\n  dup2\n    /* \"#utility.yul\":1623:1639   */\n  swap1\n  pop\n    /* \"#utility.yul\":1568:1645   */\n  swap2\n  swap1\n  pop\n  jump\t// out\n    /* \"#utility.yul\":1651:1711   */\ntag_29:\n    /* \"#utility.yul\":1679:1682   */\n  0x00\n    /* \"#utility.yul\":1700:1705   */\n  dup2\n    /* \"#utility.yul\":1693:1705   */\n  swap1\n  pop\n    /* \"#utility.yul\":1651:1711   */\n  swap2\n  swap1\n  pop\n  jump\t// out\n    /* \"#utility.yul\":1717:1859   */\ntag_30:\n    /* \"#utility.yul\":1767:1776   */\n  0x00\n    /* \"#utility.yul\":1800:1853   */\n  tag_61\n    /* \"#utility.yul\":1818:1852   */\n  tag_62\n    /* \"#utility.yul\":1827:1851   */\n  tag_63\n    /* \"#utility.yul\":1845:1850   */\n  dup5\n    /* \"#utility.yul\":1827:1851   */\n  tag_28\n  jump\t// in\ntag_63:\n    /* \"#utility.yul\":1818:1852   */\n  tag_29\n  jump\t// in\ntag_62:\n    /* \"#utility.yul\":1800:1853   */\n  tag_28\n  jump\t// in\ntag_61:\n    /* \"#utility.yul\":1787:1853   */\n  swap1\n  pop\n    /* \"#utility.yul\":1717:1859   */\n  swap2\n  swap1\n  pop\n  jump\t// out\n    /* \"#utility.yul\":1865:1940   */\ntag_31:\n    /* \"#utility.yul\":1908:1911   */\n  0x00\n    /* \"#utility.yul\":1929:1934   */\n  dup2\n    /* \"#utility.yul\":1922:1934   */\n  swap1\n  pop\n    /* \"#utility.yul\":1865:1940   */\n  swap2\n  swap1\n  pop\n  jump\t// out\n    /* \"#utility.yul\":1946:2215   */\ntag_32:\n    /* \"#utility.yul\":2056:2095   */\n  tag_66\n    /* \"#utility.yul\":2087:2094   */\n  dup4\n    /* \"#utility.yul\":2056:2095   */\n  tag_30\n  jump\t// in\ntag_66:\n    /* \"#utility.yul\":2117:2208   */\n  tag_67\n    /* \"#utility.yul\":2166:2207   */\n  tag_68\n    /* \"#utility.yul\":2190:2206   */\n  dup3\n    /* \"#utility.yul\":2166:2207   */\n  tag_31\n  jump\t// in\ntag_68:\n    /* \"#utility.yul\":2158:2164   */\n  dup5\n    /* \"#utility.yul\":2151:2155   */\n  dup5\n    /* \"#utility.yul\":2145:2156   */\n  sload\n    /* \"#utility.yul\":2117:2208   */\n  tag_27\n  jump\t// in\ntag_67:\n    /* \"#utility.yul\":2111:2115   */\n  dup3\n    /* \"#utility.yul\":2104:2209   */\n  sstore\n    /* \"#utility.yul\":2022:2215   */\n  pop\n    /* \"#utility.yul\":1946:2215   */\n  pop\n  pop\n  pop\n  jump\t// out\n    /* \"#utility.yul\":2221:2294   */\ntag_33:\n    /* \"#utility.yul\":2266:2269   */\n  0x00\n    /* \"#utility.yul\":2221:2294   */\n  swap1\n  jump\t// out\n    /* \"#utility.yul\":2300:2489   */\ntag_34:\n    /* \"#utility.yul\":2377:2409   */\n  tag_71\n  tag_33\n  jump\t// in\ntag_71:\n    /* \"#utility.yul\":2418:2483   */\n  tag_72\n    /* \"#utility.yul\":2476:2482   */\n  dup2\n    /* \"#utility.yul\":2468:2474   */\n  dup5\n    /* \"#utility.yul\":2462:2466   */\n  dup5\n    /* \"#utility.yul\":2418:2483   */\n  tag_32\n  jump\t// in\ntag_72:\n    /* \"#utility.yul\":2353:2489   */\n  pop\n    /* \"#utility.yul\":2300:2489   */\n  pop\n  pop\n  jump\t// out\n    /* \"#utility.yul\":2495:2681   */\ntag_35:\n    /* \"#utility.yul\":2555:2675   */\ntag_74:\n    /* \"#utility.yul\":2572:2575   */\n  dup2\n    /* \"#utility.yul\":2565:2570   */\n  dup2\n    /* \"#utility.yul\":2562:2576   */\n  lt\n    /* \"#utility.yul\":2555:2675   */\n  iszero\n  tag_76\n  jumpi\n    /* \"#utility.yul\":2626:2665   */\n  tag_77\n    /* \"#utility.yul\":2663:2664   */\n  0x00\n    /* \"#utility.yul\":2656:2661   */\n  dup3\n    /* \"#utility.yul\":2626:2665   */\n  tag_34\n  jump\t// in\ntag_77:\n    /* \"#utility.yul\":2599:2600   */\n  0x01\n    /* \"#utility.yul\":2592:2597   */\n  dup2\n    /* \"#utility.yul\":2588:2601   */\n  add\n    /* \"#utility.yul\":2579:2601   */\n  swap1\n  pop\n    /* \"#utility.yul\":2555:2675   */\n  jump(tag_74)\ntag_76:\n    /* \"#utility.yul\":2495:2681   */\n  pop\n  pop\n  jump\t// out\n    /* \"#utility.yul\":2687:3230   */\ntag_36:\n    /* \"#utility.yul\":2788:2790   */\n  0x1f\n    /* \"#utility.yul\":2783:2786   */\n  dup3\n    /* \"#utility.yul\":2780:2791   */\n  gt\n    /* \"#utility.yul\":2777:3223   */\n  iszero\n  tag_79\n  jumpi\n    /* \"#utility.yul\":2822:2860   */\n  tag_80\n    /* \"#utility.yul\":2854:2859   */\n  dup2\n    /* \"#utility.yul\":2822:2860   */\n  tag_24\n  jump\t// in\ntag_80:\n    /* \"#utility.yul\":2906:2935   */\n  tag_81\n    /* \"#utility.yul\":2924:2934   */\n  dup5\n    /* \"#utility.yul\":2906:2935   */\n  tag_25\n  jump\t// in\ntag_81:\n    /* \"#utility.yul\":2896:2904   */\n  dup2\n    /* \"#utility.yul\":2892:2936   */\n  add\n    /* \"#utility.yul\":3089:3091   */\n  0x20\n    /* \"#utility.yul\":3077:3087   */\n  dup6\n    /* \"#utility.yul\":3074:3092   */\n  lt\n    /* \"#utility.yul\":3071:3120   */\n  iszero\n  tag_82\n  jumpi\n    /* \"#utility.yul\":3110:3118   */\n  dup2\n    /* \"#utility.yul\":3095:3118   */\n  swap1\n  pop\n    /* \"#utility.yul\":3071:3120   */\ntag_82:\n    /* \"#utility.yul\":3133:3213   */\n  tag_83\n    /* \"#utility.yul\":3189:3211   */\n  tag_84\n    /* \"#utility.yul\":3207:3210   */\n  dup6\n    /* \"#utility.yul\":3189:3211   */\n  tag_25\n  jump\t// in\ntag_84:\n    /* \"#utility.yul\":3179:3187   */\n  dup4\n    /* \"#utility.yul\":3175:3212   */\n  add\n    /* \"#utility.yul\":3162:3173   */\n  dup3\n    /* \"#utility.yul\":3133:3213   */\n  tag_35\n  jump\t// in\ntag_83:\n    /* \"#utility.yul\":2792:3223   */\n  pop\n  pop\n    /* \"#utility.yul\":2777:3223   */\ntag_79:\n    /* \"#utility.yul\":2687:3230   */\n  pop\n  pop\n  pop\n  jump\t// out\n    /* \"#utility.yul\":3236:3353   */\ntag_37:\n    /* \"#utility.yul\":3290:3298   */\n  0x00\n    /* \"#utility.yul\":3340:3345   */\n  dup3\n    /* \"#utility.yul\":3334:3338   */\n  dup3\n    /* \"#utility.yul\":3330:3346   */\n  shr\n    /* \"#utility.yul\":3309:3346   */\n  swap1\n  pop\n    /* \"#utility.yul\":3236:3353   */\n  swap3\n  swap2\n  pop\n  pop\n  jump\t// out\n    /* \"#utility.yul\":3359:3528   */\ntag_38:\n    /* \"#utility.yul\":3403:3409   */\n  0x00\n    /* \"#utility.yul\":3436:3487   */\n  tag_87\n    /* \"#utility.yul\":3484:3485   */\n  0x00\n    /* \"#utility.yul\":3480:3486   */\n  not\n    /* \"#utility.yul\":3472:3477   */\n  dup5\n    /* \"#utility.yul\":3469:3470   */\n  0x08\n    /* \"#utility.yul\":3465:3478   */\n  mul\n    /* \"#utility.yul\":3436:3487   */\n  tag_37\n  jump\t// in\ntag_87:\n    /* \"#utility.yul\":3432:3488   */\n  not\n    /* \"#utility.yul\":3517:3521   */\n  dup1\n    /* \"#utility.yul\":3511:3515   */\n  dup4\n    /* \"#utility.yul\":3507:3522   */\n  and\n    /* \"#utility.yul\":3497:3522   */\n  swap2\n  pop\n    /* \"#utility.yul\":3410:3528   */\n  pop\n    /* \"#utility.yul\":3359:3528   */\n  swap3\n  swap2\n  pop\n  pop\n  jump\t// out\n    /* \"#utility.yul\":3533:3828   */\ntag_39:\n    /* \"#utility.yul\":3609:3613   */\n  0x00\n    /* \"#utility.yul\":3755:3784   */\n  tag_89\n    /* \"#utility.yul\":3780:3783   */\n  dup4\n    /* \"#utility.yul\":3774:3778   */\n  dup4\n    /* \"#utility.yul\":3755:3784   */\n  tag_38\n  jump\t// in\ntag_89:\n    /* \"#utility.yul\":3747:3784   */\n  swap2\n  pop\n    /* \"#utility.yul\":3817:3820   */\n  dup3\n    /* \"#utility.yul\":3814:3815   */\n  0x02\n    /* \"#utility.yul\":3810:3821   */\n  mul\n    /* \"#utility.yul\":3804:3808   */\n  dup3\n    /* \"#utility.yul\":3801:3822   */\n  or\n    /* \"#utility.yul\":3793:3822   */\n  swap1\n  pop\n    /* \"#utility.yul\":3533:3828   */\n  swap3\n  swap2\n  pop\n  pop\n  jump\t// out\n    /* \"#utility.yul\":3833:5228   */\ntag_6:\n    /* \"#utility.yul\":3950:3987   */\n  tag_91\n    /* \"#utility.yul\":3983:3986   */\n  dup3\n    /* \"#utility.yul\":3950:3987   */\n  tag_20\n  jump\t// in\ntag_91:\n    /* \"#utility.yul\":4052:4070   */\n  0xffffffffffffffff\n    /* \"#utility.yul\":4044:4050   */\n  dup2\n    /* \"#utility.yul\":4041:4071   */\n  gt\n    /* \"#utility.yul\":4038:4094   */\n  iszero\n  tag_92\n  jumpi\n    /* \"#utility.yul\":4074:4092   */\n  tag_93\n  tag_21\n  jump\t// in\ntag_93:\n    /* \"#utility.yul\":4038:4094   */\ntag_92:\n    /* \"#utility.yul\":4118:4156   */\n  tag_94\n    /* \"#utility.yul\":4150:4154   */\n  dup3\n    /* \"#utility.yul\":4144:4155   */\n  sload\n    /* \"#utility.yul\":4118:4156   */\n  tag_23\n  jump\t// in\ntag_94:\n    /* \"#utility.yul\":4203:4270   */\n  tag_95\n    /* \"#utility.yul\":4263:4269   */\n  dup3\n    /* \"#utility.yul\":4255:4261   */\n  dup3\n    /* \"#utility.yul\":4249:4253   */\n  dup6\n    /* \"#utility.yul\":4203:4270   */\n  tag_36\n  jump\t// in\ntag_95:\n    /* \"#utility.yul\":4297:4298   */\n  0x00\n    /* \"#utility.yul\":4321:4325   */\n  0x20\n    /* \"#utility.yul\":4308:4325   */\n  swap1\n  pop\n    /* \"#utility.yul\":4353:4355   */\n  0x1f\n    /* \"#utility.yul\":4345:4351   */\n  dup4\n    /* \"#utility.yul\":4342:4356   */\n  gt\n    /* \"#utility.yul\":4370:4371   */\n  0x01\n    /* \"#utility.yul\":4365:4983   */\n  dup2\n  eq\n  tag_97\n  jumpi\n    /* \"#utility.yul\":5027:5028   */\n  0x00\n    /* \"#utility.yul\":5044:5050   */\n  dup5\n    /* \"#utility.yul\":5041:5118   */\n  iszero\n  tag_98\n  jumpi\n    /* \"#utility.yul\":5093:5102   */\n  dup3\n    /* \"#utility.yul\":5088:5091   */\n  dup8\n    /* \"#utility.yul\":5084:5103   */\n  add\n    /* \"#utility.yul\":5078:5104   */\n  mload\n    /* \"#utility.yul\":5069:5104   */\n  swap1\n  pop\n    /* \"#utility.yul\":5041:5118   */\ntag_98:\n    /* \"#utility.yul\":5144:5211   */\n  tag_99\n    /* \"#utility.yul\":5204:5210   */\n  dup6\n    /* \"#utility.yul\":5197:5202   */\n  dup3\n    /* \"#utility.yul\":5144:5211   */\n  tag_39\n  jump\t// in\ntag_99:\n    /* \"#utility.yul\":5138:5142   */\n  dup7\n    /* \"#utility.yul\":5131:5212   */\n  sstore\n    /* \"#utility.yul\":5000:5222   */\n  pop\n    /* \"#utility.yul\":4335:5222   */\n  jump(tag_96)\n    /* \"#utility.yul\":4365:4983   */\ntag_97:\n    /* \"#utility.yul\":4417:4421   */\n  0x1f\n    /* \"#utility.yul\":4413:4422   */\n  not\n    /* \"#utility.yul\":4405:4411   */\n  dup5\n    /* \"#utility.yul\":4401:4423   */\n  and\n    /* \"#utility.yul\":4451:4488   */\n  tag_100\n    /* \"#utility.yul\":4483:4487   */\n  dup7\n    /* \"#utility.yul\":4451:4488   */\n  tag_24\n  jump\t// in\ntag_100:\n    /* \"#utility.yul\":4510:4511   */\n  0x00\n    /* \"#utility.yul\":4524:4732   */\ntag_101:\n    /* \"#utility.yul\":4538:4545   */\n  dup3\n    /* \"#utility.yul\":4535:4536   */\n  dup2\n    /* \"#utility.yul\":4532:4546   */\n  lt\n    /* \"#utility.yul\":4524:4732   */\n  iszero\n  tag_103\n  jumpi\n    /* \"#utility.yul\":4617:4626   */\n  dup5\n    /* \"#utility.yul\":4612:4615   */\n  dup10\n    /* \"#utility.yul\":4608:4627   */\n  add\n    /* \"#utility.yul\":4602:4628   */\n  mload\n    /* \"#utility.yul\":4594:4600   */\n  dup3\n    /* \"#utility.yul\":4587:4629   */\n  sstore\n    /* \"#utility.yul\":4668:4669   */\n  0x01\n    /* \"#utility.yul\":4660:4666   */\n  dup3\n    /* \"#utility.yul\":4656:4670   */\n  add\n    /* \"#utility.yul\":4646:4670   */\n  swap2\n  pop\n    /* \"#utility.yul\":4715:4717   */\n  0x20\n    /* \"#utility.yul\":4704:4713   */\n  dup6\n    /* \"#utility.yul\":4700:4718   */\n  add\n    /* \"#utility.yul\":4687:4718   */\n  swap5\n  pop\n    /* \"#utility.yul\":4561:4565   */\n  0x20\n    /* \"#utility.yul\":4558:4559   */\n  dup2\n    /* \"#utility.yul\":4554:4566   */\n  add\n    /* \"#utility.yul\":4549:4566   */\n  swap1\n  pop\n    /* \"#utility.yul\":4524:4732   */\n  jump(tag_101)\ntag_103:\n    /* \"#utility.yul\":4760:4766   */\n  dup7\n    /* \"#utility.yul\":4751:4758   */\n  dup4\n    /* \"#utility.yul\":4748:4767   */\n  lt\n    /* \"#utility.yul\":4745:4924   */\n  iszero\n  tag_104\n  jumpi\n    /* \"#utility.yul\":4818:4827   */\n  dup5\n    /* \"#utility.yul\":4813:4816   */\n  dup10\n    /* \"#utility.yul\":4809:4828   */\n  add\n    /* \"#utility.yul\":4803:4829   */\n  mload\n    /* \"#utility.yul\":4861:4909   */\n  tag_105\n    /* \"#utility.yul\":4903:4907   */\n  0x1f\n    /* \"#utility.yul\":4895:4901   */\n  dup10\n    /* \"#utility.yul\":4891:4908   */\n  and\n    /* \"#utility.yul\":4880:4889   */\n  dup3\n    /* \"#utility.yul\":4861:4909   */\n  tag_38\n  jump\t// in\ntag_105:\n    /* \"#utility.yul\":4853:4859   */\n  dup4\n    /* \"#utility.yul\":4846:4910   */\n  sstore\n    /* \"#utility.yul\":4768:4924   */\n  pop\n    /* \"#utility.yul\":4745:4924   */\ntag_104:\n    /* \"#utility.yul\":4970:4971   */\n  0x01\n    /* \"#utility.yul\":4966:4967   */\n  0x02\n    /* \"#utility.yul\":4958:4964   */\n  dup9\n    /* \"#utility.yul\":4954:4968   */\n  mul\n    /* \"#utility.yul\":4950:4972   */\n  add\n    /* \"#utility.yul\":4944:4948   */\n  dup9\n    /* \"#utility.yul\":4937:4973   */\n  sstore\n    /* \"#utility.yul\":4372:4983   */\n  pop\n  pop\n  pop\n    /* \"#utility.yul\":4335:5222   */\ntag_96:\n  pop\n    /* \"#utility.yul\":3925:5228   */\n  pop\n  pop\n  pop\n    /* \"#utility.yul\":3833:5228   */\n  pop\n  pop\n  jump\t// out\n    /* \"#utility.yul\":5234:5414   */\ntag_40:\n    /* \"#utility.yul\":5282:5359   */\n  0x4e487b7100000000000000000000000000000000000000000000000000000000\n    /* \"#utility.yul\":5279:5280   */\n  0x00\n    /* \"#utility.yul\":5272:5360   */\n  mstore\n    /* \"#utility.yul\":5379:5383   */\n  0x11\n    /* \"#utility.yul\":5376:5377   */\n  0x04\n    /* \"#utility.yul\":5369:5384   */\n  mstore\n    /* \"#utility.yul\":5403:5407   */\n  0x24\n    /* \"#utility.yul\":5400:5401   */\n  0x00\n    /* \"#utility.yul\":5393:5408   */\n  revert\n    /* \"#utility.yul\":5420:5522   */\ntag_41:\n    /* \"#utility.yul\":5462:5470   */\n  0x00\n    /* \"#utility.yul\":5509:5514   */\n  dup2\n    /* \"#utility.yul\":5506:5507   */\n  0x01\n    /* \"#utility.yul\":5502:5515   */\n  shr\n    /* \"#utility.yul\":5481:5515   */\n  swap1\n  pop\n    /* \"#utility.yul\":5420:5522   */\n  swap2\n  swap1\n  pop\n  jump\t// out\n    /* \"#utility.yul\":5528:6376   */\ntag_42:\n    /* \"#utility.yul\":5589:5594   */\n  0x00\n    /* \"#utility.yul\":5596:5600   */\n  dup1\n    /* \"#utility.yul\":5620:5626   */\n  dup3\n    /* \"#utility.yul\":5611:5626   */\n  swap2\n  pop\n    /* \"#utility.yul\":5644:5649   */\n  dup4\n    /* \"#utility.yul\":5635:5649   */\n  swap1\n  pop\n    /* \"#utility.yul\":5658:6370   */\ntag_109:\n    /* \"#utility.yul\":5679:5680   */\n  0x01\n    /* \"#utility.yul\":5669:5677   */\n  dup6\n    /* \"#utility.yul\":5666:5681   */\n  gt\n    /* \"#utility.yul\":5658:6370   */\n  iszero\n  tag_111\n  jumpi\n    /* \"#utility.yul\":5774:5778   */\n  dup1\n    /* \"#utility.yul\":5769:5772   */\n  dup7\n    /* \"#utility.yul\":5765:5779   */\n  div\n    /* \"#utility.yul\":5759:5763   */\n  dup2\n    /* \"#utility.yul\":5756:5780   */\n  gt\n    /* \"#utility.yul\":5753:5803   */\n  iszero\n  tag_112\n  jumpi\n    /* \"#utility.yul\":5783:5801   */\n  tag_113\n  tag_40\n  jump\t// in\ntag_113:\n    /* \"#utility.yul\":5753:5803   */\ntag_112:\n    /* \"#utility.yul\":5833:5834   */\n  0x01\n    /* \"#utility.yul\":5823:5831   */\n  dup6\n    /* \"#utility.yul\":5819:5835   */\n  and\n    /* \"#utility.yul\":5816:6267   */\n  iszero\n  tag_114\n  jumpi\n    /* \"#utility.yul\":6248:6252   */\n  dup1\n    /* \"#utility.yul\":6241:6246   */\n  dup3\n    /* \"#utility.yul\":6237:6253   */\n  mul\n    /* \"#utility.yul\":6228:6253   */\n  swap2\n  pop\n    /* \"#utility.yul\":5816:6267   */\ntag_114:\n    /* \"#utility.yul\":6298:6302   */\n  dup1\n    /* \"#utility.yul\":6292:6296   */\n  dup2\n    /* \"#utility.yul\":6288:6303   */\n  mul\n    /* \"#utility.yul\":6280:6303   */\n  swap1\n  pop\n    /* \"#utility.yul\":6328:6360   */\n  tag_115\n    /* \"#utility.yul\":6351:6359   */\n  dup6\n    /* \"#utility.yul\":6328:6360   */\n  tag_41\n  jump\t// in\ntag_115:\n    /* \"#utility.yul\":6316:6360   */\n  swap5\n  pop\n    /* \"#utility.yul\":5658:6370   */\n  jump(tag_109)\ntag_111:\n    /* \"#utility.yul\":5528:6376   */\n  swap5\n  pop\n  swap5\n  swap3\n  pop\n  pop\n  pop\n  jump\t// out\n    /* \"#utility.yul\":6382:7455   */\ntag_43:\n    /* \"#utility.yul\":6436:6441   */\n  0x00\n    /* \"#utility.yul\":6627:6635   */\n  dup3\n    /* \"#utility.yul\":6617:6657   */\n  tag_117\n  jumpi\n    /* \"#utility.yul\":6648:6649   */\n  0x01\n    /* \"#utility.yul\":6639:6649   */\n  swap1\n  pop\n    /* \"#utility.yul\":6650:6655   */\n  jump(tag_116)\n    /* \"#utility.yul\":6617:6657   */\ntag_117:\n    /* \"#utility.yul\":6676:6680   */\n  dup2\n    /* \"#utility.yul\":6666:6702   */\n  tag_118\n  jumpi\n    /* \"#utility.yul\":6693:6694   */\n  0x00\n    /* \"#utility.yul\":6684:6694   */\n  swap1\n  pop\n    /* \"#utility.yul\":6695:6700   */\n  jump(tag_116)\n    /* \"#utility.yul\":6666:6702   */\ntag_118:\n    /* \"#utility.yul\":6762:6766   */\n  dup2\n    /* \"#utility.yul\":6810:6811   */\n  0x01\n    /* \"#utility.yul\":6805:6832   */\n  dup2\n  eq\n  tag_120\n  jumpi\n    /* \"#utility.yul\":6846:6847   */\n  0x02\n    /* \"#utility.yul\":6841:7032   */\n  dup2\n  eq\n  tag_121\n  jumpi\n    /* \"#utility.yul\":6755:7032   */\n  jump(tag_119)\n    /* \"#utility.yul\":6805:6832   */\ntag_120:\n    /* \"#utility.yul\":6823:6824   */\n  0x01\n    /* \"#utility.yul\":6814:6824   */\n  swap2\n  pop\n    /* \"#utility.yul\":6825:6830   */\n  pop\n  jump(tag_116)\n    /* \"#utility.yul\":6841:7032   */\ntag_121:\n    /* \"#utility.yul\":6886:6889   */\n  0xff\n    /* \"#utility.yul\":6876:6884   */\n  dup5\n    /* \"#utility.yul\":6873:6890   */\n  gt\n    /* \"#utility.yul\":6870:6913   */\n  iszero\n  tag_122\n  jumpi\n    /* \"#utility.yul\":6893:6911   */\n  tag_123\n  tag_40\n  jump\t// in\ntag_123:\n    /* \"#utility.yul\":6870:6913   */\ntag_122:\n    /* \"#utility.yul\":6942:6950   */\n  dup4\n    /* \"#utility.yul\":6939:6940   */\n  0x02\n    /* \"#utility.yul\":6935:6951   */\n  exp\n    /* \"#utility.yul\":6926:6951   */\n  swap2\n  pop\n    /* \"#utility.yul\":6977:6980   */\n  dup5\n    /* \"#utility.yul\":6970:6975   */\n  dup3\n    /* \"#utility.yul\":6967:6981   */\n  gt\n    /* \"#utility.yul\":6964:7004   */\n  iszero\n  tag_124\n  jumpi\n    /* \"#utility.yul\":6984:7002   */\n  tag_125\n  tag_40\n  jump\t// in\ntag_125:\n    /* \"#utility.yul\":6964:7004   */\ntag_124:\n    /* \"#utility.yul\":7017:7022   */\n  pop\n  jump(tag_116)\n    /* \"#utility.yul\":6755:7032   */\ntag_119:\n  pop\n    /* \"#utility.yul\":7141:7143   */\n  0x20\n    /* \"#utility.yul\":7131:7139   */\n  dup4\n    /* \"#utility.yul\":7128:7144   */\n  lt\n    /* \"#utility.yul\":7122:7125   */\n  0x0133\n    /* \"#utility.yul\":7116:7120   */\n  dup4\n    /* \"#utility.yul\":7113:7126   */\n  lt\n    /* \"#utility.yul\":7109:7145   */\n  and\n    /* \"#utility.yul\":7091:7093   */\n  0x4e\n    /* \"#utility.yul\":7081:7089   */\n  dup5\n    /* \"#utility.yul\":7078:7094   */\n  lt\n    /* \"#utility.yul\":7073:7075   */\n  0x0b\n    /* \"#utility.yul\":7067:7071   */\n  dup5\n    /* \"#utility.yul\":7064:7076   */\n  lt\n    /* \"#utility.yul\":7060:7095   */\n  and\n    /* \"#utility.yul\":7044:7155   */\n  or\n    /* \"#utility.yul\":7041:7287   */\n  iszero\n  tag_126\n  jumpi\n    /* \"#utility.yul\":7197:7205   */\n  dup3\n    /* \"#utility.yul\":7191:7195   */\n  dup3\n    /* \"#utility.yul\":7187:7206   */\n  exp\n    /* \"#utility.yul\":7178:7206   */\n  swap1\n  pop\n    /* \"#utility.yul\":7232:7235   */\n  dup4\n    /* \"#utility.yul\":7225:7230   */\n  dup2\n    /* \"#utility.yul\":7222:7236   */\n  gt\n    /* \"#utility.yul\":7219:7259   */\n  iszero\n  tag_127\n  jumpi\n    /* \"#utility.yul\":7239:7257   */\n  tag_128\n  tag_40\n  jump\t// in\ntag_128:\n    /* \"#utility.yul\":7219:7259   */\ntag_127:\n    /* \"#utility.yul\":7272:7277   */\n  jump(tag_116)\n    /* \"#utility.yul\":7041:7287   */\ntag_126:\n    /* \"#utility.yul\":7312:7354   */\n  tag_129\n    /* \"#utility.yul\":7350:7353   */\n  dup5\n    /* \"#utility.yul\":7340:7348   */\n  dup5\n    /* \"#utility.yul\":7334:7338   */\n  dup5\n    /* \"#utility.yul\":7331:7332   */\n  0x01\n    /* \"#utility.yul\":7312:7354   */\n  tag_42\n  jump\t// in\ntag_129:\n    /* \"#utility.yul\":7297:7354   */\n  swap3\n  pop\n  swap1\n  pop\n    /* \"#utility.yul\":7386:7390   */\n  dup2\n    /* \"#utility.yul\":7381:7384   */\n  dup5\n    /* \"#utility.yul\":7377:7391   */\n  div\n    /* \"#utility.yul\":7370:7375   */\n  dup2\n    /* \"#utility.yul\":7367:7392   */\n  gt\n    /* \"#utility.yul\":7364:7415   */\n  iszero\n  tag_130\n  jumpi\n    /* \"#utility.yul\":7395:7413   */\n  tag_131\n  tag_40\n  jump\t// in\ntag_131:\n    /* \"#utility.yul\":7364:7415   */\ntag_130:\n    /* \"#utility.yul\":7444:7448   */\n  dup2\n    /* \"#utility.yul\":7437:7442   */\n  dup2\n    /* \"#utility.yul\":7433:7449   */\n  mul\n    /* \"#utility.yul\":7424:7449   */\n  swap1\n  pop\n    /* \"#utility.yul\":6382:7455   */\ntag_116:\n  swap4\n  swap3\n  pop\n  pop\n  pop\n  jump\t// out\n    /* \"#utility.yul\":7461:7746   */\ntag_10:\n    /* \"#utility.yul\":7521:7526   */\n  0x00\n    /* \"#utility.yul\":7545:7568   */\n  tag_133\n    /* \"#utility.yul\":7563:7567   */\n  dup3\n    /* \"#utility.yul\":7545:7568   */\n  tag_28\n  jump\t// in\ntag_133:\n    /* \"#utility.yul\":7537:7568   */\n  swap2\n  pop\n    /* \"#utility.yul\":7589:7616   */\n  tag_134\n    /* \"#utility.yul\":7607:7615   */\n  dup4\n    /* \"#utility.yul\":7589:7616   */\n  tag_28\n  jump\t// in\ntag_134:\n    /* \"#utility.yul\":7577:7616   */\n  swap3\n  pop\n    /* \"#utility.yul\":7635:7739   */\n  tag_135\n    /* \"#utility.yul\":7672:7738   */\n  0xffffffffffffffffffffffffffffffffffffffffffffffffffffffffffffffff\n    /* \"#utility.yul\":7662:7670   */\n  dup5\n    /* \"#utility.yul\":7656:7660   */\n  dup5\n    /* \"#utility.yul\":7635:7739   */\n  tag_43\n  jump\t// in\ntag_135:\n    /* \"#utility.yul\":7626:7739   */\n  swap1\n  pop\n    /* \"#utility.yul\":7461:7746   */\n  swap3\n  swap2\n  pop\n  pop\n  jump\t// out\n    /* \"#utility.yul\":7752:8162   */\ntag_12:\n    /* \"#utility.yul\":7792:7799   */\n  0x00\n    /* \"#utility.yul\":7815:7835   */\n  tag_137\n    /* \"#utility.yul\":7833:7834   */\n  dup3\n    /* \"#utility.yul\":7815:7835   */\n  tag_28\n  jump\t// in\ntag_137:\n    /* \"#utility.yul\":7810:7835   */\n  swap2\n  pop\n    /* \"#utility.yul\":7849:7869   */\n  tag_138\n    /* \"#utility.yul\":7867:7868   */\n  dup4\n    /* \"#utility.yul\":7849:7869   */\n  tag_28\n  jump\t// in\ntag_138:\n    /* \"#utility.yul\":7844:7869   */\n  swap3\n  pop\n    /* \"#utility.yul\":7904:7905   */\n  dup3\n    /* \"#utility.yul\":7901:7902   */\n  dup3\n    /* \"#utility.yul\":7897:7906   */\n  mul\n    /* \"#utility.yul\":7926:7956   */\n  tag_139\n    /* \"#utility.yul\":7944:7955   */\n  dup2\n    /* \"#utility.yul\":7926:7956   */\n  tag_28\n  jump\t// in\ntag_139:\n    /* \"#utility.yul\":7915:7956   */\n  swap2\n  pop\n    /* \"#utility.yul\":8105:8106   */\n  dup3\n    /* \"#utility.yul\":8096:8103   */\n  dup3\n    /* \"#utility.yul\":8092:8107   */\n  div\n    /* \"#utility.yul\":8089:8090   */\n  dup5\n    /* \"#utility.yul\":8086:8108   */\n  eq\n    /* \"#utility.yul\":8066:8067   */\n  dup4\n    /* \"#utility.yul\":8059:8068   */\n  iszero\n    /* \"#utility.yul\":8039:8122   */\n  or\n    /* \"#utility.yul\":8016:8155   */\n  tag_140\n  jumpi\n    /* \"#utility.yul\":8135:8153   */\n  tag_141\n  tag_40\n  jump\t// in\ntag_141:\n    /* \"#utility.yul\":8016:8155   */\ntag_140:\n    /* \"#utility.yul\":7800:8162   */\n  pop\n    /* \"#utility.yul\":7752:8162   */\n  swap3\n  swap2\n  pop\n  pop\n  jump\t// out\n    /* \"#utility.yul\":8168:8359   */\ntag_18:\n    /* \"#utility.yul\":8208:8211   */\n  0x00\n    /* \"#utility.yul\":8227:8247   */\n  tag_143\n    /* \"#utility.yul\":8245:8246   */\n  dup3\n    /* \"#utility.yul\":8227:8247   */\n  tag_28\n  jump\t// in\ntag_143:\n    /* \"#utility.yul\":8222:8247   */\n  swap2\n  pop\n    /* \"#utility.yul\":8261:8281   */\n  tag_144\n    /* \"#utility.yul\":8279:8280   */\n  dup4\n    /* \"#utility.yul\":8261:8281   */\n  tag_28\n  jump\t// in\ntag_144:\n    /* \"#utility.yul\":8256:8281   */\n  swap3\n  pop\n    /* \"#utility.yul\":8304:8305   */\n  dup3\n    /* \"#utility.yul\":8301:8302   */\n  dup3\n    /* \"#utility.yul\":8297:8306   */\n  add\n    /* \"#utility.yul\":8290:8306   */\n  swap1\n  pop\n    /* \"#utility.yul\":8325:8328   */\n  dup1\n    /* \"#utility.yul\":8322:8323   */\n  dup3\n    /* \"#utility.yul\":8319:8329   */\n  gt\n    /* \"#utility.yul\":8316:8352   */\n  iszero\n  tag_145\n  jumpi\n    /* \"#utility.yul\":8332:8350   */\n  tag_146\n  tag_40\n  jump\t// in\ntag_146:\n    /* \"#utility.yul\":8316:8352   */\ntag_145:\n    /* \"#utility.yul\":8168:8359   */\n  swap3\n  swap2\n  pop\n  pop\n  jump\t// out\n    /* \"toy/gusdnr/contracts/store.sol\":1553:3927  contract Marketplace is ERC20 {... */\ntag_15:\n  dataSize(sub_0)\n  dup1\n  dataOffset(sub_0)\n  0x00\n  codecopy\n  0x00\n  return\nstop\n\nsub_0: assembly {\n        /* \"toy/gusdnr/contracts/store.sol\":1553:3927  contract Marketplace is ERC20 {... */\n      mstore(0x40, 0x80)\n      jumpi(tag_1, lt(calldatasize, 0x04))\n      shr(0xe0, calldataload(0x00))\n      dup1\n      0x43fdcd56\n      gt\n      tag_22\n      jumpi\n      dup1\n      0xa9059cbb\n      gt\n      tag_23\n      jumpi\n      dup1\n      0xa9059cbb\n      eq\n      tag_17\n      jumpi\n      dup1\n      0xcfaaef56\n      eq\n      tag_18\n      jumpi\n      dup1\n      0xd84ea06d\n      eq\n      tag_19\n      jumpi\n      dup1\n      0xdd62ed3e\n      eq\n      tag_20\n      jumpi\n      dup1\n      0xfc0c546a\n      eq\n      tag_21\n      jumpi\n      jump(tag_2)\n    tag_23:\n      dup1\n      0x43fdcd56\n      eq\n      tag_12\n      jumpi\n      dup1\n      0x70a08231\n      eq\n      tag_13\n      jumpi\n      dup1\n      0x8890fe98\n      eq\n      tag_14\n      jumpi\n      dup1\n      0x8c96091b\n      eq\n      tag_15\n      jumpi\n      dup1\n      0x95d89b41\n      eq\n      tag_16\n      jumpi\n      jump(tag_2)\n    tag_22:\n      dup1\n      0x27e235e3\n      gt\n      tag_24\n      jumpi\n      dup1\n      0x27e235e3\n      eq\n      tag_7\n      jumpi\n      dup1\n      0x313ce567\n      eq\n      tag_8\n      jumpi\n      dup1\n      0x38e76a03\n      eq\n      tag_9\n      jumpi\n      dup1\n      0x3d527883\n      eq\n      tag_10\n      jumpi\n      dup1\n      0x42966c68\n      eq\n      tag_11\n      jumpi\n      jump(tag_2)\n    tag_24:\n      dup1\n      0x06fdde03\n      eq\n      tag_3\n      jumpi\n      dup1\n      0x095ea7b3\n      eq\n      tag_4\n      jumpi\n      dup1\n      0x18160ddd\n      eq\n      tag_5\n      jumpi\n      dup1\n      0x23b872dd\n      eq\n      tag_6\n      jumpi\n      jump(tag_2)\n    tag_1:\n      jumpi(tag_2, calldatasize)\n        /* \"toy/gusdnr/contracts/ERC20.sol\":3416:3427  uint amount */\n      0x00\n        /* \"toy/gusdnr/contracts/ERC20.sol\":3441:3444  200 */\n      0xc8\n        /* \"toy/gusdnr/contracts/ERC20.sol\":3430:3439  msg.value */\n      callvalue\n        /* \"toy/gusdnr/contracts/ERC20.sol\":3430:3444  msg.value *200 */\n      tag_27\n      swap2\n      swap1\n      tag_28\n      jump\t// in\n    tag_27:\n        /* \"toy/gusdnr/contracts/ERC20.sol\":3416:3444  uint amount = msg.value *200 */\n      swap1\n      pop\n        /* \"toy/gusdnr/contracts/ERC20.sol\":3473:3479  amount */\n      dup1\n        /* \"toy/gusdnr/contracts/ERC20.sol\":3456:3464  balances */\n      0x05\n        /* \"toy/gusdnr/contracts/ERC20.sol\":3456:3471  balances[owner] */\n      0x00\n        /* \"toy/gusdnr/contracts/ERC20.sol\":3465:3470  owner */\n      0x04\n      0x00\n      swap1\n      sload\n      swap1\n      0x0100\n      exp\n      swap1\n      div\n      0xffffffffffffffffffffffffffffffffffffffff\n      and\n        /* \"toy/gusdnr/contracts/ERC20.sol\":3456:3471  balances[owner] */\n      0xffffffffffffffffffffffffffffffffffffffff\n      and\n      0xffffffffffffffffffffffffffffffffffffffff\n      and\n      dup2\n      mstore\n      0x20\n      add\n      swap1\n      dup2\n      mstore\n      0x20\n      add\n      0x00\n      keccak256\n      sload\n        /* \"toy/gusdnr/contracts/ERC20.sol\":3456:3479  balances[owner]>=amount */\n      lt\n      iszero\n        /* \"toy/gusdnr/contracts/ERC20.sol\":3448:3480  require(balances[owner]>=amount) */\n      tag_29\n      jumpi\n      0x00\n      dup1\n      revert\n    tag_29:\n        /* \"toy/gusdnr/contracts/ERC20.sol\":3502:3508  amount */\n      dup1\n        /* \"toy/gusdnr/contracts/ERC20.sol\":3484:3492  balances */\n      0x05\n        /* \"toy/gusdnr/contracts/ERC20.sol\":3484:3499  balances[owner] */\n      0x00\n        /* \"toy/gusdnr/contracts/ERC20.sol\":3493:3498  owner */\n      0x04\n      0x00\n      swap1\n      sload\n      swap1\n      0x0100\n      exp\n      swap1\n      div\n      0xffffffffffffffffffffffffffffffffffffffff\n      and\n        /* \"toy/gusdnr/contracts/ERC20.sol\":3484:3499  balances[owner] */\n      0xffffffffffffffffffffffffffffffffffffffff\n      and\n      0xffffffffffffffffffffffffffffffffffffffff\n      and\n      dup2\n      mstore\n      0x20\n      add\n      swap1\n      dup2\n      mstore\n      0x20\n      add\n      0x00\n      keccak256\n      0x00\n        /* \"toy/gusdnr/contracts/ERC20.sol\":3484:3508  balances[owner] -=amount */\n      dup3\n      dup3\n      sload\n      tag_30\n      swap2\n      swap1\n      tag_31\n      jump\t// in\n    tag_30:\n      swap3\n      pop\n      pop\n      dup2\n      swap1\n      sstore\n      pop\n        /* \"toy/gusdnr/contracts/ERC20.sol\":3535:3541  amount */\n      dup1\n        /* \"toy/gusdnr/contracts/ERC20.sol\":3512:3520  balances */\n      0x05\n        /* \"toy/gusdnr/contracts/ERC20.sol\":3512:3532  balances[msg.sender] */\n      0x00\n        /* \"toy/gusdnr/contracts/ERC20.sol\":3521:3531  msg.sender */\n      caller\n        /* \"toy/gusdnr/contracts/ERC20.sol\":3512:3532  balances[msg.sender] */\n      0xffffffffffffffffffffffffffffffffffffffff\n      and\n      0xffffffffffffffffffffffffffffffffffffffff\n      and\n      dup2\n      mstore\n      0x20\n      add\n      swap1\n      dup2\n      mstore\n      0x20\n      add\n      0x00\n      keccak256\n      0x00\n        /* \"toy/gusdnr/contracts/ERC20.sol\":3512:3541  balances[msg.sender] +=amount */\n      dup3\n      dup3\n      sload\n      tag_32\n      swap2\n      swap1\n      tag_33\n      jump\t// in\n    tag_32:\n      swap3\n      pop\n      pop\n      dup2\n      swap1\n      sstore\n      pop\n        /* \"toy/gusdnr/contracts/ERC20.sol\":3731:3736  owner */\n      0x04\n      0x00\n      swap1\n      sload\n      swap1\n      0x0100\n      exp\n      swap1\n      div\n      0xffffffffffffffffffffffffffffffffffffffff\n      and\n        /* \"toy/gusdnr/contracts/ERC20.sol\":3719:3736  msg.sender==owner */\n      0xffffffffffffffffffffffffffffffffffffffff\n      and\n        /* \"toy/gusdnr/contracts/ERC20.sol\":3719:3729  msg.sender */\n      caller\n        /* \"toy/gusdnr/contracts/ERC20.sol\":3719:3736  msg.sender==owner */\n      0xffffffffffffffffffffffffffffffffffffffff\n      and\n      sub\n        /* \"toy/gusdnr/contracts/ERC20.sol\":3716:3763  if(msg.sender==owner)... */\n      tag_34\n      jumpi\n        /* \"toy/gusdnr/contracts/ERC20.sol\":3746:3758  mint(amount) */\n      tag_35\n        /* \"toy/gusdnr/contracts/ERC20.sol\":3751:3757  amount */\n      dup2\n        /* \"toy/gusdnr/contracts/ERC20.sol\":3746:3750  mint */\n      tag_36\n        /* \"toy/gusdnr/contracts/ERC20.sol\":3746:3758  mint(amount) */\n      jump\t// in\n    tag_35:\n        /* \"toy/gusdnr/contracts/ERC20.sol\":3716:3763  if(msg.sender==owner)... */\n    tag_34:\n        /* \"toy/gusdnr/contracts/ERC20.sol\":3089:3765  {... */\n      stop\n        /* \"toy/gusdnr/contracts/store.sol\":1553:3927  contract Marketplace is ERC20 {... */\n    tag_2:\n      0x00\n      dup1\n      revert\n        /* \"toy/gusdnr/contracts/ERC20.sol\":299:317  string public name */\n    tag_3:\n      callvalue\n      dup1\n      iszero\n      tag_37\n      jumpi\n      0x00\n      dup1\n      revert\n    tag_37:\n      pop\n      tag_38\n      tag_39\n      jump\t// in\n    tag_38:\n      mload(0x40)\n      tag_40\n      swap2\n      swap1\n      tag_41\n      jump\t// in\n    tag_40:\n      mload(0x40)\n      dup1\n      swap2\n      sub\n      swap1\n      return\n        /* \"toy/gusdnr/contracts/ERC20.sol\":4473:4812  function approve(... */\n    tag_4:\n      callvalue\n      dup1\n      iszero\n      tag_42\n      jumpi\n      0x00\n      dup1\n      revert\n    tag_42:\n      pop\n      tag_43\n      0x04\n      dup1\n      calldatasize\n      sub\n      dup2\n      add\n      swap1\n      tag_44\n      swap2\n      swap1\n      tag_45\n      jump\t// in\n    tag_44:\n      tag_46\n      jump\t// in\n    tag_43:\n      mload(0x40)\n      tag_47\n      swap2\n      swap1\n      tag_48\n      jump\t// in\n    tag_47:\n      mload(0x40)\n      dup1\n      swap2\n      sub\n      swap1\n      return\n        /* \"toy/gusdnr/contracts/ERC20.sol\":770:802  uint public override totalSupply */\n    tag_5:\n      callvalue\n      dup1\n      iszero\n      tag_49\n      jumpi\n      0x00\n      dup1\n      revert\n    tag_49:\n      pop\n      tag_50\n      tag_51\n      jump\t// in\n    tag_50:\n      mload(0x40)\n      tag_52\n      swap2\n      swap1\n      tag_53\n      jump\t// in\n    tag_52:\n      mload(0x40)\n      dup1\n      swap2\n      sub\n      swap1\n      return\n        /* \"toy/gusdnr/contracts/ERC20.sol\":4903:5325  function transferFrom(... */\n    tag_6:\n      callvalue\n      dup1\n      iszero\n      tag_54\n      jumpi\n      0x00\n      dup1\n      revert\n    tag_54:\n      pop\n      tag_55\n      0x04\n      dup1\n      calldatasize\n      sub\n      dup2\n      add\n      swap1\n      tag_56\n      swap2\n      swap1\n      tag_57\n      jump\t// in\n    tag_56:\n      tag_58\n      jump\t// in\n    tag_55:\n      mload(0x40)\n      tag_59\n      swap2\n      swap1\n      tag_48\n      jump\t// in\n    tag_59:\n      mload(0x40)\n      dup1\n      swap2\n      sub\n      swap1\n      return\n        /* \"toy/gusdnr/contracts/ERC20.sol\":1977:2017  mapping(address => uint) public balances */\n    tag_7:\n      callvalue\n      dup1\n      iszero\n      tag_60\n      jumpi\n      0x00\n      dup1\n      revert\n    tag_60:\n      pop\n      tag_61\n      0x04\n      dup1\n      calldatasize\n      sub\n      dup2\n      add\n      swap1\n      tag_62\n      swap2\n      swap1\n      tag_63\n      jump\t// in\n    tag_62:\n      tag_64\n      jump\t// in\n    tag_61:\n      mload(0x40)\n      tag_65\n      swap2\n      swap1\n      tag_53\n      jump\t// in\n    tag_65:\n      mload(0x40)\n      dup1\n      swap2\n      sub\n      swap1\n      return\n        /* \"toy/gusdnr/contracts/ERC20.sol\":480:506  uint8 public decimals = 18 */\n    tag_8:\n      callvalue\n      dup1\n      iszero\n      tag_66\n      jumpi\n      0x00\n      dup1\n      revert\n    tag_66:\n      pop\n      tag_67\n      tag_68\n      jump\t// in\n    tag_67:\n      mload(0x40)\n      tag_69\n      swap2\n      swap1\n      tag_70\n      jump\t// in\n    tag_69:\n      mload(0x40)\n      dup1\n      swap2\n      sub\n      swap1\n      return\n        /* \"toy/gusdnr/contracts/store.sol\":3227:3925  function purchaseProduct(uint256 productId) public {... */\n    tag_9:\n      callvalue\n      dup1\n      iszero\n      tag_71\n      jumpi\n      0x00\n      dup1\n      revert\n    tag_71:\n      pop\n      tag_72\n      0x04\n      dup1\n      calldatasize\n      sub\n      dup2\n      add\n      swap1\n      tag_73\n      swap2\n      swap1\n      tag_74\n      jump\t// in\n    tag_73:\n      tag_75\n      jump\t// in\n    tag_72:\n      stop\n        /* \"toy/gusdnr/contracts/store.sol\":1785:1834  mapping(address => Product[]) public userProducts */\n    tag_10:\n      callvalue\n      dup1\n      iszero\n      tag_76\n      jumpi\n      0x00\n      dup1\n      revert\n    tag_76:\n      pop\n      tag_77\n      0x04\n      dup1\n      calldatasize\n      sub\n      dup2\n      add\n      swap1\n      tag_78\n      swap2\n      swap1\n      tag_45\n      jump\t// in\n    tag_78:\n      tag_79\n      jump\t// in\n    tag_77:\n      mload(0x40)\n      tag_80\n      swap5\n      swap4\n      swap3\n      swap2\n      swap1\n      tag_81\n      jump\t// in\n    tag_80:\n      mload(0x40)\n      dup1\n      swap2\n      sub\n      swap1\n      return\n        /* \"toy/gusdnr/contracts/ERC20.sol\":5692:5806  function burn(uint amount) external {... */\n    tag_11:\n      callvalue\n      dup1\n      iszero\n      tag_82\n      jumpi\n      0x00\n      dup1\n      revert\n    tag_82:\n      pop\n      tag_83\n      0x04\n      dup1\n      calldatasize\n      sub\n      dup2\n      add\n      swap1\n      tag_84\n      swap2\n      swap1\n      tag_74\n      jump\t// in\n    tag_84:\n      tag_85\n      jump\t// in\n    tag_83:\n      stop\n        /* \"toy/gusdnr/contracts/store.sol\":2159:2437  function showAllUserProducts() public view returns (Product[] memory) {... */\n    tag_12:\n      callvalue\n      dup1\n      iszero\n      tag_86\n      jumpi\n      0x00\n      dup1\n      revert\n    tag_86:\n      pop\n      tag_87\n      tag_88\n      jump\t// in\n    tag_87:\n      mload(0x40)\n      tag_89\n      swap2\n      swap1\n      tag_90\n      jump\t// in\n    tag_89:\n      mload(0x40)\n      dup1\n      swap2\n      sub\n      swap1\n      return\n        /* \"toy/gusdnr/contracts/ERC20.sol\":2948:3063  function balanceOf(address account) external view override returns (uint) {... */\n    tag_13:\n      callvalue\n      dup1\n      iszero\n      tag_91\n      jumpi\n      0x00\n      dup1\n      revert\n    tag_91:\n      pop\n      tag_92\n      0x04\n      dup1\n      calldatasize\n      sub\n      dup2\n      add\n      swap1\n      tag_93\n      swap2\n      swap1\n      tag_63\n      jump\t// in\n    tag_93:\n      tag_94\n      jump\t// in\n    tag_92:\n      mload(0x40)\n      tag_95\n      swap2\n      swap1\n      tag_53\n      jump\t// in\n    tag_95:\n      mload(0x40)\n      dup1\n      swap2\n      sub\n      swap1\n      return\n        /* \"toy/gusdnr/contracts/store.sol\":2923:3200  function listProduct(uint256 productId) public {... */\n    tag_14:\n      callvalue\n      dup1\n      iszero\n      tag_96\n      jumpi\n      0x00\n      dup1\n      revert\n    tag_96:\n      pop\n      tag_97\n      0x04\n      dup1\n      calldatasize\n      sub\n      dup2\n      add\n      swap1\n      tag_98\n      swap2\n      swap1\n      tag_74\n      jump\t// in\n    tag_98:\n      tag_99\n      jump\t// in\n    tag_97:\n      stop\n        /* \"toy/gusdnr/contracts/store.sol\":2464:2889  function registerProduct(string memory name, uint256 price) public {... */\n    tag_15:\n      callvalue\n      dup1\n      iszero\n      tag_100\n      jumpi\n      0x00\n      dup1\n      revert\n    tag_100:\n      pop\n      tag_101\n      0x04\n      dup1\n      calldatasize\n      sub\n      dup2\n      add\n      swap1\n      tag_102\n      swap2\n      swap1\n      tag_103\n      jump\t// in\n    tag_102:\n      tag_104\n      jump\t// in\n    tag_101:\n      stop\n        /* \"toy/gusdnr/contracts/ERC20.sol\":383:403  string public symbol */\n    tag_16:\n      callvalue\n      dup1\n      iszero\n      tag_105\n      jumpi\n      0x00\n      dup1\n      revert\n    tag_105:\n      pop\n      tag_106\n      tag_107\n      jump\t// in\n    tag_106:\n      mload(0x40)\n      tag_108\n      swap2\n      swap1\n      tag_41\n      jump\t// in\n    tag_108:\n      mload(0x40)\n      dup1\n      swap2\n      sub\n      swap1\n      return\n        /* \"toy/gusdnr/contracts/ERC20.sol\":3827:4417  function transfer(... */\n    tag_17:\n      callvalue\n      dup1\n      iszero\n      tag_109\n      jumpi\n      0x00\n      dup1\n      revert\n    tag_109:\n      pop\n      tag_110\n      0x04\n      dup1\n      calldatasize\n      sub\n      dup2\n      add\n      swap1\n      tag_111\n      swap2\n      swap1\n      tag_45\n      jump\t// in\n    tag_111:\n      tag_112\n      jump\t// in\n    tag_110:\n      mload(0x40)\n      tag_113\n      swap2\n      swap1\n      tag_48\n      jump\t// in\n    tag_113:\n      mload(0x40)\n      dup1\n      swap2\n      sub\n      swap1\n      return\n        /* \"toy/gusdnr/contracts/store.sol\":1706:1734  Product[] public allProducts */\n    tag_18:\n      callvalue\n      dup1\n      iszero\n      tag_114\n      jumpi\n      0x00\n      dup1\n      revert\n    tag_114:\n      pop\n      tag_115\n      0x04\n      dup1\n      calldatasize\n      sub\n      dup2\n      add\n      swap1\n      tag_116\n      swap2\n      swap1\n      tag_74\n      jump\t// in\n    tag_116:\n      tag_117\n      jump\t// in\n    tag_115:\n      mload(0x40)\n      tag_118\n      swap5\n      swap4\n      swap3\n      swap2\n      swap1\n      tag_81\n      jump\t// in\n    tag_118:\n      mload(0x40)\n      dup1\n      swap2\n      sub\n      swap1\n      return\n        /* \"toy/gusdnr/contracts/store.sol\":1840:1890  mapping(uint256 => Product) public forSaleProducts */\n    tag_19:\n      callvalue\n      dup1\n      iszero\n      tag_119\n      jumpi\n      0x00\n      dup1\n      revert\n    tag_119:\n      pop\n      tag_120\n      0x04\n      dup1\n      calldatasize\n      sub\n      dup2\n      add\n      swap1\n      tag_121\n      swap2\n      swap1\n      tag_74\n      jump\t// in\n    tag_121:\n      tag_122\n      jump\t// in\n    tag_120:\n      mload(0x40)\n      tag_123\n      swap5\n      swap4\n      swap3\n      swap2\n      swap1\n      tag_81\n      jump\t// in\n    tag_123:\n      mload(0x40)\n      dup1\n      swap2\n      sub\n      swap1\n      return\n        /* \"toy/gusdnr/contracts/ERC20.sol\":2342:2412  mapping(address => mapping(address => uint)) public override allowance */\n    tag_20:\n      callvalue\n      dup1\n      iszero\n      tag_124\n      jumpi\n      0x00\n      dup1\n      revert\n    tag_124:\n      pop\n      tag_125\n      0x04\n      dup1\n      calldatasize\n      sub\n      dup2\n      add\n      swap1\n      tag_126\n      swap2\n      swap1\n      tag_127\n      jump\t// in\n    tag_126:\n      tag_128\n      jump\t// in\n    tag_125:\n      mload(0x40)\n      tag_129\n      swap2\n      swap1\n      tag_53\n      jump\t// in\n    tag_129:\n      mload(0x40)\n      dup1\n      swap2\n      sub\n      swap1\n      return\n        /* \"toy/gusdnr/contracts/store.sol\":1897:1915  ERC20 public token */\n    tag_21:\n      callvalue\n      dup1\n      iszero\n      tag_130\n      jumpi\n      0x00\n      dup1\n      revert\n    tag_130:\n      pop\n      tag_131\n      tag_132\n      jump\t// in\n    tag_131:\n      mload(0x40)\n      tag_133\n      swap2\n      swap1\n      tag_134\n      jump\t// in\n    tag_133:\n      mload(0x40)\n      dup1\n      swap2\n      sub\n      swap1\n      return\n        /* \"toy/gusdnr/contracts/ERC20.sol\":5433:5547  function mint(uint amount) internal {... */\n    tag_36:\n        /* \"toy/gusdnr/contracts/ERC20.sol\":5503:5509  amount */\n      dup1\n        /* \"toy/gusdnr/contracts/ERC20.sol\":5479:5487  balances */\n      0x05\n        /* \"toy/gusdnr/contracts/ERC20.sol\":5479:5499  balances[msg.sender] */\n      0x00\n        /* \"toy/gusdnr/contracts/ERC20.sol\":5488:5498  msg.sender */\n      caller\n        /* \"toy/gusdnr/contracts/ERC20.sol\":5479:5499  balances[msg.sender] */\n      0xffffffffffffffffffffffffffffffffffffffff\n      and\n      0xffffffffffffffffffffffffffffffffffffffff\n      and\n      dup2\n      mstore\n      0x20\n      add\n      swap1\n      dup2\n      mstore\n      0x20\n      add\n      0x00\n      keccak256\n      0x00\n        /* \"toy/gusdnr/contracts/ERC20.sol\":5479:5509  balances[msg.sender] += amount */\n      dup3\n      dup3\n      sload\n      tag_136\n      swap2\n      swap1\n      tag_33\n      jump\t// in\n    tag_136:\n      swap3\n      pop\n      pop\n      dup2\n      swap1\n      sstore\n      pop\n        /* \"toy/gusdnr/contracts/ERC20.sol\":5534:5540  amount */\n      dup1\n        /* \"toy/gusdnr/contracts/ERC20.sol\":5519:5530  totalSupply */\n      0x03\n      0x00\n        /* \"toy/gusdnr/contracts/ERC20.sol\":5519:5540  totalSupply += amount */\n      dup3\n      dup3\n      sload\n      tag_137\n      swap2\n      swap1\n      tag_33\n      jump\t// in\n    tag_137:\n      swap3\n      pop\n      pop\n      dup2\n      swap1\n      sstore\n      pop\n        /* \"toy/gusdnr/contracts/ERC20.sol\":5433:5547  function mint(uint amount) internal {... */\n      pop\n      jump\t// out\n        /* \"toy/gusdnr/contracts/ERC20.sol\":299:317  string public name */\n    tag_39:\n      0x00\n      dup1\n      sload\n      tag_138\n      swap1\n      tag_139\n      jump\t// in\n    tag_138:\n      dup1\n      0x1f\n      add\n      0x20\n      dup1\n      swap2\n      div\n      mul\n      0x20\n      add\n      mload(0x40)\n      swap1\n      dup2\n      add\n      0x40\n      mstore\n      dup1\n      swap3\n      swap2\n      swap1\n      dup2\n      dup2\n      mstore\n      0x20\n      add\n      dup3\n      dup1\n      sload\n      tag_140\n      swap1\n      tag_139\n      jump\t// in\n    tag_140:\n      dup1\n      iszero\n      tag_141\n      jumpi\n      dup1\n      0x1f\n      lt\n      tag_142\n      jumpi\n      0x0100\n      dup1\n      dup4\n      sload\n      div\n      mul\n      dup4\n      mstore\n      swap2\n      0x20\n      add\n      swap2\n      jump(tag_141)\n    tag_142:\n      dup3\n      add\n      swap2\n      swap1\n      0x00\n      mstore\n      keccak256(0x00, 0x20)\n      swap1\n    tag_143:\n      dup2\n      sload\n      dup2\n      mstore\n      swap1\n      0x01\n      add\n      swap1\n      0x20\n      add\n      dup1\n      dup4\n      gt\n      tag_143\n      jumpi\n      dup3\n      swap1\n      sub\n      0x1f\n      and\n      dup3\n      add\n      swap2\n    tag_141:\n      pop\n      pop\n      pop\n      pop\n      pop\n      dup2\n      jump\t// out\n        /* \"toy/gusdnr/contracts/ERC20.sol\":4473:4812  function approve(... */\n    tag_46:\n        /* \"toy/gusdnr/contracts/ERC20.sol\":4569:4573  bool */\n      0x00\n        /* \"toy/gusdnr/contracts/ERC20.sol\":4649:4655  amount */\n      dup2\n        /* \"toy/gusdnr/contracts/ERC20.sol\":4616:4625  allowance */\n      0x06\n        /* \"toy/gusdnr/contracts/ERC20.sol\":4616:4637  allowance[msg.sender] */\n      0x00\n        /* \"toy/gusdnr/contracts/ERC20.sol\":4626:4636  msg.sender */\n      caller\n        /* \"toy/gusdnr/contracts/ERC20.sol\":4616:4637  allowance[msg.sender] */\n      0xffffffffffffffffffffffffffffffffffffffff\n      and\n      0xffffffffffffffffffffffffffffffffffffffff\n      and\n      dup2\n      mstore\n      0x20\n      add\n      swap1\n      dup2\n      mstore\n      0x20\n      add\n      0x00\n      keccak256\n        /* \"toy/gusdnr/contracts/ERC20.sol\":4616:4646  allowance[msg.sender][spender] */\n      0x00\n        /* \"toy/gusdnr/contracts/ERC20.sol\":4638:4645  spender */\n      dup6\n        /* \"toy/gusdnr/contracts/ERC20.sol\":4616:4646  allowance[msg.sender][spender] */\n      0xffffffffffffffffffffffffffffffffffffffff\n      and\n      0xffffffffffffffffffffffffffffffffffffffff\n      and\n      dup2\n      mstore\n      0x20\n      add\n      swap1\n      dup2\n      mstore\n      0x20\n      add\n      0x00\n      keccak256\n        /* \"toy/gusdnr/contracts/ERC20.sol\":4616:4655  allowance[msg.sender][spender] = amount */\n      dup2\n      swap1\n      sstore\n      pop\n        /* \"toy/gusdnr/contracts/ERC20.sol\":4670:4707  Approval(msg.sender, spender, amount) */\n      0x8c5be1e5ebec7d5bd14f71427d1e84f3dd0314c0f7b2291e5b200ac8c7c3b925\n        /* \"toy/gusdnr/contracts/ERC20.sol\":4679:4689  msg.sender */\n      caller\n        /* \"toy/gusdnr/contracts/ERC20.sol\":4691:4698  spender */\n      dup5\n        /* \"toy/gusdnr/contracts/ERC20.sol\":4700:4706  amount */\n      dup5\n        /* \"toy/gusdnr/contracts/ERC20.sol\":4670:4707  Approval(msg.sender, spender, amount) */\n      mload(0x40)\n      tag_145\n      swap4\n      swap3\n      swap2\n      swap1\n      tag_146\n      jump\t// in\n    tag_145:\n      mload(0x40)\n      dup1\n      swap2\n      sub\n      swap1\n      log1\n        /* \"toy/gusdnr/contracts/ERC20.sol\":4801:4805  true */\n      0x01\n        /* \"toy/gusdnr/contracts/ERC20.sol\":4794:4805  return true */\n      swap1\n      pop\n        /* \"toy/gusdnr/contracts/ERC20.sol\":4473:4812  function approve(... */\n      swap3\n      swap2\n      pop\n      pop\n      jump\t// out\n        /* \"toy/gusdnr/contracts/ERC20.sol\":770:802  uint public override totalSupply */\n    tag_51:\n      sload(0x03)\n      dup2\n      jump\t// out\n        /* \"toy/gusdnr/contracts/ERC20.sol\":4903:5325  function transferFrom(... */\n    tag_58:\n        /* \"toy/gusdnr/contracts/ERC20.sol\":5024:5028  bool */\n      0x00\n        /* \"toy/gusdnr/contracts/ERC20.sol\":5170:5176  amount */\n      dup2\n        /* \"toy/gusdnr/contracts/ERC20.sol\":5136:5145  allowance */\n      0x06\n        /* \"toy/gusdnr/contracts/ERC20.sol\":5136:5154  allowance[spender] */\n      0x00\n        /* \"toy/gusdnr/contracts/ERC20.sol\":5146:5153  spender */\n      dup7\n        /* \"toy/gusdnr/contracts/ERC20.sol\":5136:5154  allowance[spender] */\n      0xffffffffffffffffffffffffffffffffffffffff\n      and\n      0xffffffffffffffffffffffffffffffffffffffff\n      and\n      dup2\n      mstore\n      0x20\n      add\n      swap1\n      dup2\n      mstore\n      0x20\n      add\n      0x00\n      keccak256\n        /* \"toy/gusdnr/contracts/ERC20.sol\":5136:5166  allowance[spender][msg.sender] */\n      0x00\n        /* \"toy/gusdnr/contracts/ERC20.sol\":5155:5165  msg.sender */\n      caller\n        /* \"toy/gusdnr/contracts/ERC20.sol\":5136:5166  allowance[spender][msg.sender] */\n      0xffffffffffffffffffffffffffffffffffffffff\n      and\n      0xffffffffffffffffffffffffffffffffffffffff\n      and\n      dup2\n      mstore\n      0x20\n      add\n      swap1\n      dup2\n      mstore\n      0x20\n      add\n      0x00\n      keccak256\n      sload\n        /* \"toy/gusdnr/contracts/ERC20.sol\":5136:5176  allowance[spender][msg.sender] >= amount */\n      lt\n      iszero\n        /* \"toy/gusdnr/contracts/ERC20.sol\":5128:5177  require(allowance[spender][msg.sender] >= amount) */\n      tag_148\n      jumpi\n      0x00\n      dup1\n      revert\n    tag_148:\n        /* \"toy/gusdnr/contracts/ERC20.sol\":5222:5228  amount */\n      dup2\n        /* \"toy/gusdnr/contracts/ERC20.sol\":5188:5197  allowance */\n      0x06\n        /* \"toy/gusdnr/contracts/ERC20.sol\":5188:5206  allowance[spender] */\n      0x00\n        /* \"toy/gusdnr/contracts/ERC20.sol\":5198:5205  spender */\n      dup7\n        /* \"toy/gusdnr/contracts/ERC20.sol\":5188:5206  allowance[spender] */\n      0xffffffffffffffffffffffffffffffffffffffff\n      and\n      0xffffffffffffffffffffffffffffffffffffffff\n      and\n      dup2\n      mstore\n      0x20\n      add\n      swap1\n      dup2\n      mstore\n      0x20\n      add\n      0x00\n      keccak256\n        /* \"toy/gusdnr/contracts/ERC20.sol\":5188:5218  allowance[spender][msg.sender] */\n      0x00\n        /* \"toy/gusdnr/contracts/ERC20.sol\":5207:5217  msg.sender */\n      caller\n        /* \"toy/gusdnr/contracts/ERC20.sol\":5188:5218  allowance[spender][msg.sender] */\n      0xffffffffffffffffffffffffffffffffffffffff\n      and\n      0xffffffffffffffffffffffffffffffffffffffff\n      and\n      dup2\n      mstore\n      0x20\n      add\n      swap1\n      dup2\n      mstore\n      0x20\n      add\n      0x00\n      keccak256\n      0x00\n        /* \"toy/gusdnr/contracts/ERC20.sol\":5188:5228  allowance[spender][msg.sender] -= amount */\n      dup3\n      dup3\n      sload\n      tag_149\n      swap2\n      swap1\n      tag_31\n      jump\t// in\n    tag_149:\n      swap3\n      pop\n      pop\n      dup2\n      swap1\n      sstore\n      pop\n        /* \"toy/gusdnr/contracts/ERC20.sol\":5259:5265  amount */\n      dup2\n        /* \"toy/gusdnr/contracts/ERC20.sol\":5238:5246  balances */\n      0x05\n        /* \"toy/gusdnr/contracts/ERC20.sol\":5238:5255  balances[spender] */\n      0x00\n        /* \"toy/gusdnr/contracts/ERC20.sol\":5247:5254  spender */\n      dup7\n        /* \"toy/gusdnr/contracts/ERC20.sol\":5238:5255  balances[spender] */\n      0xffffffffffffffffffffffffffffffffffffffff\n      and\n      0xffffffffffffffffffffffffffffffffffffffff\n      and\n      dup2\n      mstore\n      0x20\n      add\n      swap1\n      dup2\n      mstore\n      0x20\n      add\n      0x00\n      keccak256\n      0x00\n        /* \"toy/gusdnr/contracts/ERC20.sol\":5238:5265  balances[spender] -= amount */\n      dup3\n      dup3\n      sload\n      tag_150\n      swap2\n      swap1\n      tag_31\n      jump\t// in\n    tag_150:\n      swap3\n      pop\n      pop\n      dup2\n      swap1\n      sstore\n      pop\n        /* \"toy/gusdnr/contracts/ERC20.sol\":5291:5297  amount */\n      dup2\n        /* \"toy/gusdnr/contracts/ERC20.sol\":5275:5283  balances */\n      0x05\n        /* \"toy/gusdnr/contracts/ERC20.sol\":5275:5287  balances[to] */\n      0x00\n        /* \"toy/gusdnr/contracts/ERC20.sol\":5284:5286  to */\n      dup6\n        /* \"toy/gusdnr/contracts/ERC20.sol\":5275:5287  balances[to] */\n      0xffffffffffffffffffffffffffffffffffffffff\n      and\n      0xffffffffffffffffffffffffffffffffffffffff\n      and\n      dup2\n      mstore\n      0x20\n      add\n      swap1\n      dup2\n      mstore\n      0x20\n      add\n      0x00\n      keccak256\n      0x00\n        /* \"toy/gusdnr/contracts/ERC20.sol\":5275:5297  balances[to] += amount */\n      dup3\n      dup3\n      sload\n      tag_151\n      swap2\n      swap1\n      tag_33\n      jump\t// in\n    tag_151:\n      swap3\n      pop\n      pop\n      dup2\n      swap1\n      sstore\n      pop\n        /* \"toy/gusdnr/contracts/ERC20.sol\":5314:5318  true */\n      0x01\n        /* \"toy/gusdnr/contracts/ERC20.sol\":5307:5318  return true */\n      swap1\n      pop\n        /* \"toy/gusdnr/contracts/ERC20.sol\":4903:5325  function transferFrom(... */\n      swap4\n      swap3\n      pop\n      pop\n      pop\n      jump\t// out\n        /* \"toy/gusdnr/contracts/ERC20.sol\":1977:2017  mapping(address => uint) public balances */\n    tag_64:\n      mstore(0x20, 0x05)\n      dup1\n      0x00\n      mstore\n      keccak256(0x00, 0x40)\n      0x00\n      swap2\n      pop\n      swap1\n      pop\n      sload\n      dup2\n      jump\t// out\n        /* \"toy/gusdnr/contracts/ERC20.sol\":480:506  uint8 public decimals = 18 */\n    tag_68:\n      0x02\n      0x00\n      swap1\n      sload\n      swap1\n      0x0100\n      exp\n      swap1\n      div\n      0xff\n      and\n      dup2\n      jump\t// out\n        /* \"toy/gusdnr/contracts/store.sol\":3227:3925  function purchaseProduct(uint256 productId) public {... */\n    tag_75:\n        /* \"toy/gusdnr/contracts/store.sol\":3369:3392  Product storage product */\n      0x00\n        /* \"toy/gusdnr/contracts/store.sol\":3395:3410  forSaleProducts */\n      0x0a\n        /* \"toy/gusdnr/contracts/store.sol\":3395:3421  forSaleProducts[productId] */\n      0x00\n        /* \"toy/gusdnr/contracts/store.sol\":3411:3420  productId */\n      dup4\n        /* \"toy/gusdnr/contracts/store.sol\":3395:3421  forSaleProducts[productId] */\n      dup2\n      mstore\n      0x20\n      add\n      swap1\n      dup2\n      mstore\n      0x20\n      add\n      0x00\n      keccak256\n        /* \"toy/gusdnr/contracts/store.sol\":3369:3421  Product storage product = forSaleProducts[productId] */\n      swap1\n      pop\n        /* \"toy/gusdnr/contracts/store.sol\":3439:3446  product */\n      dup1\n        /* \"toy/gusdnr/contracts/store.sol\":3439:3454  product.forSale */\n      0x02\n      add\n      0x00\n      swap1\n      sload\n      swap1\n      0x0100\n      exp\n      swap1\n      div\n      0xff\n      and\n        /* \"toy/gusdnr/contracts/store.sol\":3431:3482  require(product.forSale, \"Product is not for sale\") */\n      tag_153\n      jumpi\n      mload(0x40)\n      0x08c379a000000000000000000000000000000000000000000000000000000000\n      dup2\n      mstore\n      0x04\n      add\n      tag_154\n      swap1\n      tag_155\n      jump\t// in\n    tag_154:\n      mload(0x40)\n      dup1\n      swap2\n      sub\n      swap1\n      revert\n    tag_153:\n        /* \"toy/gusdnr/contracts/store.sol\":3493:3513  uint256 productPrice */\n      0x00\n        /* \"toy/gusdnr/contracts/store.sol\":3516:3523  product */\n      dup2\n        /* \"toy/gusdnr/contracts/store.sol\":3516:3529  product.price */\n      0x01\n      add\n      sload\n        /* \"toy/gusdnr/contracts/store.sol\":3493:3529  uint256 productPrice = product.price */\n      swap1\n      pop\n        /* \"toy/gusdnr/contracts/store.sol\":3578:3590  productPrice */\n      dup1\n        /* \"toy/gusdnr/contracts/store.sol\":3547:3552  token */\n      0x0b\n      0x00\n      swap1\n      sload\n      swap1\n      0x0100\n      exp\n      swap1\n      div\n      0xffffffffffffffffffffffffffffffffffffffff\n      and\n        /* \"toy/gusdnr/contracts/store.sol\":3547:3562  token.balanceOf */\n      0xffffffffffffffffffffffffffffffffffffffff\n      and\n      0x70a08231\n        /* \"toy/gusdnr/contracts/store.sol\":3563:3573  msg.sender */\n      caller\n        /* \"toy/gusdnr/contracts/store.sol\":3547:3574  token.balanceOf(msg.sender) */\n      mload(0x40)\n      dup3\n      0xffffffff\n      and\n      0xe0\n      shl\n      dup2\n      mstore\n      0x04\n      add\n      tag_156\n      swap2\n      swap1\n      tag_157\n      jump\t// in\n    tag_156:\n      0x20\n      mload(0x40)\n      dup1\n      dup4\n      sub\n      dup2\n      dup7\n      gas\n      staticcall\n      iszero\n      dup1\n      iszero\n      tag_159\n      jumpi\n      returndatasize\n      0x00\n      dup1\n      returndatacopy\n      revert(0x00, returndatasize)\n    tag_159:\n      pop\n      pop\n      pop\n      pop\n      mload(0x40)\n      returndatasize\n      not(0x1f)\n      0x1f\n      dup3\n      add\n      and\n      dup3\n      add\n      dup1\n      0x40\n      mstore\n      pop\n      dup2\n      add\n      swap1\n      tag_160\n      swap2\n      swap1\n      tag_161\n      jump\t// in\n    tag_160:\n        /* \"toy/gusdnr/contracts/store.sol\":3547:3590  token.balanceOf(msg.sender) >= productPrice */\n      lt\n      iszero\n        /* \"toy/gusdnr/contracts/store.sol\":3539:3615  require(token.balanceOf(msg.sender) >= productPrice, \"Insufficient balance\") */\n      tag_162\n      jumpi\n      mload(0x40)\n      0x08c379a000000000000000000000000000000000000000000000000000000000\n      dup2\n      mstore\n      0x04\n      add\n      tag_163\n      swap1\n      tag_164\n      jump\t// in\n    tag_163:\n      mload(0x40)\n      dup1\n      swap2\n      sub\n      swap1\n      revert\n    tag_162:\n        /* \"toy/gusdnr/contracts/store.sol\":3626:3631  token */\n      0x0b\n      0x00\n      swap1\n      sload\n      swap1\n      0x0100\n      exp\n      swap1\n      div\n      0xffffffffffffffffffffffffffffffffffffffff\n      and\n        /* \"toy/gusdnr/contracts/store.sol\":3626:3644  token.transferFrom */\n      0xffffffffffffffffffffffffffffffffffffffff\n      and\n      0x23b872dd\n        /* \"toy/gusdnr/contracts/store.sol\":3645:3655  msg.sender */\n      caller\n        /* \"toy/gusdnr/contracts/store.sol\":3665:3669  this */\n      address\n        /* \"toy/gusdnr/contracts/store.sol\":3672:3684  productPrice */\n      dup5\n        /* \"toy/gusdnr/contracts/store.sol\":3626:3685  token.transferFrom(msg.sender, address(this), productPrice) */\n      mload(0x40)\n      dup5\n      0xffffffff\n      and\n      0xe0\n      shl\n      dup2\n      mstore\n      0x04\n      add\n      tag_165\n      swap4\n      swap3\n      swap2\n      swap1\n      tag_146\n      jump\t// in\n    tag_165:\n      0x20\n      mload(0x40)\n      dup1\n      dup4\n      sub\n      dup2\n      0x00\n      dup8\n      gas\n      call\n      iszero\n      dup1\n      iszero\n      tag_167\n      jumpi\n      returndatasize\n      0x00\n      dup1\n      returndatacopy\n      revert(0x00, returndatasize)\n    tag_167:\n      pop\n      pop\n      pop\n      pop\n      mload(0x40)\n      returndatasize\n      not(0x1f)\n      0x1f\n      dup3\n      add\n      and\n      dup3\n      add\n      dup1\n      0x40\n      mstore\n      pop\n      dup2\n      add\n      swap1\n      tag_168\n      swap2\n      swap1\n      tag_169\n      jump\t// in\n    tag_168:\n      pop\n        /* \"toy/gusdnr/contracts/store.sol\":3695:3700  token */\n      0x0b\n      0x00\n      swap1\n      sload\n      swap1\n      0x0100\n      exp\n      swap1\n      div\n      0xffffffffffffffffffffffffffffffffffffffff\n      and\n        /* \"toy/gusdnr/contracts/store.sol\":3695:3709  token.transfer */\n      0xffffffffffffffffffffffffffffffffffffffff\n      and\n      0xa9059cbb\n        /* \"toy/gusdnr/contracts/store.sol\":3710:3717  product */\n      dup4\n        /* \"toy/gusdnr/contracts/store.sol\":3710:3723  product.owner */\n      0x02\n      add\n      0x01\n      swap1\n      sload\n      swap1\n      0x0100\n      exp\n      swap1\n      div\n      0xffffffffffffffffffffffffffffffffffffffff\n      and\n        /* \"toy/gusdnr/contracts/store.sol\":3725:3737  productPrice */\n      dup4\n        /* \"toy/gusdnr/contracts/store.sol\":3695:3738  token.transfer(product.owner, productPrice) */\n      mload(0x40)\n      dup4\n      0xffffffff\n      and\n      0xe0\n      shl\n      dup2\n      mstore\n      0x04\n      add\n      tag_170\n      swap3\n      swap2\n      swap1\n      tag_171\n      jump\t// in\n    tag_170:\n      0x20\n      mload(0x40)\n      dup1\n      dup4\n      sub\n      dup2\n      0x00\n      dup8\n      gas\n      call\n      iszero\n      dup1\n      iszero\n      tag_173\n      jumpi\n      returndatasize\n      0x00\n      dup1\n      returndatacopy\n      revert(0x00, returndatasize)\n    tag_173:\n      pop\n      pop\n      pop\n      pop\n      mload(0x40)\n      returndatasize\n      not(0x1f)\n      0x1f\n      dup3\n      add\n      and\n      dup3\n      add\n      dup1\n      0x40\n      mstore\n      pop\n      dup2\n      add\n      swap1\n      tag_174\n      swap2\n      swap1\n      tag_169\n      jump\t// in\n    tag_174:\n      pop\n        /* \"toy/gusdnr/contracts/store.sol\":3847:3859  userProducts */\n      0x09\n        /* \"toy/gusdnr/contracts/store.sol\":3847:3871  userProducts[msg.sender] */\n      0x00\n        /* \"toy/gusdnr/contracts/store.sol\":3860:3870  msg.sender */\n      caller\n        /* \"toy/gusdnr/contracts/store.sol\":3847:3871  userProducts[msg.sender] */\n      0xffffffffffffffffffffffffffffffffffffffff\n      and\n      0xffffffffffffffffffffffffffffffffffffffff\n      and\n      dup2\n      mstore\n      0x20\n      add\n      swap1\n      dup2\n      mstore\n      0x20\n      add\n      0x00\n      keccak256\n        /* \"toy/gusdnr/contracts/store.sol\":3877:3884  product */\n      dup3\n        /* \"toy/gusdnr/contracts/store.sol\":3847:3885  userProducts[msg.sender].push(product) */\n      swap1\n      dup1\n      0x01\n      dup2\n      sload\n      add\n      dup1\n      dup3\n      sstore\n      dup1\n      swap2\n      pop\n      pop\n      0x01\n      swap1\n      sub\n      swap1\n      0x00\n      mstore\n      keccak256(0x00, 0x20)\n      swap1\n      0x03\n      mul\n      add\n      0x00\n      swap1\n      swap2\n      swap1\n      swap2\n      swap1\n      swap2\n      pop\n      0x00\n      dup3\n      add\n      dup2\n      0x00\n      add\n      swap1\n      dup2\n      tag_176\n      swap2\n      swap1\n      tag_177\n      jump\t// in\n    tag_176:\n      pop\n      0x01\n      dup3\n      add\n      sload\n      dup2\n      0x01\n      add\n      sstore\n      0x02\n      dup3\n      add\n      0x00\n      swap1\n      sload\n      swap1\n      0x0100\n      exp\n      swap1\n      div\n      0xff\n      and\n      dup2\n      0x02\n      add\n      exp(0x0100, 0x00)\n      dup2\n      sload\n      dup2\n      0xff\n      mul\n      not\n      and\n      swap1\n      dup4\n      iszero\n      iszero\n      mul\n      or\n      swap1\n      sstore\n      pop\n      0x02\n      dup3\n      add\n      0x01\n      swap1\n      sload\n      swap1\n      0x0100\n      exp\n      swap1\n      div\n      0xffffffffffffffffffffffffffffffffffffffff\n      and\n      dup2\n      0x02\n      add\n      exp(0x0100, 0x01)\n      dup2\n      sload\n      dup2\n      0xffffffffffffffffffffffffffffffffffffffff\n      mul\n      not\n      and\n      swap1\n      dup4\n      0xffffffffffffffffffffffffffffffffffffffff\n      and\n      mul\n      or\n      swap1\n      sstore\n      pop\n      pop\n      pop\n        /* \"toy/gusdnr/contracts/store.sol\":3913:3918  false */\n      0x00\n        /* \"toy/gusdnr/contracts/store.sol\":3895:3902  product */\n      dup3\n        /* \"toy/gusdnr/contracts/store.sol\":3895:3910  product.forSale */\n      0x02\n      add\n      0x00\n        /* \"toy/gusdnr/contracts/store.sol\":3895:3918  product.forSale = false */\n      0x0100\n      exp\n      dup2\n      sload\n      dup2\n      0xff\n      mul\n      not\n      and\n      swap1\n      dup4\n      iszero\n      iszero\n      mul\n      or\n      swap1\n      sstore\n      pop\n        /* \"toy/gusdnr/contracts/store.sol\":3278:3925  {... */\n      pop\n      pop\n        /* \"toy/gusdnr/contracts/store.sol\":3227:3925  function purchaseProduct(uint256 productId) public {... */\n      pop\n      jump\t// out\n        /* \"toy/gusdnr/contracts/store.sol\":1785:1834  mapping(address => Product[]) public userProducts */\n    tag_79:\n      mstore(0x20, 0x09)\n      dup2\n      0x00\n      mstore\n      keccak256(0x00, 0x40)\n      dup2\n      dup2\n      sload\n      dup2\n      lt\n      tag_178\n      jumpi\n      0x00\n      dup1\n      revert\n    tag_178:\n      swap1\n      0x00\n      mstore\n      keccak256(0x00, 0x20)\n      swap1\n      0x03\n      mul\n      add\n      0x00\n      swap2\n      pop\n      swap2\n      pop\n      pop\n      dup1\n      0x00\n      add\n      dup1\n      sload\n      tag_180\n      swap1\n      tag_139\n      jump\t// in\n    tag_180:\n      dup1\n      0x1f\n      add\n      0x20\n      dup1\n      swap2\n      div\n      mul\n      0x20\n      add\n      mload(0x40)\n      swap1\n      dup2\n      add\n      0x40\n      mstore\n      dup1\n      swap3\n      swap2\n      swap1\n      dup2\n      dup2\n      mstore\n      0x20\n      add\n      dup3\n      dup1\n      sload\n      tag_181\n      swap1\n      tag_139\n      jump\t// in\n    tag_181:\n      dup1\n      iszero\n      tag_182\n      jumpi\n      dup1\n      0x1f\n      lt\n      tag_183\n      jumpi\n      0x0100\n      dup1\n      dup4\n      sload\n      div\n      mul\n      dup4\n      mstore\n      swap2\n      0x20\n      add\n      swap2\n      jump(tag_182)\n    tag_183:\n      dup3\n      add\n      swap2\n      swap1\n      0x00\n      mstore\n      keccak256(0x00, 0x20)\n      swap1\n    tag_184:\n      dup2\n      sload\n      dup2\n      mstore\n      swap1\n      0x01\n      add\n      swap1\n      0x20\n      add\n      dup1\n      dup4\n      gt\n      tag_184\n      jumpi\n      dup3\n      swap1\n      sub\n      0x1f\n      and\n      dup3\n      add\n      swap2\n    tag_182:\n      pop\n      pop\n      pop\n      pop\n      pop\n      swap1\n      dup1\n      0x01\n      add\n      sload\n      swap1\n      dup1\n      0x02\n      add\n      0x00\n      swap1\n      sload\n      swap1\n      0x0100\n      exp\n      swap1\n      div\n      0xff\n      and\n      swap1\n      dup1\n      0x02\n      add\n      0x01\n      swap1\n      sload\n      swap1\n      0x0100\n      exp\n      swap1\n      div\n      0xffffffffffffffffffffffffffffffffffffffff\n      and\n      swap1\n      pop\n      dup5\n      jump\t// out\n        /* \"toy/gusdnr/contracts/ERC20.sol\":5692:5806  function burn(uint amount) external {... */\n    tag_85:\n        /* \"toy/gusdnr/contracts/ERC20.sol\":5762:5768  amount */\n      dup1\n        /* \"toy/gusdnr/contracts/ERC20.sol\":5738:5746  balances */\n      0x05\n        /* \"toy/gusdnr/contracts/ERC20.sol\":5738:5758  balances[msg.sender] */\n      0x00\n        /* \"toy/gusdnr/contracts/ERC20.sol\":5747:5757  msg.sender */\n      caller\n        /* \"toy/gusdnr/contracts/ERC20.sol\":5738:5758  balances[msg.sender] */\n      0xffffffffffffffffffffffffffffffffffffffff\n      and\n      0xffffffffffffffffffffffffffffffffffffffff\n      and\n      dup2\n      mstore\n      0x20\n      add\n      swap1\n      dup2\n      mstore\n      0x20\n      add\n      0x00\n      keccak256\n      0x00\n        /* \"toy/gusdnr/contracts/ERC20.sol\":5738:5768  balances[msg.sender] -= amount */\n      dup3\n      dup3\n      sload\n      tag_186\n      swap2\n      swap1\n      tag_31\n      jump\t// in\n    tag_186:\n      swap3\n      pop\n      pop\n      dup2\n      swap1\n      sstore\n      pop\n        /* \"toy/gusdnr/contracts/ERC20.sol\":5793:5799  amount */\n      dup1\n        /* \"toy/gusdnr/contracts/ERC20.sol\":5778:5789  totalSupply */\n      0x03\n      0x00\n        /* \"toy/gusdnr/contracts/ERC20.sol\":5778:5799  totalSupply -= amount */\n      dup3\n      dup3\n      sload\n      tag_187\n      swap2\n      swap1\n      tag_31\n      jump\t// in\n    tag_187:\n      swap3\n      pop\n      pop\n      dup2\n      swap1\n      sstore\n      pop\n        /* \"toy/gusdnr/contracts/ERC20.sol\":5692:5806  function burn(uint amount) external {... */\n      pop\n      jump\t// out\n        /* \"toy/gusdnr/contracts/store.sol\":2159:2437  function showAllUserProducts() public view returns (Product[] memory) {... */\n    tag_88:\n        /* \"toy/gusdnr/contracts/store.sol\":2211:2227  Product[] memory */\n      0x60\n        /* \"toy/gusdnr/contracts/store.sol\":2235:2267  Product[] memory alluserProducts */\n      0x00\n        /* \"toy/gusdnr/contracts/store.sol\":2284:2295  allProducts */\n      0x07\n        /* \"toy/gusdnr/contracts/store.sol\":2284:2302  allProducts.length */\n      dup1\n      sload\n      swap1\n      pop\n        /* \"toy/gusdnr/contracts/store.sol\":2270:2303  new Product[](allProducts.length) */\n      0xffffffffffffffff\n      dup2\n      gt\n      iszero\n      tag_189\n      jumpi\n      tag_190\n      tag_191\n      jump\t// in\n    tag_190:\n    tag_189:\n      mload(0x40)\n      swap1\n      dup1\n      dup3\n      mstore\n      dup1\n      0x20\n      mul\n      0x20\n      add\n      dup3\n      add\n      0x40\n      mstore\n      dup1\n      iszero\n      tag_192\n      jumpi\n      dup2\n      0x20\n      add\n    tag_193:\n      tag_194\n      tag_195\n      jump\t// in\n    tag_194:\n      dup2\n      mstore\n      0x20\n      add\n      swap1\n      0x01\n      swap1\n      sub\n      swap1\n      dup2\n      tag_193\n      jumpi\n      swap1\n      pop\n    tag_192:\n      pop\n        /* \"toy/gusdnr/contracts/store.sol\":2235:2303  Product[] memory alluserProducts = new Product[](allProducts.length) */\n      swap1\n      pop\n        /* \"toy/gusdnr/contracts/store.sol\":2314:2320  uint i */\n      0x00\n        /* \"toy/gusdnr/contracts/store.sol\":2309:2407  for (uint i = 0; i < allProducts.length; i++) {... */\n    tag_196:\n        /* \"toy/gusdnr/contracts/store.sol\":2330:2341  allProducts */\n      0x07\n        /* \"toy/gusdnr/contracts/store.sol\":2330:2348  allProducts.length */\n      dup1\n      sload\n      swap1\n      pop\n        /* \"toy/gusdnr/contracts/store.sol\":2326:2327  i */\n      dup2\n        /* \"toy/gusdnr/contracts/store.sol\":2326:2348  i < allProducts.length */\n      lt\n        /* \"toy/gusdnr/contracts/store.sol\":2309:2407  for (uint i = 0; i < allProducts.length; i++) {... */\n      iszero\n      tag_197\n      jumpi\n        /* \"toy/gusdnr/contracts/store.sol\":2386:2397  allProducts */\n      0x07\n        /* \"toy/gusdnr/contracts/store.sol\":2398:2399  i */\n      dup2\n        /* \"toy/gusdnr/contracts/store.sol\":2386:2400  allProducts[i] */\n      dup2\n      sload\n      dup2\n      lt\n      tag_199\n      jumpi\n      tag_200\n      tag_201\n      jump\t// in\n    tag_200:\n    tag_199:\n      swap1\n      0x00\n      mstore\n      keccak256(0x00, 0x20)\n      swap1\n      0x03\n      mul\n      add\n        /* \"toy/gusdnr/contracts/store.sol\":2365:2400  alluserProducts[i] = allProducts[i] */\n      mload(0x40)\n      dup1\n      0x80\n      add\n      0x40\n      mstore\n      swap1\n      dup2\n      0x00\n      dup3\n      add\n      dup1\n      sload\n      tag_203\n      swap1\n      tag_139\n      jump\t// in\n    tag_203:\n      dup1\n      0x1f\n      add\n      0x20\n      dup1\n      swap2\n      div\n      mul\n      0x20\n      add\n      mload(0x40)\n      swap1\n      dup2\n      add\n      0x40\n      mstore\n      dup1\n      swap3\n      swap2\n      swap1\n      dup2\n      dup2\n      mstore\n      0x20\n      add\n      dup3\n      dup1\n      sload\n      tag_204\n      swap1\n      tag_139\n      jump\t// in\n    tag_204:\n      dup1\n      iszero\n      tag_205\n      jumpi\n      dup1\n      0x1f\n      lt\n      tag_206\n      jumpi\n      0x0100\n      dup1\n      dup4\n      sload\n      div\n      mul\n      dup4\n      mstore\n      swap2\n      0x20\n      add\n      swap2\n      jump(tag_205)\n    tag_206:\n      dup3\n      add\n      swap2\n      swap1\n      0x00\n      mstore\n      keccak256(0x00, 0x20)\n      swap1\n    tag_207:\n      dup2\n      sload\n      dup2\n      mstore\n      swap1\n      0x01\n      add\n      swap1\n      0x20\n      add\n      dup1\n      dup4\n      gt\n      tag_207\n      jumpi\n      dup3\n      swap1\n      sub\n      0x1f\n      and\n      dup3\n      add\n      swap2\n    tag_205:\n      pop\n      pop\n      pop\n      pop\n      pop\n      dup2\n      mstore\n      0x20\n      add\n      0x01\n      dup3\n      add\n      sload\n      dup2\n      mstore\n      0x20\n      add\n      0x02\n      dup3\n      add\n      0x00\n      swap1\n      sload\n      swap1\n      0x0100\n      exp\n      swap1\n      div\n      0xff\n      and\n      iszero\n      iszero\n      iszero\n      iszero\n      dup2\n      mstore\n      0x20\n      add\n      0x02\n      dup3\n      add\n      0x01\n      swap1\n      sload\n      swap1\n      0x0100\n      exp\n      swap1\n      div\n      0xffffffffffffffffffffffffffffffffffffffff\n      and\n      0xffffffffffffffffffffffffffffffffffffffff\n      and\n      0xffffffffffffffffffffffffffffffffffffffff\n      and\n      dup2\n      mstore\n      pop\n      pop\n        /* \"toy/gusdnr/contracts/store.sol\":2365:2380  alluserProducts */\n      dup3\n        /* \"toy/gusdnr/contracts/store.sol\":2381:2382  i */\n      dup3\n        /* \"toy/gusdnr/contracts/store.sol\":2365:2383  alluserProducts[i] */\n      dup2\n      mload\n      dup2\n      lt\n      tag_208\n      jumpi\n      tag_209\n      tag_201\n      jump\t// in\n    tag_209:\n    tag_208:\n      0x20\n      mul\n      0x20\n      add\n      add\n        /* \"toy/gusdnr/contracts/store.sol\":2365:2400  alluserProducts[i] = allProducts[i] */\n      dup2\n      swap1\n      mstore\n      pop\n        /* \"toy/gusdnr/contracts/store.sol\":2350:2353  i++ */\n      dup1\n      dup1\n      tag_210\n      swap1\n      tag_211\n      jump\t// in\n    tag_210:\n      swap2\n      pop\n      pop\n        /* \"toy/gusdnr/contracts/store.sol\":2309:2407  for (uint i = 0; i < allProducts.length; i++) {... */\n      jump(tag_196)\n    tag_197:\n      pop\n        /* \"toy/gusdnr/contracts/store.sol\":2419:2434  alluserProducts */\n      dup1\n        /* \"toy/gusdnr/contracts/store.sol\":2412:2434  return alluserProducts */\n      swap2\n      pop\n      pop\n        /* \"toy/gusdnr/contracts/store.sol\":2159:2437  function showAllUserProducts() public view returns (Product[] memory) {... */\n      swap1\n      jump\t// out\n        /* \"toy/gusdnr/contracts/ERC20.sol\":2948:3063  function balanceOf(address account) external view override returns (uint) {... */\n    tag_94:\n        /* \"toy/gusdnr/contracts/ERC20.sol\":3016:3020  uint */\n      0x00\n        /* \"toy/gusdnr/contracts/ERC20.sol\":3039:3047  balances */\n      0x05\n        /* \"toy/gusdnr/contracts/ERC20.sol\":3039:3056  balances[account] */\n      0x00\n        /* \"toy/gusdnr/contracts/ERC20.sol\":3048:3055  account */\n      dup4\n        /* \"toy/gusdnr/contracts/ERC20.sol\":3039:3056  balances[account] */\n      0xffffffffffffffffffffffffffffffffffffffff\n      and\n      0xffffffffffffffffffffffffffffffffffffffff\n      and\n      dup2\n      mstore\n      0x20\n      add\n      swap1\n      dup2\n      mstore\n      0x20\n      add\n      0x00\n      keccak256\n      sload\n        /* \"toy/gusdnr/contracts/ERC20.sol\":3032:3056  return balances[account] */\n      swap1\n      pop\n        /* \"toy/gusdnr/contracts/ERC20.sol\":2948:3063  function balanceOf(address account) external view override returns (uint) {... */\n      swap2\n      swap1\n      pop\n      jump\t// out\n        /* \"toy/gusdnr/contracts/store.sol\":2923:3200  function listProduct(uint256 productId) public {... */\n    tag_99:\n        /* \"toy/gusdnr/contracts/store.sol\":3000:3011  allProducts */\n      0x07\n        /* \"toy/gusdnr/contracts/store.sol\":3000:3018  allProducts.length */\n      dup1\n      sload\n      swap1\n      pop\n        /* \"toy/gusdnr/contracts/store.sol\":2988:2997  productId */\n      dup2\n        /* \"toy/gusdnr/contracts/store.sol\":2988:3018  productId < allProducts.length */\n      lt\n        /* \"toy/gusdnr/contracts/store.sol\":2980:3041  require(productId < allProducts.length, \"Invalid product ID\") */\n      tag_214\n      jumpi\n      mload(0x40)\n      0x08c379a000000000000000000000000000000000000000000000000000000000\n      dup2\n      mstore\n      0x04\n      add\n      tag_215\n      swap1\n      tag_216\n      jump\t// in\n    tag_215:\n      mload(0x40)\n      dup1\n      swap2\n      sub\n      swap1\n      revert\n    tag_214:\n        /* \"toy/gusdnr/contracts/store.sol\":3091:3101  msg.sender */\n      caller\n        /* \"toy/gusdnr/contracts/store.sol\":3059:3101  allProducts[productId].owner == msg.sender */\n      0xffffffffffffffffffffffffffffffffffffffff\n      and\n        /* \"toy/gusdnr/contracts/store.sol\":3059:3070  allProducts */\n      0x07\n        /* \"toy/gusdnr/contracts/store.sol\":3071:3080  productId */\n      dup3\n        /* \"toy/gusdnr/contracts/store.sol\":3059:3081  allProducts[productId] */\n      dup2\n      sload\n      dup2\n      lt\n      tag_217\n      jumpi\n      tag_218\n      tag_201\n      jump\t// in\n    tag_218:\n    tag_217:\n      swap1\n      0x00\n      mstore\n      keccak256(0x00, 0x20)\n      swap1\n      0x03\n      mul\n      add\n        /* \"toy/gusdnr/contracts/store.sol\":3059:3087  allProducts[productId].owner */\n      0x02\n      add\n      0x01\n      swap1\n      sload\n      swap1\n      0x0100\n      exp\n      swap1\n      div\n      0xffffffffffffffffffffffffffffffffffffffff\n      and\n        /* \"toy/gusdnr/contracts/store.sol\":3059:3101  allProducts[productId].owner == msg.sender */\n      0xffffffffffffffffffffffffffffffffffffffff\n      and\n      eq\n        /* \"toy/gusdnr/contracts/store.sol\":3051:3132  require(allProducts[productId].owner == msg.sender, \"You don't own this product\") */\n      tag_220\n      jumpi\n      mload(0x40)\n      0x08c379a000000000000000000000000000000000000000000000000000000000\n      dup2\n      mstore\n      0x04\n      add\n      tag_221\n      swap1\n      tag_222\n      jump\t// in\n    tag_221:\n      mload(0x40)\n      dup1\n      swap2\n      sub\n      swap1\n      revert\n    tag_220:\n        /* \"toy/gusdnr/contracts/store.sol\":3171:3182  allProducts */\n      0x07\n        /* \"toy/gusdnr/contracts/store.sol\":3183:3192  productId */\n      dup2\n        /* \"toy/gusdnr/contracts/store.sol\":3171:3193  allProducts[productId] */\n      dup2\n      sload\n      dup2\n      lt\n      tag_223\n      jumpi\n      tag_224\n      tag_201\n      jump\t// in\n    tag_224:\n    tag_223:\n      swap1\n      0x00\n      mstore\n      keccak256(0x00, 0x20)\n      swap1\n      0x03\n      mul\n      add\n        /* \"toy/gusdnr/contracts/store.sol\":3142:3157  forSaleProducts */\n      0x0a\n        /* \"toy/gusdnr/contracts/store.sol\":3142:3168  forSaleProducts[productId] */\n      0x00\n        /* \"toy/gusdnr/contracts/store.sol\":3158:3167  productId */\n      dup4\n        /* \"toy/gusdnr/contracts/store.sol\":3142:3168  forSaleProducts[productId] */\n      dup2\n      mstore\n      0x20\n      add\n      swap1\n      dup2\n      mstore\n      0x20\n      add\n      0x00\n      keccak256\n        /* \"toy/gusdnr/contracts/store.sol\":3142:3193  forSaleProducts[productId] = allProducts[productId] */\n      0x00\n      dup3\n      add\n      dup2\n      0x00\n      add\n      swap1\n      dup2\n      tag_226\n      swap2\n      swap1\n      tag_177\n      jump\t// in\n    tag_226:\n      pop\n      0x01\n      dup3\n      add\n      sload\n      dup2\n      0x01\n      add\n      sstore\n      0x02\n      dup3\n      add\n      0x00\n      swap1\n      sload\n      swap1\n      0x0100\n      exp\n      swap1\n      div\n      0xff\n      and\n      dup2\n      0x02\n      add\n      exp(0x0100, 0x00)\n      dup2\n      sload\n      dup2\n      0xff\n      mul\n      not\n      and\n      swap1\n      dup4\n      iszero\n      iszero\n      mul\n      or\n      swap1\n      sstore\n      pop\n      0x02\n      dup3\n      add\n      0x01\n      swap1\n      sload\n      swap1\n      0x0100\n      exp\n      swap1\n      div\n      0xffffffffffffffffffffffffffffffffffffffff\n      and\n      dup2\n      0x02\n      add\n      exp(0x0100, 0x01)\n      dup2\n      sload\n      dup2\n      0xffffffffffffffffffffffffffffffffffffffff\n      mul\n      not\n      and\n      swap1\n      dup4\n      0xffffffffffffffffffffffffffffffffffffffff\n      and\n      mul\n      or\n      swap1\n      sstore\n      pop\n      swap1\n      pop\n      pop\n        /* \"toy/gusdnr/contracts/store.sol\":2923:3200  function listProduct(uint256 productId) public {... */\n      pop\n      jump\t// out\n        /* \"toy/gusdnr/contracts/store.sol\":2464:2889  function registerProduct(string memory name, uint256 price) public {... */\n    tag_104:\n        /* \"toy/gusdnr/contracts/store.sol\":2573:2583  tokenPrice */\n      sload(0x08)\n        /* \"toy/gusdnr/contracts/store.sol\":2549:2557  balances */\n      0x05\n        /* \"toy/gusdnr/contracts/store.sol\":2549:2569  balances[msg.sender] */\n      0x00\n        /* \"toy/gusdnr/contracts/store.sol\":2558:2568  msg.sender */\n      caller\n        /* \"toy/gusdnr/contracts/store.sol\":2549:2569  balances[msg.sender] */\n      0xffffffffffffffffffffffffffffffffffffffff\n      and\n      0xffffffffffffffffffffffffffffffffffffffff\n      and\n      dup2\n      mstore\n      0x20\n      add\n      swap1\n      dup2\n      mstore\n      0x20\n      add\n      0x00\n      keccak256\n      sload\n        /* \"toy/gusdnr/contracts/store.sol\":2549:2583  balances[msg.sender] >= tokenPrice */\n      lt\n      iszero\n        /* \"toy/gusdnr/contracts/store.sol\":2541:2584  require(balances[msg.sender] >= tokenPrice) */\n      tag_228\n      jumpi\n      0x00\n      dup1\n      revert\n    tag_228:\n        /* \"toy/gusdnr/contracts/store.sol\":2618:2628  tokenPrice */\n      sload(0x08)\n        /* \"toy/gusdnr/contracts/store.sol\":2594:2602  balances */\n      0x05\n        /* \"toy/gusdnr/contracts/store.sol\":2594:2614  balances[msg.sender] */\n      0x00\n        /* \"toy/gusdnr/contracts/store.sol\":2603:2613  msg.sender */\n      caller\n        /* \"toy/gusdnr/contracts/store.sol\":2594:2614  balances[msg.sender] */\n      0xffffffffffffffffffffffffffffffffffffffff\n      and\n      0xffffffffffffffffffffffffffffffffffffffff\n      and\n      dup2\n      mstore\n      0x20\n      add\n      swap1\n      dup2\n      mstore\n      0x20\n      add\n      0x00\n      keccak256\n      0x00\n        /* \"toy/gusdnr/contracts/store.sol\":2594:2628  balances[msg.sender] -= tokenPrice */\n      dup3\n      dup3\n      sload\n      tag_229\n      swap2\n      swap1\n      tag_31\n      jump\t// in\n    tag_229:\n      swap3\n      pop\n      pop\n      dup2\n      swap1\n      sstore\n      pop\n        /* \"toy/gusdnr/contracts/store.sol\":2677:2699  Product memory product */\n      0x00\n        /* \"toy/gusdnr/contracts/store.sol\":2702:2740  Product(name, price, true, msg.sender) */\n      mload(0x40)\n      dup1\n      0x80\n      add\n      0x40\n      mstore\n      dup1\n        /* \"toy/gusdnr/contracts/store.sol\":2710:2714  name */\n      dup5\n        /* \"toy/gusdnr/contracts/store.sol\":2702:2740  Product(name, price, true, msg.sender) */\n      dup2\n      mstore\n      0x20\n      add\n        /* \"toy/gusdnr/contracts/store.sol\":2716:2721  price */\n      dup4\n        /* \"toy/gusdnr/contracts/store.sol\":2702:2740  Product(name, price, true, msg.sender) */\n      dup2\n      mstore\n      0x20\n      add\n        /* \"toy/gusdnr/contracts/store.sol\":2723:2727  true */\n      0x01\n        /* \"toy/gusdnr/contracts/store.sol\":2702:2740  Product(name, price, true, msg.sender) */\n      iszero\n      iszero\n      dup2\n      mstore\n      0x20\n      add\n        /* \"toy/gusdnr/contracts/store.sol\":2729:2739  msg.sender */\n      caller\n        /* \"toy/gusdnr/contracts/store.sol\":2702:2740  Product(name, price, true, msg.sender) */\n      0xffffffffffffffffffffffffffffffffffffffff\n      and\n      dup2\n      mstore\n      pop\n        /* \"toy/gusdnr/contracts/store.sol\":2677:2740  Product memory product = Product(name, price, true, msg.sender) */\n      swap1\n      pop\n        /* \"toy/gusdnr/contracts/store.sol\":2750:2761  allProducts */\n      0x07\n        /* \"toy/gusdnr/contracts/store.sol\":2767:2774  product */\n      dup2\n        /* \"toy/gusdnr/contracts/store.sol\":2750:2775  allProducts.push(product) */\n      swap1\n      dup1\n      0x01\n      dup2\n      sload\n      add\n      dup1\n      dup3\n      sstore\n      dup1\n      swap2\n      pop\n      pop\n      0x01\n      swap1\n      sub\n      swap1\n      0x00\n      mstore\n      keccak256(0x00, 0x20)\n      swap1\n      0x03\n      mul\n      add\n      0x00\n      swap1\n      swap2\n      swap1\n      swap2\n      swap1\n      swap2\n      pop\n      0x00\n      dup3\n      add\n      mload\n      dup2\n      0x00\n      add\n      swap1\n      dup2\n      tag_231\n      swap2\n      swap1\n      tag_232\n      jump\t// in\n    tag_231:\n      pop\n      0x20\n      dup3\n      add\n      mload\n      dup2\n      0x01\n      add\n      sstore\n      0x40\n      dup3\n      add\n      mload\n      dup2\n      0x02\n      add\n      exp(0x0100, 0x00)\n      dup2\n      sload\n      dup2\n      0xff\n      mul\n      not\n      and\n      swap1\n      dup4\n      iszero\n      iszero\n      mul\n      or\n      swap1\n      sstore\n      pop\n      0x60\n      dup3\n      add\n      mload\n      dup2\n      0x02\n      add\n      exp(0x0100, 0x01)\n      dup2\n      sload\n      dup2\n      0xffffffffffffffffffffffffffffffffffffffff\n      mul\n      not\n      and\n      swap1\n      dup4\n      0xffffffffffffffffffffffffffffffffffffffff\n      and\n      mul\n      or\n      swap1\n      sstore\n      pop\n      pop\n      pop\n        /* \"toy/gusdnr/contracts/store.sol\":2785:2797  userProducts */\n      0x09\n        /* \"toy/gusdnr/contracts/store.sol\":2785:2809  userProducts[msg.sender] */\n      0x00\n        /* \"toy/gusdnr/contracts/store.sol\":2798:2808  msg.sender */\n      caller\n        /* \"toy/gusdnr/contracts/store.sol\":2785:2809  userProducts[msg.sender] */\n      0xffffffffffffffffffffffffffffffffffffffff\n      and\n      0xffffffffffffffffffffffffffffffffffffffff\n      and\n      dup2\n      mstore\n      0x20\n      add\n      swap1\n      dup2\n      mstore\n      0x20\n      add\n      0x00\n      keccak256\n        /* \"toy/gusdnr/contracts/store.sol\":2815:2822  product */\n      dup2\n        /* \"toy/gusdnr/contracts/store.sol\":2785:2823  userProducts[msg.sender].push(product) */\n      swap1\n      dup1\n      0x01\n      dup2\n      sload\n      add\n      dup1\n      dup3\n      sstore\n      dup1\n      swap2\n      pop\n      pop\n      0x01\n      swap1\n      sub\n      swap1\n      0x00\n      mstore\n      keccak256(0x00, 0x20)\n      swap1\n      0x03\n      mul\n      add\n      0x00\n      swap1\n      swap2\n      swap1\n      swap2\n      swap1\n      swap2\n      pop\n      0x00\n      dup3\n      add\n      mload\n      dup2\n      0x00\n      add\n      swap1\n      dup2\n      tag_234\n      swap2\n      swap1\n      tag_232\n      jump\t// in\n    tag_234:\n      pop\n      0x20\n      dup3\n      add\n      mload\n      dup2\n      0x01\n      add\n      sstore\n      0x40\n      dup3\n      add\n      mload\n      dup2\n      0x02\n      add\n      exp(0x0100, 0x00)\n      dup2\n      sload\n      dup2\n      0xff\n      mul\n      not\n      and\n      swap1\n      dup4\n      iszero\n      iszero\n      mul\n      or\n      swap1\n      sstore\n      pop\n      0x60\n      dup3\n      add\n      mload\n      dup2\n      0x02\n      add\n      exp(0x0100, 0x01)\n      dup2\n      sload\n      dup2\n      0xffffffffffffffffffffffffffffffffffffffff\n      mul\n      not\n      and\n      swap1\n      dup4\n      0xffffffffffffffffffffffffffffffffffffffff\n      and\n      mul\n      or\n      swap1\n      sstore\n      pop\n      pop\n      pop\n        /* \"toy/gusdnr/contracts/store.sol\":2875:2882  product */\n      dup1\n        /* \"toy/gusdnr/contracts/store.sol\":2833:2848  forSaleProducts */\n      0x0a\n        /* \"toy/gusdnr/contracts/store.sol\":2833:2872  forSaleProducts[allProducts.length - 1] */\n      0x00\n        /* \"toy/gusdnr/contracts/store.sol\":2870:2871  1 */\n      0x01\n        /* \"toy/gusdnr/contracts/store.sol\":2849:2860  allProducts */\n      0x07\n        /* \"toy/gusdnr/contracts/store.sol\":2849:2867  allProducts.length */\n      dup1\n      sload\n      swap1\n      pop\n        /* \"toy/gusdnr/contracts/store.sol\":2849:2871  allProducts.length - 1 */\n      tag_235\n      swap2\n      swap1\n      tag_31\n      jump\t// in\n    tag_235:\n        /* \"toy/gusdnr/contracts/store.sol\":2833:2872  forSaleProducts[allProducts.length - 1] */\n      dup2\n      mstore\n      0x20\n      add\n      swap1\n      dup2\n      mstore\n      0x20\n      add\n      0x00\n      keccak256\n        /* \"toy/gusdnr/contracts/store.sol\":2833:2882  forSaleProducts[allProducts.length - 1] = product */\n      0x00\n      dup3\n      add\n      mload\n      dup2\n      0x00\n      add\n      swap1\n      dup2\n      tag_236\n      swap2\n      swap1\n      tag_232\n      jump\t// in\n    tag_236:\n      pop\n      0x20\n      dup3\n      add\n      mload\n      dup2\n      0x01\n      add\n      sstore\n      0x40\n      dup3\n      add\n      mload\n      dup2\n      0x02\n      add\n      exp(0x0100, 0x00)\n      dup2\n      sload\n      dup2\n      0xff\n      mul\n      not\n      and\n      swap1\n      dup4\n      iszero\n      iszero\n      mul\n      or\n      swap1\n      sstore\n      pop\n      0x60\n      dup3\n      add\n      mload\n      dup2\n      0x02\n      add\n      exp(0x0100, 0x01)\n      dup2\n      sload\n      dup2\n      0xffffffffffffffffffffffffffffffffffffffff\n      mul\n      not\n      and\n      swap1\n      dup4\n      0xffffffffffffffffffffffffffffffffffffffff\n      and\n      mul\n      or\n      swap1\n      sstore\n      pop\n      swap1\n      pop\n      pop\n        /* \"toy/gusdnr/contracts/store.sol\":2531:2889  {... */\n      pop\n        /* \"toy/gusdnr/contracts/store.sol\":2464:2889  function registerProduct(string memory name, uint256 price) public {... */\n      pop\n      pop\n      jump\t// out\n        /* \"toy/gusdnr/contracts/ERC20.sol\":383:403  string public symbol */\n    tag_107:\n      0x01\n      dup1\n      sload\n      tag_237\n      swap1\n      tag_139\n      jump\t// in\n    tag_237:\n      dup1\n      0x1f\n      add\n      0x20\n      dup1\n      swap2\n      div\n      mul\n      0x20\n      add\n      mload(0x40)\n      swap1\n      dup2\n      add\n      0x40\n      mstore\n      dup1\n      swap3\n      swap2\n      swap1\n      dup2\n      dup2\n      mstore\n      0x20\n      add\n      dup3\n      dup1\n      sload\n      tag_238\n      swap1\n      tag_139\n      jump\t// in\n    tag_238:\n      dup1\n      iszero\n      tag_239\n      jumpi\n      dup1\n      0x1f\n      lt\n      tag_240\n      jumpi\n      0x0100\n      dup1\n      dup4\n      sload\n      div\n      mul\n      dup4\n      mstore\n      swap2\n      0x20\n      add\n      swap2\n      jump(tag_239)\n    tag_240:\n      dup3\n      add\n      swap2\n      swap1\n      0x00\n      mstore\n      keccak256(0x00, 0x20)\n      swap1\n    tag_241:\n      dup2\n      sload\n      dup2\n      mstore\n      swap1\n      0x01\n      add\n      swap1\n      0x20\n      add\n      dup1\n      dup4\n      gt\n      tag_241\n      jumpi\n      dup3\n      swap1\n      sub\n      0x1f\n      and\n      dup3\n      add\n      swap2\n    tag_239:\n      pop\n      pop\n      pop\n      pop\n      pop\n      dup2\n      jump\t// out\n        /* \"toy/gusdnr/contracts/ERC20.sol\":3827:4417  function transfer(... */\n    tag_112:\n        /* \"toy/gusdnr/contracts/ERC20.sol\":3918:3922  bool */\n      0x00\n        /* \"toy/gusdnr/contracts/ERC20.sol\":4031:4037  amount */\n      dup2\n        /* \"toy/gusdnr/contracts/ERC20.sol\":4007:4015  balances */\n      0x05\n        /* \"toy/gusdnr/contracts/ERC20.sol\":4007:4027  balances[msg.sender] */\n      0x00\n        /* \"toy/gusdnr/contracts/ERC20.sol\":4016:4026  msg.sender */\n      caller\n        /* \"toy/gusdnr/contracts/ERC20.sol\":4007:4027  balances[msg.sender] */\n      0xffffffffffffffffffffffffffffffffffffffff\n      and\n      0xffffffffffffffffffffffffffffffffffffffff\n      and\n      dup2\n      mstore\n      0x20\n      add\n      swap1\n      dup2\n      mstore\n      0x20\n      add\n      0x00\n      keccak256\n      0x00\n        /* \"toy/gusdnr/contracts/ERC20.sol\":4007:4037  balances[msg.sender] -= amount */\n      dup3\n      dup3\n      sload\n      tag_243\n      swap2\n      swap1\n      tag_31\n      jump\t// in\n    tag_243:\n      swap3\n      pop\n      pop\n      dup2\n      swap1\n      sstore\n      pop\n        /* \"toy/gusdnr/contracts/ERC20.sol\":4114:4120  amount */\n      dup2\n        /* \"toy/gusdnr/contracts/ERC20.sol\":4098:4106  balances */\n      0x05\n        /* \"toy/gusdnr/contracts/ERC20.sol\":4098:4110  balances[to] */\n      0x00\n        /* \"toy/gusdnr/contracts/ERC20.sol\":4107:4109  to */\n      dup6\n        /* \"toy/gusdnr/contracts/ERC20.sol\":4098:4110  balances[to] */\n      0xffffffffffffffffffffffffffffffffffffffff\n      and\n      0xffffffffffffffffffffffffffffffffffffffff\n      and\n      dup2\n      mstore\n      0x20\n      add\n      swap1\n      dup2\n      mstore\n      0x20\n      add\n      0x00\n      keccak256\n      0x00\n        /* \"toy/gusdnr/contracts/ERC20.sol\":4098:4120  balances[to] += amount */\n      dup3\n      dup3\n      sload\n      tag_244\n      swap2\n      swap1\n      tag_33\n      jump\t// in\n    tag_244:\n      swap3\n      pop\n      pop\n      dup2\n      swap1\n      sstore\n      pop\n        /* \"toy/gusdnr/contracts/ERC20.sol\":4280:4312  Transfer(msg.sender, to, amount) */\n      0xddf252ad1be2c89b69c2b068fc378daa952ba7f163c4a11628f55a4df523b3ef\n        /* \"toy/gusdnr/contracts/ERC20.sol\":4289:4299  msg.sender */\n      caller\n        /* \"toy/gusdnr/contracts/ERC20.sol\":4301:4303  to */\n      dup5\n        /* \"toy/gusdnr/contracts/ERC20.sol\":4305:4311  amount */\n      dup5\n        /* \"toy/gusdnr/contracts/ERC20.sol\":4280:4312  Transfer(msg.sender, to, amount) */\n      mload(0x40)\n      tag_245\n      swap4\n      swap3\n      swap2\n      swap1\n      tag_146\n      jump\t// in\n    tag_245:\n      mload(0x40)\n      dup1\n      swap2\n      sub\n      swap1\n      log1\n        /* \"toy/gusdnr/contracts/ERC20.sol\":4406:4410  true */\n      0x01\n        /* \"toy/gusdnr/contracts/ERC20.sol\":4399:4410  return true */\n      swap1\n      pop\n        /* \"toy/gusdnr/contracts/ERC20.sol\":3827:4417  function transfer(... */\n      swap3\n      swap2\n      pop\n      pop\n      jump\t// out\n        /* \"toy/gusdnr/contracts/store.sol\":1706:1734  Product[] public allProducts */\n    tag_117:\n      0x07\n      dup2\n      dup2\n      sload\n      dup2\n      lt\n      tag_246\n      jumpi\n      0x00\n      dup1\n      revert\n    tag_246:\n      swap1\n      0x00\n      mstore\n      keccak256(0x00, 0x20)\n      swap1\n      0x03\n      mul\n      add\n      0x00\n      swap2\n      pop\n      swap1\n      pop\n      dup1\n      0x00\n      add\n      dup1\n      sload\n      tag_248\n      swap1\n      tag_139\n      jump\t// in\n    tag_248:\n      dup1\n      0x1f\n      add\n      0x20\n      dup1\n      swap2\n      div\n      mul\n      0x20\n      add\n      mload(0x40)\n      swap1\n      dup2\n      add\n      0x40\n      mstore\n      dup1\n      swap3\n      swap2\n      swap1\n      dup2\n      dup2\n      mstore\n      0x20\n      add\n      dup3\n      dup1\n      sload\n      tag_249\n      swap1\n      tag_139\n      jump\t// in\n    tag_249:\n      dup1\n      iszero\n      tag_250\n      jumpi\n      dup1\n      0x1f\n      lt\n      tag_251\n      jumpi\n      0x0100\n      dup1\n      dup4\n      sload\n      div\n      mul\n      dup4\n      mstore\n      swap2\n      0x20\n      add\n      swap2\n      jump(tag_250)\n    tag_251:\n      dup3\n      add\n      swap2\n      swap1\n      0x00\n      mstore\n      keccak256(0x00, 0x20)\n      swap1\n    tag_252:\n      dup2\n      sload\n      dup2\n      mstore\n      swap1\n      0x01\n      add\n      swap1\n      0x20\n      add\n      dup1\n      dup4\n      gt\n      tag_252\n      jumpi\n      dup3\n      swap1\n      sub\n      0x1f\n      and\n      dup3\n      add\n      swap2\n    tag_250:\n      pop\n      pop\n      pop\n      pop\n      pop\n      swap1\n      dup1\n      0x01\n      add\n      sload\n      swap1\n      dup1\n      0x02\n      add\n      0x00\n      swap1\n      sload\n      swap1\n      0x0100\n      exp\n      swap1\n      div\n      0xff\n      and\n      swap1\n      dup1\n      0x02\n      add\n      0x01\n      swap1\n      sload\n      swap1\n      0x0100\n      exp\n      swap1\n      div\n      0xffffffffffffffffffffffffffffffffffffffff\n      and\n      swap1\n      pop\n      dup5\n      jump\t// out\n        /* \"toy/gusdnr/contracts/store.sol\":1840:1890  mapping(uint256 => Product) public forSaleProducts */\n    tag_122:\n      mstore(0x20, 0x0a)\n      dup1\n      0x00\n      mstore\n      keccak256(0x00, 0x40)\n      0x00\n      swap2\n      pop\n      swap1\n      pop\n      dup1\n      0x00\n      add\n      dup1\n      sload\n      tag_253\n      swap1\n      tag_139\n      jump\t// in\n    tag_253:\n      dup1\n      0x1f\n      add\n      0x20\n      dup1\n      swap2\n      div\n      mul\n      0x20\n      add\n      mload(0x40)\n      swap1\n      dup2\n      add\n      0x40\n      mstore\n      dup1\n      swap3\n      swap2\n      swap1\n      dup2\n      dup2\n      mstore\n      0x20\n      add\n      dup3\n      dup1\n      sload\n      tag_254\n      swap1\n      tag_139\n      jump\t// in\n    tag_254:\n      dup1\n      iszero\n      tag_255\n      jumpi\n      dup1\n      0x1f\n      lt\n      tag_256\n      jumpi\n      0x0100\n      dup1\n      dup4\n      sload\n      div\n      mul\n      dup4\n      mstore\n      swap2\n      0x20\n      add\n      swap2\n      jump(tag_255)\n    tag_256:\n      dup3\n      add\n      swap2\n      swap1\n      0x00\n      mstore\n      keccak256(0x00, 0x20)\n      swap1\n    tag_257:\n      dup2\n      sload\n      dup2\n      mstore\n      swap1\n      0x01\n      add\n      swap1\n      0x20\n      add\n      dup1\n      dup4\n      gt\n      tag_257\n      jumpi\n      dup3\n      swap1\n      sub\n      0x1f\n      and\n      dup3\n      add\n      swap2\n    tag_255:\n      pop\n      pop\n      pop\n      pop\n      pop\n      swap1\n      dup1\n      0x01\n      add\n      sload\n      swap1\n      dup1\n      0x02\n      add\n      0x00\n      swap1\n      sload\n      swap1\n      0x0100\n      exp\n      swap1\n      div\n      0xff\n      and\n      swap1\n      dup1\n      0x02\n      add\n      0x01\n      swap1\n      sload\n      swap1\n      0x0100\n      exp\n      swap1\n      div\n      0xffffffffffffffffffffffffffffffffffffffff\n      and\n      swap1\n      pop\n      dup5\n      jump\t// out\n        /* \"toy/gusdnr/contracts/ERC20.sol\":2342:2412  mapping(address => mapping(address => uint)) public override allowance */\n    tag_128:\n      mstore(0x20, 0x06)\n      dup2\n      0x00\n      mstore\n      mstore(0x20, keccak256(0x00, 0x40))\n      dup1\n      0x00\n      mstore\n      keccak256(0x00, 0x40)\n      0x00\n      swap2\n      pop\n      swap2\n      pop\n      pop\n      sload\n      dup2\n      jump\t// out\n        /* \"toy/gusdnr/contracts/store.sol\":1897:1915  ERC20 public token */\n    tag_132:\n      0x0b\n      0x00\n      swap1\n      sload\n      swap1\n      0x0100\n      exp\n      swap1\n      div\n      0xffffffffffffffffffffffffffffffffffffffff\n      and\n      dup2\n      jump\t// out\n    tag_195:\n      mload(0x40)\n      dup1\n      0x80\n      add\n      0x40\n      mstore\n      dup1\n      0x60\n      dup2\n      mstore\n      0x20\n      add\n      0x00\n      dup2\n      mstore\n      0x20\n      add\n      iszero(iszero(0x00))\n      dup2\n      mstore\n      0x20\n      add\n      and(0xffffffffffffffffffffffffffffffffffffffff, 0x00)\n      dup2\n      mstore\n      pop\n      swap1\n      jump\t// out\n        /* \"#utility.yul\":7:84   */\n    tag_258:\n        /* \"#utility.yul\":44:51   */\n      0x00\n        /* \"#utility.yul\":73:78   */\n      dup2\n        /* \"#utility.yul\":62:78   */\n      swap1\n      pop\n        /* \"#utility.yul\":7:84   */\n      swap2\n      swap1\n      pop\n      jump\t// out\n        /* \"#utility.yul\":90:270   */\n    tag_259:\n        /* \"#utility.yul\":138:215   */\n      0x4e487b7100000000000000000000000000000000000000000000000000000000\n        /* \"#utility.yul\":135:136   */\n      0x00\n        /* \"#utility.yul\":128:216   */\n      mstore\n        /* \"#utility.yul\":235:239   */\n      0x11\n        /* \"#utility.yul\":232:233   */\n      0x04\n        /* \"#utility.yul\":225:240   */\n      mstore\n        /* \"#utility.yul\":259:263   */\n      0x24\n        /* \"#utility.yul\":256:257   */\n      0x00\n        /* \"#utility.yul\":249:264   */\n      revert\n        /* \"#utility.yul\":276:686   */\n    tag_28:\n        /* \"#utility.yul\":316:323   */\n      0x00\n        /* \"#utility.yul\":339:359   */\n      tag_336\n        /* \"#utility.yul\":357:358   */\n      dup3\n        /* \"#utility.yul\":339:359   */\n      tag_258\n      jump\t// in\n    tag_336:\n        /* \"#utility.yul\":334:359   */\n      swap2\n      pop\n        /* \"#utility.yul\":373:393   */\n      tag_337\n        /* \"#utility.yul\":391:392   */\n      dup4\n        /* \"#utility.yul\":373:393   */\n      tag_258\n      jump\t// in\n    tag_337:\n        /* \"#utility.yul\":368:393   */\n      swap3\n      pop\n        /* \"#utility.yul\":428:429   */\n      dup3\n        /* \"#utility.yul\":425:426   */\n      dup3\n        /* \"#utility.yul\":421:430   */\n      mul\n        /* \"#utility.yul\":450:480   */\n      tag_338\n        /* \"#utility.yul\":468:479   */\n      dup2\n        /* \"#utility.yul\":450:480   */\n      tag_258\n      jump\t// in\n    tag_338:\n        /* \"#utility.yul\":439:480   */\n      swap2\n      pop\n        /* \"#utility.yul\":629:630   */\n      dup3\n        /* \"#utility.yul\":620:627   */\n      dup3\n        /* \"#utility.yul\":616:631   */\n      div\n        /* \"#utility.yul\":613:614   */\n      dup5\n        /* \"#utility.yul\":610:632   */\n      eq\n        /* \"#utility.yul\":590:591   */\n      dup4\n        /* \"#utility.yul\":583:592   */\n      iszero\n        /* \"#utility.yul\":563:646   */\n      or\n        /* \"#utility.yul\":540:679   */\n      tag_339\n      jumpi\n        /* \"#utility.yul\":659:677   */\n      tag_340\n      tag_259\n      jump\t// in\n    tag_340:\n        /* \"#utility.yul\":540:679   */\n    tag_339:\n        /* \"#utility.yul\":324:686   */\n      pop\n        /* \"#utility.yul\":276:686   */\n      swap3\n      swap2\n      pop\n      pop\n      jump\t// out\n        /* \"#utility.yul\":692:886   */\n    tag_31:\n        /* \"#utility.yul\":732:736   */\n      0x00\n        /* \"#utility.yul\":752:772   */\n      tag_342\n        /* \"#utility.yul\":770:771   */\n      dup3\n        /* \"#utility.yul\":752:772   */\n      tag_258\n      jump\t// in\n    tag_342:\n        /* \"#utility.yul\":747:772   */\n      swap2\n      pop\n        /* \"#utility.yul\":786:806   */\n      tag_343\n        /* \"#utility.yul\":804:805   */\n      dup4\n        /* \"#utility.yul\":786:806   */\n      tag_258\n      jump\t// in\n    tag_343:\n        /* \"#utility.yul\":781:806   */\n      swap3\n      pop\n        /* \"#utility.yul\":830:831   */\n      dup3\n        /* \"#utility.yul\":827:828   */\n      dup3\n        /* \"#utility.yul\":823:832   */\n      sub\n        /* \"#utility.yul\":815:832   */\n      swap1\n      pop\n        /* \"#utility.yul\":854:855   */\n      dup2\n        /* \"#utility.yul\":848:852   */\n      dup2\n        /* \"#utility.yul\":845:856   */\n      gt\n        /* \"#utility.yul\":842:879   */\n      iszero\n      tag_344\n      jumpi\n        /* \"#utility.yul\":859:877   */\n      tag_345\n      tag_259\n      jump\t// in\n    tag_345:\n        /* \"#utility.yul\":842:879   */\n    tag_344:\n        /* \"#utility.yul\":692:886   */\n      swap3\n      swap2\n      pop\n      pop\n      jump\t// out\n        /* \"#utility.yul\":892:1083   */\n    tag_33:\n        /* \"#utility.yul\":932:935   */\n      0x00\n        /* \"#utility.yul\":951:971   */\n      tag_347\n        /* \"#utility.yul\":969:970   */\n      dup3\n        /* \"#utility.yul\":951:971   */\n      tag_258\n      jump\t// in\n    tag_347:\n        /* \"#utility.yul\":946:971   */\n      swap2\n      pop\n        /* \"#utility.yul\":985:1005   */\n      tag_348\n        /* \"#utility.yul\":1003:1004   */\n      dup4\n        /* \"#utility.yul\":985:1005   */\n      tag_258\n      jump\t// in\n    tag_348:\n        /* \"#utility.yul\":980:1005   */\n      swap3\n      pop\n        /* \"#utility.yul\":1028:1029   */\n      dup3\n        /* \"#utility.yul\":1025:1026   */\n      dup3\n        /* \"#utility.yul\":1021:1030   */\n      add\n        /* \"#utility.yul\":1014:1030   */\n      swap1\n      pop\n        /* \"#utility.yul\":1049:1052   */\n      dup1\n        /* \"#utility.yul\":1046:1047   */\n      dup3\n        /* \"#utility.yul\":1043:1053   */\n      gt\n        /* \"#utility.yul\":1040:1076   */\n      iszero\n      tag_349\n      jumpi\n        /* \"#utility.yul\":1056:1074   */\n      tag_350\n      tag_259\n      jump\t// in\n    tag_350:\n        /* \"#utility.yul\":1040:1076   */\n    tag_349:\n        /* \"#utility.yul\":892:1083   */\n      swap3\n      swap2\n      pop\n      pop\n      jump\t// out\n        /* \"#utility.yul\":1089:1188   */\n    tag_260:\n        /* \"#utility.yul\":1141:1147   */\n      0x00\n        /* \"#utility.yul\":1175:1180   */\n      dup2\n        /* \"#utility.yul\":1169:1181   */\n      mload\n        /* \"#utility.yul\":1159:1181   */\n      swap1\n      pop\n        /* \"#utility.yul\":1089:1188   */\n      swap2\n      swap1\n      pop\n      jump\t// out\n        /* \"#utility.yul\":1194:1363   */\n    tag_261:\n        /* \"#utility.yul\":1278:1289   */\n      0x00\n        /* \"#utility.yul\":1312:1318   */\n      dup3\n        /* \"#utility.yul\":1307:1310   */\n      dup3\n        /* \"#utility.yul\":1300:1319   */\n      mstore\n        /* \"#utility.yul\":1352:1356   */\n      0x20\n        /* \"#utility.yul\":1347:1350   */\n      dup3\n        /* \"#utility.yul\":1343:1357   */\n      add\n        /* \"#utility.yul\":1328:1357   */\n      swap1\n      pop\n        /* \"#utility.yul\":1194:1363   */\n      swap3\n      swap2\n      pop\n      pop\n      jump\t// out\n        /* \"#utility.yul\":1369:1615   */\n    tag_262:\n        /* \"#utility.yul\":1450:1451   */\n      0x00\n        /* \"#utility.yul\":1460:1573   */\n    tag_354:\n        /* \"#utility.yul\":1474:1480   */\n      dup4\n        /* \"#utility.yul\":1471:1472   */\n      dup2\n        /* \"#utility.yul\":1468:1481   */\n      lt\n        /* \"#utility.yul\":1460:1573   */\n      iszero\n      tag_356\n      jumpi\n        /* \"#utility.yul\":1559:1560   */\n      dup1\n        /* \"#utility.yul\":1554:1557   */\n      dup3\n        /* \"#utility.yul\":1550:1561   */\n      add\n        /* \"#utility.yul\":1544:1562   */\n      mload\n        /* \"#utility.yul\":1540:1541   */\n      dup2\n        /* \"#utility.yul\":1535:1538   */\n      dup5\n        /* \"#utility.yul\":1531:1542   */\n      add\n        /* \"#utility.yul\":1524:1563   */\n      mstore\n        /* \"#utility.yul\":1496:1498   */\n      0x20\n        /* \"#utility.yul\":1493:1494   */\n      dup2\n        /* \"#utility.yul\":1489:1499   */\n      add\n        /* \"#utility.yul\":1484:1499   */\n      swap1\n      pop\n        /* \"#utility.yul\":1460:1573   */\n      jump(tag_354)\n    tag_356:\n        /* \"#utility.yul\":1607:1608   */\n      0x00\n        /* \"#utility.yul\":1598:1604   */\n      dup5\n        /* \"#utility.yul\":1593:1596   */\n      dup5\n        /* \"#utility.yul\":1589:1605   */\n      add\n        /* \"#utility.yul\":1582:1609   */\n      mstore\n        /* \"#utility.yul\":1431:1615   */\n      pop\n        /* \"#utility.yul\":1369:1615   */\n      pop\n      pop\n      pop\n      jump\t// out\n        /* \"#utility.yul\":1621:1723   */\n    tag_263:\n        /* \"#utility.yul\":1662:1668   */\n      0x00\n        /* \"#utility.yul\":1713:1715   */\n      0x1f\n        /* \"#utility.yul\":1709:1716   */\n      not\n        /* \"#utility.yul\":1704:1706   */\n      0x1f\n        /* \"#utility.yul\":1697:1702   */\n      dup4\n        /* \"#utility.yul\":1693:1707   */\n      add\n        /* \"#utility.yul\":1689:1717   */\n      and\n        /* \"#utility.yul\":1679:1717   */\n      swap1\n      pop\n        /* \"#utility.yul\":1621:1723   */\n      swap2\n      swap1\n      pop\n      jump\t// out\n        /* \"#utility.yul\":1729:2106   */\n    tag_264:\n        /* \"#utility.yul\":1817:1820   */\n      0x00\n        /* \"#utility.yul\":1845:1884   */\n      tag_359\n        /* \"#utility.yul\":1878:1883   */\n      dup3\n        /* \"#utility.yul\":1845:1884   */\n      tag_260\n      jump\t// in\n    tag_359:\n        /* \"#utility.yul\":1900:1971   */\n      tag_360\n        /* \"#utility.yul\":1964:1970   */\n      dup2\n        /* \"#utility.yul\":1959:1962   */\n      dup6\n        /* \"#utility.yul\":1900:1971   */\n      tag_261\n      jump\t// in\n    tag_360:\n        /* \"#utility.yul\":1893:1971   */\n      swap4\n      pop\n        /* \"#utility.yul\":1980:2045   */\n      tag_361\n        /* \"#utility.yul\":2038:2044   */\n      dup2\n        /* \"#utility.yul\":2033:2036   */\n      dup6\n        /* \"#utility.yul\":2026:2030   */\n      0x20\n        /* \"#utility.yul\":2019:2024   */\n      dup7\n        /* \"#utility.yul\":2015:2031   */\n      add\n        /* \"#utility.yul\":1980:2045   */\n      tag_262\n      jump\t// in\n    tag_361:\n        /* \"#utility.yul\":2070:2099   */\n      tag_362\n        /* \"#utility.yul\":2092:2098   */\n      dup2\n        /* \"#utility.yul\":2070:2099   */\n      tag_263\n      jump\t// in\n    tag_362:\n        /* \"#utility.yul\":2065:2068   */\n      dup5\n        /* \"#utility.yul\":2061:2100   */\n      add\n        /* \"#utility.yul\":2054:2100   */\n      swap2\n      pop\n        /* \"#utility.yul\":1821:2106   */\n      pop\n        /* \"#utility.yul\":1729:2106   */\n      swap3\n      swap2\n      pop\n      pop\n      jump\t// out\n        /* \"#utility.yul\":2112:2425   */\n    tag_41:\n        /* \"#utility.yul\":2225:2229   */\n      0x00\n        /* \"#utility.yul\":2263:2265   */\n      0x20\n        /* \"#utility.yul\":2252:2261   */\n      dup3\n        /* \"#utility.yul\":2248:2266   */\n      add\n        /* \"#utility.yul\":2240:2266   */\n      swap1\n      pop\n        /* \"#utility.yul\":2312:2321   */\n      dup2\n        /* \"#utility.yul\":2306:2310   */\n      dup2\n        /* \"#utility.yul\":2302:2322   */\n      sub\n        /* \"#utility.yul\":2298:2299   */\n      0x00\n        /* \"#utility.yul\":2287:2296   */\n      dup4\n        /* \"#utility.yul\":2283:2300   */\n      add\n        /* \"#utility.yul\":2276:2323   */\n      mstore\n        /* \"#utility.yul\":2340:2418   */\n      tag_364\n        /* \"#utility.yul\":2413:2417   */\n      dup2\n        /* \"#utility.yul\":2404:2410   */\n      dup5\n        /* \"#utility.yul\":2340:2418   */\n      tag_264\n      jump\t// in\n    tag_364:\n        /* \"#utility.yul\":2332:2418   */\n      swap1\n      pop\n        /* \"#utility.yul\":2112:2425   */\n      swap3\n      swap2\n      pop\n      pop\n      jump\t// out\n        /* \"#utility.yul\":2431:2506   */\n    tag_265:\n        /* \"#utility.yul\":2464:2470   */\n      0x00\n        /* \"#utility.yul\":2497:2499   */\n      0x40\n        /* \"#utility.yul\":2491:2500   */\n      mload\n        /* \"#utility.yul\":2481:2500   */\n      swap1\n      pop\n        /* \"#utility.yul\":2431:2506   */\n      swap1\n      jump\t// out\n        /* \"#utility.yul\":2512:2629   */\n    tag_266:\n        /* \"#utility.yul\":2621:2622   */\n      0x00\n        /* \"#utility.yul\":2618:2619   */\n      dup1\n        /* \"#utility.yul\":2611:2623   */\n      revert\n        /* \"#utility.yul\":2635:2752   */\n    tag_267:\n        /* \"#utility.yul\":2744:2745   */\n      0x00\n        /* \"#utility.yul\":2741:2742   */\n      dup1\n        /* \"#utility.yul\":2734:2746   */\n      revert\n        /* \"#utility.yul\":2758:2884   */\n    tag_268:\n        /* \"#utility.yul\":2795:2802   */\n      0x00\n        /* \"#utility.yul\":2835:2877   */\n      0xffffffffffffffffffffffffffffffffffffffff\n        /* \"#utility.yul\":2828:2833   */\n      dup3\n        /* \"#utility.yul\":2824:2878   */\n      and\n        /* \"#utility.yul\":2813:2878   */\n      swap1\n      pop\n        /* \"#utility.yul\":2758:2884   */\n      swap2\n      swap1\n      pop\n      jump\t// out\n        /* \"#utility.yul\":2890:2986   */\n    tag_269:\n        /* \"#utility.yul\":2927:2934   */\n      0x00\n        /* \"#utility.yul\":2956:2980   */\n      tag_370\n        /* \"#utility.yul\":2974:2979   */\n      dup3\n        /* \"#utility.yul\":2956:2980   */\n      tag_268\n      jump\t// in\n    tag_370:\n        /* \"#utility.yul\":2945:2980   */\n      swap1\n      pop\n        /* \"#utility.yul\":2890:2986   */\n      swap2\n      swap1\n      pop\n      jump\t// out\n        /* \"#utility.yul\":2992:3114   */\n    tag_270:\n        /* \"#utility.yul\":3065:3089   */\n      tag_372\n        /* \"#utility.yul\":3083:3088   */\n      dup2\n        /* \"#utility.yul\":3065:3089   */\n      tag_269\n      jump\t// in\n    tag_372:\n        /* \"#utility.yul\":3058:3063   */\n      dup2\n        /* \"#utility.yul\":3055:3090   */\n      eq\n        /* \"#utility.yul\":3045:3108   */\n      tag_373\n      jumpi\n        /* \"#utility.yul\":3104:3105   */\n      0x00\n        /* \"#utility.yul\":3101:3102   */\n      dup1\n        /* \"#utility.yul\":3094:3106   */\n      revert\n        /* \"#utility.yul\":3045:3108   */\n    tag_373:\n        /* \"#utility.yul\":2992:3114   */\n      pop\n      jump\t// out\n        /* \"#utility.yul\":3120:3259   */\n    tag_271:\n        /* \"#utility.yul\":3166:3171   */\n      0x00\n        /* \"#utility.yul\":3204:3210   */\n      dup2\n        /* \"#utility.yul\":3191:3211   */\n      calldataload\n        /* \"#utility.yul\":3182:3211   */\n      swap1\n      pop\n        /* \"#utility.yul\":3220:3253   */\n      tag_375\n        /* \"#utility.yul\":3247:3252   */\n      dup2\n        /* \"#utility.yul\":3220:3253   */\n      tag_270\n      jump\t// in\n    tag_375:\n        /* \"#utility.yul\":3120:3259   */\n      swap3\n      swap2\n      pop\n      pop\n      jump\t// out\n        /* \"#utility.yul\":3265:3387   */\n    tag_272:\n        /* \"#utility.yul\":3338:3362   */\n      tag_377\n        /* \"#utility.yul\":3356:3361   */\n      dup2\n        /* \"#utility.yul\":3338:3362   */\n      tag_258\n      jump\t// in\n    tag_377:\n        /* \"#utility.yul\":3331:3336   */\n      dup2\n        /* \"#utility.yul\":3328:3363   */\n      eq\n        /* \"#utility.yul\":3318:3381   */\n      tag_378\n      jumpi\n        /* \"#utility.yul\":3377:3378   */\n      0x00\n        /* \"#utility.yul\":3374:3375   */\n      dup1\n        /* \"#utility.yul\":3367:3379   */\n      revert\n        /* \"#utility.yul\":3318:3381   */\n    tag_378:\n        /* \"#utility.yul\":3265:3387   */\n      pop\n      jump\t// out\n        /* \"#utility.yul\":3393:3532   */\n    tag_273:\n        /* \"#utility.yul\":3439:3444   */\n      0x00\n        /* \"#utility.yul\":3477:3483   */\n      dup2\n        /* \"#utility.yul\":3464:3484   */\n      calldataload\n        /* \"#utility.yul\":3455:3484   */\n      swap1\n      pop\n        /* \"#utility.yul\":3493:3526   */\n      tag_380\n        /* \"#utility.yul\":3520:3525   */\n      dup2\n        /* \"#utility.yul\":3493:3526   */\n      tag_272\n      jump\t// in\n    tag_380:\n        /* \"#utility.yul\":3393:3532   */\n      swap3\n      swap2\n      pop\n      pop\n      jump\t// out\n        /* \"#utility.yul\":3538:4012   */\n    tag_45:\n        /* \"#utility.yul\":3606:3612   */\n      0x00\n        /* \"#utility.yul\":3614:3620   */\n      dup1\n        /* \"#utility.yul\":3663:3665   */\n      0x40\n        /* \"#utility.yul\":3651:3660   */\n      dup4\n        /* \"#utility.yul\":3642:3649   */\n      dup6\n        /* \"#utility.yul\":3638:3661   */\n      sub\n        /* \"#utility.yul\":3634:3666   */\n      slt\n        /* \"#utility.yul\":3631:3750   */\n      iszero\n      tag_382\n      jumpi\n        /* \"#utility.yul\":3669:3748   */\n      tag_383\n      tag_266\n      jump\t// in\n    tag_383:\n        /* \"#utility.yul\":3631:3750   */\n    tag_382:\n        /* \"#utility.yul\":3789:3790   */\n      0x00\n        /* \"#utility.yul\":3814:3867   */\n      tag_384\n        /* \"#utility.yul\":3859:3866   */\n      dup6\n        /* \"#utility.yul\":3850:3856   */\n      dup3\n        /* \"#utility.yul\":3839:3848   */\n      dup7\n        /* \"#utility.yul\":3835:3857   */\n      add\n        /* \"#utility.yul\":3814:3867   */\n      tag_271\n      jump\t// in\n    tag_384:\n        /* \"#utility.yul\":3804:3867   */\n      swap3\n      pop\n        /* \"#utility.yul\":3760:3877   */\n      pop\n        /* \"#utility.yul\":3916:3918   */\n      0x20\n        /* \"#utility.yul\":3942:3995   */\n      tag_385\n        /* \"#utility.yul\":3987:3994   */\n      dup6\n        /* \"#utility.yul\":3978:3984   */\n      dup3\n        /* \"#utility.yul\":3967:3976   */\n      dup7\n        /* \"#utility.yul\":3963:3985   */\n      add\n        /* \"#utility.yul\":3942:3995   */\n      tag_273\n      jump\t// in\n    tag_385:\n        /* \"#utility.yul\":3932:3995   */\n      swap2\n      pop\n        /* \"#utility.yul\":3887:4005   */\n      pop\n        /* \"#utility.yul\":3538:4012   */\n      swap3\n      pop\n      swap3\n      swap1\n      pop\n      jump\t// out\n        /* \"#utility.yul\":4018:4108   */\n    tag_274:\n        /* \"#utility.yul\":4052:4059   */\n      0x00\n        /* \"#utility.yul\":4095:4100   */\n      dup2\n        /* \"#utility.yul\":4088:4101   */\n      iszero\n        /* \"#utility.yul\":4081:4102   */\n      iszero\n        /* \"#utility.yul\":4070:4102   */\n      swap1\n      pop\n        /* \"#utility.yul\":4018:4108   */\n      swap2\n      swap1\n      pop\n      jump\t// out\n        /* \"#utility.yul\":4114:4223   */\n    tag_275:\n        /* \"#utility.yul\":4195:4216   */\n      tag_388\n        /* \"#utility.yul\":4210:4215   */\n      dup2\n        /* \"#utility.yul\":4195:4216   */\n      tag_274\n      jump\t// in\n    tag_388:\n        /* \"#utility.yul\":4190:4193   */\n      dup3\n        /* \"#utility.yul\":4183:4217   */\n      mstore\n        /* \"#utility.yul\":4114:4223   */\n      pop\n      pop\n      jump\t// out\n        /* \"#utility.yul\":4229:4439   */\n    tag_48:\n        /* \"#utility.yul\":4316:4320   */\n      0x00\n        /* \"#utility.yul\":4354:4356   */\n      0x20\n        /* \"#utility.yul\":4343:4352   */\n      dup3\n        /* \"#utility.yul\":4339:4357   */\n      add\n        /* \"#utility.yul\":4331:4357   */\n      swap1\n      pop\n        /* \"#utility.yul\":4367:4432   */\n      tag_390\n        /* \"#utility.yul\":4429:4430   */\n      0x00\n        /* \"#utility.yul\":4418:4427   */\n      dup4\n        /* \"#utility.yul\":4414:4431   */\n      add\n        /* \"#utility.yul\":4405:4411   */\n      dup5\n        /* \"#utility.yul\":4367:4432   */\n      tag_275\n      jump\t// in\n    tag_390:\n        /* \"#utility.yul\":4229:4439   */\n      swap3\n      swap2\n      pop\n      pop\n      jump\t// out\n        /* \"#utility.yul\":4445:4563   */\n    tag_276:\n        /* \"#utility.yul\":4532:4556   */\n      tag_392\n        /* \"#utility.yul\":4550:4555   */\n      dup2\n        /* \"#utility.yul\":4532:4556   */\n      tag_258\n      jump\t// in\n    tag_392:\n        /* \"#utility.yul\":4527:4530   */\n      dup3\n        /* \"#utility.yul\":4520:4557   */\n      mstore\n        /* \"#utility.yul\":4445:4563   */\n      pop\n      pop\n      jump\t// out\n        /* \"#utility.yul\":4569:4791   */\n    tag_53:\n        /* \"#utility.yul\":4662:4666   */\n      0x00\n        /* \"#utility.yul\":4700:4702   */\n      0x20\n        /* \"#utility.yul\":4689:4698   */\n      dup3\n        /* \"#utility.yul\":4685:4703   */\n      add\n        /* \"#utility.yul\":4677:4703   */\n      swap1\n      pop\n        /* \"#utility.yul\":4713:4784   */\n      tag_394\n        /* \"#utility.yul\":4781:4782   */\n      0x00\n        /* \"#utility.yul\":4770:4779   */\n      dup4\n        /* \"#utility.yul\":4766:4783   */\n      add\n        /* \"#utility.yul\":4757:4763   */\n      dup5\n        /* \"#utility.yul\":4713:4784   */\n      tag_276\n      jump\t// in\n    tag_394:\n        /* \"#utility.yul\":4569:4791   */\n      swap3\n      swap2\n      pop\n      pop\n      jump\t// out\n        /* \"#utility.yul\":4797:5416   */\n    tag_57:\n        /* \"#utility.yul\":4874:4880   */\n      0x00\n        /* \"#utility.yul\":4882:4888   */\n      dup1\n        /* \"#utility.yul\":4890:4896   */\n      0x00\n        /* \"#utility.yul\":4939:4941   */\n      0x60\n        /* \"#utility.yul\":4927:4936   */\n      dup5\n        /* \"#utility.yul\":4918:4925   */\n      dup7\n        /* \"#utility.yul\":4914:4937   */\n      sub\n        /* \"#utility.yul\":4910:4942   */\n      slt\n        /* \"#utility.yul\":4907:5026   */\n      iszero\n      tag_396\n      jumpi\n        /* \"#utility.yul\":4945:5024   */\n      tag_397\n      tag_266\n      jump\t// in\n    tag_397:\n        /* \"#utility.yul\":4907:5026   */\n    tag_396:\n        /* \"#utility.yul\":5065:5066   */\n      0x00\n        /* \"#utility.yul\":5090:5143   */\n      tag_398\n        /* \"#utility.yul\":5135:5142   */\n      dup7\n        /* \"#utility.yul\":5126:5132   */\n      dup3\n        /* \"#utility.yul\":5115:5124   */\n      dup8\n        /* \"#utility.yul\":5111:5133   */\n      add\n        /* \"#utility.yul\":5090:5143   */\n      tag_271\n      jump\t// in\n    tag_398:\n        /* \"#utility.yul\":5080:5143   */\n      swap4\n      pop\n        /* \"#utility.yul\":5036:5153   */\n      pop\n        /* \"#utility.yul\":5192:5194   */\n      0x20\n        /* \"#utility.yul\":5218:5271   */\n      tag_399\n        /* \"#utility.yul\":5263:5270   */\n      dup7\n        /* \"#utility.yul\":5254:5260   */\n      dup3\n        /* \"#utility.yul\":5243:5252   */\n      dup8\n        /* \"#utility.yul\":5239:5261   */\n      add\n        /* \"#utility.yul\":5218:5271   */\n      tag_271\n      jump\t// in\n    tag_399:\n        /* \"#utility.yul\":5208:5271   */\n      swap3\n      pop\n        /* \"#utility.yul\":5163:5281   */\n      pop\n        /* \"#utility.yul\":5320:5322   */\n      0x40\n        /* \"#utility.yul\":5346:5399   */\n      tag_400\n        /* \"#utility.yul\":5391:5398   */\n      dup7\n        /* \"#utility.yul\":5382:5388   */\n      dup3\n        /* \"#utility.yul\":5371:5380   */\n      dup8\n        /* \"#utility.yul\":5367:5389   */\n      add\n        /* \"#utility.yul\":5346:5399   */\n      tag_273\n      jump\t// in\n    tag_400:\n        /* \"#utility.yul\":5336:5399   */\n      swap2\n      pop\n        /* \"#utility.yul\":5291:5409   */\n      pop\n        /* \"#utility.yul\":4797:5416   */\n      swap3\n      pop\n      swap3\n      pop\n      swap3\n      jump\t// out\n        /* \"#utility.yul\":5422:5751   */\n    tag_63:\n        /* \"#utility.yul\":5481:5487   */\n      0x00\n        /* \"#utility.yul\":5530:5532   */\n      0x20\n        /* \"#utility.yul\":5518:5527   */\n      dup3\n        /* \"#utility.yul\":5509:5516   */\n      dup5\n        /* \"#utility.yul\":5505:5528   */\n      sub\n        /* \"#utility.yul\":5501:5533   */\n      slt\n        /* \"#utility.yul\":5498:5617   */\n      iszero\n      tag_402\n      jumpi\n        /* \"#utility.yul\":5536:5615   */\n      tag_403\n      tag_266\n      jump\t// in\n    tag_403:\n        /* \"#utility.yul\":5498:5617   */\n    tag_402:\n        /* \"#utility.yul\":5656:5657   */\n      0x00\n        /* \"#utility.yul\":5681:5734   */\n      tag_404\n        /* \"#utility.yul\":5726:5733   */\n      dup5\n        /* \"#utility.yul\":5717:5723   */\n      dup3\n        /* \"#utility.yul\":5706:5715   */\n      dup6\n        /* \"#utility.yul\":5702:5724   */\n      add\n        /* \"#utility.yul\":5681:5734   */\n      tag_271\n      jump\t// in\n    tag_404:\n        /* \"#utility.yul\":5671:5734   */\n      swap2\n      pop\n        /* \"#utility.yul\":5627:5744   */\n      pop\n        /* \"#utility.yul\":5422:5751   */\n      swap3\n      swap2\n      pop\n      pop\n      jump\t// out\n        /* \"#utility.yul\":5757:5843   */\n    tag_277:\n        /* \"#utility.yul\":5792:5799   */\n      0x00\n        /* \"#utility.yul\":5832:5836   */\n      0xff\n        /* \"#utility.yul\":5825:5830   */\n      dup3\n        /* \"#utility.yul\":5821:5837   */\n      and\n        /* \"#utility.yul\":5810:5837   */\n      swap1\n      pop\n        /* \"#utility.yul\":5757:5843   */\n      swap2\n      swap1\n      pop\n      jump\t// out\n        /* \"#utility.yul\":5849:5961   */\n    tag_278:\n        /* \"#utility.yul\":5932:5954   */\n      tag_407\n        /* \"#utility.yul\":5948:5953   */\n      dup2\n        /* \"#utility.yul\":5932:5954   */\n      tag_277\n      jump\t// in\n    tag_407:\n        /* \"#utility.yul\":5927:5930   */\n      dup3\n        /* \"#utility.yul\":5920:5955   */\n      mstore\n        /* \"#utility.yul\":5849:5961   */\n      pop\n      pop\n      jump\t// out\n        /* \"#utility.yul\":5967:6181   */\n    tag_70:\n        /* \"#utility.yul\":6056:6060   */\n      0x00\n        /* \"#utility.yul\":6094:6096   */\n      0x20\n        /* \"#utility.yul\":6083:6092   */\n      dup3\n        /* \"#utility.yul\":6079:6097   */\n      add\n        /* \"#utility.yul\":6071:6097   */\n      swap1\n      pop\n        /* \"#utility.yul\":6107:6174   */\n      tag_409\n        /* \"#utility.yul\":6171:6172   */\n      0x00\n        /* \"#utility.yul\":6160:6169   */\n      dup4\n        /* \"#utility.yul\":6156:6173   */\n      add\n        /* \"#utility.yul\":6147:6153   */\n      dup5\n        /* \"#utility.yul\":6107:6174   */\n      tag_278\n      jump\t// in\n    tag_409:\n        /* \"#utility.yul\":5967:6181   */\n      swap3\n      swap2\n      pop\n      pop\n      jump\t// out\n        /* \"#utility.yul\":6187:6516   */\n    tag_74:\n        /* \"#utility.yul\":6246:6252   */\n      0x00\n        /* \"#utility.yul\":6295:6297   */\n      0x20\n        /* \"#utility.yul\":6283:6292   */\n      dup3\n        /* \"#utility.yul\":6274:6281   */\n      dup5\n        /* \"#utility.yul\":6270:6293   */\n      sub\n        /* \"#utility.yul\":6266:6298   */\n      slt\n        /* \"#utility.yul\":6263:6382   */\n      iszero\n      tag_411\n      jumpi\n        /* \"#utility.yul\":6301:6380   */\n      tag_412\n      tag_266\n      jump\t// in\n    tag_412:\n        /* \"#utility.yul\":6263:6382   */\n    tag_411:\n        /* \"#utility.yul\":6421:6422   */\n      0x00\n        /* \"#utility.yul\":6446:6499   */\n      tag_413\n        /* \"#utility.yul\":6491:6498   */\n      dup5\n        /* \"#utility.yul\":6482:6488   */\n      dup3\n        /* \"#utility.yul\":6471:6480   */\n      dup6\n        /* \"#utility.yul\":6467:6489   */\n      add\n        /* \"#utility.yul\":6446:6499   */\n      tag_273\n      jump\t// in\n    tag_413:\n        /* \"#utility.yul\":6436:6499   */\n      swap2\n      pop\n        /* \"#utility.yul\":6392:6509   */\n      pop\n        /* \"#utility.yul\":6187:6516   */\n      swap3\n      swap2\n      pop\n      pop\n      jump\t// out\n        /* \"#utility.yul\":6522:6640   */\n    tag_279:\n        /* \"#utility.yul\":6609:6633   */\n      tag_415\n        /* \"#utility.yul\":6627:6632   */\n      dup2\n        /* \"#utility.yul\":6609:6633   */\n      tag_269\n      jump\t// in\n    tag_415:\n        /* \"#utility.yul\":6604:6607   */\n      dup3\n        /* \"#utility.yul\":6597:6634   */\n      mstore\n        /* \"#utility.yul\":6522:6640   */\n      pop\n      pop\n      jump\t// out\n        /* \"#utility.yul\":6646:7278   */\n    tag_81:\n        /* \"#utility.yul\":6837:6841   */\n      0x00\n        /* \"#utility.yul\":6875:6878   */\n      0x80\n        /* \"#utility.yul\":6864:6873   */\n      dup3\n        /* \"#utility.yul\":6860:6879   */\n      add\n        /* \"#utility.yul\":6852:6879   */\n      swap1\n      pop\n        /* \"#utility.yul\":6925:6934   */\n      dup2\n        /* \"#utility.yul\":6919:6923   */\n      dup2\n        /* \"#utility.yul\":6915:6935   */\n      sub\n        /* \"#utility.yul\":6911:6912   */\n      0x00\n        /* \"#utility.yul\":6900:6909   */\n      dup4\n        /* \"#utility.yul\":6896:6913   */\n      add\n        /* \"#utility.yul\":6889:6936   */\n      mstore\n        /* \"#utility.yul\":6953:7031   */\n      tag_417\n        /* \"#utility.yul\":7026:7030   */\n      dup2\n        /* \"#utility.yul\":7017:7023   */\n      dup8\n        /* \"#utility.yul\":6953:7031   */\n      tag_264\n      jump\t// in\n    tag_417:\n        /* \"#utility.yul\":6945:7031   */\n      swap1\n      pop\n        /* \"#utility.yul\":7041:7113   */\n      tag_418\n        /* \"#utility.yul\":7109:7111   */\n      0x20\n        /* \"#utility.yul\":7098:7107   */\n      dup4\n        /* \"#utility.yul\":7094:7112   */\n      add\n        /* \"#utility.yul\":7085:7091   */\n      dup7\n        /* \"#utility.yul\":7041:7113   */\n      tag_276\n      jump\t// in\n    tag_418:\n        /* \"#utility.yul\":7123:7189   */\n      tag_419\n        /* \"#utility.yul\":7185:7187   */\n      0x40\n        /* \"#utility.yul\":7174:7183   */\n      dup4\n        /* \"#utility.yul\":7170:7188   */\n      add\n        /* \"#utility.yul\":7161:7167   */\n      dup6\n        /* \"#utility.yul\":7123:7189   */\n      tag_275\n      jump\t// in\n    tag_419:\n        /* \"#utility.yul\":7199:7271   */\n      tag_420\n        /* \"#utility.yul\":7267:7269   */\n      0x60\n        /* \"#utility.yul\":7256:7265   */\n      dup4\n        /* \"#utility.yul\":7252:7270   */\n      add\n        /* \"#utility.yul\":7243:7249   */\n      dup5\n        /* \"#utility.yul\":7199:7271   */\n      tag_279\n      jump\t// in\n    tag_420:\n        /* \"#utility.yul\":6646:7278   */\n      swap6\n      swap5\n      pop\n      pop\n      pop\n      pop\n      pop\n      jump\t// out\n        /* \"#utility.yul\":7284:7422   */\n    tag_280:\n        /* \"#utility.yul\":7375:7381   */\n      0x00\n        /* \"#utility.yul\":7409:7414   */\n      dup2\n        /* \"#utility.yul\":7403:7415   */\n      mload\n        /* \"#utility.yul\":7393:7415   */\n      swap1\n      pop\n        /* \"#utility.yul\":7284:7422   */\n      swap2\n      swap1\n      pop\n      jump\t// out\n        /* \"#utility.yul\":7428:7636   */\n    tag_281:\n        /* \"#utility.yul\":7551:7562   */\n      0x00\n        /* \"#utility.yul\":7585:7591   */\n      dup3\n        /* \"#utility.yul\":7580:7583   */\n      dup3\n        /* \"#utility.yul\":7573:7592   */\n      mstore\n        /* \"#utility.yul\":7625:7629   */\n      0x20\n        /* \"#utility.yul\":7620:7623   */\n      dup3\n        /* \"#utility.yul\":7616:7630   */\n      add\n        /* \"#utility.yul\":7601:7630   */\n      swap1\n      pop\n        /* \"#utility.yul\":7428:7636   */\n      swap3\n      swap2\n      pop\n      pop\n      jump\t// out\n        /* \"#utility.yul\":7642:7798   */\n    tag_282:\n        /* \"#utility.yul\":7733:7737   */\n      0x00\n        /* \"#utility.yul\":7756:7759   */\n      dup2\n        /* \"#utility.yul\":7748:7759   */\n      swap1\n      pop\n        /* \"#utility.yul\":7786:7790   */\n      0x20\n        /* \"#utility.yul\":7781:7784   */\n      dup3\n        /* \"#utility.yul\":7777:7791   */\n      add\n        /* \"#utility.yul\":7769:7791   */\n      swap1\n      pop\n        /* \"#utility.yul\":7642:7798   */\n      swap2\n      swap1\n      pop\n      jump\t// out\n        /* \"#utility.yul\":7804:7963   */\n    tag_283:\n        /* \"#utility.yul\":7878:7889   */\n      0x00\n        /* \"#utility.yul\":7912:7918   */\n      dup3\n        /* \"#utility.yul\":7907:7910   */\n      dup3\n        /* \"#utility.yul\":7900:7919   */\n      mstore\n        /* \"#utility.yul\":7952:7956   */\n      0x20\n        /* \"#utility.yul\":7947:7950   */\n      dup3\n        /* \"#utility.yul\":7943:7957   */\n      add\n        /* \"#utility.yul\":7928:7957   */\n      swap1\n      pop\n        /* \"#utility.yul\":7804:7963   */\n      swap3\n      swap2\n      pop\n      pop\n      jump\t// out\n        /* \"#utility.yul\":7969:8326   */\n    tag_284:\n        /* \"#utility.yul\":8047:8050   */\n      0x00\n        /* \"#utility.yul\":8075:8114   */\n      tag_426\n        /* \"#utility.yul\":8108:8113   */\n      dup3\n        /* \"#utility.yul\":8075:8114   */\n      tag_260\n      jump\t// in\n    tag_426:\n        /* \"#utility.yul\":8130:8191   */\n      tag_427\n        /* \"#utility.yul\":8184:8190   */\n      dup2\n        /* \"#utility.yul\":8179:8182   */\n      dup6\n        /* \"#utility.yul\":8130:8191   */\n      tag_283\n      jump\t// in\n    tag_427:\n        /* \"#utility.yul\":8123:8191   */\n      swap4\n      pop\n        /* \"#utility.yul\":8200:8265   */\n      tag_428\n        /* \"#utility.yul\":8258:8264   */\n      dup2\n        /* \"#utility.yul\":8253:8256   */\n      dup6\n        /* \"#utility.yul\":8246:8250   */\n      0x20\n        /* \"#utility.yul\":8239:8244   */\n      dup7\n        /* \"#utility.yul\":8235:8251   */\n      add\n        /* \"#utility.yul\":8200:8265   */\n      tag_262\n      jump\t// in\n    tag_428:\n        /* \"#utility.yul\":8290:8319   */\n      tag_429\n        /* \"#utility.yul\":8312:8318   */\n      dup2\n        /* \"#utility.yul\":8290:8319   */\n      tag_263\n      jump\t// in\n    tag_429:\n        /* \"#utility.yul\":8285:8288   */\n      dup5\n        /* \"#utility.yul\":8281:8320   */\n      add\n        /* \"#utility.yul\":8274:8320   */\n      swap2\n      pop\n        /* \"#utility.yul\":8051:8326   */\n      pop\n        /* \"#utility.yul\":7969:8326   */\n      swap3\n      swap2\n      pop\n      pop\n      jump\t// out\n        /* \"#utility.yul\":8332:8440   */\n    tag_285:\n        /* \"#utility.yul\":8409:8433   */\n      tag_431\n        /* \"#utility.yul\":8427:8432   */\n      dup2\n        /* \"#utility.yul\":8409:8433   */\n      tag_258\n      jump\t// in\n    tag_431:\n        /* \"#utility.yul\":8404:8407   */\n      dup3\n        /* \"#utility.yul\":8397:8434   */\n      mstore\n        /* \"#utility.yul\":8332:8440   */\n      pop\n      pop\n      jump\t// out\n        /* \"#utility.yul\":8446:8545   */\n    tag_286:\n        /* \"#utility.yul\":8517:8538   */\n      tag_433\n        /* \"#utility.yul\":8532:8537   */\n      dup2\n        /* \"#utility.yul\":8517:8538   */\n      tag_274\n      jump\t// in\n    tag_433:\n        /* \"#utility.yul\":8512:8515   */\n      dup3\n        /* \"#utility.yul\":8505:8539   */\n      mstore\n        /* \"#utility.yul\":8446:8545   */\n      pop\n      pop\n      jump\t// out\n        /* \"#utility.yul\":8551:8659   */\n    tag_287:\n        /* \"#utility.yul\":8628:8652   */\n      tag_435\n        /* \"#utility.yul\":8646:8651   */\n      dup2\n        /* \"#utility.yul\":8628:8652   */\n      tag_269\n      jump\t// in\n    tag_435:\n        /* \"#utility.yul\":8623:8626   */\n      dup3\n        /* \"#utility.yul\":8616:8653   */\n      mstore\n        /* \"#utility.yul\":8551:8659   */\n      pop\n      pop\n      jump\t// out\n        /* \"#utility.yul\":8729:9670   */\n    tag_288:\n        /* \"#utility.yul\":8836:8839   */\n      0x00\n        /* \"#utility.yul\":8872:8876   */\n      0x80\n        /* \"#utility.yul\":8867:8870   */\n      dup4\n        /* \"#utility.yul\":8863:8877   */\n      add\n        /* \"#utility.yul\":8959:8963   */\n      0x00\n        /* \"#utility.yul\":8952:8957   */\n      dup4\n        /* \"#utility.yul\":8948:8964   */\n      add\n        /* \"#utility.yul\":8942:8965   */\n      mload\n        /* \"#utility.yul\":9012:9015   */\n      dup5\n        /* \"#utility.yul\":9006:9010   */\n      dup3\n        /* \"#utility.yul\":9002:9016   */\n      sub\n        /* \"#utility.yul\":8995:8999   */\n      0x00\n        /* \"#utility.yul\":8990:8993   */\n      dup7\n        /* \"#utility.yul\":8986:9000   */\n      add\n        /* \"#utility.yul\":8979:9017   */\n      mstore\n        /* \"#utility.yul\":9038:9111   */\n      tag_437\n        /* \"#utility.yul\":9106:9110   */\n      dup3\n        /* \"#utility.yul\":9092:9104   */\n      dup3\n        /* \"#utility.yul\":9038:9111   */\n      tag_284\n      jump\t// in\n    tag_437:\n        /* \"#utility.yul\":9030:9111   */\n      swap2\n      pop\n        /* \"#utility.yul\":8887:9122   */\n      pop\n        /* \"#utility.yul\":9205:9209   */\n      0x20\n        /* \"#utility.yul\":9198:9203   */\n      dup4\n        /* \"#utility.yul\":9194:9210   */\n      add\n        /* \"#utility.yul\":9188:9211   */\n      mload\n        /* \"#utility.yul\":9224:9287   */\n      tag_438\n        /* \"#utility.yul\":9281:9285   */\n      0x20\n        /* \"#utility.yul\":9276:9279   */\n      dup7\n        /* \"#utility.yul\":9272:9286   */\n      add\n        /* \"#utility.yul\":9258:9270   */\n      dup3\n        /* \"#utility.yul\":9224:9287   */\n      tag_285\n      jump\t// in\n    tag_438:\n        /* \"#utility.yul\":9132:9297   */\n      pop\n        /* \"#utility.yul\":9382:9386   */\n      0x40\n        /* \"#utility.yul\":9375:9380   */\n      dup4\n        /* \"#utility.yul\":9371:9387   */\n      add\n        /* \"#utility.yul\":9365:9388   */\n      mload\n        /* \"#utility.yul\":9401:9458   */\n      tag_439\n        /* \"#utility.yul\":9452:9456   */\n      0x40\n        /* \"#utility.yul\":9447:9450   */\n      dup7\n        /* \"#utility.yul\":9443:9457   */\n      add\n        /* \"#utility.yul\":9429:9441   */\n      dup3\n        /* \"#utility.yul\":9401:9458   */\n      tag_286\n      jump\t// in\n    tag_439:\n        /* \"#utility.yul\":9307:9468   */\n      pop\n        /* \"#utility.yul\":9551:9555   */\n      0x60\n        /* \"#utility.yul\":9544:9549   */\n      dup4\n        /* \"#utility.yul\":9540:9556   */\n      add\n        /* \"#utility.yul\":9534:9557   */\n      mload\n        /* \"#utility.yul\":9570:9633   */\n      tag_440\n        /* \"#utility.yul\":9627:9631   */\n      0x60\n        /* \"#utility.yul\":9622:9625   */\n      dup7\n        /* \"#utility.yul\":9618:9632   */\n      add\n        /* \"#utility.yul\":9604:9616   */\n      dup3\n        /* \"#utility.yul\":9570:9633   */\n      tag_287\n      jump\t// in\n    tag_440:\n        /* \"#utility.yul\":9478:9643   */\n      pop\n        /* \"#utility.yul\":9660:9664   */\n      dup1\n        /* \"#utility.yul\":9653:9664   */\n      swap2\n      pop\n        /* \"#utility.yul\":8841:9670   */\n      pop\n        /* \"#utility.yul\":8729:9670   */\n      swap3\n      swap2\n      pop\n      pop\n      jump\t// out\n        /* \"#utility.yul\":9676:9928   */\n    tag_289:\n        /* \"#utility.yul\":9793:9803   */\n      0x00\n        /* \"#utility.yul\":9828:9922   */\n      tag_442\n        /* \"#utility.yul\":9918:9921   */\n      dup4\n        /* \"#utility.yul\":9910:9916   */\n      dup4\n        /* \"#utility.yul\":9828:9922   */\n      tag_288\n      jump\t// in\n    tag_442:\n        /* \"#utility.yul\":9814:9922   */\n      swap1\n      pop\n        /* \"#utility.yul\":9676:9928   */\n      swap3\n      swap2\n      pop\n      pop\n      jump\t// out\n        /* \"#utility.yul\":9934:10071   */\n    tag_290:\n        /* \"#utility.yul\":10028:10032   */\n      0x00\n        /* \"#utility.yul\":10060:10064   */\n      0x20\n        /* \"#utility.yul\":10055:10058   */\n      dup3\n        /* \"#utility.yul\":10051:10065   */\n      add\n        /* \"#utility.yul\":10043:10065   */\n      swap1\n      pop\n        /* \"#utility.yul\":9934:10071   */\n      swap2\n      swap1\n      pop\n      jump\t// out\n        /* \"#utility.yul\":10145:11248   */\n    tag_291:\n        /* \"#utility.yul\":10312:10315   */\n      0x00\n        /* \"#utility.yul\":10341:10419   */\n      tag_445\n        /* \"#utility.yul\":10413:10418   */\n      dup3\n        /* \"#utility.yul\":10341:10419   */\n      tag_280\n      jump\t// in\n    tag_445:\n        /* \"#utility.yul\":10435:10545   */\n      tag_446\n        /* \"#utility.yul\":10538:10544   */\n      dup2\n        /* \"#utility.yul\":10533:10536   */\n      dup6\n        /* \"#utility.yul\":10435:10545   */\n      tag_281\n      jump\t// in\n    tag_446:\n        /* \"#utility.yul\":10428:10545   */\n      swap4\n      pop\n        /* \"#utility.yul\":10571:10574   */\n      dup4\n        /* \"#utility.yul\":10616:10620   */\n      0x20\n        /* \"#utility.yul\":10608:10614   */\n      dup3\n        /* \"#utility.yul\":10604:10621   */\n      mul\n        /* \"#utility.yul\":10599:10602   */\n      dup6\n        /* \"#utility.yul\":10595:10622   */\n      add\n        /* \"#utility.yul\":10646:10726   */\n      tag_447\n        /* \"#utility.yul\":10720:10725   */\n      dup6\n        /* \"#utility.yul\":10646:10726   */\n      tag_282\n      jump\t// in\n    tag_447:\n        /* \"#utility.yul\":10749:10756   */\n      dup1\n        /* \"#utility.yul\":10780:10781   */\n      0x00\n        /* \"#utility.yul\":10765:11203   */\n    tag_448:\n        /* \"#utility.yul\":10790:10796   */\n      dup6\n        /* \"#utility.yul\":10787:10788   */\n      dup2\n        /* \"#utility.yul\":10784:10797   */\n      lt\n        /* \"#utility.yul\":10765:11203   */\n      iszero\n      tag_450\n      jumpi\n        /* \"#utility.yul\":10861:10870   */\n      dup5\n        /* \"#utility.yul\":10855:10859   */\n      dup5\n        /* \"#utility.yul\":10851:10871   */\n      sub\n        /* \"#utility.yul\":10846:10849   */\n      dup10\n        /* \"#utility.yul\":10839:10872   */\n      mstore\n        /* \"#utility.yul\":10912:10918   */\n      dup2\n        /* \"#utility.yul\":10906:10919   */\n      mload\n        /* \"#utility.yul\":10940:11052   */\n      tag_451\n        /* \"#utility.yul\":11047:11051   */\n      dup6\n        /* \"#utility.yul\":11032:11045   */\n      dup3\n        /* \"#utility.yul\":10940:11052   */\n      tag_289\n      jump\t// in\n    tag_451:\n        /* \"#utility.yul\":10932:11052   */\n      swap5\n      pop\n        /* \"#utility.yul\":11075:11159   */\n      tag_452\n        /* \"#utility.yul\":11152:11158   */\n      dup4\n        /* \"#utility.yul\":11075:11159   */\n      tag_290\n      jump\t// in\n    tag_452:\n        /* \"#utility.yul\":11065:11159   */\n      swap3\n      pop\n        /* \"#utility.yul\":11188:11192   */\n      0x20\n        /* \"#utility.yul\":11183:11186   */\n      dup11\n        /* \"#utility.yul\":11179:11193   */\n      add\n        /* \"#utility.yul\":11172:11193   */\n      swap10\n      pop\n        /* \"#utility.yul\":10825:11203   */\n      pop\n        /* \"#utility.yul\":10812:10813   */\n      0x01\n        /* \"#utility.yul\":10809:10810   */\n      dup2\n        /* \"#utility.yul\":10805:10814   */\n      add\n        /* \"#utility.yul\":10800:10814   */\n      swap1\n      pop\n        /* \"#utility.yul\":10765:11203   */\n      jump(tag_448)\n    tag_450:\n        /* \"#utility.yul\":10769:10783   */\n      pop\n        /* \"#utility.yul\":11219:11223   */\n      dup3\n        /* \"#utility.yul\":11212:11223   */\n      swap8\n      pop\n        /* \"#utility.yul\":11239:11242   */\n      dup8\n        /* \"#utility.yul\":11232:11242   */\n      swap6\n      pop\n        /* \"#utility.yul\":10317:11248   */\n      pop\n      pop\n      pop\n      pop\n      pop\n        /* \"#utility.yul\":10145:11248   */\n      swap3\n      swap2\n      pop\n      pop\n      jump\t// out\n        /* \"#utility.yul\":11254:11723   */\n    tag_90:\n        /* \"#utility.yul\":11445:11449   */\n      0x00\n        /* \"#utility.yul\":11483:11485   */\n      0x20\n        /* \"#utility.yul\":11472:11481   */\n      dup3\n        /* \"#utility.yul\":11468:11486   */\n      add\n        /* \"#utility.yul\":11460:11486   */\n      swap1\n      pop\n        /* \"#utility.yul\":11532:11541   */\n      dup2\n        /* \"#utility.yul\":11526:11530   */\n      dup2\n        /* \"#utility.yul\":11522:11542   */\n      sub\n        /* \"#utility.yul\":11518:11519   */\n      0x00\n        /* \"#utility.yul\":11507:11516   */\n      dup4\n        /* \"#utility.yul\":11503:11520   */\n      add\n        /* \"#utility.yul\":11496:11543   */\n      mstore\n        /* \"#utility.yul\":11560:11716   */\n      tag_454\n        /* \"#utility.yul\":11711:11715   */\n      dup2\n        /* \"#utility.yul\":11702:11708   */\n      dup5\n        /* \"#utility.yul\":11560:11716   */\n      tag_291\n      jump\t// in\n    tag_454:\n        /* \"#utility.yul\":11552:11716   */\n      swap1\n      pop\n        /* \"#utility.yul\":11254:11723   */\n      swap3\n      swap2\n      pop\n      pop\n      jump\t// out\n        /* \"#utility.yul\":11729:11846   */\n    tag_292:\n        /* \"#utility.yul\":11838:11839   */\n      0x00\n        /* \"#utility.yul\":11835:11836   */\n      dup1\n        /* \"#utility.yul\":11828:11840   */\n      revert\n        /* \"#utility.yul\":11852:11969   */\n    tag_293:\n        /* \"#utility.yul\":11961:11962   */\n      0x00\n        /* \"#utility.yul\":11958:11959   */\n      dup1\n        /* \"#utility.yul\":11951:11963   */\n      revert\n        /* \"#utility.yul\":11975:12155   */\n    tag_191:\n        /* \"#utility.yul\":12023:12100   */\n      0x4e487b7100000000000000000000000000000000000000000000000000000000\n        /* \"#utility.yul\":12020:12021   */\n      0x00\n        /* \"#utility.yul\":12013:12101   */\n      mstore\n        /* \"#utility.yul\":12120:12124   */\n      0x41\n        /* \"#utility.yul\":12117:12118   */\n      0x04\n        /* \"#utility.yul\":12110:12125   */\n      mstore\n        /* \"#utility.yul\":12144:12148   */\n      0x24\n        /* \"#utility.yul\":12141:12142   */\n      0x00\n        /* \"#utility.yul\":12134:12149   */\n      revert\n        /* \"#utility.yul\":12161:12442   */\n    tag_294:\n        /* \"#utility.yul\":12244:12271   */\n      tag_459\n        /* \"#utility.yul\":12266:12270   */\n      dup3\n        /* \"#utility.yul\":12244:12271   */\n      tag_263\n      jump\t// in\n    tag_459:\n        /* \"#utility.yul\":12236:12242   */\n      dup2\n        /* \"#utility.yul\":12232:12272   */\n      add\n        /* \"#utility.yul\":12374:12380   */\n      dup2\n        /* \"#utility.yul\":12362:12372   */\n      dup2\n        /* \"#utility.yul\":12359:12381   */\n      lt\n        /* \"#utility.yul\":12338:12356   */\n      0xffffffffffffffff\n        /* \"#utility.yul\":12326:12336   */\n      dup3\n        /* \"#utility.yul\":12323:12357   */\n      gt\n        /* \"#utility.yul\":12320:12382   */\n      or\n        /* \"#utility.yul\":12317:12405   */\n      iszero\n      tag_460\n      jumpi\n        /* \"#utility.yul\":12385:12403   */\n      tag_461\n      tag_191\n      jump\t// in\n    tag_461:\n        /* \"#utility.yul\":12317:12405   */\n    tag_460:\n        /* \"#utility.yul\":12425:12435   */\n      dup1\n        /* \"#utility.yul\":12421:12423   */\n      0x40\n        /* \"#utility.yul\":12414:12436   */\n      mstore\n        /* \"#utility.yul\":12204:12442   */\n      pop\n        /* \"#utility.yul\":12161:12442   */\n      pop\n      pop\n      jump\t// out\n        /* \"#utility.yul\":12448:12577   */\n    tag_295:\n        /* \"#utility.yul\":12482:12488   */\n      0x00\n        /* \"#utility.yul\":12509:12529   */\n      tag_463\n      tag_265\n      jump\t// in\n    tag_463:\n        /* \"#utility.yul\":12499:12529   */\n      swap1\n      pop\n        /* \"#utility.yul\":12538:12571   */\n      tag_464\n        /* \"#utility.yul\":12566:12570   */\n      dup3\n        /* \"#utility.yul\":12558:12564   */\n      dup3\n        /* \"#utility.yul\":12538:12571   */\n      tag_294\n      jump\t// in\n    tag_464:\n        /* \"#utility.yul\":12448:12577   */\n      swap2\n      swap1\n      pop\n      jump\t// out\n        /* \"#utility.yul\":12583:12891   */\n    tag_296:\n        /* \"#utility.yul\":12645:12649   */\n      0x00\n        /* \"#utility.yul\":12735:12753   */\n      0xffffffffffffffff\n        /* \"#utility.yul\":12727:12733   */\n      dup3\n        /* \"#utility.yul\":12724:12754   */\n      gt\n        /* \"#utility.yul\":12721:12777   */\n      iszero\n      tag_466\n      jumpi\n        /* \"#utility.yul\":12757:12775   */\n      tag_467\n      tag_191\n      jump\t// in\n    tag_467:\n        /* \"#utility.yul\":12721:12777   */\n    tag_466:\n        /* \"#utility.yul\":12795:12824   */\n      tag_468\n        /* \"#utility.yul\":12817:12823   */\n      dup3\n        /* \"#utility.yul\":12795:12824   */\n      tag_263\n      jump\t// in\n    tag_468:\n        /* \"#utility.yul\":12787:12824   */\n      swap1\n      pop\n        /* \"#utility.yul\":12879:12883   */\n      0x20\n        /* \"#utility.yul\":12873:12877   */\n      dup2\n        /* \"#utility.yul\":12869:12884   */\n      add\n        /* \"#utility.yul\":12861:12884   */\n      swap1\n      pop\n        /* \"#utility.yul\":12583:12891   */\n      swap2\n      swap1\n      pop\n      jump\t// out\n        /* \"#utility.yul\":12897:13043   */\n    tag_297:\n        /* \"#utility.yul\":12994:13000   */\n      dup3\n        /* \"#utility.yul\":12989:12992   */\n      dup2\n        /* \"#utility.yul\":12984:12987   */\n      dup4\n        /* \"#utility.yul\":12971:13001   */\n      calldatacopy\n        /* \"#utility.yul\":13035:13036   */\n      0x00\n        /* \"#utility.yul\":13026:13032   */\n      dup4\n        /* \"#utility.yul\":13021:13024   */\n      dup4\n        /* \"#utility.yul\":13017:13033   */\n      add\n        /* \"#utility.yul\":13010:13037   */\n      mstore\n        /* \"#utility.yul\":12897:13043   */\n      pop\n      pop\n      pop\n      jump\t// out\n        /* \"#utility.yul\":13049:13474   */\n    tag_298:\n        /* \"#utility.yul\":13127:13132   */\n      0x00\n        /* \"#utility.yul\":13152:13218   */\n      tag_471\n        /* \"#utility.yul\":13168:13217   */\n      tag_472\n        /* \"#utility.yul\":13210:13216   */\n      dup5\n        /* \"#utility.yul\":13168:13217   */\n      tag_296\n      jump\t// in\n    tag_472:\n        /* \"#utility.yul\":13152:13218   */\n      tag_295\n      jump\t// in\n    tag_471:\n        /* \"#utility.yul\":13143:13218   */\n      swap1\n      pop\n        /* \"#utility.yul\":13241:13247   */\n      dup3\n        /* \"#utility.yul\":13234:13239   */\n      dup2\n        /* \"#utility.yul\":13227:13248   */\n      mstore\n        /* \"#utility.yul\":13279:13283   */\n      0x20\n        /* \"#utility.yul\":13272:13277   */\n      dup2\n        /* \"#utility.yul\":13268:13284   */\n      add\n        /* \"#utility.yul\":13317:13320   */\n      dup5\n        /* \"#utility.yul\":13308:13314   */\n      dup5\n        /* \"#utility.yul\":13303:13306   */\n      dup5\n        /* \"#utility.yul\":13299:13315   */\n      add\n        /* \"#utility.yul\":13296:13321   */\n      gt\n        /* \"#utility.yul\":13293:13405   */\n      iszero\n      tag_473\n      jumpi\n        /* \"#utility.yul\":13324:13403   */\n      tag_474\n      tag_293\n      jump\t// in\n    tag_474:\n        /* \"#utility.yul\":13293:13405   */\n    tag_473:\n        /* \"#utility.yul\":13414:13468   */\n      tag_475\n        /* \"#utility.yul\":13461:13467   */\n      dup5\n        /* \"#utility.yul\":13456:13459   */\n      dup3\n        /* \"#utility.yul\":13451:13454   */\n      dup6\n        /* \"#utility.yul\":13414:13468   */\n      tag_297\n      jump\t// in\n    tag_475:\n        /* \"#utility.yul\":13133:13474   */\n      pop\n        /* \"#utility.yul\":13049:13474   */\n      swap4\n      swap3\n      pop\n      pop\n      pop\n      jump\t// out\n        /* \"#utility.yul\":13494:13834   */\n    tag_299:\n        /* \"#utility.yul\":13550:13555   */\n      0x00\n        /* \"#utility.yul\":13599:13602   */\n      dup3\n        /* \"#utility.yul\":13592:13596   */\n      0x1f\n        /* \"#utility.yul\":13584:13590   */\n      dup4\n        /* \"#utility.yul\":13580:13597   */\n      add\n        /* \"#utility.yul\":13576:13603   */\n      slt\n        /* \"#utility.yul\":13566:13688   */\n      tag_477\n      jumpi\n        /* \"#utility.yul\":13607:13686   */\n      tag_478\n      tag_292\n      jump\t// in\n    tag_478:\n        /* \"#utility.yul\":13566:13688   */\n    tag_477:\n        /* \"#utility.yul\":13724:13730   */\n      dup2\n        /* \"#utility.yul\":13711:13731   */\n      calldataload\n        /* \"#utility.yul\":13749:13828   */\n      tag_479\n        /* \"#utility.yul\":13824:13827   */\n      dup5\n        /* \"#utility.yul\":13816:13822   */\n      dup3\n        /* \"#utility.yul\":13809:13813   */\n      0x20\n        /* \"#utility.yul\":13801:13807   */\n      dup7\n        /* \"#utility.yul\":13797:13814   */\n      add\n        /* \"#utility.yul\":13749:13828   */\n      tag_298\n      jump\t// in\n    tag_479:\n        /* \"#utility.yul\":13740:13828   */\n      swap2\n      pop\n        /* \"#utility.yul\":13556:13834   */\n      pop\n        /* \"#utility.yul\":13494:13834   */\n      swap3\n      swap2\n      pop\n      pop\n      jump\t// out\n        /* \"#utility.yul\":13840:14494   */\n    tag_103:\n        /* \"#utility.yul\":13918:13924   */\n      0x00\n        /* \"#utility.yul\":13926:13932   */\n      dup1\n        /* \"#utility.yul\":13975:13977   */\n      0x40\n        /* \"#utility.yul\":13963:13972   */\n      dup4\n        /* \"#utility.yul\":13954:13961   */\n      dup6\n        /* \"#utility.yul\":13950:13973   */\n      sub\n        /* \"#utility.yul\":13946:13978   */\n      slt\n        /* \"#utility.yul\":13943:14062   */\n      iszero\n      tag_481\n      jumpi\n        /* \"#utility.yul\":13981:14060   */\n      tag_482\n      tag_266\n      jump\t// in\n    tag_482:\n        /* \"#utility.yul\":13943:14062   */\n    tag_481:\n        /* \"#utility.yul\":14129:14130   */\n      0x00\n        /* \"#utility.yul\":14118:14127   */\n      dup4\n        /* \"#utility.yul\":14114:14131   */\n      add\n        /* \"#utility.yul\":14101:14132   */\n      calldataload\n        /* \"#utility.yul\":14159:14177   */\n      0xffffffffffffffff\n        /* \"#utility.yul\":14151:14157   */\n      dup2\n        /* \"#utility.yul\":14148:14178   */\n      gt\n        /* \"#utility.yul\":14145:14262   */\n      iszero\n      tag_483\n      jumpi\n        /* \"#utility.yul\":14181:14260   */\n      tag_484\n      tag_267\n      jump\t// in\n    tag_484:\n        /* \"#utility.yul\":14145:14262   */\n    tag_483:\n        /* \"#utility.yul\":14286:14349   */\n      tag_485\n        /* \"#utility.yul\":14341:14348   */\n      dup6\n        /* \"#utility.yul\":14332:14338   */\n      dup3\n        /* \"#utility.yul\":14321:14330   */\n      dup7\n        /* \"#utility.yul\":14317:14339   */\n      add\n        /* \"#utility.yul\":14286:14349   */\n      tag_299\n      jump\t// in\n    tag_485:\n        /* \"#utility.yul\":14276:14349   */\n      swap3\n      pop\n        /* \"#utility.yul\":14072:14359   */\n      pop\n        /* \"#utility.yul\":14398:14400   */\n      0x20\n        /* \"#utility.yul\":14424:14477   */\n      tag_486\n        /* \"#utility.yul\":14469:14476   */\n      dup6\n        /* \"#utility.yul\":14460:14466   */\n      dup3\n        /* \"#utility.yul\":14449:14458   */\n      dup7\n        /* \"#utility.yul\":14445:14467   */\n      add\n        /* \"#utility.yul\":14424:14477   */\n      tag_273\n      jump\t// in\n    tag_486:\n        /* \"#utility.yul\":14414:14477   */\n      swap2\n      pop\n        /* \"#utility.yul\":14369:14487   */\n      pop\n        /* \"#utility.yul\":13840:14494   */\n      swap3\n      pop\n      swap3\n      swap1\n      pop\n      jump\t// out\n        /* \"#utility.yul\":14500:14974   */\n    tag_127:\n        /* \"#utility.yul\":14568:14574   */\n      0x00\n        /* \"#utility.yul\":14576:14582   */\n      dup1\n        /* \"#utility.yul\":14625:14627   */\n      0x40\n        /* \"#utility.yul\":14613:14622   */\n      dup4\n        /* \"#utility.yul\":14604:14611   */\n      dup6\n        /* \"#utility.yul\":14600:14623   */\n      sub\n        /* \"#utility.yul\":14596:14628   */\n      slt\n        /* \"#utility.yul\":14593:14712   */\n      iszero\n      tag_488\n      jumpi\n        /* \"#utility.yul\":14631:14710   */\n      tag_489\n      tag_266\n      jump\t// in\n    tag_489:\n        /* \"#utility.yul\":14593:14712   */\n    tag_488:\n        /* \"#utility.yul\":14751:14752   */\n      0x00\n        /* \"#utility.yul\":14776:14829   */\n      tag_490\n        /* \"#utility.yul\":14821:14828   */\n      dup6\n        /* \"#utility.yul\":14812:14818   */\n      dup3\n        /* \"#utility.yul\":14801:14810   */\n      dup7\n        /* \"#utility.yul\":14797:14819   */\n      add\n        /* \"#utility.yul\":14776:14829   */\n      tag_271\n      jump\t// in\n    tag_490:\n        /* \"#utility.yul\":14766:14829   */\n      swap3\n      pop\n        /* \"#utility.yul\":14722:14839   */\n      pop\n        /* \"#utility.yul\":14878:14880   */\n      0x20\n        /* \"#utility.yul\":14904:14957   */\n      tag_491\n        /* \"#utility.yul\":14949:14956   */\n      dup6\n        /* \"#utility.yul\":14940:14946   */\n      dup3\n        /* \"#utility.yul\":14929:14938   */\n      dup7\n        /* \"#utility.yul\":14925:14947   */\n      add\n        /* \"#utility.yul\":14904:14957   */\n      tag_271\n      jump\t// in\n    tag_491:\n        /* \"#utility.yul\":14894:14957   */\n      swap2\n      pop\n        /* \"#utility.yul\":14849:14967   */\n      pop\n        /* \"#utility.yul\":14500:14974   */\n      swap3\n      pop\n      swap3\n      swap1\n      pop\n      jump\t// out\n        /* \"#utility.yul\":14980:15040   */\n    tag_300:\n        /* \"#utility.yul\":15008:15011   */\n      0x00\n        /* \"#utility.yul\":15029:15034   */\n      dup2\n        /* \"#utility.yul\":15022:15034   */\n      swap1\n      pop\n        /* \"#utility.yul\":14980:15040   */\n      swap2\n      swap1\n      pop\n      jump\t// out\n        /* \"#utility.yul\":15046:15188   */\n    tag_301:\n        /* \"#utility.yul\":15096:15105   */\n      0x00\n        /* \"#utility.yul\":15129:15182   */\n      tag_494\n        /* \"#utility.yul\":15147:15181   */\n      tag_495\n        /* \"#utility.yul\":15156:15180   */\n      tag_496\n        /* \"#utility.yul\":15174:15179   */\n      dup5\n        /* \"#utility.yul\":15156:15180   */\n      tag_268\n      jump\t// in\n    tag_496:\n        /* \"#utility.yul\":15147:15181   */\n      tag_300\n      jump\t// in\n    tag_495:\n        /* \"#utility.yul\":15129:15182   */\n      tag_268\n      jump\t// in\n    tag_494:\n        /* \"#utility.yul\":15116:15182   */\n      swap1\n      pop\n        /* \"#utility.yul\":15046:15188   */\n      swap2\n      swap1\n      pop\n      jump\t// out\n        /* \"#utility.yul\":15194:15328   */\n    tag_302:\n        /* \"#utility.yul\":15252:15261   */\n      0x00\n        /* \"#utility.yul\":15285:15322   */\n      tag_498\n        /* \"#utility.yul\":15316:15321   */\n      dup3\n        /* \"#utility.yul\":15285:15322   */\n      tag_301\n      jump\t// in\n    tag_498:\n        /* \"#utility.yul\":15272:15322   */\n      swap1\n      pop\n        /* \"#utility.yul\":15194:15328   */\n      swap2\n      swap1\n      pop\n      jump\t// out\n        /* \"#utility.yul\":15334:15489   */\n    tag_303:\n        /* \"#utility.yul\":15405:15414   */\n      0x00\n        /* \"#utility.yul\":15438:15483   */\n      tag_500\n        /* \"#utility.yul\":15477:15482   */\n      dup3\n        /* \"#utility.yul\":15438:15483   */\n      tag_302\n      jump\t// in\n    tag_500:\n        /* \"#utility.yul\":15425:15483   */\n      swap1\n      pop\n        /* \"#utility.yul\":15334:15489   */\n      swap2\n      swap1\n      pop\n      jump\t// out\n        /* \"#utility.yul\":15495:15668   */\n    tag_304:\n        /* \"#utility.yul\":15603:15661   */\n      tag_502\n        /* \"#utility.yul\":15655:15660   */\n      dup2\n        /* \"#utility.yul\":15603:15661   */\n      tag_303\n      jump\t// in\n    tag_502:\n        /* \"#utility.yul\":15598:15601   */\n      dup3\n        /* \"#utility.yul\":15591:15662   */\n      mstore\n        /* \"#utility.yul\":15495:15668   */\n      pop\n      pop\n      jump\t// out\n        /* \"#utility.yul\":15674:15938   */\n    tag_134:\n        /* \"#utility.yul\":15788:15792   */\n      0x00\n        /* \"#utility.yul\":15826:15828   */\n      0x20\n        /* \"#utility.yul\":15815:15824   */\n      dup3\n        /* \"#utility.yul\":15811:15829   */\n      add\n        /* \"#utility.yul\":15803:15829   */\n      swap1\n      pop\n        /* \"#utility.yul\":15839:15931   */\n      tag_504\n        /* \"#utility.yul\":15928:15929   */\n      0x00\n        /* \"#utility.yul\":15917:15926   */\n      dup4\n        /* \"#utility.yul\":15913:15930   */\n      add\n        /* \"#utility.yul\":15904:15910   */\n      dup5\n        /* \"#utility.yul\":15839:15931   */\n      tag_304\n      jump\t// in\n    tag_504:\n        /* \"#utility.yul\":15674:15938   */\n      swap3\n      swap2\n      pop\n      pop\n      jump\t// out\n        /* \"#utility.yul\":15944:16124   */\n    tag_305:\n        /* \"#utility.yul\":15992:16069   */\n      0x4e487b7100000000000000000000000000000000000000000000000000000000\n        /* \"#utility.yul\":15989:15990   */\n      0x00\n        /* \"#utility.yul\":15982:16070   */\n      mstore\n        /* \"#utility.yul\":16089:16093   */\n      0x22\n        /* \"#utility.yul\":16086:16087   */\n      0x04\n        /* \"#utility.yul\":16079:16094   */\n      mstore\n        /* \"#utility.yul\":16113:16117   */\n      0x24\n        /* \"#utility.yul\":16110:16111   */\n      0x00\n        /* \"#utility.yul\":16103:16118   */\n      revert\n        /* \"#utility.yul\":16130:16450   */\n    tag_139:\n        /* \"#utility.yul\":16174:16180   */\n      0x00\n        /* \"#utility.yul\":16211:16212   */\n      0x02\n        /* \"#utility.yul\":16205:16209   */\n      dup3\n        /* \"#utility.yul\":16201:16213   */\n      div\n        /* \"#utility.yul\":16191:16213   */\n      swap1\n      pop\n        /* \"#utility.yul\":16258:16259   */\n      0x01\n        /* \"#utility.yul\":16252:16256   */\n      dup3\n        /* \"#utility.yul\":16248:16260   */\n      and\n        /* \"#utility.yul\":16279:16297   */\n      dup1\n        /* \"#utility.yul\":16269:16350   */\n      tag_507\n      jumpi\n        /* \"#utility.yul\":16335:16339   */\n      0x7f\n        /* \"#utility.yul\":16327:16333   */\n      dup3\n        /* \"#utility.yul\":16323:16340   */\n      and\n        /* \"#utility.yul\":16313:16340   */\n      swap2\n      pop\n        /* \"#utility.yul\":16269:16350   */\n    tag_507:\n        /* \"#utility.yul\":16397:16399   */\n      0x20\n        /* \"#utility.yul\":16389:16395   */\n      dup3\n        /* \"#utility.yul\":16386:16400   */\n      lt\n        /* \"#utility.yul\":16366:16384   */\n      dup2\n        /* \"#utility.yul\":16363:16401   */\n      sub\n        /* \"#utility.yul\":16360:16444   */\n      tag_508\n      jumpi\n        /* \"#utility.yul\":16416:16434   */\n      tag_509\n      tag_305\n      jump\t// in\n    tag_509:\n        /* \"#utility.yul\":16360:16444   */\n    tag_508:\n        /* \"#utility.yul\":16181:16450   */\n      pop\n        /* \"#utility.yul\":16130:16450   */\n      swap2\n      swap1\n      pop\n      jump\t// out\n        /* \"#utility.yul\":16456:16898   */\n    tag_146:\n        /* \"#utility.yul\":16605:16609   */\n      0x00\n        /* \"#utility.yul\":16643:16645   */\n      0x60\n        /* \"#utility.yul\":16632:16641   */\n      dup3\n        /* \"#utility.yul\":16628:16646   */\n      add\n        /* \"#utility.yul\":16620:16646   */\n      swap1\n      pop\n        /* \"#utility.yul\":16656:16727   */\n      tag_511\n        /* \"#utility.yul\":16724:16725   */\n      0x00\n        /* \"#utility.yul\":16713:16722   */\n      dup4\n        /* \"#utility.yul\":16709:16726   */\n      add\n        /* \"#utility.yul\":16700:16706   */\n      dup7\n        /* \"#utility.yul\":16656:16727   */\n      tag_279\n      jump\t// in\n    tag_511:\n        /* \"#utility.yul\":16737:16809   */\n      tag_512\n        /* \"#utility.yul\":16805:16807   */\n      0x20\n        /* \"#utility.yul\":16794:16803   */\n      dup4\n        /* \"#utility.yul\":16790:16808   */\n      add\n        /* \"#utility.yul\":16781:16787   */\n      dup6\n        /* \"#utility.yul\":16737:16809   */\n      tag_279\n      jump\t// in\n    tag_512:\n        /* \"#utility.yul\":16819:16891   */\n      tag_513\n        /* \"#utility.yul\":16887:16889   */\n      0x40\n        /* \"#utility.yul\":16876:16885   */\n      dup4\n        /* \"#utility.yul\":16872:16890   */\n      add\n        /* \"#utility.yul\":16863:16869   */\n      dup5\n        /* \"#utility.yul\":16819:16891   */\n      tag_276\n      jump\t// in\n    tag_513:\n        /* \"#utility.yul\":16456:16898   */\n      swap5\n      swap4\n      pop\n      pop\n      pop\n      pop\n      jump\t// out\n        /* \"#utility.yul\":16904:17077   */\n    tag_306:\n        /* \"#utility.yul\":17044:17069   */\n      0x50726f64756374206973206e6f7420666f722073616c65000000000000000000\n        /* \"#utility.yul\":17040:17041   */\n      0x00\n        /* \"#utility.yul\":17032:17038   */\n      dup3\n        /* \"#utility.yul\":17028:17042   */\n      add\n        /* \"#utility.yul\":17021:17070   */\n      mstore\n        /* \"#utility.yul\":16904:17077   */\n      pop\n      jump\t// out\n        /* \"#utility.yul\":17083:17449   */\n    tag_307:\n        /* \"#utility.yul\":17225:17228   */\n      0x00\n        /* \"#utility.yul\":17246:17313   */\n      tag_516\n        /* \"#utility.yul\":17310:17312   */\n      0x17\n        /* \"#utility.yul\":17305:17308   */\n      dup4\n        /* \"#utility.yul\":17246:17313   */\n      tag_261\n      jump\t// in\n    tag_516:\n        /* \"#utility.yul\":17239:17313   */\n      swap2\n      pop\n        /* \"#utility.yul\":17322:17415   */\n      tag_517\n        /* \"#utility.yul\":17411:17414   */\n      dup3\n        /* \"#utility.yul\":17322:17415   */\n      tag_306\n      jump\t// in\n    tag_517:\n        /* \"#utility.yul\":17440:17442   */\n      0x20\n        /* \"#utility.yul\":17435:17438   */\n      dup3\n        /* \"#utility.yul\":17431:17443   */\n      add\n        /* \"#utility.yul\":17424:17443   */\n      swap1\n      pop\n        /* \"#utility.yul\":17083:17449   */\n      swap2\n      swap1\n      pop\n      jump\t// out\n        /* \"#utility.yul\":17455:17874   */\n    tag_155:\n        /* \"#utility.yul\":17621:17625   */\n      0x00\n        /* \"#utility.yul\":17659:17661   */\n      0x20\n        /* \"#utility.yul\":17648:17657   */\n      dup3\n        /* \"#utility.yul\":17644:17662   */\n      add\n        /* \"#utility.yul\":17636:17662   */\n      swap1\n      pop\n        /* \"#utility.yul\":17708:17717   */\n      dup2\n        /* \"#utility.yul\":17702:17706   */\n      dup2\n        /* \"#utility.yul\":17698:17718   */\n      sub\n        /* \"#utility.yul\":17694:17695   */\n      0x00\n        /* \"#utility.yul\":17683:17692   */\n      dup4\n        /* \"#utility.yul\":17679:17696   */\n      add\n        /* \"#utility.yul\":17672:17719   */\n      mstore\n        /* \"#utility.yul\":17736:17867   */\n      tag_519\n        /* \"#utility.yul\":17862:17866   */\n      dup2\n        /* \"#utility.yul\":17736:17867   */\n      tag_307\n      jump\t// in\n    tag_519:\n        /* \"#utility.yul\":17728:17867   */\n      swap1\n      pop\n        /* \"#utility.yul\":17455:17874   */\n      swap2\n      swap1\n      pop\n      jump\t// out\n        /* \"#utility.yul\":17880:18102   */\n    tag_157:\n        /* \"#utility.yul\":17973:17977   */\n      0x00\n        /* \"#utility.yul\":18011:18013   */\n      0x20\n        /* \"#utility.yul\":18000:18009   */\n      dup3\n        /* \"#utility.yul\":17996:18014   */\n      add\n        /* \"#utility.yul\":17988:18014   */\n      swap1\n      pop\n        /* \"#utility.yul\":18024:18095   */\n      tag_521\n        /* \"#utility.yul\":18092:18093   */\n      0x00\n        /* \"#utility.yul\":18081:18090   */\n      dup4\n        /* \"#utility.yul\":18077:18094   */\n      add\n        /* \"#utility.yul\":18068:18074   */\n      dup5\n        /* \"#utility.yul\":18024:18095   */\n      tag_279\n      jump\t// in\n    tag_521:\n        /* \"#utility.yul\":17880:18102   */\n      swap3\n      swap2\n      pop\n      pop\n      jump\t// out\n        /* \"#utility.yul\":18108:18251   */\n    tag_308:\n        /* \"#utility.yul\":18165:18170   */\n      0x00\n        /* \"#utility.yul\":18196:18202   */\n      dup2\n        /* \"#utility.yul\":18190:18203   */\n      mload\n        /* \"#utility.yul\":18181:18203   */\n      swap1\n      pop\n        /* \"#utility.yul\":18212:18245   */\n      tag_523\n        /* \"#utility.yul\":18239:18244   */\n      dup2\n        /* \"#utility.yul\":18212:18245   */\n      tag_272\n      jump\t// in\n    tag_523:\n        /* \"#utility.yul\":18108:18251   */\n      swap3\n      swap2\n      pop\n      pop\n      jump\t// out\n        /* \"#utility.yul\":18257:18608   */\n    tag_161:\n        /* \"#utility.yul\":18327:18333   */\n      0x00\n        /* \"#utility.yul\":18376:18378   */\n      0x20\n        /* \"#utility.yul\":18364:18373   */\n      dup3\n        /* \"#utility.yul\":18355:18362   */\n      dup5\n        /* \"#utility.yul\":18351:18374   */\n      sub\n        /* \"#utility.yul\":18347:18379   */\n      slt\n        /* \"#utility.yul\":18344:18463   */\n      iszero\n      tag_525\n      jumpi\n        /* \"#utility.yul\":18382:18461   */\n      tag_526\n      tag_266\n      jump\t// in\n    tag_526:\n        /* \"#utility.yul\":18344:18463   */\n    tag_525:\n        /* \"#utility.yul\":18502:18503   */\n      0x00\n        /* \"#utility.yul\":18527:18591   */\n      tag_527\n        /* \"#utility.yul\":18583:18590   */\n      dup5\n        /* \"#utility.yul\":18574:18580   */\n      dup3\n        /* \"#utility.yul\":18563:18572   */\n      dup6\n        /* \"#utility.yul\":18559:18581   */\n      add\n        /* \"#utility.yul\":18527:18591   */\n      tag_308\n      jump\t// in\n    tag_527:\n        /* \"#utility.yul\":18517:18591   */\n      swap2\n      pop\n        /* \"#utility.yul\":18473:18601   */\n      pop\n        /* \"#utility.yul\":18257:18608   */\n      swap3\n      swap2\n      pop\n      pop\n      jump\t// out\n        /* \"#utility.yul\":18614:18784   */\n    tag_309:\n        /* \"#utility.yul\":18754:18776   */\n      0x496e73756666696369656e742062616c616e6365000000000000000000000000\n        /* \"#utility.yul\":18750:18751   */\n      0x00\n        /* \"#utility.yul\":18742:18748   */\n      dup3\n        /* \"#utility.yul\":18738:18752   */\n      add\n        /* \"#utility.yul\":18731:18777   */\n      mstore\n        /* \"#utility.yul\":18614:18784   */\n      pop\n      jump\t// out\n        /* \"#utility.yul\":18790:19156   */\n    tag_310:\n        /* \"#utility.yul\":18932:18935   */\n      0x00\n        /* \"#utility.yul\":18953:19020   */\n      tag_530\n        /* \"#utility.yul\":19017:19019   */\n      0x14\n        /* \"#utility.yul\":19012:19015   */\n      dup4\n        /* \"#utility.yul\":18953:19020   */\n      tag_261\n      jump\t// in\n    tag_530:\n        /* \"#utility.yul\":18946:19020   */\n      swap2\n      pop\n        /* \"#utility.yul\":19029:19122   */\n      tag_531\n        /* \"#utility.yul\":19118:19121   */\n      dup3\n        /* \"#utility.yul\":19029:19122   */\n      tag_309\n      jump\t// in\n    tag_531:\n        /* \"#utility.yul\":19147:19149   */\n      0x20\n        /* \"#utility.yul\":19142:19145   */\n      dup3\n        /* \"#utility.yul\":19138:19150   */\n      add\n        /* \"#utility.yul\":19131:19150   */\n      swap1\n      pop\n        /* \"#utility.yul\":18790:19156   */\n      swap2\n      swap1\n      pop\n      jump\t// out\n        /* \"#utility.yul\":19162:19581   */\n    tag_164:\n        /* \"#utility.yul\":19328:19332   */\n      0x00\n        /* \"#utility.yul\":19366:19368   */\n      0x20\n        /* \"#utility.yul\":19355:19364   */\n      dup3\n        /* \"#utility.yul\":19351:19369   */\n      add\n        /* \"#utility.yul\":19343:19369   */\n      swap1\n      pop\n        /* \"#utility.yul\":19415:19424   */\n      dup2\n        /* \"#utility.yul\":19409:19413   */\n      dup2\n        /* \"#utility.yul\":19405:19425   */\n      sub\n        /* \"#utility.yul\":19401:19402   */\n      0x00\n        /* \"#utility.yul\":19390:19399   */\n      dup4\n        /* \"#utility.yul\":19386:19403   */\n      add\n        /* \"#utility.yul\":19379:19426   */\n      mstore\n        /* \"#utility.yul\":19443:19574   */\n      tag_533\n        /* \"#utility.yul\":19569:19573   */\n      dup2\n        /* \"#utility.yul\":19443:19574   */\n      tag_310\n      jump\t// in\n    tag_533:\n        /* \"#utility.yul\":19435:19574   */\n      swap1\n      pop\n        /* \"#utility.yul\":19162:19581   */\n      swap2\n      swap1\n      pop\n      jump\t// out\n        /* \"#utility.yul\":19587:19703   */\n    tag_311:\n        /* \"#utility.yul\":19657:19678   */\n      tag_535\n        /* \"#utility.yul\":19672:19677   */\n      dup2\n        /* \"#utility.yul\":19657:19678   */\n      tag_274\n      jump\t// in\n    tag_535:\n        /* \"#utility.yul\":19650:19655   */\n      dup2\n        /* \"#utility.yul\":19647:19679   */\n      eq\n        /* \"#utility.yul\":19637:19697   */\n      tag_536\n      jumpi\n        /* \"#utility.yul\":19693:19694   */\n      0x00\n        /* \"#utility.yul\":19690:19691   */\n      dup1\n        /* \"#utility.yul\":19683:19695   */\n      revert\n        /* \"#utility.yul\":19637:19697   */\n    tag_536:\n        /* \"#utility.yul\":19587:19703   */\n      pop\n      jump\t// out\n        /* \"#utility.yul\":19709:19846   */\n    tag_312:\n        /* \"#utility.yul\":19763:19768   */\n      0x00\n        /* \"#utility.yul\":19794:19800   */\n      dup2\n        /* \"#utility.yul\":19788:19801   */\n      mload\n        /* \"#utility.yul\":19779:19801   */\n      swap1\n      pop\n        /* \"#utility.yul\":19810:19840   */\n      tag_538\n        /* \"#utility.yul\":19834:19839   */\n      dup2\n        /* \"#utility.yul\":19810:19840   */\n      tag_311\n      jump\t// in\n    tag_538:\n        /* \"#utility.yul\":19709:19846   */\n      swap3\n      swap2\n      pop\n      pop\n      jump\t// out\n        /* \"#utility.yul\":19852:20197   */\n    tag_169:\n        /* \"#utility.yul\":19919:19925   */\n      0x00\n        /* \"#utility.yul\":19968:19970   */\n      0x20\n        /* \"#utility.yul\":19956:19965   */\n      dup3\n        /* \"#utility.yul\":19947:19954   */\n      dup5\n        /* \"#utility.yul\":19943:19966   */\n      sub\n        /* \"#utility.yul\":19939:19971   */\n      slt\n        /* \"#utility.yul\":19936:20055   */\n      iszero\n      tag_540\n      jumpi\n        /* \"#utility.yul\":19974:20053   */\n      tag_541\n      tag_266\n      jump\t// in\n    tag_541:\n        /* \"#utility.yul\":19936:20055   */\n    tag_540:\n        /* \"#utility.yul\":20094:20095   */\n      0x00\n        /* \"#utility.yul\":20119:20180   */\n      tag_542\n        /* \"#utility.yul\":20172:20179   */\n      dup5\n        /* \"#utility.yul\":20163:20169   */\n      dup3\n        /* \"#utility.yul\":20152:20161   */\n      dup6\n        /* \"#utility.yul\":20148:20170   */\n      add\n        /* \"#utility.yul\":20119:20180   */\n      tag_312\n      jump\t// in\n    tag_542:\n        /* \"#utility.yul\":20109:20180   */\n      swap2\n      pop\n        /* \"#utility.yul\":20065:20190   */\n      pop\n        /* \"#utility.yul\":19852:20197   */\n      swap3\n      swap2\n      pop\n      pop\n      jump\t// out\n        /* \"#utility.yul\":20203:20535   */\n    tag_171:\n        /* \"#utility.yul\":20324:20328   */\n      0x00\n        /* \"#utility.yul\":20362:20364   */\n      0x40\n        /* \"#utility.yul\":20351:20360   */\n      dup3\n        /* \"#utility.yul\":20347:20365   */\n      add\n        /* \"#utility.yul\":20339:20365   */\n      swap1\n      pop\n        /* \"#utility.yul\":20375:20446   */\n      tag_544\n        /* \"#utility.yul\":20443:20444   */\n      0x00\n        /* \"#utility.yul\":20432:20441   */\n      dup4\n        /* \"#utility.yul\":20428:20445   */\n      add\n        /* \"#utility.yul\":20419:20425   */\n      dup6\n        /* \"#utility.yul\":20375:20446   */\n      tag_279\n      jump\t// in\n    tag_544:\n        /* \"#utility.yul\":20456:20528   */\n      tag_545\n        /* \"#utility.yul\":20524:20526   */\n      0x20\n        /* \"#utility.yul\":20513:20522   */\n      dup4\n        /* \"#utility.yul\":20509:20527   */\n      add\n        /* \"#utility.yul\":20500:20506   */\n      dup5\n        /* \"#utility.yul\":20456:20528   */\n      tag_276\n      jump\t// in\n    tag_545:\n        /* \"#utility.yul\":20203:20535   */\n      swap4\n      swap3\n      pop\n      pop\n      pop\n      jump\t// out\n        /* \"#utility.yul\":20541:20690   */\n    tag_313:\n        /* \"#utility.yul\":20590:20596   */\n      0x00\n        /* \"#utility.yul\":20624:20629   */\n      dup2\n        /* \"#utility.yul\":20618:20630   */\n      sload\n        /* \"#utility.yul\":20608:20630   */\n      swap1\n      pop\n        /* \"#utility.yul\":20650:20683   */\n      tag_547\n        /* \"#utility.yul\":20676:20682   */\n      dup2\n        /* \"#utility.yul\":20650:20683   */\n      tag_139\n      jump\t// in\n    tag_547:\n        /* \"#utility.yul\":20640:20683   */\n      swap1\n      pop\n        /* \"#utility.yul\":20541:20690   */\n      swap2\n      swap1\n      pop\n      jump\t// out\n        /* \"#utility.yul\":20696:20837   */\n    tag_314:\n        /* \"#utility.yul\":20745:20749   */\n      0x00\n        /* \"#utility.yul\":20768:20771   */\n      dup2\n        /* \"#utility.yul\":20760:20771   */\n      swap1\n      pop\n        /* \"#utility.yul\":20791:20794   */\n      dup2\n        /* \"#utility.yul\":20788:20789   */\n      0x00\n        /* \"#utility.yul\":20781:20795   */\n      mstore\n        /* \"#utility.yul\":20825:20829   */\n      0x20\n        /* \"#utility.yul\":20822:20823   */\n      0x00\n        /* \"#utility.yul\":20812:20830   */\n      keccak256\n        /* \"#utility.yul\":20804:20830   */\n      swap1\n      pop\n        /* \"#utility.yul\":20696:20837   */\n      swap2\n      swap1\n      pop\n      jump\t// out\n        /* \"#utility.yul\":20843:20936   */\n    tag_315:\n        /* \"#utility.yul\":20880:20886   */\n      0x00\n        /* \"#utility.yul\":20927:20929   */\n      0x20\n        /* \"#utility.yul\":20922:20924   */\n      0x1f\n        /* \"#utility.yul\":20915:20920   */\n      dup4\n        /* \"#utility.yul\":20911:20925   */\n      add\n        /* \"#utility.yul\":20907:20930   */\n      div\n        /* \"#utility.yul\":20897:20930   */\n      swap1\n      pop\n        /* \"#utility.yul\":20843:20936   */\n      swap2\n      swap1\n      pop\n      jump\t// out\n        /* \"#utility.yul\":20942:21049   */\n    tag_316:\n        /* \"#utility.yul\":20986:20994   */\n      0x00\n        /* \"#utility.yul\":21036:21041   */\n      dup3\n        /* \"#utility.yul\":21030:21034   */\n      dup3\n        /* \"#utility.yul\":21026:21042   */\n      shl\n        /* \"#utility.yul\":21005:21042   */\n      swap1\n      pop\n        /* \"#utility.yul\":20942:21049   */\n      swap3\n      swap2\n      pop\n      pop\n      jump\t// out\n        /* \"#utility.yul\":21055:21448   */\n    tag_317:\n        /* \"#utility.yul\":21124:21130   */\n      0x00\n        /* \"#utility.yul\":21174:21175   */\n      0x08\n        /* \"#utility.yul\":21162:21172   */\n      dup4\n        /* \"#utility.yul\":21158:21176   */\n      mul\n        /* \"#utility.yul\":21197:21294   */\n      tag_552\n        /* \"#utility.yul\":21227:21293   */\n      0xffffffffffffffffffffffffffffffffffffffffffffffffffffffffffffffff\n        /* \"#utility.yul\":21216:21225   */\n      dup3\n        /* \"#utility.yul\":21197:21294   */\n      tag_316\n      jump\t// in\n    tag_552:\n        /* \"#utility.yul\":21315:21354   */\n      tag_553\n        /* \"#utility.yul\":21345:21353   */\n      dup7\n        /* \"#utility.yul\":21334:21343   */\n      dup4\n        /* \"#utility.yul\":21315:21354   */\n      tag_316\n      jump\t// in\n    tag_553:\n        /* \"#utility.yul\":21303:21354   */\n      swap6\n      pop\n        /* \"#utility.yul\":21387:21391   */\n      dup1\n        /* \"#utility.yul\":21383:21392   */\n      not\n        /* \"#utility.yul\":21376:21381   */\n      dup5\n        /* \"#utility.yul\":21372:21393   */\n      and\n        /* \"#utility.yul\":21363:21393   */\n      swap4\n      pop\n        /* \"#utility.yul\":21436:21440   */\n      dup1\n        /* \"#utility.yul\":21426:21434   */\n      dup7\n        /* \"#utility.yul\":21422:21441   */\n      and\n        /* \"#utility.yul\":21415:21420   */\n      dup5\n        /* \"#utility.yul\":21412:21442   */\n      or\n        /* \"#utility.yul\":21402:21442   */\n      swap3\n      pop\n        /* \"#utility.yul\":21131:21448   */\n      pop\n      pop\n        /* \"#utility.yul\":21055:21448   */\n      swap4\n      swap3\n      pop\n      pop\n      pop\n      jump\t// out\n        /* \"#utility.yul\":21454:21596   */\n    tag_318:\n        /* \"#utility.yul\":21504:21513   */\n      0x00\n        /* \"#utility.yul\":21537:21590   */\n      tag_555\n        /* \"#utility.yul\":21555:21589   */\n      tag_556\n        /* \"#utility.yul\":21564:21588   */\n      tag_557\n        /* \"#utility.yul\":21582:21587   */\n      dup5\n        /* \"#utility.yul\":21564:21588   */\n      tag_258\n      jump\t// in\n    tag_557:\n        /* \"#utility.yul\":21555:21589   */\n      tag_300\n      jump\t// in\n    tag_556:\n        /* \"#utility.yul\":21537:21590   */\n      tag_258\n      jump\t// in\n    tag_555:\n        /* \"#utility.yul\":21524:21590   */\n      swap1\n      pop\n        /* \"#utility.yul\":21454:21596   */\n      swap2\n      swap1\n      pop\n      jump\t// out\n        /* \"#utility.yul\":21602:21677   */\n    tag_319:\n        /* \"#utility.yul\":21645:21648   */\n      0x00\n        /* \"#utility.yul\":21666:21671   */\n      dup2\n        /* \"#utility.yul\":21659:21671   */\n      swap1\n      pop\n        /* \"#utility.yul\":21602:21677   */\n      swap2\n      swap1\n      pop\n      jump\t// out\n        /* \"#utility.yul\":21683:21952   */\n    tag_320:\n        /* \"#utility.yul\":21793:21832   */\n      tag_560\n        /* \"#utility.yul\":21824:21831   */\n      dup4\n        /* \"#utility.yul\":21793:21832   */\n      tag_318\n      jump\t// in\n    tag_560:\n        /* \"#utility.yul\":21854:21945   */\n      tag_561\n        /* \"#utility.yul\":21903:21944   */\n      tag_562\n        /* \"#utility.yul\":21927:21943   */\n      dup3\n        /* \"#utility.yul\":21903:21944   */\n      tag_319\n      jump\t// in\n    tag_562:\n        /* \"#utility.yul\":21895:21901   */\n      dup5\n        /* \"#utility.yul\":21888:21892   */\n      dup5\n        /* \"#utility.yul\":21882:21893   */\n      sload\n        /* \"#utility.yul\":21854:21945   */\n      tag_317\n      jump\t// in\n    tag_561:\n        /* \"#utility.yul\":21848:21852   */\n      dup3\n        /* \"#utility.yul\":21841:21946   */\n      sstore\n        /* \"#utility.yul\":21759:21952   */\n      pop\n        /* \"#utility.yul\":21683:21952   */\n      pop\n      pop\n      pop\n      jump\t// out\n        /* \"#utility.yul\":21958:22031   */\n    tag_321:\n        /* \"#utility.yul\":22003:22006   */\n      0x00\n        /* \"#utility.yul\":21958:22031   */\n      swap1\n      jump\t// out\n        /* \"#utility.yul\":22037:22226   */\n    tag_322:\n        /* \"#utility.yul\":22114:22146   */\n      tag_565\n      tag_321\n      jump\t// in\n    tag_565:\n        /* \"#utility.yul\":22155:22220   */\n      tag_566\n        /* \"#utility.yul\":22213:22219   */\n      dup2\n        /* \"#utility.yul\":22205:22211   */\n      dup5\n        /* \"#utility.yul\":22199:22203   */\n      dup5\n        /* \"#utility.yul\":22155:22220   */\n      tag_320\n      jump\t// in\n    tag_566:\n        /* \"#utility.yul\":22090:22226   */\n      pop\n        /* \"#utility.yul\":22037:22226   */\n      pop\n      pop\n      jump\t// out\n        /* \"#utility.yul\":22232:22418   */\n    tag_323:\n        /* \"#utility.yul\":22292:22412   */\n    tag_568:\n        /* \"#utility.yul\":22309:22312   */\n      dup2\n        /* \"#utility.yul\":22302:22307   */\n      dup2\n        /* \"#utility.yul\":22299:22313   */\n      lt\n        /* \"#utility.yul\":22292:22412   */\n      iszero\n      tag_570\n      jumpi\n        /* \"#utility.yul\":22363:22402   */\n      tag_571\n        /* \"#utility.yul\":22400:22401   */\n      0x00\n        /* \"#utility.yul\":22393:22398   */\n      dup3\n        /* \"#utility.yul\":22363:22402   */\n      tag_322\n      jump\t// in\n    tag_571:\n        /* \"#utility.yul\":22336:22337   */\n      0x01\n        /* \"#utility.yul\":22329:22334   */\n      dup2\n        /* \"#utility.yul\":22325:22338   */\n      add\n        /* \"#utility.yul\":22316:22338   */\n      swap1\n      pop\n        /* \"#utility.yul\":22292:22412   */\n      jump(tag_568)\n    tag_570:\n        /* \"#utility.yul\":22232:22418   */\n      pop\n      pop\n      jump\t// out\n        /* \"#utility.yul\":22424:22967   */\n    tag_324:\n        /* \"#utility.yul\":22525:22527   */\n      0x1f\n        /* \"#utility.yul\":22520:22523   */\n      dup3\n        /* \"#utility.yul\":22517:22528   */\n      gt\n        /* \"#utility.yul\":22514:22960   */\n      iszero\n      tag_573\n      jumpi\n        /* \"#utility.yul\":22559:22597   */\n      tag_574\n        /* \"#utility.yul\":22591:22596   */\n      dup2\n        /* \"#utility.yul\":22559:22597   */\n      tag_314\n      jump\t// in\n    tag_574:\n        /* \"#utility.yul\":22643:22672   */\n      tag_575\n        /* \"#utility.yul\":22661:22671   */\n      dup5\n        /* \"#utility.yul\":22643:22672   */\n      tag_315\n      jump\t// in\n    tag_575:\n        /* \"#utility.yul\":22633:22641   */\n      dup2\n        /* \"#utility.yul\":22629:22673   */\n      add\n        /* \"#utility.yul\":22826:22828   */\n      0x20\n        /* \"#utility.yul\":22814:22824   */\n      dup6\n        /* \"#utility.yul\":22811:22829   */\n      lt\n        /* \"#utility.yul\":22808:22857   */\n      iszero\n      tag_576\n      jumpi\n        /* \"#utility.yul\":22847:22855   */\n      dup2\n        /* \"#utility.yul\":22832:22855   */\n      swap1\n      pop\n        /* \"#utility.yul\":22808:22857   */\n    tag_576:\n        /* \"#utility.yul\":22870:22950   */\n      tag_577\n        /* \"#utility.yul\":22926:22948   */\n      tag_578\n        /* \"#utility.yul\":22944:22947   */\n      dup6\n        /* \"#utility.yul\":22926:22948   */\n      tag_315\n      jump\t// in\n    tag_578:\n        /* \"#utility.yul\":22916:22924   */\n      dup4\n        /* \"#utility.yul\":22912:22949   */\n      add\n        /* \"#utility.yul\":22899:22910   */\n      dup3\n        /* \"#utility.yul\":22870:22950   */\n      tag_323\n      jump\t// in\n    tag_577:\n        /* \"#utility.yul\":22529:22960   */\n      pop\n      pop\n        /* \"#utility.yul\":22514:22960   */\n    tag_573:\n        /* \"#utility.yul\":22424:22967   */\n      pop\n      pop\n      pop\n      jump\t// out\n        /* \"#utility.yul\":22973:23090   */\n    tag_325:\n        /* \"#utility.yul\":23027:23035   */\n      0x00\n        /* \"#utility.yul\":23077:23082   */\n      dup3\n        /* \"#utility.yul\":23071:23075   */\n      dup3\n        /* \"#utility.yul\":23067:23083   */\n      shr\n        /* \"#utility.yul\":23046:23083   */\n      swap1\n      pop\n        /* \"#utility.yul\":22973:23090   */\n      swap3\n      swap2\n      pop\n      pop\n      jump\t// out\n        /* \"#utility.yul\":23096:23265   */\n    tag_326:\n        /* \"#utility.yul\":23140:23146   */\n      0x00\n        /* \"#utility.yul\":23173:23224   */\n      tag_581\n        /* \"#utility.yul\":23221:23222   */\n      0x00\n        /* \"#utility.yul\":23217:23223   */\n      not\n        /* \"#utility.yul\":23209:23214   */\n      dup5\n        /* \"#utility.yul\":23206:23207   */\n      0x08\n        /* \"#utility.yul\":23202:23215   */\n      mul\n        /* \"#utility.yul\":23173:23224   */\n      tag_325\n      jump\t// in\n    tag_581:\n        /* \"#utility.yul\":23169:23225   */\n      not\n        /* \"#utility.yul\":23254:23258   */\n      dup1\n        /* \"#utility.yul\":23248:23252   */\n      dup4\n        /* \"#utility.yul\":23244:23259   */\n      and\n        /* \"#utility.yul\":23234:23259   */\n      swap2\n      pop\n        /* \"#utility.yul\":23147:23265   */\n      pop\n        /* \"#utility.yul\":23096:23265   */\n      swap3\n      swap2\n      pop\n      pop\n      jump\t// out\n        /* \"#utility.yul\":23270:23565   */\n    tag_327:\n        /* \"#utility.yul\":23346:23350   */\n      0x00\n        /* \"#utility.yul\":23492:23521   */\n      tag_583\n        /* \"#utility.yul\":23517:23520   */\n      dup4\n        /* \"#utility.yul\":23511:23515   */\n      dup4\n        /* \"#utility.yul\":23492:23521   */\n      tag_326\n      jump\t// in\n    tag_583:\n        /* \"#utility.yul\":23484:23521   */\n      swap2\n      pop\n        /* \"#utility.yul\":23554:23557   */\n      dup3\n        /* \"#utility.yul\":23551:23552   */\n      0x02\n        /* \"#utility.yul\":23547:23558   */\n      mul\n        /* \"#utility.yul\":23541:23545   */\n      dup3\n        /* \"#utility.yul\":23538:23559   */\n      or\n        /* \"#utility.yul\":23530:23559   */\n      swap1\n      pop\n        /* \"#utility.yul\":23270:23565   */\n      swap3\n      swap2\n      pop\n      pop\n      jump\t// out\n        /* \"#utility.yul\":23570:25021   */\n    tag_177:\n        /* \"#utility.yul\":23681:23684   */\n      dup2\n        /* \"#utility.yul\":23675:23679   */\n      dup2\n        /* \"#utility.yul\":23672:23685   */\n      sub\n        /* \"#utility.yul\":23669:23695   */\n      tag_585\n      jumpi\n        /* \"#utility.yul\":23688:23693   */\n      pop\n      pop\n      jump(tag_584)\n        /* \"#utility.yul\":23669:23695   */\n    tag_585:\n        /* \"#utility.yul\":23719:23753   */\n      tag_586\n        /* \"#utility.yul\":23749:23752   */\n      dup3\n        /* \"#utility.yul\":23719:23753   */\n      tag_313\n      jump\t// in\n    tag_586:\n        /* \"#utility.yul\":23818:23836   */\n      0xffffffffffffffff\n        /* \"#utility.yul\":23810:23816   */\n      dup2\n        /* \"#utility.yul\":23807:23837   */\n      gt\n        /* \"#utility.yul\":23804:23860   */\n      iszero\n      tag_587\n      jumpi\n        /* \"#utility.yul\":23840:23858   */\n      tag_588\n      tag_191\n      jump\t// in\n    tag_588:\n        /* \"#utility.yul\":23804:23860   */\n    tag_587:\n        /* \"#utility.yul\":23884:23922   */\n      tag_589\n        /* \"#utility.yul\":23916:23920   */\n      dup3\n        /* \"#utility.yul\":23910:23921   */\n      sload\n        /* \"#utility.yul\":23884:23922   */\n      tag_139\n      jump\t// in\n    tag_589:\n        /* \"#utility.yul\":23969:24036   */\n      tag_590\n        /* \"#utility.yul\":24029:24035   */\n      dup3\n        /* \"#utility.yul\":24021:24027   */\n      dup3\n        /* \"#utility.yul\":24015:24019   */\n      dup6\n        /* \"#utility.yul\":23969:24036   */\n      tag_324\n      jump\t// in\n    tag_590:\n        /* \"#utility.yul\":24063:24064   */\n      0x00\n        /* \"#utility.yul\":24092:24094   */\n      0x1f\n        /* \"#utility.yul\":24084:24090   */\n      dup4\n        /* \"#utility.yul\":24081:24095   */\n      gt\n        /* \"#utility.yul\":24109:24110   */\n      0x01\n        /* \"#utility.yul\":24104:24776   */\n      dup2\n      eq\n      tag_592\n      jumpi\n        /* \"#utility.yul\":24820:24821   */\n      0x00\n        /* \"#utility.yul\":24837:24843   */\n      dup5\n        /* \"#utility.yul\":24834:24911   */\n      iszero\n      tag_593\n      jumpi\n        /* \"#utility.yul\":24886:24895   */\n      dup3\n        /* \"#utility.yul\":24881:24884   */\n      dup8\n        /* \"#utility.yul\":24877:24896   */\n      add\n        /* \"#utility.yul\":24871:24897   */\n      sload\n        /* \"#utility.yul\":24862:24897   */\n      swap1\n      pop\n        /* \"#utility.yul\":24834:24911   */\n    tag_593:\n        /* \"#utility.yul\":24937:25004   */\n      tag_594\n        /* \"#utility.yul\":24997:25003   */\n      dup6\n        /* \"#utility.yul\":24990:24995   */\n      dup3\n        /* \"#utility.yul\":24937:25004   */\n      tag_327\n      jump\t// in\n    tag_594:\n        /* \"#utility.yul\":24931:24935   */\n      dup7\n        /* \"#utility.yul\":24924:25005   */\n      sstore\n        /* \"#utility.yul\":24793:25015   */\n      pop\n        /* \"#utility.yul\":24074:25015   */\n      jump(tag_591)\n        /* \"#utility.yul\":24104:24776   */\n    tag_592:\n        /* \"#utility.yul\":24156:24160   */\n      0x1f\n        /* \"#utility.yul\":24152:24161   */\n      not\n        /* \"#utility.yul\":24144:24150   */\n      dup5\n        /* \"#utility.yul\":24140:24162   */\n      and\n        /* \"#utility.yul\":24182:24218   */\n      tag_595\n        /* \"#utility.yul\":24214:24217   */\n      dup8\n        /* \"#utility.yul\":24182:24218   */\n      tag_314\n      jump\t// in\n    tag_595:\n        /* \"#utility.yul\":24175:24218   */\n      swap7\n      pop\n        /* \"#utility.yul\":24245:24282   */\n      tag_596\n        /* \"#utility.yul\":24277:24281   */\n      dup7\n        /* \"#utility.yul\":24245:24282   */\n      tag_314\n      jump\t// in\n    tag_596:\n        /* \"#utility.yul\":24304:24305   */\n      0x00\n        /* \"#utility.yul\":24318:24525   */\n    tag_597:\n        /* \"#utility.yul\":24332:24339   */\n      dup3\n        /* \"#utility.yul\":24329:24330   */\n      dup2\n        /* \"#utility.yul\":24326:24340   */\n      lt\n        /* \"#utility.yul\":24318:24525   */\n      iszero\n      tag_599\n      jumpi\n        /* \"#utility.yul\":24411:24420   */\n      dup5\n        /* \"#utility.yul\":24406:24409   */\n      dup10\n        /* \"#utility.yul\":24402:24421   */\n      add\n        /* \"#utility.yul\":24396:24422   */\n      sload\n        /* \"#utility.yul\":24388:24394   */\n      dup3\n        /* \"#utility.yul\":24381:24423   */\n      sstore\n        /* \"#utility.yul\":24462:24463   */\n      0x01\n        /* \"#utility.yul\":24454:24460   */\n      dup3\n        /* \"#utility.yul\":24450:24464   */\n      add\n        /* \"#utility.yul\":24440:24464   */\n      swap2\n      pop\n        /* \"#utility.yul\":24509:24510   */\n      0x01\n        /* \"#utility.yul\":24498:24507   */\n      dup6\n        /* \"#utility.yul\":24494:24511   */\n      add\n        /* \"#utility.yul\":24481:24511   */\n      swap5\n      pop\n        /* \"#utility.yul\":24355:24359   */\n      0x20\n        /* \"#utility.yul\":24352:24353   */\n      dup2\n        /* \"#utility.yul\":24348:24360   */\n      add\n        /* \"#utility.yul\":24343:24360   */\n      swap1\n      pop\n        /* \"#utility.yul\":24318:24525   */\n      jump(tag_597)\n    tag_599:\n        /* \"#utility.yul\":24553:24559   */\n      dup7\n        /* \"#utility.yul\":24544:24551   */\n      dup4\n        /* \"#utility.yul\":24541:24560   */\n      lt\n        /* \"#utility.yul\":24538:24717   */\n      iszero\n      tag_600\n      jumpi\n        /* \"#utility.yul\":24611:24620   */\n      dup5\n        /* \"#utility.yul\":24606:24609   */\n      dup10\n        /* \"#utility.yul\":24602:24621   */\n      add\n        /* \"#utility.yul\":24596:24622   */\n      sload\n        /* \"#utility.yul\":24654:24702   */\n      tag_601\n        /* \"#utility.yul\":24696:24700   */\n      0x1f\n        /* \"#utility.yul\":24688:24694   */\n      dup10\n        /* \"#utility.yul\":24684:24701   */\n      and\n        /* \"#utility.yul\":24673:24682   */\n      dup3\n        /* \"#utility.yul\":24654:24702   */\n      tag_326\n      jump\t// in\n    tag_601:\n        /* \"#utility.yul\":24646:24652   */\n      dup4\n        /* \"#utility.yul\":24639:24703   */\n      sstore\n        /* \"#utility.yul\":24561:24717   */\n      pop\n        /* \"#utility.yul\":24538:24717   */\n    tag_600:\n        /* \"#utility.yul\":24763:24764   */\n      0x01\n        /* \"#utility.yul\":24759:24760   */\n      0x02\n        /* \"#utility.yul\":24751:24757   */\n      dup9\n        /* \"#utility.yul\":24747:24761   */\n      mul\n        /* \"#utility.yul\":24743:24765   */\n      add\n        /* \"#utility.yul\":24737:24741   */\n      dup9\n        /* \"#utility.yul\":24730:24766   */\n      sstore\n        /* \"#utility.yul\":24111:24776   */\n      pop\n      pop\n      pop\n        /* \"#utility.yul\":24074:25015   */\n    tag_591:\n      pop\n        /* \"#utility.yul\":23659:25021   */\n      pop\n      pop\n      pop\n        /* \"#utility.yul\":23570:25021   */\n      pop\n      pop\n    tag_584:\n      jump\t// out\n        /* \"#utility.yul\":25027:25207   */\n    tag_201:\n        /* \"#utility.yul\":25075:25152   */\n      0x4e487b7100000000000000000000000000000000000000000000000000000000\n        /* \"#utility.yul\":25072:25073   */\n      0x00\n        /* \"#utility.yul\":25065:25153   */\n      mstore\n        /* \"#utility.yul\":25172:25176   */\n      0x32\n        /* \"#utility.yul\":25169:25170   */\n      0x04\n        /* \"#utility.yul\":25162:25177   */\n      mstore\n        /* \"#utility.yul\":25196:25200   */\n      0x24\n        /* \"#utility.yul\":25193:25194   */\n      0x00\n        /* \"#utility.yul\":25186:25201   */\n      revert\n        /* \"#utility.yul\":25213:25446   */\n    tag_211:\n        /* \"#utility.yul\":25252:25255   */\n      0x00\n        /* \"#utility.yul\":25275:25299   */\n      tag_604\n        /* \"#utility.yul\":25293:25298   */\n      dup3\n        /* \"#utility.yul\":25275:25299   */\n      tag_258\n      jump\t// in\n    tag_604:\n        /* \"#utility.yul\":25266:25299   */\n      swap2\n      pop\n        /* \"#utility.yul\":25321:25387   */\n      0xffffffffffffffffffffffffffffffffffffffffffffffffffffffffffffffff\n        /* \"#utility.yul\":25314:25319   */\n      dup3\n        /* \"#utility.yul\":25311:25388   */\n      sub\n        /* \"#utility.yul\":25308:25411   */\n      tag_605\n      jumpi\n        /* \"#utility.yul\":25391:25409   */\n      tag_606\n      tag_259\n      jump\t// in\n    tag_606:\n        /* \"#utility.yul\":25308:25411   */\n    tag_605:\n        /* \"#utility.yul\":25438:25439   */\n      0x01\n        /* \"#utility.yul\":25431:25436   */\n      dup3\n        /* \"#utility.yul\":25427:25440   */\n      add\n        /* \"#utility.yul\":25420:25440   */\n      swap1\n      pop\n        /* \"#utility.yul\":25213:25446   */\n      swap2\n      swap1\n      pop\n      jump\t// out\n        /* \"#utility.yul\":25452:25620   */\n    tag_328:\n        /* \"#utility.yul\":25592:25612   */\n      0x496e76616c69642070726f647563742049440000000000000000000000000000\n        /* \"#utility.yul\":25588:25589   */\n      0x00\n        /* \"#utility.yul\":25580:25586   */\n      dup3\n        /* \"#utility.yul\":25576:25590   */\n      add\n        /* \"#utility.yul\":25569:25613   */\n      mstore\n        /* \"#utility.yul\":25452:25620   */\n      pop\n      jump\t// out\n        /* \"#utility.yul\":25626:25992   */\n    tag_329:\n        /* \"#utility.yul\":25768:25771   */\n      0x00\n        /* \"#utility.yul\":25789:25856   */\n      tag_609\n        /* \"#utility.yul\":25853:25855   */\n      0x12\n        /* \"#utility.yul\":25848:25851   */\n      dup4\n        /* \"#utility.yul\":25789:25856   */\n      tag_261\n      jump\t// in\n    tag_609:\n        /* \"#utility.yul\":25782:25856   */\n      swap2\n      pop\n        /* \"#utility.yul\":25865:25958   */\n      tag_610\n        /* \"#utility.yul\":25954:25957   */\n      dup3\n        /* \"#utility.yul\":25865:25958   */\n      tag_328\n      jump\t// in\n    tag_610:\n        /* \"#utility.yul\":25983:25985   */\n      0x20\n        /* \"#utility.yul\":25978:25981   */\n      dup3\n        /* \"#utility.yul\":25974:25986   */\n      add\n        /* \"#utility.yul\":25967:25986   */\n      swap1\n      pop\n        /* \"#utility.yul\":25626:25992   */\n      swap2\n      swap1\n      pop\n      jump\t// out\n        /* \"#utility.yul\":25998:26417   */\n    tag_216:\n        /* \"#utility.yul\":26164:26168   */\n      0x00\n        /* \"#utility.yul\":26202:26204   */\n      0x20\n        /* \"#utility.yul\":26191:26200   */\n      dup3\n        /* \"#utility.yul\":26187:26205   */\n      add\n        /* \"#utility.yul\":26179:26205   */\n      swap1\n      pop\n        /* \"#utility.yul\":26251:26260   */\n      dup2\n        /* \"#utility.yul\":26245:26249   */\n      dup2\n        /* \"#utility.yul\":26241:26261   */\n      sub\n        /* \"#utility.yul\":26237:26238   */\n      0x00\n        /* \"#utility.yul\":26226:26235   */\n      dup4\n        /* \"#utility.yul\":26222:26239   */\n      add\n        /* \"#utility.yul\":26215:26262   */\n      mstore\n        /* \"#utility.yul\":26279:26410   */\n      tag_612\n        /* \"#utility.yul\":26405:26409   */\n      dup2\n        /* \"#utility.yul\":26279:26410   */\n      tag_329\n      jump\t// in\n    tag_612:\n        /* \"#utility.yul\":26271:26410   */\n      swap1\n      pop\n        /* \"#utility.yul\":25998:26417   */\n      swap2\n      swap1\n      pop\n      jump\t// out\n        /* \"#utility.yul\":26423:26599   */\n    tag_330:\n        /* \"#utility.yul\":26563:26591   */\n      0x596f7520646f6e2774206f776e20746869732070726f64756374000000000000\n        /* \"#utility.yul\":26559:26560   */\n      0x00\n        /* \"#utility.yul\":26551:26557   */\n      dup3\n        /* \"#utility.yul\":26547:26561   */\n      add\n        /* \"#utility.yul\":26540:26592   */\n      mstore\n        /* \"#utility.yul\":26423:26599   */\n      pop\n      jump\t// out\n        /* \"#utility.yul\":26605:26971   */\n    tag_331:\n        /* \"#utility.yul\":26747:26750   */\n      0x00\n        /* \"#utility.yul\":26768:26835   */\n      tag_615\n        /* \"#utility.yul\":26832:26834   */\n      0x1a\n        /* \"#utility.yul\":26827:26830   */\n      dup4\n        /* \"#utility.yul\":26768:26835   */\n      tag_261\n      jump\t// in\n    tag_615:\n        /* \"#utility.yul\":26761:26835   */\n      swap2\n      pop\n        /* \"#utility.yul\":26844:26937   */\n      tag_616\n        /* \"#utility.yul\":26933:26936   */\n      dup3\n        /* \"#utility.yul\":26844:26937   */\n      tag_330\n      jump\t// in\n    tag_616:\n        /* \"#utility.yul\":26962:26964   */\n      0x20\n        /* \"#utility.yul\":26957:26960   */\n      dup3\n        /* \"#utility.yul\":26953:26965   */\n      add\n        /* \"#utility.yul\":26946:26965   */\n      swap1\n      pop\n        /* \"#utility.yul\":26605:26971   */\n      swap2\n      swap1\n      pop\n      jump\t// out\n        /* \"#utility.yul\":26977:27396   */\n    tag_222:\n        /* \"#utility.yul\":27143:27147   */\n      0x00\n        /* \"#utility.yul\":27181:27183   */\n      0x20\n        /* \"#utility.yul\":27170:27179   */\n      dup3\n        /* \"#utility.yul\":27166:27184   */\n      add\n        /* \"#utility.yul\":27158:27184   */\n      swap1\n      pop\n        /* \"#utility.yul\":27230:27239   */\n      dup2\n        /* \"#utility.yul\":27224:27228   */\n      dup2\n        /* \"#utility.yul\":27220:27240   */\n      sub\n        /* \"#utility.yul\":27216:27217   */\n      0x00\n        /* \"#utility.yul\":27205:27214   */\n      dup4\n        /* \"#utility.yul\":27201:27218   */\n      add\n        /* \"#utility.yul\":27194:27241   */\n      mstore\n        /* \"#utility.yul\":27258:27389   */\n      tag_618\n        /* \"#utility.yul\":27384:27388   */\n      dup2\n        /* \"#utility.yul\":27258:27389   */\n      tag_331\n      jump\t// in\n    tag_618:\n        /* \"#utility.yul\":27250:27389   */\n      swap1\n      pop\n        /* \"#utility.yul\":26977:27396   */\n      swap2\n      swap1\n      pop\n      jump\t// out\n        /* \"#utility.yul\":27402:28797   */\n    tag_232:\n        /* \"#utility.yul\":27519:27556   */\n      tag_620\n        /* \"#utility.yul\":27552:27555   */\n      dup3\n        /* \"#utility.yul\":27519:27556   */\n      tag_260\n      jump\t// in\n    tag_620:\n        /* \"#utility.yul\":27621:27639   */\n      0xffffffffffffffff\n        /* \"#utility.yul\":27613:27619   */\n      dup2\n        /* \"#utility.yul\":27610:27640   */\n      gt\n        /* \"#utility.yul\":27607:27663   */\n      iszero\n      tag_621\n      jumpi\n        /* \"#utility.yul\":27643:27661   */\n      tag_622\n      tag_191\n      jump\t// in\n    tag_622:\n        /* \"#utility.yul\":27607:27663   */\n    tag_621:\n        /* \"#utility.yul\":27687:27725   */\n      tag_623\n        /* \"#utility.yul\":27719:27723   */\n      dup3\n        /* \"#utility.yul\":27713:27724   */\n      sload\n        /* \"#utility.yul\":27687:27725   */\n      tag_139\n      jump\t// in\n    tag_623:\n        /* \"#utility.yul\":27772:27839   */\n      tag_624\n        /* \"#utility.yul\":27832:27838   */\n      dup3\n        /* \"#utility.yul\":27824:27830   */\n      dup3\n        /* \"#utility.yul\":27818:27822   */\n      dup6\n        /* \"#utility.yul\":27772:27839   */\n      tag_324\n      jump\t// in\n    tag_624:\n        /* \"#utility.yul\":27866:27867   */\n      0x00\n        /* \"#utility.yul\":27890:27894   */\n      0x20\n        /* \"#utility.yul\":27877:27894   */\n      swap1\n      pop\n        /* \"#utility.yul\":27922:27924   */\n      0x1f\n        /* \"#utility.yul\":27914:27920   */\n      dup4\n        /* \"#utility.yul\":27911:27925   */\n      gt\n        /* \"#utility.yul\":27939:27940   */\n      0x01\n        /* \"#utility.yul\":27934:28552   */\n      dup2\n      eq\n      tag_626\n      jumpi\n        /* \"#utility.yul\":28596:28597   */\n      0x00\n        /* \"#utility.yul\":28613:28619   */\n      dup5\n        /* \"#utility.yul\":28610:28687   */\n      iszero\n      tag_627\n      jumpi\n        /* \"#utility.yul\":28662:28671   */\n      dup3\n        /* \"#utility.yul\":28657:28660   */\n      dup8\n        /* \"#utility.yul\":28653:28672   */\n      add\n        /* \"#utility.yul\":28647:28673   */\n      mload\n        /* \"#utility.yul\":28638:28673   */\n      swap1\n      pop\n        /* \"#utility.yul\":28610:28687   */\n    tag_627:\n        /* \"#utility.yul\":28713:28780   */\n      tag_628\n        /* \"#utility.yul\":28773:28779   */\n      dup6\n        /* \"#utility.yul\":28766:28771   */\n      dup3\n        /* \"#utility.yul\":28713:28780   */\n      tag_327\n      jump\t// in\n    tag_628:\n        /* \"#utility.yul\":28707:28711   */\n      dup7\n        /* \"#utility.yul\":28700:28781   */\n      sstore\n        /* \"#utility.yul\":28569:28791   */\n      pop\n        /* \"#utility.yul\":27904:28791   */\n      jump(tag_625)\n        /* \"#utility.yul\":27934:28552   */\n    tag_626:\n        /* \"#utility.yul\":27986:27990   */\n      0x1f\n        /* \"#utility.yul\":27982:27991   */\n      not\n        /* \"#utility.yul\":27974:27980   */\n      dup5\n        /* \"#utility.yul\":27970:27992   */\n      and\n        /* \"#utility.yul\":28020:28057   */\n      tag_629\n        /* \"#utility.yul\":28052:28056   */\n      dup7\n        /* \"#utility.yul\":28020:28057   */\n      tag_314\n      jump\t// in\n    tag_629:\n        /* \"#utility.yul\":28079:28080   */\n      0x00\n        /* \"#utility.yul\":28093:28301   */\n    tag_630:\n        /* \"#utility.yul\":28107:28114   */\n      dup3\n        /* \"#utility.yul\":28104:28105   */\n      dup2\n        /* \"#utility.yul\":28101:28115   */\n      lt\n        /* \"#utility.yul\":28093:28301   */\n      iszero\n      tag_632\n      jumpi\n        /* \"#utility.yul\":28186:28195   */\n      dup5\n        /* \"#utility.yul\":28181:28184   */\n      dup10\n        /* \"#utility.yul\":28177:28196   */\n      add\n        /* \"#utility.yul\":28171:28197   */\n      mload\n        /* \"#utility.yul\":28163:28169   */\n      dup3\n        /* \"#utility.yul\":28156:28198   */\n      sstore\n        /* \"#utility.yul\":28237:28238   */\n      0x01\n        /* \"#utility.yul\":28229:28235   */\n      dup3\n        /* \"#utility.yul\":28225:28239   */\n      add\n        /* \"#utility.yul\":28215:28239   */\n      swap2\n      pop\n        /* \"#utility.yul\":28284:28286   */\n      0x20\n        /* \"#utility.yul\":28273:28282   */\n      dup6\n        /* \"#utility.yul\":28269:28287   */\n      add\n        /* \"#utility.yul\":28256:28287   */\n      swap5\n      pop\n        /* \"#utility.yul\":28130:28134   */\n      0x20\n        /* \"#utility.yul\":28127:28128   */\n      dup2\n        /* \"#utility.yul\":28123:28135   */\n      add\n        /* \"#utility.yul\":28118:28135   */\n      swap1\n      pop\n        /* \"#utility.yul\":28093:28301   */\n      jump(tag_630)\n    tag_632:\n        /* \"#utility.yul\":28329:28335   */\n      dup7\n        /* \"#utility.yul\":28320:28327   */\n      dup4\n        /* \"#utility.yul\":28317:28336   */\n      lt\n        /* \"#utility.yul\":28314:28493   */\n      iszero\n      tag_633\n      jumpi\n        /* \"#utility.yul\":28387:28396   */\n      dup5\n        /* \"#utility.yul\":28382:28385   */\n      dup10\n        /* \"#utility.yul\":28378:28397   */\n      add\n        /* \"#utility.yul\":28372:28398   */\n      mload\n        /* \"#utility.yul\":28430:28478   */\n      tag_634\n        /* \"#utility.yul\":28472:28476   */\n      0x1f\n        /* \"#utility.yul\":28464:28470   */\n      dup10\n        /* \"#utility.yul\":28460:28477   */\n      and\n        /* \"#utility.yul\":28449:28458   */\n      dup3\n        /* \"#utility.yul\":28430:28478   */\n      tag_326\n      jump\t// in\n    tag_634:\n        /* \"#utility.yul\":28422:28428   */\n      dup4\n        /* \"#utility.yul\":28415:28479   */\n      sstore\n        /* \"#utility.yul\":28337:28493   */\n      pop\n        /* \"#utility.yul\":28314:28493   */\n    tag_633:\n        /* \"#utility.yul\":28539:28540   */\n      0x01\n        /* \"#utility.yul\":28535:28536   */\n      0x02\n        /* \"#utility.yul\":28527:28533   */\n      dup9\n        /* \"#utility.yul\":28523:28537   */\n      mul\n        /* \"#utility.yul\":28519:28541   */\n      add\n        /* \"#utility.yul\":28513:28517   */\n      dup9\n        /* \"#utility.yul\":28506:28542   */\n      sstore\n        /* \"#utility.yul\":27941:28552   */\n      pop\n      pop\n      pop\n        /* \"#utility.yul\":27904:28791   */\n    tag_625:\n      pop\n        /* \"#utility.yul\":27494:28797   */\n      pop\n      pop\n      pop\n        /* \"#utility.yul\":27402:28797   */\n      pop\n      pop\n      jump\t// out\n\n    auxdata: 0xa2646970667358221220911b17213feed229165a314793b9562877d2013e68314c618e4b73651911ab9f64736f6c63430008130033\n}\n",
				"bytecode": {
					"linkReferences": {},
					"object": "60806040526012600260006101000a81548160ff021916908360ff160217905550683635c9adc5dea000006008553480156200003a57600080fd5b506040518060400160405280600581526020017f73746f72650000000000000000000000000000000000000000000000000000008152506040518060400160405280600381526020017f535452000000000000000000000000000000000000000000000000000000000081525061271033600460006101000a81548173ffffffffffffffffffffffffffffffffffffffff021916908373ffffffffffffffffffffffffffffffffffffffff1602179055508260009081620000fc919062000446565b5081600190816200010e919062000446565b506200014d600260009054906101000a900460ff1660ff16600a620001349190620006b0565b8262000141919062000701565b6200015660201b60201c565b50505062000787565b80600560003373ffffffffffffffffffffffffffffffffffffffff1673ffffffffffffffffffffffffffffffffffffffff1681526020019081526020016000206000828254620001a791906200074c565b925050819055508060036000828254620001c291906200074c565b9250508190555050565b600081519050919050565b7f4e487b7100000000000000000000000000000000000000000000000000000000600052604160045260246000fd5b7f4e487b7100000000000000000000000000000000000000000000000000000000600052602260045260246000fd5b600060028204905060018216806200024e57607f821691505b60208210810362000264576200026362000206565b5b50919050565b60008190508160005260206000209050919050565b60006020601f8301049050919050565b600082821b905092915050565b600060088302620002ce7fffffffffffffffffffffffffffffffffffffffffffffffffffffffffffffffff826200028f565b620002da86836200028f565b95508019841693508086168417925050509392505050565b6000819050919050565b6000819050919050565b600062000327620003216200031b84620002f2565b620002fc565b620002f2565b9050919050565b6000819050919050565b620003438362000306565b6200035b62000352826200032e565b8484546200029c565b825550505050565b600090565b6200037262000363565b6200037f81848462000338565b505050565b5b81811015620003a7576200039b60008262000368565b60018101905062000385565b5050565b601f821115620003f657620003c0816200026a565b620003cb846200027f565b81016020851015620003db578190505b620003f3620003ea856200027f565b83018262000384565b50505b505050565b600082821c905092915050565b60006200041b60001984600802620003fb565b1980831691505092915050565b600062000436838362000408565b9150826002028217905092915050565b6200045182620001cc565b67ffffffffffffffff8111156200046d576200046c620001d7565b5b62000479825462000235565b62000486828285620003ab565b600060209050601f831160018114620004be5760008415620004a9578287015190505b620004b5858262000428565b86555062000525565b601f198416620004ce866200026a565b60005b82811015620004f857848901518255600182019150602085019450602081019050620004d1565b8683101562000518578489015162000514601f89168262000408565b8355505b6001600288020188555050505b505050505050565b7f4e487b7100000000000000000000000000000000000000000000000000000000600052601160045260246000fd5b60008160011c9050919050565b6000808291508390505b6001851115620005bb578086048111156200059357620005926200052d565b5b6001851615620005a35780820291505b8081029050620005b3856200055c565b945062000573565b94509492505050565b600082620005d65760019050620006a9565b81620005e65760009050620006a9565b8160018114620005ff57600281146200060a5762000640565b6001915050620006a9565b60ff8411156200061f576200061e6200052d565b5b8360020a9150848211156200063957620006386200052d565b5b50620006a9565b5060208310610133831016604e8410600b84101617156200067a5782820a9050838111156200067457620006736200052d565b5b620006a9565b62000689848484600162000569565b92509050818404811115620006a357620006a26200052d565b5b81810290505b9392505050565b6000620006bd82620002f2565b9150620006ca83620002f2565b9250620006f97fffffffffffffffffffffffffffffffffffffffffffffffffffffffffffffffff8484620005c4565b905092915050565b60006200070e82620002f2565b91506200071b83620002f2565b92508282026200072b81620002f2565b915082820484148315176200074557620007446200052d565b5b5092915050565b60006200075982620002f2565b91506200076683620002f2565b92508282019050808211156200078157620007806200052d565b5b92915050565b612a7580620007976000396000f3fe6080604052600436106101185760003560e01c806343fdcd56116100a0578063a9059cbb11610064578063a9059cbb1461057f578063cfaaef56146105bc578063d84ea06d146105fc578063dd62ed3e1461063c578063fc0c546a14610679576102cb565b806343fdcd561461049a57806370a08231146104c55780638890fe98146105025780638c96091b1461052b57806395d89b4114610554576102cb565b806327e235e3116100e757806327e235e3146103a0578063313ce567146103dd57806338e76a03146104085780633d5278831461043157806342966c6814610471576102cb565b806306fdde03146102d0578063095ea7b3146102fb57806318160ddd1461033857806323b872dd14610363576102cb565b366102cb57600060c83461012c9190611b4e565b90508060056000600460009054906101000a900473ffffffffffffffffffffffffffffffffffffffff1673ffffffffffffffffffffffffffffffffffffffff1673ffffffffffffffffffffffffffffffffffffffff16815260200190815260200160002054101561019c57600080fd5b8060056000600460009054906101000a900473ffffffffffffffffffffffffffffffffffffffff1673ffffffffffffffffffffffffffffffffffffffff1673ffffffffffffffffffffffffffffffffffffffff168152602001908152602001600020600082825461020d9190611b90565b9250508190555080600560003373ffffffffffffffffffffffffffffffffffffffff1673ffffffffffffffffffffffffffffffffffffffff16815260200190815260200160002060008282546102639190611bc4565b92505081905550600460009054906101000a900473ffffffffffffffffffffffffffffffffffffffff1673ffffffffffffffffffffffffffffffffffffffff163373ffffffffffffffffffffffffffffffffffffffff16036102c9576102c8816106a4565b5b005b600080fd5b3480156102dc57600080fd5b506102e5610716565b6040516102f29190611c88565b60405180910390f35b34801561030757600080fd5b50610322600480360381019061031d9190611d48565b6107a4565b60405161032f9190611da3565b60405180910390f35b34801561034457600080fd5b5061034d61086c565b60405161035a9190611dcd565b60405180910390f35b34801561036f57600080fd5b5061038a60048036038101906103859190611de8565b610872565b6040516103979190611da3565b60405180910390f35b3480156103ac57600080fd5b506103c760048036038101906103c29190611e3b565b610a47565b6040516103d49190611dcd565b60405180910390f35b3480156103e957600080fd5b506103f2610a5f565b6040516103ff9190611e84565b60405180910390f35b34801561041457600080fd5b5061042f600480360381019061042a9190611e9f565b610a72565b005b34801561043d57600080fd5b5061045860048036038101906104539190611d48565b610e69565b6040516104689493929190611edb565b60405180910390f35b34801561047d57600080fd5b5061049860048036038101906104939190611e9f565b610f6b565b005b3480156104a657600080fd5b506104af610fdd565b6040516104bc91906120c3565b60405180910390f35b3480156104d157600080fd5b506104ec60048036038101906104e79190611e3b565b6111bf565b6040516104f99190611dcd565b60405180910390f35b34801561050e57600080fd5b5061052960048036038101906105249190611e9f565b611208565b005b34801561053757600080fd5b50610552600480360381019061054d919061221a565b6113f0565b005b34801561056057600080fd5b5061056961172f565b6040516105769190611c88565b60405180910390f35b34801561058b57600080fd5b506105a660048036038101906105a19190611d48565b6117bd565b6040516105b39190611da3565b60405180910390f35b3480156105c857600080fd5b506105e360048036038101906105de9190611e9f565b6118b0565b6040516105f39493929190611edb565b60405180910390f35b34801561060857600080fd5b50610623600480360381019061061e9190611e9f565b6119a5565b6040516106339493929190611edb565b60405180910390f35b34801561064857600080fd5b50610663600480360381019061065e9190612276565b611a8a565b6040516106709190611dcd565b60405180910390f35b34801561068557600080fd5b5061068e611aaf565b60405161069b9190612315565b60405180910390f35b80600560003373ffffffffffffffffffffffffffffffffffffffff1673ffffffffffffffffffffffffffffffffffffffff16815260200190815260200160002060008282546106f39190611bc4565b92505081905550806003600082825461070c9190611bc4565b9250508190555050565b600080546107239061235f565b80601f016020809104026020016040519081016040528092919081815260200182805461074f9061235f565b801561079c5780601f106107715761010080835404028352916020019161079c565b820191906000526020600020905b81548152906001019060200180831161077f57829003601f168201915b505050505081565b600081600660003373ffffffffffffffffffffffffffffffffffffffff1673ffffffffffffffffffffffffffffffffffffffff16815260200190815260200160002060008573ffffffffffffffffffffffffffffffffffffffff1673ffffffffffffffffffffffffffffffffffffffff168152602001908152602001600020819055507f8c5be1e5ebec7d5bd14f71427d1e84f3dd0314c0f7b2291e5b200ac8c7c3b92533848460405161085a93929190612390565b60405180910390a16001905092915050565b60035481565b600081600660008673ffffffffffffffffffffffffffffffffffffffff1673ffffffffffffffffffffffffffffffffffffffff16815260200190815260200160002060003373ffffffffffffffffffffffffffffffffffffffff1673ffffffffffffffffffffffffffffffffffffffff1681526020019081526020016000205410156108fd57600080fd5b81600660008673ffffffffffffffffffffffffffffffffffffffff1673ffffffffffffffffffffffffffffffffffffffff16815260200190815260200160002060003373ffffffffffffffffffffffffffffffffffffffff1673ffffffffffffffffffffffffffffffffffffffff16815260200190815260200160002060008282546109899190611b90565b9250508190555081600560008673ffffffffffffffffffffffffffffffffffffffff1673ffffffffffffffffffffffffffffffffffffffff16815260200190815260200160002060008282546109df9190611b90565b9250508190555081600560008573ffffffffffffffffffffffffffffffffffffffff1673ffffffffffffffffffffffffffffffffffffffff1681526020019081526020016000206000828254610a359190611bc4565b92505081905550600190509392505050565b60056020528060005260406000206000915090505481565b600260009054906101000a900460ff1681565b6000600a600083815260200190815260200160002090508060020160009054906101000a900460ff16610ada576040517f08c379a0000000000000000000000000000000000000000000000000000000008152600401610ad190612413565b60405180910390fd5b60008160010154905080600b60009054906101000a900473ffffffffffffffffffffffffffffffffffffffff1673ffffffffffffffffffffffffffffffffffffffff166370a08231336040518263ffffffff1660e01b8152600401610b3f9190612433565b602060405180830381865afa158015610b5c573d6000803e3d6000fd5b505050506040513d601f19601f82011682018060405250810190610b809190612463565b1015610bc1576040517f08c379a0000000000000000000000000000000000000000000000000000000008152600401610bb8906124dc565b60405180910390fd5b600b60009054906101000a900473ffffffffffffffffffffffffffffffffffffffff1673ffffffffffffffffffffffffffffffffffffffff166323b872dd3330846040518463ffffffff1660e01b8152600401610c2093929190612390565b6020604051808303816000875af1158015610c3f573d6000803e3d6000fd5b505050506040513d601f19601f82011682018060405250810190610c639190612528565b50600b60009054906101000a900473ffffffffffffffffffffffffffffffffffffffff1673ffffffffffffffffffffffffffffffffffffffff1663a9059cbb8360020160019054906101000a900473ffffffffffffffffffffffffffffffffffffffff16836040518363ffffffff1660e01b8152600401610ce5929190612555565b6020604051808303816000875af1158015610d04573d6000803e3d6000fd5b505050506040513d601f19601f82011682018060405250810190610d289190612528565b50600960003373ffffffffffffffffffffffffffffffffffffffff1673ffffffffffffffffffffffffffffffffffffffff16815260200190815260200160002082908060018154018082558091505060019003906000526020600020906003020160009091909190915060008201816000019081610da69190612736565b50600182015481600101556002820160009054906101000a900460ff168160020160006101000a81548160ff0219169083151502179055506002820160019054906101000a900473ffffffffffffffffffffffffffffffffffffffff168160020160016101000a81548173ffffffffffffffffffffffffffffffffffffffff021916908373ffffffffffffffffffffffffffffffffffffffff160217905550505060008260020160006101000a81548160ff021916908315150217905550505050565b60096020528160005260406000208181548110610e8557600080fd5b906000526020600020906003020160009150915050806000018054610ea99061235f565b80601f0160208091040260200160405190810160405280929190818152602001828054610ed59061235f565b8015610f225780601f10610ef757610100808354040283529160200191610f22565b820191906000526020600020905b815481529060010190602001808311610f0557829003601f168201915b5050505050908060010154908060020160009054906101000a900460ff16908060020160019054906101000a900473ffffffffffffffffffffffffffffffffffffffff16905084565b80600560003373ffffffffffffffffffffffffffffffffffffffff1673ffffffffffffffffffffffffffffffffffffffff1681526020019081526020016000206000828254610fba9190611b90565b925050819055508060036000828254610fd39190611b90565b9250508190555050565b6060600060078054905067ffffffffffffffff81111561100057610fff6120ef565b5b60405190808252806020026020018201604052801561103957816020015b611026611ad5565b81526020019060019003908161101e5790505b50905060005b6007805490508110156111b757600781815481106110605761105f61281e565b5b90600052602060002090600302016040518060800160405290816000820180546110899061235f565b80601f01602080910402602001604051908101604052809291908181526020018280546110b59061235f565b80156111025780601f106110d757610100808354040283529160200191611102565b820191906000526020600020905b8154815290600101906020018083116110e557829003601f168201915b50505050508152602001600182015481526020016002820160009054906101000a900460ff161515151581526020016002820160019054906101000a900473ffffffffffffffffffffffffffffffffffffffff1673ffffffffffffffffffffffffffffffffffffffff1673ffffffffffffffffffffffffffffffffffffffff16815250508282815181106111995761119861281e565b5b602002602001018190525080806111af9061284d565b91505061103f565b508091505090565b6000600560008373ffffffffffffffffffffffffffffffffffffffff1673ffffffffffffffffffffffffffffffffffffffff168152602001908152602001600020549050919050565b600780549050811061124f576040517f08c379a0000000000000000000000000000000000000000000000000000000008152600401611246906128e1565b60405180910390fd5b3373ffffffffffffffffffffffffffffffffffffffff166007828154811061127a5761127961281e565b5b906000526020600020906003020160020160019054906101000a900473ffffffffffffffffffffffffffffffffffffffff1673ffffffffffffffffffffffffffffffffffffffff1614611302576040517f08c379a00000000000000000000000000000000000000000000000000000000081526004016112f99061294d565b60405180910390fd5b600781815481106113165761131561281e565b5b9060005260206000209060030201600a60008381526020019081526020016000206000820181600001908161134b9190612736565b50600182015481600101556002820160009054906101000a900460ff168160020160006101000a81548160ff0219169083151502179055506002820160019054906101000a900473ffffffffffffffffffffffffffffffffffffffff168160020160016101000a81548173ffffffffffffffffffffffffffffffffffffffff021916908373ffffffffffffffffffffffffffffffffffffffff16021790555090505050565b600854600560003373ffffffffffffffffffffffffffffffffffffffff1673ffffffffffffffffffffffffffffffffffffffff16815260200190815260200160002054101561143e57600080fd5b600854600560003373ffffffffffffffffffffffffffffffffffffffff1673ffffffffffffffffffffffffffffffffffffffff168152602001908152602001600020600082825461148f9190611b90565b92505081905550600060405180608001604052808481526020018381526020016001151581526020013373ffffffffffffffffffffffffffffffffffffffff16815250905060078190806001815401808255809150506001900390600052602060002090600302016000909190919091506000820151816000019081611515919061296d565b506020820151816001015560408201518160020160006101000a81548160ff02191690831515021790555060608201518160020160016101000a81548173ffffffffffffffffffffffffffffffffffffffff021916908373ffffffffffffffffffffffffffffffffffffffff1602179055505050600960003373ffffffffffffffffffffffffffffffffffffffff1673ffffffffffffffffffffffffffffffffffffffff1681526020019081526020016000208190806001815401808255809150506001900390600052602060002090600302016000909190919091506000820151816000019081611607919061296d565b506020820151816001015560408201518160020160006101000a81548160ff02191690831515021790555060608201518160020160016101000a81548173ffffffffffffffffffffffffffffffffffffffff021916908373ffffffffffffffffffffffffffffffffffffffff160217905550505080600a600060016007805490506116929190611b90565b815260200190815260200160002060008201518160000190816116b5919061296d565b506020820151816001015560408201518160020160006101000a81548160ff02191690831515021790555060608201518160020160016101000a81548173ffffffffffffffffffffffffffffffffffffffff021916908373ffffffffffffffffffffffffffffffffffffffff160217905550905050505050565b6001805461173c9061235f565b80601f01602080910402602001604051908101604052809291908181526020018280546117689061235f565b80156117b55780601f1061178a576101008083540402835291602001916117b5565b820191906000526020600020905b81548152906001019060200180831161179857829003601f168201915b505050505081565b600081600560003373ffffffffffffffffffffffffffffffffffffffff1673ffffffffffffffffffffffffffffffffffffffff168152602001908152602001600020600082825461180e9190611b90565b9250508190555081600560008573ffffffffffffffffffffffffffffffffffffffff1673ffffffffffffffffffffffffffffffffffffffff16815260200190815260200160002060008282546118649190611bc4565b925050819055507fddf252ad1be2c89b69c2b068fc378daa952ba7f163c4a11628f55a4df523b3ef33848460405161189e93929190612390565b60405180910390a16001905092915050565b600781815481106118c057600080fd5b90600052602060002090600302016000915090508060000180546118e39061235f565b80601f016020809104026020016040519081016040528092919081815260200182805461190f9061235f565b801561195c5780601f106119315761010080835404028352916020019161195c565b820191906000526020600020905b81548152906001019060200180831161193f57829003601f168201915b5050505050908060010154908060020160009054906101000a900460ff16908060020160019054906101000a900473ffffffffffffffffffffffffffffffffffffffff16905084565b600a6020528060005260406000206000915090508060000180546119c89061235f565b80601f01602080910402602001604051908101604052809291908181526020018280546119f49061235f565b8015611a415780601f10611a1657610100808354040283529160200191611a41565b820191906000526020600020905b815481529060010190602001808311611a2457829003601f168201915b5050505050908060010154908060020160009054906101000a900460ff16908060020160019054906101000a900473ffffffffffffffffffffffffffffffffffffffff16905084565b6006602052816000526040600020602052806000526040600020600091509150505481565b600b60009054906101000a900473ffffffffffffffffffffffffffffffffffffffff1681565b60405180608001604052806060815260200160008152602001600015158152602001600073ffffffffffffffffffffffffffffffffffffffff1681525090565b6000819050919050565b7f4e487b7100000000000000000000000000000000000000000000000000000000600052601160045260246000fd5b6000611b5982611b15565b9150611b6483611b15565b9250828202611b7281611b15565b91508282048414831517611b8957611b88611b1f565b5b5092915050565b6000611b9b82611b15565b9150611ba683611b15565b9250828203905081811115611bbe57611bbd611b1f565b5b92915050565b6000611bcf82611b15565b9150611bda83611b15565b9250828201905080821115611bf257611bf1611b1f565b5b92915050565b600081519050919050565b600082825260208201905092915050565b60005b83811015611c32578082015181840152602081019050611c17565b60008484015250505050565b6000601f19601f8301169050919050565b6000611c5a82611bf8565b611c648185611c03565b9350611c74818560208601611c14565b611c7d81611c3e565b840191505092915050565b60006020820190508181036000830152611ca28184611c4f565b905092915050565b6000604051905090565b600080fd5b600080fd5b600073ffffffffffffffffffffffffffffffffffffffff82169050919050565b6000611ce982611cbe565b9050919050565b611cf981611cde565b8114611d0457600080fd5b50565b600081359050611d1681611cf0565b92915050565b611d2581611b15565b8114611d3057600080fd5b50565b600081359050611d4281611d1c565b92915050565b60008060408385031215611d5f57611d5e611cb4565b5b6000611d6d85828601611d07565b9250506020611d7e85828601611d33565b9150509250929050565b60008115159050919050565b611d9d81611d88565b82525050565b6000602082019050611db86000830184611d94565b92915050565b611dc781611b15565b82525050565b6000602082019050611de26000830184611dbe565b92915050565b600080600060608486031215611e0157611e00611cb4565b5b6000611e0f86828701611d07565b9350506020611e2086828701611d07565b9250506040611e3186828701611d33565b9150509250925092565b600060208284031215611e5157611e50611cb4565b5b6000611e5f84828501611d07565b91505092915050565b600060ff82169050919050565b611e7e81611e68565b82525050565b6000602082019050611e996000830184611e75565b92915050565b600060208284031215611eb557611eb4611cb4565b5b6000611ec384828501611d33565b91505092915050565b611ed581611cde565b82525050565b60006080820190508181036000830152611ef58187611c4f565b9050611f046020830186611dbe565b611f116040830185611d94565b611f1e6060830184611ecc565b95945050505050565b600081519050919050565b600082825260208201905092915050565b6000819050602082019050919050565b600082825260208201905092915050565b6000611f6f82611bf8565b611f798185611f53565b9350611f89818560208601611c14565b611f9281611c3e565b840191505092915050565b611fa681611b15565b82525050565b611fb581611d88565b82525050565b611fc481611cde565b82525050565b60006080830160008301518482036000860152611fe78282611f64565b9150506020830151611ffc6020860182611f9d565b50604083015161200f6040860182611fac565b5060608301516120226060860182611fbb565b508091505092915050565b60006120398383611fca565b905092915050565b6000602082019050919050565b600061205982611f27565b6120638185611f32565b93508360208202850161207585611f43565b8060005b858110156120b15784840389528151612092858261202d565b945061209d83612041565b925060208a01995050600181019050612079565b50829750879550505050505092915050565b600060208201905081810360008301526120dd818461204e565b905092915050565b600080fd5b600080fd5b7f4e487b7100000000000000000000000000000000000000000000000000000000600052604160045260246000fd5b61212782611c3e565b810181811067ffffffffffffffff82111715612146576121456120ef565b5b80604052505050565b6000612159611caa565b9050612165828261211e565b919050565b600067ffffffffffffffff821115612185576121846120ef565b5b61218e82611c3e565b9050602081019050919050565b82818337600083830152505050565b60006121bd6121b88461216a565b61214f565b9050828152602081018484840111156121d9576121d86120ea565b5b6121e484828561219b565b509392505050565b600082601f830112612201576122006120e5565b5b81356122118482602086016121aa565b91505092915050565b6000806040838503121561223157612230611cb4565b5b600083013567ffffffffffffffff81111561224f5761224e611cb9565b5b61225b858286016121ec565b925050602061226c85828601611d33565b9150509250929050565b6000806040838503121561228d5761228c611cb4565b5b600061229b85828601611d07565b92505060206122ac85828601611d07565b9150509250929050565b6000819050919050565b60006122db6122d66122d184611cbe565b6122b6565b611cbe565b9050919050565b60006122ed826122c0565b9050919050565b60006122ff826122e2565b9050919050565b61230f816122f4565b82525050565b600060208201905061232a6000830184612306565b92915050565b7f4e487b7100000000000000000000000000000000000000000000000000000000600052602260045260246000fd5b6000600282049050600182168061237757607f821691505b60208210810361238a57612389612330565b5b50919050565b60006060820190506123a56000830186611ecc565b6123b26020830185611ecc565b6123bf6040830184611dbe565b949350505050565b7f50726f64756374206973206e6f7420666f722073616c65000000000000000000600082015250565b60006123fd601783611c03565b9150612408826123c7565b602082019050919050565b6000602082019050818103600083015261242c816123f0565b9050919050565b60006020820190506124486000830184611ecc565b92915050565b60008151905061245d81611d1c565b92915050565b60006020828403121561247957612478611cb4565b5b60006124878482850161244e565b91505092915050565b7f496e73756666696369656e742062616c616e6365000000000000000000000000600082015250565b60006124c6601483611c03565b91506124d182612490565b602082019050919050565b600060208201905081810360008301526124f5816124b9565b9050919050565b61250581611d88565b811461251057600080fd5b50565b600081519050612522816124fc565b92915050565b60006020828403121561253e5761253d611cb4565b5b600061254c84828501612513565b91505092915050565b600060408201905061256a6000830185611ecc565b6125776020830184611dbe565b9392505050565b60008154905061258d8161235f565b9050919050565b60008190508160005260206000209050919050565b60006020601f8301049050919050565b600082821b905092915050565b6000600883026125f67fffffffffffffffffffffffffffffffffffffffffffffffffffffffffffffffff826125b9565b61260086836125b9565b95508019841693508086168417925050509392505050565b600061263361262e61262984611b15565b6122b6565b611b15565b9050919050565b6000819050919050565b61264d83612618565b6126616126598261263a565b8484546125c6565b825550505050565b600090565b612676612669565b612681818484612644565b505050565b5b818110156126a55761269a60008261266e565b600181019050612687565b5050565b601f8211156126ea576126bb81612594565b6126c4846125a9565b810160208510156126d3578190505b6126e76126df856125a9565b830182612686565b50505b505050565b600082821c905092915050565b600061270d600019846008026126ef565b1980831691505092915050565b600061272683836126fc565b9150826002028217905092915050565b81810361274457505061281c565b61274d8261257e565b67ffffffffffffffff811115612766576127656120ef565b5b612770825461235f565b61277b8282856126a9565b6000601f8311600181146127aa5760008415612798578287015490505b6127a2858261271a565b865550612815565b601f1984166127b887612594565b96506127c386612594565b60005b828110156127eb578489015482556001820191506001850194506020810190506127c6565b868310156128085784890154612804601f8916826126fc565b8355505b6001600288020188555050505b5050505050505b565b7f4e487b7100000000000000000000000000000000000000000000000000000000600052603260045260246000fd5b600061285882611b15565b91507fffffffffffffffffffffffffffffffffffffffffffffffffffffffffffffffff820361288a57612889611b1f565b5b600182019050919050565b7f496e76616c69642070726f647563742049440000000000000000000000000000600082015250565b60006128cb601283611c03565b91506128d682612895565b602082019050919050565b600060208201905081810360008301526128fa816128be565b9050919050565b7f596f7520646f6e2774206f776e20746869732070726f64756374000000000000600082015250565b6000612937601a83611c03565b915061294282612901565b602082019050919050565b600060208201905081810360008301526129668161292a565b9050919050565b61297682611bf8565b67ffffffffffffffff81111561298f5761298e6120ef565b5b612999825461235f565b6129a48282856126a9565b600060209050601f8311600181146129d757600084156129c5578287015190505b6129cf858261271a565b865550612a37565b601f1984166129e586612594565b60005b82811015612a0d578489015182556001820191506020850194506020810190506129e8565b86831015612a2a5784890151612a26601f8916826126fc565b8355505b6001600288020188555050505b50505050505056fea2646970667358221220911b17213feed229165a314793b9562877d2013e68314c618e4b73651911ab9f64736f6c63430008130033",
					"opcodes": "PUSH1 0x80 PUSH1 0x40 MSTORE PUSH1 0x12 PUSH1 0x2 PUSH1 0x0 PUSH2 0x100 EXP DUP2 SLOAD DUP2 PUSH1 0xFF MUL NOT AND SWAP1 DUP4 PUSH1 0xFF AND MUL OR SWAP1 SSTORE POP PUSH9 0x3635C9ADC5DEA00000 PUSH1 0x8 SSTORE CALLVALUE DUP1 ISZERO PUSH3 0x3A JUMPI PUSH1 0x0 DUP1 REVERT JUMPDEST POP PUSH1 0x40 MLOAD DUP1 PUSH1 0x40 ADD PUSH1 0x40 MSTORE DUP1 PUSH1 0x5 DUP2 MSTORE PUSH1 0x20 ADD PUSH32 0x73746F7265000000000000000000000000000000000000000000000000000000 DUP2 MSTORE POP PUSH1 0x40 MLOAD DUP1 PUSH1 0x40 ADD PUSH1 0x40 MSTORE DUP1 PUSH1 0x3 DUP2 MSTORE PUSH1 0x20 ADD PUSH32 0x5354520000000000000000000000000000000000000000000000000000000000 DUP2 MSTORE POP PUSH2 0x2710 CALLER PUSH1 0x4 PUSH1 0x0 PUSH2 0x100 EXP DUP2 SLOAD DUP2 PUSH20 0xFFFFFFFFFFFFFFFFFFFFFFFFFFFFFFFFFFFFFFFF MUL NOT AND SWAP1 DUP4 PUSH20 0xFFFFFFFFFFFFFFFFFFFFFFFFFFFFFFFFFFFFFFFF AND MUL OR SWAP1 SSTORE POP DUP3 PUSH1 0x0 SWAP1 DUP2 PUSH3 0xFC SWAP2 SWAP1 PUSH3 0x446 JUMP JUMPDEST POP DUP2 PUSH1 0x1 SWAP1 DUP2 PUSH3 0x10E SWAP2 SWAP1 PUSH3 0x446 JUMP JUMPDEST POP PUSH3 0x14D PUSH1 0x2 PUSH1 0x0 SWAP1 SLOAD SWAP1 PUSH2 0x100 EXP SWAP1 DIV PUSH1 0xFF AND PUSH1 0xFF AND PUSH1 0xA PUSH3 0x134 SWAP2 SWAP1 PUSH3 0x6B0 JUMP JUMPDEST DUP3 PUSH3 0x141 SWAP2 SWAP1 PUSH3 0x701 JUMP JUMPDEST PUSH3 0x156 PUSH1 0x20 SHL PUSH1 0x20 SHR JUMP JUMPDEST POP POP POP PUSH3 0x787 JUMP JUMPDEST DUP1 PUSH1 0x5 PUSH1 0x0 CALLER PUSH20 0xFFFFFFFFFFFFFFFFFFFFFFFFFFFFFFFFFFFFFFFF AND PUSH20 0xFFFFFFFFFFFFFFFFFFFFFFFFFFFFFFFFFFFFFFFF AND DUP2 MSTORE PUSH1 0x20 ADD SWAP1 DUP2 MSTORE PUSH1 0x20 ADD PUSH1 0x0 KECCAK256 PUSH1 0x0 DUP3 DUP3 SLOAD PUSH3 0x1A7 SWAP2 SWAP1 PUSH3 0x74C JUMP JUMPDEST SWAP3 POP POP DUP2 SWAP1 SSTORE POP DUP1 PUSH1 0x3 PUSH1 0x0 DUP3 DUP3 SLOAD PUSH3 0x1C2 SWAP2 SWAP1 PUSH3 0x74C JUMP JUMPDEST SWAP3 POP POP DUP2 SWAP1 SSTORE POP POP JUMP JUMPDEST PUSH1 0x0 DUP2 MLOAD SWAP1 POP SWAP2 SWAP1 POP JUMP JUMPDEST PUSH32 0x4E487B7100000000000000000000000000000000000000000000000000000000 PUSH1 0x0 MSTORE PUSH1 0x41 PUSH1 0x4 MSTORE PUSH1 0x24 PUSH1 0x0 REVERT JUMPDEST PUSH32 0x4E487B7100000000000000000000000000000000000000000000000000000000 PUSH1 0x0 MSTORE PUSH1 0x22 PUSH1 0x4 MSTORE PUSH1 0x24 PUSH1 0x0 REVERT JUMPDEST PUSH1 0x0 PUSH1 0x2 DUP3 DIV SWAP1 POP PUSH1 0x1 DUP3 AND DUP1 PUSH3 0x24E JUMPI PUSH1 0x7F DUP3 AND SWAP2 POP JUMPDEST PUSH1 0x20 DUP3 LT DUP2 SUB PUSH3 0x264 JUMPI PUSH3 0x263 PUSH3 0x206 JUMP JUMPDEST JUMPDEST POP SWAP2 SWAP1 POP JUMP JUMPDEST PUSH1 0x0 DUP2 SWAP1 POP DUP2 PUSH1 0x0 MSTORE PUSH1 0x20 PUSH1 0x0 KECCAK256 SWAP1 POP SWAP2 SWAP1 POP JUMP JUMPDEST PUSH1 0x0 PUSH1 0x20 PUSH1 0x1F DUP4 ADD DIV SWAP1 POP SWAP2 SWAP1 POP JUMP JUMPDEST PUSH1 0x0 DUP3 DUP3 SHL SWAP1 POP SWAP3 SWAP2 POP POP JUMP JUMPDEST PUSH1 0x0 PUSH1 0x8 DUP4 MUL PUSH3 0x2CE PUSH32 0xFFFFFFFFFFFFFFFFFFFFFFFFFFFFFFFFFFFFFFFFFFFFFFFFFFFFFFFFFFFFFFFF DUP3 PUSH3 0x28F JUMP JUMPDEST PUSH3 0x2DA DUP7 DUP4 PUSH3 0x28F JUMP JUMPDEST SWAP6 POP DUP1 NOT DUP5 AND SWAP4 POP DUP1 DUP7 AND DUP5 OR SWAP3 POP POP POP SWAP4 SWAP3 POP POP POP JUMP JUMPDEST PUSH1 0x0 DUP2 SWAP1 POP SWAP2 SWAP1 POP JUMP JUMPDEST PUSH1 0x0 DUP2 SWAP1 POP SWAP2 SWAP1 POP JUMP JUMPDEST PUSH1 0x0 PUSH3 0x327 PUSH3 0x321 PUSH3 0x31B DUP5 PUSH3 0x2F2 JUMP JUMPDEST PUSH3 0x2FC JUMP JUMPDEST PUSH3 0x2F2 JUMP JUMPDEST SWAP1 POP SWAP2 SWAP1 POP JUMP JUMPDEST PUSH1 0x0 DUP2 SWAP1 POP SWAP2 SWAP1 POP JUMP JUMPDEST PUSH3 0x343 DUP4 PUSH3 0x306 JUMP JUMPDEST PUSH3 0x35B PUSH3 0x352 DUP3 PUSH3 0x32E JUMP JUMPDEST DUP5 DUP5 SLOAD PUSH3 0x29C JUMP JUMPDEST DUP3 SSTORE POP POP POP POP JUMP JUMPDEST PUSH1 0x0 SWAP1 JUMP JUMPDEST PUSH3 0x372 PUSH3 0x363 JUMP JUMPDEST PUSH3 0x37F DUP2 DUP5 DUP5 PUSH3 0x338 JUMP JUMPDEST POP POP POP JUMP JUMPDEST JUMPDEST DUP2 DUP2 LT ISZERO PUSH3 0x3A7 JUMPI PUSH3 0x39B PUSH1 0x0 DUP3 PUSH3 0x368 JUMP JUMPDEST PUSH1 0x1 DUP2 ADD SWAP1 POP PUSH3 0x385 JUMP JUMPDEST POP POP JUMP JUMPDEST PUSH1 0x1F DUP3 GT ISZERO PUSH3 0x3F6 JUMPI PUSH3 0x3C0 DUP2 PUSH3 0x26A JUMP JUMPDEST PUSH3 0x3CB DUP5 PUSH3 0x27F JUMP JUMPDEST DUP2 ADD PUSH1 0x20 DUP6 LT ISZERO PUSH3 0x3DB JUMPI DUP2 SWAP1 POP JUMPDEST PUSH3 0x3F3 PUSH3 0x3EA DUP6 PUSH3 0x27F JUMP JUMPDEST DUP4 ADD DUP3 PUSH3 0x384 JUMP JUMPDEST POP POP JUMPDEST POP POP POP JUMP JUMPDEST PUSH1 0x0 DUP3 DUP3 SHR SWAP1 POP SWAP3 SWAP2 POP POP JUMP JUMPDEST PUSH1 0x0 PUSH3 0x41B PUSH1 0x0 NOT DUP5 PUSH1 0x8 MUL PUSH3 0x3FB JUMP JUMPDEST NOT DUP1 DUP4 AND SWAP2 POP POP SWAP3 SWAP2 POP POP JUMP JUMPDEST PUSH1 0x0 PUSH3 0x436 DUP4 DUP4 PUSH3 0x408 JUMP JUMPDEST SWAP2 POP DUP3 PUSH1 0x2 MUL DUP3 OR SWAP1 POP SWAP3 SWAP2 POP POP JUMP JUMPDEST PUSH3 0x451 DUP3 PUSH3 0x1CC JUMP JUMPDEST PUSH8 0xFFFFFFFFFFFFFFFF DUP2 GT ISZERO PUSH3 0x46D JUMPI PUSH3 0x46C PUSH3 0x1D7 JUMP JUMPDEST JUMPDEST PUSH3 0x479 DUP3 SLOAD PUSH3 0x235 JUMP JUMPDEST PUSH3 0x486 DUP3 DUP3 DUP6 PUSH3 0x3AB JUMP JUMPDEST PUSH1 0x0 PUSH1 0x20 SWAP1 POP PUSH1 0x1F DUP4 GT PUSH1 0x1 DUP2 EQ PUSH3 0x4BE JUMPI PUSH1 0x0 DUP5 ISZERO PUSH3 0x4A9 JUMPI DUP3 DUP8 ADD MLOAD SWAP1 POP JUMPDEST PUSH3 0x4B5 DUP6 DUP3 PUSH3 0x428 JUMP JUMPDEST DUP7 SSTORE POP PUSH3 0x525 JUMP JUMPDEST PUSH1 0x1F NOT DUP5 AND PUSH3 0x4CE DUP7 PUSH3 0x26A JUMP JUMPDEST PUSH1 0x0 JUMPDEST DUP3 DUP2 LT ISZERO PUSH3 0x4F8 JUMPI DUP5 DUP10 ADD MLOAD DUP3 SSTORE PUSH1 0x1 DUP3 ADD SWAP2 POP PUSH1 0x20 DUP6 ADD SWAP5 POP PUSH1 0x20 DUP2 ADD SWAP1 POP PUSH3 0x4D1 JUMP JUMPDEST DUP7 DUP4 LT ISZERO PUSH3 0x518 JUMPI DUP5 DUP10 ADD MLOAD PUSH3 0x514 PUSH1 0x1F DUP10 AND DUP3 PUSH3 0x408 JUMP JUMPDEST DUP4 SSTORE POP JUMPDEST PUSH1 0x1 PUSH1 0x2 DUP9 MUL ADD DUP9 SSTORE POP POP POP JUMPDEST POP POP POP POP POP POP JUMP JUMPDEST PUSH32 0x4E487B7100000000000000000000000000000000000000000000000000000000 PUSH1 0x0 MSTORE PUSH1 0x11 PUSH1 0x4 MSTORE PUSH1 0x24 PUSH1 0x0 REVERT JUMPDEST PUSH1 0x0 DUP2 PUSH1 0x1 SHR SWAP1 POP SWAP2 SWAP1 POP JUMP JUMPDEST PUSH1 0x0 DUP1 DUP3 SWAP2 POP DUP4 SWAP1 POP JUMPDEST PUSH1 0x1 DUP6 GT ISZERO PUSH3 0x5BB JUMPI DUP1 DUP7 DIV DUP2 GT ISZERO PUSH3 0x593 JUMPI PUSH3 0x592 PUSH3 0x52D JUMP JUMPDEST JUMPDEST PUSH1 0x1 DUP6 AND ISZERO PUSH3 0x5A3 JUMPI DUP1 DUP3 MUL SWAP2 POP JUMPDEST DUP1 DUP2 MUL SWAP1 POP PUSH3 0x5B3 DUP6 PUSH3 0x55C JUMP JUMPDEST SWAP5 POP PUSH3 0x573 JUMP JUMPDEST SWAP5 POP SWAP5 SWAP3 POP POP POP JUMP JUMPDEST PUSH1 0x0 DUP3 PUSH3 0x5D6 JUMPI PUSH1 0x1 SWAP1 POP PUSH3 0x6A9 JUMP JUMPDEST DUP2 PUSH3 0x5E6 JUMPI PUSH1 0x0 SWAP1 POP PUSH3 0x6A9 JUMP JUMPDEST DUP2 PUSH1 0x1 DUP2 EQ PUSH3 0x5FF JUMPI PUSH1 0x2 DUP2 EQ PUSH3 0x60A JUMPI PUSH3 0x640 JUMP JUMPDEST PUSH1 0x1 SWAP2 POP POP PUSH3 0x6A9 JUMP JUMPDEST PUSH1 0xFF DUP5 GT ISZERO PUSH3 0x61F JUMPI PUSH3 0x61E PUSH3 0x52D JUMP JUMPDEST JUMPDEST DUP4 PUSH1 0x2 EXP SWAP2 POP DUP5 DUP3 GT ISZERO PUSH3 0x639 JUMPI PUSH3 0x638 PUSH3 0x52D JUMP JUMPDEST JUMPDEST POP PUSH3 0x6A9 JUMP JUMPDEST POP PUSH1 0x20 DUP4 LT PUSH2 0x133 DUP4 LT AND PUSH1 0x4E DUP5 LT PUSH1 0xB DUP5 LT AND OR ISZERO PUSH3 0x67A JUMPI DUP3 DUP3 EXP SWAP1 POP DUP4 DUP2 GT ISZERO PUSH3 0x674 JUMPI PUSH3 0x673 PUSH3 0x52D JUMP JUMPDEST JUMPDEST PUSH3 0x6A9 JUMP JUMPDEST PUSH3 0x689 DUP5 DUP5 DUP5 PUSH1 0x1 PUSH3 0x569 JUMP JUMPDEST SWAP3 POP SWAP1 POP DUP2 DUP5 DIV DUP2 GT ISZERO PUSH3 0x6A3 JUMPI PUSH3 0x6A2 PUSH3 0x52D JUMP JUMPDEST JUMPDEST DUP2 DUP2 MUL SWAP1 POP JUMPDEST SWAP4 SWAP3 POP POP POP JUMP JUMPDEST PUSH1 0x0 PUSH3 0x6BD DUP3 PUSH3 0x2F2 JUMP JUMPDEST SWAP2 POP PUSH3 0x6CA DUP4 PUSH3 0x2F2 JUMP JUMPDEST SWAP3 POP PUSH3 0x6F9 PUSH32 0xFFFFFFFFFFFFFFFFFFFFFFFFFFFFFFFFFFFFFFFFFFFFFFFFFFFFFFFFFFFFFFFF DUP5 DUP5 PUSH3 0x5C4 JUMP JUMPDEST SWAP1 POP SWAP3 SWAP2 POP POP JUMP JUMPDEST PUSH1 0x0 PUSH3 0x70E DUP3 PUSH3 0x2F2 JUMP JUMPDEST SWAP2 POP PUSH3 0x71B DUP4 PUSH3 0x2F2 JUMP JUMPDEST SWAP3 POP DUP3 DUP3 MUL PUSH3 0x72B DUP2 PUSH3 0x2F2 JUMP JUMPDEST SWAP2 POP DUP3 DUP3 DIV DUP5 EQ DUP4 ISZERO OR PUSH3 0x745 JUMPI PUSH3 0x744 PUSH3 0x52D JUMP JUMPDEST JUMPDEST POP SWAP3 SWAP2 POP POP JUMP JUMPDEST PUSH1 0x0 PUSH3 0x759 DUP3 PUSH3 0x2F2 JUMP JUMPDEST SWAP2 POP PUSH3 0x766 DUP4 PUSH3 0x2F2 JUMP JUMPDEST SWAP3 POP DUP3 DUP3 ADD SWAP1 POP DUP1 DUP3 GT ISZERO PUSH3 0x781 JUMPI PUSH3 0x780 PUSH3 0x52D JUMP JUMPDEST JUMPDEST SWAP3 SWAP2 POP POP JUMP JUMPDEST PUSH2 0x2A75 DUP1 PUSH3 0x797 PUSH1 0x0 CODECOPY PUSH1 0x0 RETURN INVALID PUSH1 0x80 PUSH1 0x40 MSTORE PUSH1 0x4 CALLDATASIZE LT PUSH2 0x118 JUMPI PUSH1 0x0 CALLDATALOAD PUSH1 0xE0 SHR DUP1 PUSH4 0x43FDCD56 GT PUSH2 0xA0 JUMPI DUP1 PUSH4 0xA9059CBB GT PUSH2 0x64 JUMPI DUP1 PUSH4 0xA9059CBB EQ PUSH2 0x57F JUMPI DUP1 PUSH4 0xCFAAEF56 EQ PUSH2 0x5BC JUMPI DUP1 PUSH4 0xD84EA06D EQ PUSH2 0x5FC JUMPI DUP1 PUSH4 0xDD62ED3E EQ PUSH2 0x63C JUMPI DUP1 PUSH4 0xFC0C546A EQ PUSH2 0x679 JUMPI PUSH2 0x2CB JUMP JUMPDEST DUP1 PUSH4 0x43FDCD56 EQ PUSH2 0x49A JUMPI DUP1 PUSH4 0x70A08231 EQ PUSH2 0x4C5 JUMPI DUP1 PUSH4 0x8890FE98 EQ PUSH2 0x502 JUMPI DUP1 PUSH4 0x8C96091B EQ PUSH2 0x52B JUMPI DUP1 PUSH4 0x95D89B41 EQ PUSH2 0x554 JUMPI PUSH2 0x2CB JUMP JUMPDEST DUP1 PUSH4 0x27E235E3 GT PUSH2 0xE7 JUMPI DUP1 PUSH4 0x27E235E3 EQ PUSH2 0x3A0 JUMPI DUP1 PUSH4 0x313CE567 EQ PUSH2 0x3DD JUMPI DUP1 PUSH4 0x38E76A03 EQ PUSH2 0x408 JUMPI DUP1 PUSH4 0x3D527883 EQ PUSH2 0x431 JUMPI DUP1 PUSH4 0x42966C68 EQ PUSH2 0x471 JUMPI PUSH2 0x2CB JUMP JUMPDEST DUP1 PUSH4 0x6FDDE03 EQ PUSH2 0x2D0 JUMPI DUP1 PUSH4 0x95EA7B3 EQ PUSH2 0x2FB JUMPI DUP1 PUSH4 0x18160DDD EQ PUSH2 0x338 JUMPI DUP1 PUSH4 0x23B872DD EQ PUSH2 0x363 JUMPI PUSH2 0x2CB JUMP JUMPDEST CALLDATASIZE PUSH2 0x2CB JUMPI PUSH1 0x0 PUSH1 0xC8 CALLVALUE PUSH2 0x12C SWAP2 SWAP1 PUSH2 0x1B4E JUMP JUMPDEST SWAP1 POP DUP1 PUSH1 0x5 PUSH1 0x0 PUSH1 0x4 PUSH1 0x0 SWAP1 SLOAD SWAP1 PUSH2 0x100 EXP SWAP1 DIV PUSH20 0xFFFFFFFFFFFFFFFFFFFFFFFFFFFFFFFFFFFFFFFF AND PUSH20 0xFFFFFFFFFFFFFFFFFFFFFFFFFFFFFFFFFFFFFFFF AND PUSH20 0xFFFFFFFFFFFFFFFFFFFFFFFFFFFFFFFFFFFFFFFF AND DUP2 MSTORE PUSH1 0x20 ADD SWAP1 DUP2 MSTORE PUSH1 0x20 ADD PUSH1 0x0 KECCAK256 SLOAD LT ISZERO PUSH2 0x19C JUMPI PUSH1 0x0 DUP1 REVERT JUMPDEST DUP1 PUSH1 0x5 PUSH1 0x0 PUSH1 0x4 PUSH1 0x0 SWAP1 SLOAD SWAP1 PUSH2 0x100 EXP SWAP1 DIV PUSH20 0xFFFFFFFFFFFFFFFFFFFFFFFFFFFFFFFFFFFFFFFF AND PUSH20 0xFFFFFFFFFFFFFFFFFFFFFFFFFFFFFFFFFFFFFFFF AND PUSH20 0xFFFFFFFFFFFFFFFFFFFFFFFFFFFFFFFFFFFFFFFF AND DUP2 MSTORE PUSH1 0x20 ADD SWAP1 DUP2 MSTORE PUSH1 0x20 ADD PUSH1 0x0 KECCAK256 PUSH1 0x0 DUP3 DUP3 SLOAD PUSH2 0x20D SWAP2 SWAP1 PUSH2 0x1B90 JUMP JUMPDEST SWAP3 POP POP DUP2 SWAP1 SSTORE POP DUP1 PUSH1 0x5 PUSH1 0x0 CALLER PUSH20 0xFFFFFFFFFFFFFFFFFFFFFFFFFFFFFFFFFFFFFFFF AND PUSH20 0xFFFFFFFFFFFFFFFFFFFFFFFFFFFFFFFFFFFFFFFF AND DUP2 MSTORE PUSH1 0x20 ADD SWAP1 DUP2 MSTORE PUSH1 0x20 ADD PUSH1 0x0 KECCAK256 PUSH1 0x0 DUP3 DUP3 SLOAD PUSH2 0x263 SWAP2 SWAP1 PUSH2 0x1BC4 JUMP JUMPDEST SWAP3 POP POP DUP2 SWAP1 SSTORE POP PUSH1 0x4 PUSH1 0x0 SWAP1 SLOAD SWAP1 PUSH2 0x100 EXP SWAP1 DIV PUSH20 0xFFFFFFFFFFFFFFFFFFFFFFFFFFFFFFFFFFFFFFFF AND PUSH20 0xFFFFFFFFFFFFFFFFFFFFFFFFFFFFFFFFFFFFFFFF AND CALLER PUSH20 0xFFFFFFFFFFFFFFFFFFFFFFFFFFFFFFFFFFFFFFFF AND SUB PUSH2 0x2C9 JUMPI PUSH2 0x2C8 DUP2 PUSH2 0x6A4 JUMP JUMPDEST JUMPDEST STOP JUMPDEST PUSH1 0x0 DUP1 REVERT JUMPDEST CALLVALUE DUP1 ISZERO PUSH2 0x2DC JUMPI PUSH1 0x0 DUP1 REVERT JUMPDEST POP PUSH2 0x2E5 PUSH2 0x716 JUMP JUMPDEST PUSH1 0x40 MLOAD PUSH2 0x2F2 SWAP2 SWAP1 PUSH2 0x1C88 JUMP JUMPDEST PUSH1 0x40 MLOAD DUP1 SWAP2 SUB SWAP1 RETURN JUMPDEST CALLVALUE DUP1 ISZERO PUSH2 0x307 JUMPI PUSH1 0x0 DUP1 REVERT JUMPDEST POP PUSH2 0x322 PUSH1 0x4 DUP1 CALLDATASIZE SUB DUP2 ADD SWAP1 PUSH2 0x31D SWAP2 SWAP1 PUSH2 0x1D48 JUMP JUMPDEST PUSH2 0x7A4 JUMP JUMPDEST PUSH1 0x40 MLOAD PUSH2 0x32F SWAP2 SWAP1 PUSH2 0x1DA3 JUMP JUMPDEST PUSH1 0x40 MLOAD DUP1 SWAP2 SUB SWAP1 RETURN JUMPDEST CALLVALUE DUP1 ISZERO PUSH2 0x344 JUMPI PUSH1 0x0 DUP1 REVERT JUMPDEST POP PUSH2 0x34D PUSH2 0x86C JUMP JUMPDEST PUSH1 0x40 MLOAD PUSH2 0x35A SWAP2 SWAP1 PUSH2 0x1DCD JUMP JUMPDEST PUSH1 0x40 MLOAD DUP1 SWAP2 SUB SWAP1 RETURN JUMPDEST CALLVALUE DUP1 ISZERO PUSH2 0x36F JUMPI PUSH1 0x0 DUP1 REVERT JUMPDEST POP PUSH2 0x38A PUSH1 0x4 DUP1 CALLDATASIZE SUB DUP2 ADD SWAP1 PUSH2 0x385 SWAP2 SWAP1 PUSH2 0x1DE8 JUMP JUMPDEST PUSH2 0x872 JUMP JUMPDEST PUSH1 0x40 MLOAD PUSH2 0x397 SWAP2 SWAP1 PUSH2 0x1DA3 JUMP JUMPDEST PUSH1 0x40 MLOAD DUP1 SWAP2 SUB SWAP1 RETURN JUMPDEST CALLVALUE DUP1 ISZERO PUSH2 0x3AC JUMPI PUSH1 0x0 DUP1 REVERT JUMPDEST POP PUSH2 0x3C7 PUSH1 0x4 DUP1 CALLDATASIZE SUB DUP2 ADD SWAP1 PUSH2 0x3C2 SWAP2 SWAP1 PUSH2 0x1E3B JUMP JUMPDEST PUSH2 0xA47 JUMP JUMPDEST PUSH1 0x40 MLOAD PUSH2 0x3D4 SWAP2 SWAP1 PUSH2 0x1DCD JUMP JUMPDEST PUSH1 0x40 MLOAD DUP1 SWAP2 SUB SWAP1 RETURN JUMPDEST CALLVALUE DUP1 ISZERO PUSH2 0x3E9 JUMPI PUSH1 0x0 DUP1 REVERT JUMPDEST POP PUSH2 0x3F2 PUSH2 0xA5F JUMP JUMPDEST PUSH1 0x40 MLOAD PUSH2 0x3FF SWAP2 SWAP1 PUSH2 0x1E84 JUMP JUMPDEST PUSH1 0x40 MLOAD DUP1 SWAP2 SUB SWAP1 RETURN JUMPDEST CALLVALUE DUP1 ISZERO PUSH2 0x414 JUMPI PUSH1 0x0 DUP1 REVERT JUMPDEST POP PUSH2 0x42F PUSH1 0x4 DUP1 CALLDATASIZE SUB DUP2 ADD SWAP1 PUSH2 0x42A SWAP2 SWAP1 PUSH2 0x1E9F JUMP JUMPDEST PUSH2 0xA72 JUMP JUMPDEST STOP JUMPDEST CALLVALUE DUP1 ISZERO PUSH2 0x43D JUMPI PUSH1 0x0 DUP1 REVERT JUMPDEST POP PUSH2 0x458 PUSH1 0x4 DUP1 CALLDATASIZE SUB DUP2 ADD SWAP1 PUSH2 0x453 SWAP2 SWAP1 PUSH2 0x1D48 JUMP JUMPDEST PUSH2 0xE69 JUMP JUMPDEST PUSH1 0x40 MLOAD PUSH2 0x468 SWAP5 SWAP4 SWAP3 SWAP2 SWAP1 PUSH2 0x1EDB JUMP JUMPDEST PUSH1 0x40 MLOAD DUP1 SWAP2 SUB SWAP1 RETURN JUMPDEST CALLVALUE DUP1 ISZERO PUSH2 0x47D JUMPI PUSH1 0x0 DUP1 REVERT JUMPDEST POP PUSH2 0x498 PUSH1 0x4 DUP1 CALLDATASIZE SUB DUP2 ADD SWAP1 PUSH2 0x493 SWAP2 SWAP1 PUSH2 0x1E9F JUMP JUMPDEST PUSH2 0xF6B JUMP JUMPDEST STOP JUMPDEST CALLVALUE DUP1 ISZERO PUSH2 0x4A6 JUMPI PUSH1 0x0 DUP1 REVERT JUMPDEST POP PUSH2 0x4AF PUSH2 0xFDD JUMP JUMPDEST PUSH1 0x40 MLOAD PUSH2 0x4BC SWAP2 SWAP1 PUSH2 0x20C3 JUMP JUMPDEST PUSH1 0x40 MLOAD DUP1 SWAP2 SUB SWAP1 RETURN JUMPDEST CALLVALUE DUP1 ISZERO PUSH2 0x4D1 JUMPI PUSH1 0x0 DUP1 REVERT JUMPDEST POP PUSH2 0x4EC PUSH1 0x4 DUP1 CALLDATASIZE SUB DUP2 ADD SWAP1 PUSH2 0x4E7 SWAP2 SWAP1 PUSH2 0x1E3B JUMP JUMPDEST PUSH2 0x11BF JUMP JUMPDEST PUSH1 0x40 MLOAD PUSH2 0x4F9 SWAP2 SWAP1 PUSH2 0x1DCD JUMP JUMPDEST PUSH1 0x40 MLOAD DUP1 SWAP2 SUB SWAP1 RETURN JUMPDEST CALLVALUE DUP1 ISZERO PUSH2 0x50E JUMPI PUSH1 0x0 DUP1 REVERT JUMPDEST POP PUSH2 0x529 PUSH1 0x4 DUP1 CALLDATASIZE SUB DUP2 ADD SWAP1 PUSH2 0x524 SWAP2 SWAP1 PUSH2 0x1E9F JUMP JUMPDEST PUSH2 0x1208 JUMP JUMPDEST STOP JUMPDEST CALLVALUE DUP1 ISZERO PUSH2 0x537 JUMPI PUSH1 0x0 DUP1 REVERT JUMPDEST POP PUSH2 0x552 PUSH1 0x4 DUP1 CALLDATASIZE SUB DUP2 ADD SWAP1 PUSH2 0x54D SWAP2 SWAP1 PUSH2 0x221A JUMP JUMPDEST PUSH2 0x13F0 JUMP JUMPDEST STOP JUMPDEST CALLVALUE DUP1 ISZERO PUSH2 0x560 JUMPI PUSH1 0x0 DUP1 REVERT JUMPDEST POP PUSH2 0x569 PUSH2 0x172F JUMP JUMPDEST PUSH1 0x40 MLOAD PUSH2 0x576 SWAP2 SWAP1 PUSH2 0x1C88 JUMP JUMPDEST PUSH1 0x40 MLOAD DUP1 SWAP2 SUB SWAP1 RETURN JUMPDEST CALLVALUE DUP1 ISZERO PUSH2 0x58B JUMPI PUSH1 0x0 DUP1 REVERT JUMPDEST POP PUSH2 0x5A6 PUSH1 0x4 DUP1 CALLDATASIZE SUB DUP2 ADD SWAP1 PUSH2 0x5A1 SWAP2 SWAP1 PUSH2 0x1D48 JUMP JUMPDEST PUSH2 0x17BD JUMP JUMPDEST PUSH1 0x40 MLOAD PUSH2 0x5B3 SWAP2 SWAP1 PUSH2 0x1DA3 JUMP JUMPDEST PUSH1 0x40 MLOAD DUP1 SWAP2 SUB SWAP1 RETURN JUMPDEST CALLVALUE DUP1 ISZERO PUSH2 0x5C8 JUMPI PUSH1 0x0 DUP1 REVERT JUMPDEST POP PUSH2 0x5E3 PUSH1 0x4 DUP1 CALLDATASIZE SUB DUP2 ADD SWAP1 PUSH2 0x5DE SWAP2 SWAP1 PUSH2 0x1E9F JUMP JUMPDEST PUSH2 0x18B0 JUMP JUMPDEST PUSH1 0x40 MLOAD PUSH2 0x5F3 SWAP5 SWAP4 SWAP3 SWAP2 SWAP1 PUSH2 0x1EDB JUMP JUMPDEST PUSH1 0x40 MLOAD DUP1 SWAP2 SUB SWAP1 RETURN JUMPDEST CALLVALUE DUP1 ISZERO PUSH2 0x608 JUMPI PUSH1 0x0 DUP1 REVERT JUMPDEST POP PUSH2 0x623 PUSH1 0x4 DUP1 CALLDATASIZE SUB DUP2 ADD SWAP1 PUSH2 0x61E SWAP2 SWAP1 PUSH2 0x1E9F JUMP JUMPDEST PUSH2 0x19A5 JUMP JUMPDEST PUSH1 0x40 MLOAD PUSH2 0x633 SWAP5 SWAP4 SWAP3 SWAP2 SWAP1 PUSH2 0x1EDB JUMP JUMPDEST PUSH1 0x40 MLOAD DUP1 SWAP2 SUB SWAP1 RETURN JUMPDEST CALLVALUE DUP1 ISZERO PUSH2 0x648 JUMPI PUSH1 0x0 DUP1 REVERT JUMPDEST POP PUSH2 0x663 PUSH1 0x4 DUP1 CALLDATASIZE SUB DUP2 ADD SWAP1 PUSH2 0x65E SWAP2 SWAP1 PUSH2 0x2276 JUMP JUMPDEST PUSH2 0x1A8A JUMP JUMPDEST PUSH1 0x40 MLOAD PUSH2 0x670 SWAP2 SWAP1 PUSH2 0x1DCD JUMP JUMPDEST PUSH1 0x40 MLOAD DUP1 SWAP2 SUB SWAP1 RETURN JUMPDEST CALLVALUE DUP1 ISZERO PUSH2 0x685 JUMPI PUSH1 0x0 DUP1 REVERT JUMPDEST POP PUSH2 0x68E PUSH2 0x1AAF JUMP JUMPDEST PUSH1 0x40 MLOAD PUSH2 0x69B SWAP2 SWAP1 PUSH2 0x2315 JUMP JUMPDEST PUSH1 0x40 MLOAD DUP1 SWAP2 SUB SWAP1 RETURN JUMPDEST DUP1 PUSH1 0x5 PUSH1 0x0 CALLER PUSH20 0xFFFFFFFFFFFFFFFFFFFFFFFFFFFFFFFFFFFFFFFF AND PUSH20 0xFFFFFFFFFFFFFFFFFFFFFFFFFFFFFFFFFFFFFFFF AND DUP2 MSTORE PUSH1 0x20 ADD SWAP1 DUP2 MSTORE PUSH1 0x20 ADD PUSH1 0x0 KECCAK256 PUSH1 0x0 DUP3 DUP3 SLOAD PUSH2 0x6F3 SWAP2 SWAP1 PUSH2 0x1BC4 JUMP JUMPDEST SWAP3 POP POP DUP2 SWAP1 SSTORE POP DUP1 PUSH1 0x3 PUSH1 0x0 DUP3 DUP3 SLOAD PUSH2 0x70C SWAP2 SWAP1 PUSH2 0x1BC4 JUMP JUMPDEST SWAP3 POP POP DUP2 SWAP1 SSTORE POP POP JUMP JUMPDEST PUSH1 0x0 DUP1 SLOAD PUSH2 0x723 SWAP1 PUSH2 0x235F JUMP JUMPDEST DUP1 PUSH1 0x1F ADD PUSH1 0x20 DUP1 SWAP2 DIV MUL PUSH1 0x20 ADD PUSH1 0x40 MLOAD SWAP1 DUP2 ADD PUSH1 0x40 MSTORE DUP1 SWAP3 SWAP2 SWAP1 DUP2 DUP2 MSTORE PUSH1 0x20 ADD DUP3 DUP1 SLOAD PUSH2 0x74F SWAP1 PUSH2 0x235F JUMP JUMPDEST DUP1 ISZERO PUSH2 0x79C JUMPI DUP1 PUSH1 0x1F LT PUSH2 0x771 JUMPI PUSH2 0x100 DUP1 DUP4 SLOAD DIV MUL DUP4 MSTORE SWAP2 PUSH1 0x20 ADD SWAP2 PUSH2 0x79C JUMP JUMPDEST DUP3 ADD SWAP2 SWAP1 PUSH1 0x0 MSTORE PUSH1 0x20 PUSH1 0x0 KECCAK256 SWAP1 JUMPDEST DUP2 SLOAD DUP2 MSTORE SWAP1 PUSH1 0x1 ADD SWAP1 PUSH1 0x20 ADD DUP1 DUP4 GT PUSH2 0x77F JUMPI DUP3 SWAP1 SUB PUSH1 0x1F AND DUP3 ADD SWAP2 JUMPDEST POP POP POP POP POP DUP2 JUMP JUMPDEST PUSH1 0x0 DUP2 PUSH1 0x6 PUSH1 0x0 CALLER PUSH20 0xFFFFFFFFFFFFFFFFFFFFFFFFFFFFFFFFFFFFFFFF AND PUSH20 0xFFFFFFFFFFFFFFFFFFFFFFFFFFFFFFFFFFFFFFFF AND DUP2 MSTORE PUSH1 0x20 ADD SWAP1 DUP2 MSTORE PUSH1 0x20 ADD PUSH1 0x0 KECCAK256 PUSH1 0x0 DUP6 PUSH20 0xFFFFFFFFFFFFFFFFFFFFFFFFFFFFFFFFFFFFFFFF AND PUSH20 0xFFFFFFFFFFFFFFFFFFFFFFFFFFFFFFFFFFFFFFFF AND DUP2 MSTORE PUSH1 0x20 ADD SWAP1 DUP2 MSTORE PUSH1 0x20 ADD PUSH1 0x0 KECCAK256 DUP2 SWAP1 SSTORE POP PUSH32 0x8C5BE1E5EBEC7D5BD14F71427D1E84F3DD0314C0F7B2291E5B200AC8C7C3B925 CALLER DUP5 DUP5 PUSH1 0x40 MLOAD PUSH2 0x85A SWAP4 SWAP3 SWAP2 SWAP1 PUSH2 0x2390 JUMP JUMPDEST PUSH1 0x40 MLOAD DUP1 SWAP2 SUB SWAP1 LOG1 PUSH1 0x1 SWAP1 POP SWAP3 SWAP2 POP POP JUMP JUMPDEST PUSH1 0x3 SLOAD DUP2 JUMP JUMPDEST PUSH1 0x0 DUP2 PUSH1 0x6 PUSH1 0x0 DUP7 PUSH20 0xFFFFFFFFFFFFFFFFFFFFFFFFFFFFFFFFFFFFFFFF AND PUSH20 0xFFFFFFFFFFFFFFFFFFFFFFFFFFFFFFFFFFFFFFFF AND DUP2 MSTORE PUSH1 0x20 ADD SWAP1 DUP2 MSTORE PUSH1 0x20 ADD PUSH1 0x0 KECCAK256 PUSH1 0x0 CALLER PUSH20 0xFFFFFFFFFFFFFFFFFFFFFFFFFFFFFFFFFFFFFFFF AND PUSH20 0xFFFFFFFFFFFFFFFFFFFFFFFFFFFFFFFFFFFFFFFF AND DUP2 MSTORE PUSH1 0x20 ADD SWAP1 DUP2 MSTORE PUSH1 0x20 ADD PUSH1 0x0 KECCAK256 SLOAD LT ISZERO PUSH2 0x8FD JUMPI PUSH1 0x0 DUP1 REVERT JUMPDEST DUP2 PUSH1 0x6 PUSH1 0x0 DUP7 PUSH20 0xFFFFFFFFFFFFFFFFFFFFFFFFFFFFFFFFFFFFFFFF AND PUSH20 0xFFFFFFFFFFFFFFFFFFFFFFFFFFFFFFFFFFFFFFFF AND DUP2 MSTORE PUSH1 0x20 ADD SWAP1 DUP2 MSTORE PUSH1 0x20 ADD PUSH1 0x0 KECCAK256 PUSH1 0x0 CALLER PUSH20 0xFFFFFFFFFFFFFFFFFFFFFFFFFFFFFFFFFFFFFFFF AND PUSH20 0xFFFFFFFFFFFFFFFFFFFFFFFFFFFFFFFFFFFFFFFF AND DUP2 MSTORE PUSH1 0x20 ADD SWAP1 DUP2 MSTORE PUSH1 0x20 ADD PUSH1 0x0 KECCAK256 PUSH1 0x0 DUP3 DUP3 SLOAD PUSH2 0x989 SWAP2 SWAP1 PUSH2 0x1B90 JUMP JUMPDEST SWAP3 POP POP DUP2 SWAP1 SSTORE POP DUP2 PUSH1 0x5 PUSH1 0x0 DUP7 PUSH20 0xFFFFFFFFFFFFFFFFFFFFFFFFFFFFFFFFFFFFFFFF AND PUSH20 0xFFFFFFFFFFFFFFFFFFFFFFFFFFFFFFFFFFFFFFFF AND DUP2 MSTORE PUSH1 0x20 ADD SWAP1 DUP2 MSTORE PUSH1 0x20 ADD PUSH1 0x0 KECCAK256 PUSH1 0x0 DUP3 DUP3 SLOAD PUSH2 0x9DF SWAP2 SWAP1 PUSH2 0x1B90 JUMP JUMPDEST SWAP3 POP POP DUP2 SWAP1 SSTORE POP DUP2 PUSH1 0x5 PUSH1 0x0 DUP6 PUSH20 0xFFFFFFFFFFFFFFFFFFFFFFFFFFFFFFFFFFFFFFFF AND PUSH20 0xFFFFFFFFFFFFFFFFFFFFFFFFFFFFFFFFFFFFFFFF AND DUP2 MSTORE PUSH1 0x20 ADD SWAP1 DUP2 MSTORE PUSH1 0x20 ADD PUSH1 0x0 KECCAK256 PUSH1 0x0 DUP3 DUP3 SLOAD PUSH2 0xA35 SWAP2 SWAP1 PUSH2 0x1BC4 JUMP JUMPDEST SWAP3 POP POP DUP2 SWAP1 SSTORE POP PUSH1 0x1 SWAP1 POP SWAP4 SWAP3 POP POP POP JUMP JUMPDEST PUSH1 0x5 PUSH1 0x20 MSTORE DUP1 PUSH1 0x0 MSTORE PUSH1 0x40 PUSH1 0x0 KECCAK256 PUSH1 0x0 SWAP2 POP SWAP1 POP SLOAD DUP2 JUMP JUMPDEST PUSH1 0x2 PUSH1 0x0 SWAP1 SLOAD SWAP1 PUSH2 0x100 EXP SWAP1 DIV PUSH1 0xFF AND DUP2 JUMP JUMPDEST PUSH1 0x0 PUSH1 0xA PUSH1 0x0 DUP4 DUP2 MSTORE PUSH1 0x20 ADD SWAP1 DUP2 MSTORE PUSH1 0x20 ADD PUSH1 0x0 KECCAK256 SWAP1 POP DUP1 PUSH1 0x2 ADD PUSH1 0x0 SWAP1 SLOAD SWAP1 PUSH2 0x100 EXP SWAP1 DIV PUSH1 0xFF AND PUSH2 0xADA JUMPI PUSH1 0x40 MLOAD PUSH32 0x8C379A000000000000000000000000000000000000000000000000000000000 DUP2 MSTORE PUSH1 0x4 ADD PUSH2 0xAD1 SWAP1 PUSH2 0x2413 JUMP JUMPDEST PUSH1 0x40 MLOAD DUP1 SWAP2 SUB SWAP1 REVERT JUMPDEST PUSH1 0x0 DUP2 PUSH1 0x1 ADD SLOAD SWAP1 POP DUP1 PUSH1 0xB PUSH1 0x0 SWAP1 SLOAD SWAP1 PUSH2 0x100 EXP SWAP1 DIV PUSH20 0xFFFFFFFFFFFFFFFFFFFFFFFFFFFFFFFFFFFFFFFF AND PUSH20 0xFFFFFFFFFFFFFFFFFFFFFFFFFFFFFFFFFFFFFFFF AND PUSH4 0x70A08231 CALLER PUSH1 0x40 MLOAD DUP3 PUSH4 0xFFFFFFFF AND PUSH1 0xE0 SHL DUP2 MSTORE PUSH1 0x4 ADD PUSH2 0xB3F SWAP2 SWAP1 PUSH2 0x2433 JUMP JUMPDEST PUSH1 0x20 PUSH1 0x40 MLOAD DUP1 DUP4 SUB DUP2 DUP7 GAS STATICCALL ISZERO DUP1 ISZERO PUSH2 0xB5C JUMPI RETURNDATASIZE PUSH1 0x0 DUP1 RETURNDATACOPY RETURNDATASIZE PUSH1 0x0 REVERT JUMPDEST POP POP POP POP PUSH1 0x40 MLOAD RETURNDATASIZE PUSH1 0x1F NOT PUSH1 0x1F DUP3 ADD AND DUP3 ADD DUP1 PUSH1 0x40 MSTORE POP DUP2 ADD SWAP1 PUSH2 0xB80 SWAP2 SWAP1 PUSH2 0x2463 JUMP JUMPDEST LT ISZERO PUSH2 0xBC1 JUMPI PUSH1 0x40 MLOAD PUSH32 0x8C379A000000000000000000000000000000000000000000000000000000000 DUP2 MSTORE PUSH1 0x4 ADD PUSH2 0xBB8 SWAP1 PUSH2 0x24DC JUMP JUMPDEST PUSH1 0x40 MLOAD DUP1 SWAP2 SUB SWAP1 REVERT JUMPDEST PUSH1 0xB PUSH1 0x0 SWAP1 SLOAD SWAP1 PUSH2 0x100 EXP SWAP1 DIV PUSH20 0xFFFFFFFFFFFFFFFFFFFFFFFFFFFFFFFFFFFFFFFF AND PUSH20 0xFFFFFFFFFFFFFFFFFFFFFFFFFFFFFFFFFFFFFFFF AND PUSH4 0x23B872DD CALLER ADDRESS DUP5 PUSH1 0x40 MLOAD DUP5 PUSH4 0xFFFFFFFF AND PUSH1 0xE0 SHL DUP2 MSTORE PUSH1 0x4 ADD PUSH2 0xC20 SWAP4 SWAP3 SWAP2 SWAP1 PUSH2 0x2390 JUMP JUMPDEST PUSH1 0x20 PUSH1 0x40 MLOAD DUP1 DUP4 SUB DUP2 PUSH1 0x0 DUP8 GAS CALL ISZERO DUP1 ISZERO PUSH2 0xC3F JUMPI RETURNDATASIZE PUSH1 0x0 DUP1 RETURNDATACOPY RETURNDATASIZE PUSH1 0x0 REVERT JUMPDEST POP POP POP POP PUSH1 0x40 MLOAD RETURNDATASIZE PUSH1 0x1F NOT PUSH1 0x1F DUP3 ADD AND DUP3 ADD DUP1 PUSH1 0x40 MSTORE POP DUP2 ADD SWAP1 PUSH2 0xC63 SWAP2 SWAP1 PUSH2 0x2528 JUMP JUMPDEST POP PUSH1 0xB PUSH1 0x0 SWAP1 SLOAD SWAP1 PUSH2 0x100 EXP SWAP1 DIV PUSH20 0xFFFFFFFFFFFFFFFFFFFFFFFFFFFFFFFFFFFFFFFF AND PUSH20 0xFFFFFFFFFFFFFFFFFFFFFFFFFFFFFFFFFFFFFFFF AND PUSH4 0xA9059CBB DUP4 PUSH1 0x2 ADD PUSH1 0x1 SWAP1 SLOAD SWAP1 PUSH2 0x100 EXP SWAP1 DIV PUSH20 0xFFFFFFFFFFFFFFFFFFFFFFFFFFFFFFFFFFFFFFFF AND DUP4 PUSH1 0x40 MLOAD DUP4 PUSH4 0xFFFFFFFF AND PUSH1 0xE0 SHL DUP2 MSTORE PUSH1 0x4 ADD PUSH2 0xCE5 SWAP3 SWAP2 SWAP1 PUSH2 0x2555 JUMP JUMPDEST PUSH1 0x20 PUSH1 0x40 MLOAD DUP1 DUP4 SUB DUP2 PUSH1 0x0 DUP8 GAS CALL ISZERO DUP1 ISZERO PUSH2 0xD04 JUMPI RETURNDATASIZE PUSH1 0x0 DUP1 RETURNDATACOPY RETURNDATASIZE PUSH1 0x0 REVERT JUMPDEST POP POP POP POP PUSH1 0x40 MLOAD RETURNDATASIZE PUSH1 0x1F NOT PUSH1 0x1F DUP3 ADD AND DUP3 ADD DUP1 PUSH1 0x40 MSTORE POP DUP2 ADD SWAP1 PUSH2 0xD28 SWAP2 SWAP1 PUSH2 0x2528 JUMP JUMPDEST POP PUSH1 0x9 PUSH1 0x0 CALLER PUSH20 0xFFFFFFFFFFFFFFFFFFFFFFFFFFFFFFFFFFFFFFFF AND PUSH20 0xFFFFFFFFFFFFFFFFFFFFFFFFFFFFFFFFFFFFFFFF AND DUP2 MSTORE PUSH1 0x20 ADD SWAP1 DUP2 MSTORE PUSH1 0x20 ADD PUSH1 0x0 KECCAK256 DUP3 SWAP1 DUP1 PUSH1 0x1 DUP2 SLOAD ADD DUP1 DUP3 SSTORE DUP1 SWAP2 POP POP PUSH1 0x1 SWAP1 SUB SWAP1 PUSH1 0x0 MSTORE PUSH1 0x20 PUSH1 0x0 KECCAK256 SWAP1 PUSH1 0x3 MUL ADD PUSH1 0x0 SWAP1 SWAP2 SWAP1 SWAP2 SWAP1 SWAP2 POP PUSH1 0x0 DUP3 ADD DUP2 PUSH1 0x0 ADD SWAP1 DUP2 PUSH2 0xDA6 SWAP2 SWAP1 PUSH2 0x2736 JUMP JUMPDEST POP PUSH1 0x1 DUP3 ADD SLOAD DUP2 PUSH1 0x1 ADD SSTORE PUSH1 0x2 DUP3 ADD PUSH1 0x0 SWAP1 SLOAD SWAP1 PUSH2 0x100 EXP SWAP1 DIV PUSH1 0xFF AND DUP2 PUSH1 0x2 ADD PUSH1 0x0 PUSH2 0x100 EXP DUP2 SLOAD DUP2 PUSH1 0xFF MUL NOT AND SWAP1 DUP4 ISZERO ISZERO MUL OR SWAP1 SSTORE POP PUSH1 0x2 DUP3 ADD PUSH1 0x1 SWAP1 SLOAD SWAP1 PUSH2 0x100 EXP SWAP1 DIV PUSH20 0xFFFFFFFFFFFFFFFFFFFFFFFFFFFFFFFFFFFFFFFF AND DUP2 PUSH1 0x2 ADD PUSH1 0x1 PUSH2 0x100 EXP DUP2 SLOAD DUP2 PUSH20 0xFFFFFFFFFFFFFFFFFFFFFFFFFFFFFFFFFFFFFFFF MUL NOT AND SWAP1 DUP4 PUSH20 0xFFFFFFFFFFFFFFFFFFFFFFFFFFFFFFFFFFFFFFFF AND MUL OR SWAP1 SSTORE POP POP POP PUSH1 0x0 DUP3 PUSH1 0x2 ADD PUSH1 0x0 PUSH2 0x100 EXP DUP2 SLOAD DUP2 PUSH1 0xFF MUL NOT AND SWAP1 DUP4 ISZERO ISZERO MUL OR SWAP1 SSTORE POP POP POP POP JUMP JUMPDEST PUSH1 0x9 PUSH1 0x20 MSTORE DUP2 PUSH1 0x0 MSTORE PUSH1 0x40 PUSH1 0x0 KECCAK256 DUP2 DUP2 SLOAD DUP2 LT PUSH2 0xE85 JUMPI PUSH1 0x0 DUP1 REVERT JUMPDEST SWAP1 PUSH1 0x0 MSTORE PUSH1 0x20 PUSH1 0x0 KECCAK256 SWAP1 PUSH1 0x3 MUL ADD PUSH1 0x0 SWAP2 POP SWAP2 POP POP DUP1 PUSH1 0x0 ADD DUP1 SLOAD PUSH2 0xEA9 SWAP1 PUSH2 0x235F JUMP JUMPDEST DUP1 PUSH1 0x1F ADD PUSH1 0x20 DUP1 SWAP2 DIV MUL PUSH1 0x20 ADD PUSH1 0x40 MLOAD SWAP1 DUP2 ADD PUSH1 0x40 MSTORE DUP1 SWAP3 SWAP2 SWAP1 DUP2 DUP2 MSTORE PUSH1 0x20 ADD DUP3 DUP1 SLOAD PUSH2 0xED5 SWAP1 PUSH2 0x235F JUMP JUMPDEST DUP1 ISZERO PUSH2 0xF22 JUMPI DUP1 PUSH1 0x1F LT PUSH2 0xEF7 JUMPI PUSH2 0x100 DUP1 DUP4 SLOAD DIV MUL DUP4 MSTORE SWAP2 PUSH1 0x20 ADD SWAP2 PUSH2 0xF22 JUMP JUMPDEST DUP3 ADD SWAP2 SWAP1 PUSH1 0x0 MSTORE PUSH1 0x20 PUSH1 0x0 KECCAK256 SWAP1 JUMPDEST DUP2 SLOAD DUP2 MSTORE SWAP1 PUSH1 0x1 ADD SWAP1 PUSH1 0x20 ADD DUP1 DUP4 GT PUSH2 0xF05 JUMPI DUP3 SWAP1 SUB PUSH1 0x1F AND DUP3 ADD SWAP2 JUMPDEST POP POP POP POP POP SWAP1 DUP1 PUSH1 0x1 ADD SLOAD SWAP1 DUP1 PUSH1 0x2 ADD PUSH1 0x0 SWAP1 SLOAD SWAP1 PUSH2 0x100 EXP SWAP1 DIV PUSH1 0xFF AND SWAP1 DUP1 PUSH1 0x2 ADD PUSH1 0x1 SWAP1 SLOAD SWAP1 PUSH2 0x100 EXP SWAP1 DIV PUSH20 0xFFFFFFFFFFFFFFFFFFFFFFFFFFFFFFFFFFFFFFFF AND SWAP1 POP DUP5 JUMP JUMPDEST DUP1 PUSH1 0x5 PUSH1 0x0 CALLER PUSH20 0xFFFFFFFFFFFFFFFFFFFFFFFFFFFFFFFFFFFFFFFF AND PUSH20 0xFFFFFFFFFFFFFFFFFFFFFFFFFFFFFFFFFFFFFFFF AND DUP2 MSTORE PUSH1 0x20 ADD SWAP1 DUP2 MSTORE PUSH1 0x20 ADD PUSH1 0x0 KECCAK256 PUSH1 0x0 DUP3 DUP3 SLOAD PUSH2 0xFBA SWAP2 SWAP1 PUSH2 0x1B90 JUMP JUMPDEST SWAP3 POP POP DUP2 SWAP1 SSTORE POP DUP1 PUSH1 0x3 PUSH1 0x0 DUP3 DUP3 SLOAD PUSH2 0xFD3 SWAP2 SWAP1 PUSH2 0x1B90 JUMP JUMPDEST SWAP3 POP POP DUP2 SWAP1 SSTORE POP POP JUMP JUMPDEST PUSH1 0x60 PUSH1 0x0 PUSH1 0x7 DUP1 SLOAD SWAP1 POP PUSH8 0xFFFFFFFFFFFFFFFF DUP2 GT ISZERO PUSH2 0x1000 JUMPI PUSH2 0xFFF PUSH2 0x20EF JUMP JUMPDEST JUMPDEST PUSH1 0x40 MLOAD SWAP1 DUP1 DUP3 MSTORE DUP1 PUSH1 0x20 MUL PUSH1 0x20 ADD DUP3 ADD PUSH1 0x40 MSTORE DUP1 ISZERO PUSH2 0x1039 JUMPI DUP2 PUSH1 0x20 ADD JUMPDEST PUSH2 0x1026 PUSH2 0x1AD5 JUMP JUMPDEST DUP2 MSTORE PUSH1 0x20 ADD SWAP1 PUSH1 0x1 SWAP1 SUB SWAP1 DUP2 PUSH2 0x101E JUMPI SWAP1 POP JUMPDEST POP SWAP1 POP PUSH1 0x0 JUMPDEST PUSH1 0x7 DUP1 SLOAD SWAP1 POP DUP2 LT ISZERO PUSH2 0x11B7 JUMPI PUSH1 0x7 DUP2 DUP2 SLOAD DUP2 LT PUSH2 0x1060 JUMPI PUSH2 0x105F PUSH2 0x281E JUMP JUMPDEST JUMPDEST SWAP1 PUSH1 0x0 MSTORE PUSH1 0x20 PUSH1 0x0 KECCAK256 SWAP1 PUSH1 0x3 MUL ADD PUSH1 0x40 MLOAD DUP1 PUSH1 0x80 ADD PUSH1 0x40 MSTORE SWAP1 DUP2 PUSH1 0x0 DUP3 ADD DUP1 SLOAD PUSH2 0x1089 SWAP1 PUSH2 0x235F JUMP JUMPDEST DUP1 PUSH1 0x1F ADD PUSH1 0x20 DUP1 SWAP2 DIV MUL PUSH1 0x20 ADD PUSH1 0x40 MLOAD SWAP1 DUP2 ADD PUSH1 0x40 MSTORE DUP1 SWAP3 SWAP2 SWAP1 DUP2 DUP2 MSTORE PUSH1 0x20 ADD DUP3 DUP1 SLOAD PUSH2 0x10B5 SWAP1 PUSH2 0x235F JUMP JUMPDEST DUP1 ISZERO PUSH2 0x1102 JUMPI DUP1 PUSH1 0x1F LT PUSH2 0x10D7 JUMPI PUSH2 0x100 DUP1 DUP4 SLOAD DIV MUL DUP4 MSTORE SWAP2 PUSH1 0x20 ADD SWAP2 PUSH2 0x1102 JUMP JUMPDEST DUP3 ADD SWAP2 SWAP1 PUSH1 0x0 MSTORE PUSH1 0x20 PUSH1 0x0 KECCAK256 SWAP1 JUMPDEST DUP2 SLOAD DUP2 MSTORE SWAP1 PUSH1 0x1 ADD SWAP1 PUSH1 0x20 ADD DUP1 DUP4 GT PUSH2 0x10E5 JUMPI DUP3 SWAP1 SUB PUSH1 0x1F AND DUP3 ADD SWAP2 JUMPDEST POP POP POP POP POP DUP2 MSTORE PUSH1 0x20 ADD PUSH1 0x1 DUP3 ADD SLOAD DUP2 MSTORE PUSH1 0x20 ADD PUSH1 0x2 DUP3 ADD PUSH1 0x0 SWAP1 SLOAD SWAP1 PUSH2 0x100 EXP SWAP1 DIV PUSH1 0xFF AND ISZERO ISZERO ISZERO ISZERO DUP2 MSTORE PUSH1 0x20 ADD PUSH1 0x2 DUP3 ADD PUSH1 0x1 SWAP1 SLOAD SWAP1 PUSH2 0x100 EXP SWAP1 DIV PUSH20 0xFFFFFFFFFFFFFFFFFFFFFFFFFFFFFFFFFFFFFFFF AND PUSH20 0xFFFFFFFFFFFFFFFFFFFFFFFFFFFFFFFFFFFFFFFF AND PUSH20 0xFFFFFFFFFFFFFFFFFFFFFFFFFFFFFFFFFFFFFFFF AND DUP2 MSTORE POP POP DUP3 DUP3 DUP2 MLOAD DUP2 LT PUSH2 0x1199 JUMPI PUSH2 0x1198 PUSH2 0x281E JUMP JUMPDEST JUMPDEST PUSH1 0x20 MUL PUSH1 0x20 ADD ADD DUP2 SWAP1 MSTORE POP DUP1 DUP1 PUSH2 0x11AF SWAP1 PUSH2 0x284D JUMP JUMPDEST SWAP2 POP POP PUSH2 0x103F JUMP JUMPDEST POP DUP1 SWAP2 POP POP SWAP1 JUMP JUMPDEST PUSH1 0x0 PUSH1 0x5 PUSH1 0x0 DUP4 PUSH20 0xFFFFFFFFFFFFFFFFFFFFFFFFFFFFFFFFFFFFFFFF AND PUSH20 0xFFFFFFFFFFFFFFFFFFFFFFFFFFFFFFFFFFFFFFFF AND DUP2 MSTORE PUSH1 0x20 ADD SWAP1 DUP2 MSTORE PUSH1 0x20 ADD PUSH1 0x0 KECCAK256 SLOAD SWAP1 POP SWAP2 SWAP1 POP JUMP JUMPDEST PUSH1 0x7 DUP1 SLOAD SWAP1 POP DUP2 LT PUSH2 0x124F JUMPI PUSH1 0x40 MLOAD PUSH32 0x8C379A000000000000000000000000000000000000000000000000000000000 DUP2 MSTORE PUSH1 0x4 ADD PUSH2 0x1246 SWAP1 PUSH2 0x28E1 JUMP JUMPDEST PUSH1 0x40 MLOAD DUP1 SWAP2 SUB SWAP1 REVERT JUMPDEST CALLER PUSH20 0xFFFFFFFFFFFFFFFFFFFFFFFFFFFFFFFFFFFFFFFF AND PUSH1 0x7 DUP3 DUP2 SLOAD DUP2 LT PUSH2 0x127A JUMPI PUSH2 0x1279 PUSH2 0x281E JUMP JUMPDEST JUMPDEST SWAP1 PUSH1 0x0 MSTORE PUSH1 0x20 PUSH1 0x0 KECCAK256 SWAP1 PUSH1 0x3 MUL ADD PUSH1 0x2 ADD PUSH1 0x1 SWAP1 SLOAD SWAP1 PUSH2 0x100 EXP SWAP1 DIV PUSH20 0xFFFFFFFFFFFFFFFFFFFFFFFFFFFFFFFFFFFFFFFF AND PUSH20 0xFFFFFFFFFFFFFFFFFFFFFFFFFFFFFFFFFFFFFFFF AND EQ PUSH2 0x1302 JUMPI PUSH1 0x40 MLOAD PUSH32 0x8C379A000000000000000000000000000000000000000000000000000000000 DUP2 MSTORE PUSH1 0x4 ADD PUSH2 0x12F9 SWAP1 PUSH2 0x294D JUMP JUMPDEST PUSH1 0x40 MLOAD DUP1 SWAP2 SUB SWAP1 REVERT JUMPDEST PUSH1 0x7 DUP2 DUP2 SLOAD DUP2 LT PUSH2 0x1316 JUMPI PUSH2 0x1315 PUSH2 0x281E JUMP JUMPDEST JUMPDEST SWAP1 PUSH1 0x0 MSTORE PUSH1 0x20 PUSH1 0x0 KECCAK256 SWAP1 PUSH1 0x3 MUL ADD PUSH1 0xA PUSH1 0x0 DUP4 DUP2 MSTORE PUSH1 0x20 ADD SWAP1 DUP2 MSTORE PUSH1 0x20 ADD PUSH1 0x0 KECCAK256 PUSH1 0x0 DUP3 ADD DUP2 PUSH1 0x0 ADD SWAP1 DUP2 PUSH2 0x134B SWAP2 SWAP1 PUSH2 0x2736 JUMP JUMPDEST POP PUSH1 0x1 DUP3 ADD SLOAD DUP2 PUSH1 0x1 ADD SSTORE PUSH1 0x2 DUP3 ADD PUSH1 0x0 SWAP1 SLOAD SWAP1 PUSH2 0x100 EXP SWAP1 DIV PUSH1 0xFF AND DUP2 PUSH1 0x2 ADD PUSH1 0x0 PUSH2 0x100 EXP DUP2 SLOAD DUP2 PUSH1 0xFF MUL NOT AND SWAP1 DUP4 ISZERO ISZERO MUL OR SWAP1 SSTORE POP PUSH1 0x2 DUP3 ADD PUSH1 0x1 SWAP1 SLOAD SWAP1 PUSH2 0x100 EXP SWAP1 DIV PUSH20 0xFFFFFFFFFFFFFFFFFFFFFFFFFFFFFFFFFFFFFFFF AND DUP2 PUSH1 0x2 ADD PUSH1 0x1 PUSH2 0x100 EXP DUP2 SLOAD DUP2 PUSH20 0xFFFFFFFFFFFFFFFFFFFFFFFFFFFFFFFFFFFFFFFF MUL NOT AND SWAP1 DUP4 PUSH20 0xFFFFFFFFFFFFFFFFFFFFFFFFFFFFFFFFFFFFFFFF AND MUL OR SWAP1 SSTORE POP SWAP1 POP POP POP JUMP JUMPDEST PUSH1 0x8 SLOAD PUSH1 0x5 PUSH1 0x0 CALLER PUSH20 0xFFFFFFFFFFFFFFFFFFFFFFFFFFFFFFFFFFFFFFFF AND PUSH20 0xFFFFFFFFFFFFFFFFFFFFFFFFFFFFFFFFFFFFFFFF AND DUP2 MSTORE PUSH1 0x20 ADD SWAP1 DUP2 MSTORE PUSH1 0x20 ADD PUSH1 0x0 KECCAK256 SLOAD LT ISZERO PUSH2 0x143E JUMPI PUSH1 0x0 DUP1 REVERT JUMPDEST PUSH1 0x8 SLOAD PUSH1 0x5 PUSH1 0x0 CALLER PUSH20 0xFFFFFFFFFFFFFFFFFFFFFFFFFFFFFFFFFFFFFFFF AND PUSH20 0xFFFFFFFFFFFFFFFFFFFFFFFFFFFFFFFFFFFFFFFF AND DUP2 MSTORE PUSH1 0x20 ADD SWAP1 DUP2 MSTORE PUSH1 0x20 ADD PUSH1 0x0 KECCAK256 PUSH1 0x0 DUP3 DUP3 SLOAD PUSH2 0x148F SWAP2 SWAP1 PUSH2 0x1B90 JUMP JUMPDEST SWAP3 POP POP DUP2 SWAP1 SSTORE POP PUSH1 0x0 PUSH1 0x40 MLOAD DUP1 PUSH1 0x80 ADD PUSH1 0x40 MSTORE DUP1 DUP5 DUP2 MSTORE PUSH1 0x20 ADD DUP4 DUP2 MSTORE PUSH1 0x20 ADD PUSH1 0x1 ISZERO ISZERO DUP2 MSTORE PUSH1 0x20 ADD CALLER PUSH20 0xFFFFFFFFFFFFFFFFFFFFFFFFFFFFFFFFFFFFFFFF AND DUP2 MSTORE POP SWAP1 POP PUSH1 0x7 DUP2 SWAP1 DUP1 PUSH1 0x1 DUP2 SLOAD ADD DUP1 DUP3 SSTORE DUP1 SWAP2 POP POP PUSH1 0x1 SWAP1 SUB SWAP1 PUSH1 0x0 MSTORE PUSH1 0x20 PUSH1 0x0 KECCAK256 SWAP1 PUSH1 0x3 MUL ADD PUSH1 0x0 SWAP1 SWAP2 SWAP1 SWAP2 SWAP1 SWAP2 POP PUSH1 0x0 DUP3 ADD MLOAD DUP2 PUSH1 0x0 ADD SWAP1 DUP2 PUSH2 0x1515 SWAP2 SWAP1 PUSH2 0x296D JUMP JUMPDEST POP PUSH1 0x20 DUP3 ADD MLOAD DUP2 PUSH1 0x1 ADD SSTORE PUSH1 0x40 DUP3 ADD MLOAD DUP2 PUSH1 0x2 ADD PUSH1 0x0 PUSH2 0x100 EXP DUP2 SLOAD DUP2 PUSH1 0xFF MUL NOT AND SWAP1 DUP4 ISZERO ISZERO MUL OR SWAP1 SSTORE POP PUSH1 0x60 DUP3 ADD MLOAD DUP2 PUSH1 0x2 ADD PUSH1 0x1 PUSH2 0x100 EXP DUP2 SLOAD DUP2 PUSH20 0xFFFFFFFFFFFFFFFFFFFFFFFFFFFFFFFFFFFFFFFF MUL NOT AND SWAP1 DUP4 PUSH20 0xFFFFFFFFFFFFFFFFFFFFFFFFFFFFFFFFFFFFFFFF AND MUL OR SWAP1 SSTORE POP POP POP PUSH1 0x9 PUSH1 0x0 CALLER PUSH20 0xFFFFFFFFFFFFFFFFFFFFFFFFFFFFFFFFFFFFFFFF AND PUSH20 0xFFFFFFFFFFFFFFFFFFFFFFFFFFFFFFFFFFFFFFFF AND DUP2 MSTORE PUSH1 0x20 ADD SWAP1 DUP2 MSTORE PUSH1 0x20 ADD PUSH1 0x0 KECCAK256 DUP2 SWAP1 DUP1 PUSH1 0x1 DUP2 SLOAD ADD DUP1 DUP3 SSTORE DUP1 SWAP2 POP POP PUSH1 0x1 SWAP1 SUB SWAP1 PUSH1 0x0 MSTORE PUSH1 0x20 PUSH1 0x0 KECCAK256 SWAP1 PUSH1 0x3 MUL ADD PUSH1 0x0 SWAP1 SWAP2 SWAP1 SWAP2 SWAP1 SWAP2 POP PUSH1 0x0 DUP3 ADD MLOAD DUP2 PUSH1 0x0 ADD SWAP1 DUP2 PUSH2 0x1607 SWAP2 SWAP1 PUSH2 0x296D JUMP JUMPDEST POP PUSH1 0x20 DUP3 ADD MLOAD DUP2 PUSH1 0x1 ADD SSTORE PUSH1 0x40 DUP3 ADD MLOAD DUP2 PUSH1 0x2 ADD PUSH1 0x0 PUSH2 0x100 EXP DUP2 SLOAD DUP2 PUSH1 0xFF MUL NOT AND SWAP1 DUP4 ISZERO ISZERO MUL OR SWAP1 SSTORE POP PUSH1 0x60 DUP3 ADD MLOAD DUP2 PUSH1 0x2 ADD PUSH1 0x1 PUSH2 0x100 EXP DUP2 SLOAD DUP2 PUSH20 0xFFFFFFFFFFFFFFFFFFFFFFFFFFFFFFFFFFFFFFFF MUL NOT AND SWAP1 DUP4 PUSH20 0xFFFFFFFFFFFFFFFFFFFFFFFFFFFFFFFFFFFFFFFF AND MUL OR SWAP1 SSTORE POP POP POP DUP1 PUSH1 0xA PUSH1 0x0 PUSH1 0x1 PUSH1 0x7 DUP1 SLOAD SWAP1 POP PUSH2 0x1692 SWAP2 SWAP1 PUSH2 0x1B90 JUMP JUMPDEST DUP2 MSTORE PUSH1 0x20 ADD SWAP1 DUP2 MSTORE PUSH1 0x20 ADD PUSH1 0x0 KECCAK256 PUSH1 0x0 DUP3 ADD MLOAD DUP2 PUSH1 0x0 ADD SWAP1 DUP2 PUSH2 0x16B5 SWAP2 SWAP1 PUSH2 0x296D JUMP JUMPDEST POP PUSH1 0x20 DUP3 ADD MLOAD DUP2 PUSH1 0x1 ADD SSTORE PUSH1 0x40 DUP3 ADD MLOAD DUP2 PUSH1 0x2 ADD PUSH1 0x0 PUSH2 0x100 EXP DUP2 SLOAD DUP2 PUSH1 0xFF MUL NOT AND SWAP1 DUP4 ISZERO ISZERO MUL OR SWAP1 SSTORE POP PUSH1 0x60 DUP3 ADD MLOAD DUP2 PUSH1 0x2 ADD PUSH1 0x1 PUSH2 0x100 EXP DUP2 SLOAD DUP2 PUSH20 0xFFFFFFFFFFFFFFFFFFFFFFFFFFFFFFFFFFFFFFFF MUL NOT AND SWAP1 DUP4 PUSH20 0xFFFFFFFFFFFFFFFFFFFFFFFFFFFFFFFFFFFFFFFF AND MUL OR SWAP1 SSTORE POP SWAP1 POP POP POP POP POP JUMP JUMPDEST PUSH1 0x1 DUP1 SLOAD PUSH2 0x173C SWAP1 PUSH2 0x235F JUMP JUMPDEST DUP1 PUSH1 0x1F ADD PUSH1 0x20 DUP1 SWAP2 DIV MUL PUSH1 0x20 ADD PUSH1 0x40 MLOAD SWAP1 DUP2 ADD PUSH1 0x40 MSTORE DUP1 SWAP3 SWAP2 SWAP1 DUP2 DUP2 MSTORE PUSH1 0x20 ADD DUP3 DUP1 SLOAD PUSH2 0x1768 SWAP1 PUSH2 0x235F JUMP JUMPDEST DUP1 ISZERO PUSH2 0x17B5 JUMPI DUP1 PUSH1 0x1F LT PUSH2 0x178A JUMPI PUSH2 0x100 DUP1 DUP4 SLOAD DIV MUL DUP4 MSTORE SWAP2 PUSH1 0x20 ADD SWAP2 PUSH2 0x17B5 JUMP JUMPDEST DUP3 ADD SWAP2 SWAP1 PUSH1 0x0 MSTORE PUSH1 0x20 PUSH1 0x0 KECCAK256 SWAP1 JUMPDEST DUP2 SLOAD DUP2 MSTORE SWAP1 PUSH1 0x1 ADD SWAP1 PUSH1 0x20 ADD DUP1 DUP4 GT PUSH2 0x1798 JUMPI DUP3 SWAP1 SUB PUSH1 0x1F AND DUP3 ADD SWAP2 JUMPDEST POP POP POP POP POP DUP2 JUMP JUMPDEST PUSH1 0x0 DUP2 PUSH1 0x5 PUSH1 0x0 CALLER PUSH20 0xFFFFFFFFFFFFFFFFFFFFFFFFFFFFFFFFFFFFFFFF AND PUSH20 0xFFFFFFFFFFFFFFFFFFFFFFFFFFFFFFFFFFFFFFFF AND DUP2 MSTORE PUSH1 0x20 ADD SWAP1 DUP2 MSTORE PUSH1 0x20 ADD PUSH1 0x0 KECCAK256 PUSH1 0x0 DUP3 DUP3 SLOAD PUSH2 0x180E SWAP2 SWAP1 PUSH2 0x1B90 JUMP JUMPDEST SWAP3 POP POP DUP2 SWAP1 SSTORE POP DUP2 PUSH1 0x5 PUSH1 0x0 DUP6 PUSH20 0xFFFFFFFFFFFFFFFFFFFFFFFFFFFFFFFFFFFFFFFF AND PUSH20 0xFFFFFFFFFFFFFFFFFFFFFFFFFFFFFFFFFFFFFFFF AND DUP2 MSTORE PUSH1 0x20 ADD SWAP1 DUP2 MSTORE PUSH1 0x20 ADD PUSH1 0x0 KECCAK256 PUSH1 0x0 DUP3 DUP3 SLOAD PUSH2 0x1864 SWAP2 SWAP1 PUSH2 0x1BC4 JUMP JUMPDEST SWAP3 POP POP DUP2 SWAP1 SSTORE POP PUSH32 0xDDF252AD1BE2C89B69C2B068FC378DAA952BA7F163C4A11628F55A4DF523B3EF CALLER DUP5 DUP5 PUSH1 0x40 MLOAD PUSH2 0x189E SWAP4 SWAP3 SWAP2 SWAP1 PUSH2 0x2390 JUMP JUMPDEST PUSH1 0x40 MLOAD DUP1 SWAP2 SUB SWAP1 LOG1 PUSH1 0x1 SWAP1 POP SWAP3 SWAP2 POP POP JUMP JUMPDEST PUSH1 0x7 DUP2 DUP2 SLOAD DUP2 LT PUSH2 0x18C0 JUMPI PUSH1 0x0 DUP1 REVERT JUMPDEST SWAP1 PUSH1 0x0 MSTORE PUSH1 0x20 PUSH1 0x0 KECCAK256 SWAP1 PUSH1 0x3 MUL ADD PUSH1 0x0 SWAP2 POP SWAP1 POP DUP1 PUSH1 0x0 ADD DUP1 SLOAD PUSH2 0x18E3 SWAP1 PUSH2 0x235F JUMP JUMPDEST DUP1 PUSH1 0x1F ADD PUSH1 0x20 DUP1 SWAP2 DIV MUL PUSH1 0x20 ADD PUSH1 0x40 MLOAD SWAP1 DUP2 ADD PUSH1 0x40 MSTORE DUP1 SWAP3 SWAP2 SWAP1 DUP2 DUP2 MSTORE PUSH1 0x20 ADD DUP3 DUP1 SLOAD PUSH2 0x190F SWAP1 PUSH2 0x235F JUMP JUMPDEST DUP1 ISZERO PUSH2 0x195C JUMPI DUP1 PUSH1 0x1F LT PUSH2 0x1931 JUMPI PUSH2 0x100 DUP1 DUP4 SLOAD DIV MUL DUP4 MSTORE SWAP2 PUSH1 0x20 ADD SWAP2 PUSH2 0x195C JUMP JUMPDEST DUP3 ADD SWAP2 SWAP1 PUSH1 0x0 MSTORE PUSH1 0x20 PUSH1 0x0 KECCAK256 SWAP1 JUMPDEST DUP2 SLOAD DUP2 MSTORE SWAP1 PUSH1 0x1 ADD SWAP1 PUSH1 0x20 ADD DUP1 DUP4 GT PUSH2 0x193F JUMPI DUP3 SWAP1 SUB PUSH1 0x1F AND DUP3 ADD SWAP2 JUMPDEST POP POP POP POP POP SWAP1 DUP1 PUSH1 0x1 ADD SLOAD SWAP1 DUP1 PUSH1 0x2 ADD PUSH1 0x0 SWAP1 SLOAD SWAP1 PUSH2 0x100 EXP SWAP1 DIV PUSH1 0xFF AND SWAP1 DUP1 PUSH1 0x2 ADD PUSH1 0x1 SWAP1 SLOAD SWAP1 PUSH2 0x100 EXP SWAP1 DIV PUSH20 0xFFFFFFFFFFFFFFFFFFFFFFFFFFFFFFFFFFFFFFFF AND SWAP1 POP DUP5 JUMP JUMPDEST PUSH1 0xA PUSH1 0x20 MSTORE DUP1 PUSH1 0x0 MSTORE PUSH1 0x40 PUSH1 0x0 KECCAK256 PUSH1 0x0 SWAP2 POP SWAP1 POP DUP1 PUSH1 0x0 ADD DUP1 SLOAD PUSH2 0x19C8 SWAP1 PUSH2 0x235F JUMP JUMPDEST DUP1 PUSH1 0x1F ADD PUSH1 0x20 DUP1 SWAP2 DIV MUL PUSH1 0x20 ADD PUSH1 0x40 MLOAD SWAP1 DUP2 ADD PUSH1 0x40 MSTORE DUP1 SWAP3 SWAP2 SWAP1 DUP2 DUP2 MSTORE PUSH1 0x20 ADD DUP3 DUP1 SLOAD PUSH2 0x19F4 SWAP1 PUSH2 0x235F JUMP JUMPDEST DUP1 ISZERO PUSH2 0x1A41 JUMPI DUP1 PUSH1 0x1F LT PUSH2 0x1A16 JUMPI PUSH2 0x100 DUP1 DUP4 SLOAD DIV MUL DUP4 MSTORE SWAP2 PUSH1 0x20 ADD SWAP2 PUSH2 0x1A41 JUMP JUMPDEST DUP3 ADD SWAP2 SWAP1 PUSH1 0x0 MSTORE PUSH1 0x20 PUSH1 0x0 KECCAK256 SWAP1 JUMPDEST DUP2 SLOAD DUP2 MSTORE SWAP1 PUSH1 0x1 ADD SWAP1 PUSH1 0x20 ADD DUP1 DUP4 GT PUSH2 0x1A24 JUMPI DUP3 SWAP1 SUB PUSH1 0x1F AND DUP3 ADD SWAP2 JUMPDEST POP POP POP POP POP SWAP1 DUP1 PUSH1 0x1 ADD SLOAD SWAP1 DUP1 PUSH1 0x2 ADD PUSH1 0x0 SWAP1 SLOAD SWAP1 PUSH2 0x100 EXP SWAP1 DIV PUSH1 0xFF AND SWAP1 DUP1 PUSH1 0x2 ADD PUSH1 0x1 SWAP1 SLOAD SWAP1 PUSH2 0x100 EXP SWAP1 DIV PUSH20 0xFFFFFFFFFFFFFFFFFFFFFFFFFFFFFFFFFFFFFFFF AND SWAP1 POP DUP5 JUMP JUMPDEST PUSH1 0x6 PUSH1 0x20 MSTORE DUP2 PUSH1 0x0 MSTORE PUSH1 0x40 PUSH1 0x0 KECCAK256 PUSH1 0x20 MSTORE DUP1 PUSH1 0x0 MSTORE PUSH1 0x40 PUSH1 0x0 KECCAK256 PUSH1 0x0 SWAP2 POP SWAP2 POP POP SLOAD DUP2 JUMP JUMPDEST PUSH1 0xB PUSH1 0x0 SWAP1 SLOAD SWAP1 PUSH2 0x100 EXP SWAP1 DIV PUSH20 0xFFFFFFFFFFFFFFFFFFFFFFFFFFFFFFFFFFFFFFFF AND DUP2 JUMP JUMPDEST PUSH1 0x40 MLOAD DUP1 PUSH1 0x80 ADD PUSH1 0x40 MSTORE DUP1 PUSH1 0x60 DUP2 MSTORE PUSH1 0x20 ADD PUSH1 0x0 DUP2 MSTORE PUSH1 0x20 ADD PUSH1 0x0 ISZERO ISZERO DUP2 MSTORE PUSH1 0x20 ADD PUSH1 0x0 PUSH20 0xFFFFFFFFFFFFFFFFFFFFFFFFFFFFFFFFFFFFFFFF AND DUP2 MSTORE POP SWAP1 JUMP JUMPDEST PUSH1 0x0 DUP2 SWAP1 POP SWAP2 SWAP1 POP JUMP JUMPDEST PUSH32 0x4E487B7100000000000000000000000000000000000000000000000000000000 PUSH1 0x0 MSTORE PUSH1 0x11 PUSH1 0x4 MSTORE PUSH1 0x24 PUSH1 0x0 REVERT JUMPDEST PUSH1 0x0 PUSH2 0x1B59 DUP3 PUSH2 0x1B15 JUMP JUMPDEST SWAP2 POP PUSH2 0x1B64 DUP4 PUSH2 0x1B15 JUMP JUMPDEST SWAP3 POP DUP3 DUP3 MUL PUSH2 0x1B72 DUP2 PUSH2 0x1B15 JUMP JUMPDEST SWAP2 POP DUP3 DUP3 DIV DUP5 EQ DUP4 ISZERO OR PUSH2 0x1B89 JUMPI PUSH2 0x1B88 PUSH2 0x1B1F JUMP JUMPDEST JUMPDEST POP SWAP3 SWAP2 POP POP JUMP JUMPDEST PUSH1 0x0 PUSH2 0x1B9B DUP3 PUSH2 0x1B15 JUMP JUMPDEST SWAP2 POP PUSH2 0x1BA6 DUP4 PUSH2 0x1B15 JUMP JUMPDEST SWAP3 POP DUP3 DUP3 SUB SWAP1 POP DUP2 DUP2 GT ISZERO PUSH2 0x1BBE JUMPI PUSH2 0x1BBD PUSH2 0x1B1F JUMP JUMPDEST JUMPDEST SWAP3 SWAP2 POP POP JUMP JUMPDEST PUSH1 0x0 PUSH2 0x1BCF DUP3 PUSH2 0x1B15 JUMP JUMPDEST SWAP2 POP PUSH2 0x1BDA DUP4 PUSH2 0x1B15 JUMP JUMPDEST SWAP3 POP DUP3 DUP3 ADD SWAP1 POP DUP1 DUP3 GT ISZERO PUSH2 0x1BF2 JUMPI PUSH2 0x1BF1 PUSH2 0x1B1F JUMP JUMPDEST JUMPDEST SWAP3 SWAP2 POP POP JUMP JUMPDEST PUSH1 0x0 DUP2 MLOAD SWAP1 POP SWAP2 SWAP1 POP JUMP JUMPDEST PUSH1 0x0 DUP3 DUP3 MSTORE PUSH1 0x20 DUP3 ADD SWAP1 POP SWAP3 SWAP2 POP POP JUMP JUMPDEST PUSH1 0x0 JUMPDEST DUP4 DUP2 LT ISZERO PUSH2 0x1C32 JUMPI DUP1 DUP3 ADD MLOAD DUP2 DUP5 ADD MSTORE PUSH1 0x20 DUP2 ADD SWAP1 POP PUSH2 0x1C17 JUMP JUMPDEST PUSH1 0x0 DUP5 DUP5 ADD MSTORE POP POP POP POP JUMP JUMPDEST PUSH1 0x0 PUSH1 0x1F NOT PUSH1 0x1F DUP4 ADD AND SWAP1 POP SWAP2 SWAP1 POP JUMP JUMPDEST PUSH1 0x0 PUSH2 0x1C5A DUP3 PUSH2 0x1BF8 JUMP JUMPDEST PUSH2 0x1C64 DUP2 DUP6 PUSH2 0x1C03 JUMP JUMPDEST SWAP4 POP PUSH2 0x1C74 DUP2 DUP6 PUSH1 0x20 DUP7 ADD PUSH2 0x1C14 JUMP JUMPDEST PUSH2 0x1C7D DUP2 PUSH2 0x1C3E JUMP JUMPDEST DUP5 ADD SWAP2 POP POP SWAP3 SWAP2 POP POP JUMP JUMPDEST PUSH1 0x0 PUSH1 0x20 DUP3 ADD SWAP1 POP DUP2 DUP2 SUB PUSH1 0x0 DUP4 ADD MSTORE PUSH2 0x1CA2 DUP2 DUP5 PUSH2 0x1C4F JUMP JUMPDEST SWAP1 POP SWAP3 SWAP2 POP POP JUMP JUMPDEST PUSH1 0x0 PUSH1 0x40 MLOAD SWAP1 POP SWAP1 JUMP JUMPDEST PUSH1 0x0 DUP1 REVERT JUMPDEST PUSH1 0x0 DUP1 REVERT JUMPDEST PUSH1 0x0 PUSH20 0xFFFFFFFFFFFFFFFFFFFFFFFFFFFFFFFFFFFFFFFF DUP3 AND SWAP1 POP SWAP2 SWAP1 POP JUMP JUMPDEST PUSH1 0x0 PUSH2 0x1CE9 DUP3 PUSH2 0x1CBE JUMP JUMPDEST SWAP1 POP SWAP2 SWAP1 POP JUMP JUMPDEST PUSH2 0x1CF9 DUP2 PUSH2 0x1CDE JUMP JUMPDEST DUP2 EQ PUSH2 0x1D04 JUMPI PUSH1 0x0 DUP1 REVERT JUMPDEST POP JUMP JUMPDEST PUSH1 0x0 DUP2 CALLDATALOAD SWAP1 POP PUSH2 0x1D16 DUP2 PUSH2 0x1CF0 JUMP JUMPDEST SWAP3 SWAP2 POP POP JUMP JUMPDEST PUSH2 0x1D25 DUP2 PUSH2 0x1B15 JUMP JUMPDEST DUP2 EQ PUSH2 0x1D30 JUMPI PUSH1 0x0 DUP1 REVERT JUMPDEST POP JUMP JUMPDEST PUSH1 0x0 DUP2 CALLDATALOAD SWAP1 POP PUSH2 0x1D42 DUP2 PUSH2 0x1D1C JUMP JUMPDEST SWAP3 SWAP2 POP POP JUMP JUMPDEST PUSH1 0x0 DUP1 PUSH1 0x40 DUP4 DUP6 SUB SLT ISZERO PUSH2 0x1D5F JUMPI PUSH2 0x1D5E PUSH2 0x1CB4 JUMP JUMPDEST JUMPDEST PUSH1 0x0 PUSH2 0x1D6D DUP6 DUP3 DUP7 ADD PUSH2 0x1D07 JUMP JUMPDEST SWAP3 POP POP PUSH1 0x20 PUSH2 0x1D7E DUP6 DUP3 DUP7 ADD PUSH2 0x1D33 JUMP JUMPDEST SWAP2 POP POP SWAP3 POP SWAP3 SWAP1 POP JUMP JUMPDEST PUSH1 0x0 DUP2 ISZERO ISZERO SWAP1 POP SWAP2 SWAP1 POP JUMP JUMPDEST PUSH2 0x1D9D DUP2 PUSH2 0x1D88 JUMP JUMPDEST DUP3 MSTORE POP POP JUMP JUMPDEST PUSH1 0x0 PUSH1 0x20 DUP3 ADD SWAP1 POP PUSH2 0x1DB8 PUSH1 0x0 DUP4 ADD DUP5 PUSH2 0x1D94 JUMP JUMPDEST SWAP3 SWAP2 POP POP JUMP JUMPDEST PUSH2 0x1DC7 DUP2 PUSH2 0x1B15 JUMP JUMPDEST DUP3 MSTORE POP POP JUMP JUMPDEST PUSH1 0x0 PUSH1 0x20 DUP3 ADD SWAP1 POP PUSH2 0x1DE2 PUSH1 0x0 DUP4 ADD DUP5 PUSH2 0x1DBE JUMP JUMPDEST SWAP3 SWAP2 POP POP JUMP JUMPDEST PUSH1 0x0 DUP1 PUSH1 0x0 PUSH1 0x60 DUP5 DUP7 SUB SLT ISZERO PUSH2 0x1E01 JUMPI PUSH2 0x1E00 PUSH2 0x1CB4 JUMP JUMPDEST JUMPDEST PUSH1 0x0 PUSH2 0x1E0F DUP7 DUP3 DUP8 ADD PUSH2 0x1D07 JUMP JUMPDEST SWAP4 POP POP PUSH1 0x20 PUSH2 0x1E20 DUP7 DUP3 DUP8 ADD PUSH2 0x1D07 JUMP JUMPDEST SWAP3 POP POP PUSH1 0x40 PUSH2 0x1E31 DUP7 DUP3 DUP8 ADD PUSH2 0x1D33 JUMP JUMPDEST SWAP2 POP POP SWAP3 POP SWAP3 POP SWAP3 JUMP JUMPDEST PUSH1 0x0 PUSH1 0x20 DUP3 DUP5 SUB SLT ISZERO PUSH2 0x1E51 JUMPI PUSH2 0x1E50 PUSH2 0x1CB4 JUMP JUMPDEST JUMPDEST PUSH1 0x0 PUSH2 0x1E5F DUP5 DUP3 DUP6 ADD PUSH2 0x1D07 JUMP JUMPDEST SWAP2 POP POP SWAP3 SWAP2 POP POP JUMP JUMPDEST PUSH1 0x0 PUSH1 0xFF DUP3 AND SWAP1 POP SWAP2 SWAP1 POP JUMP JUMPDEST PUSH2 0x1E7E DUP2 PUSH2 0x1E68 JUMP JUMPDEST DUP3 MSTORE POP POP JUMP JUMPDEST PUSH1 0x0 PUSH1 0x20 DUP3 ADD SWAP1 POP PUSH2 0x1E99 PUSH1 0x0 DUP4 ADD DUP5 PUSH2 0x1E75 JUMP JUMPDEST SWAP3 SWAP2 POP POP JUMP JUMPDEST PUSH1 0x0 PUSH1 0x20 DUP3 DUP5 SUB SLT ISZERO PUSH2 0x1EB5 JUMPI PUSH2 0x1EB4 PUSH2 0x1CB4 JUMP JUMPDEST JUMPDEST PUSH1 0x0 PUSH2 0x1EC3 DUP5 DUP3 DUP6 ADD PUSH2 0x1D33 JUMP JUMPDEST SWAP2 POP POP SWAP3 SWAP2 POP POP JUMP JUMPDEST PUSH2 0x1ED5 DUP2 PUSH2 0x1CDE JUMP JUMPDEST DUP3 MSTORE POP POP JUMP JUMPDEST PUSH1 0x0 PUSH1 0x80 DUP3 ADD SWAP1 POP DUP2 DUP2 SUB PUSH1 0x0 DUP4 ADD MSTORE PUSH2 0x1EF5 DUP2 DUP8 PUSH2 0x1C4F JUMP JUMPDEST SWAP1 POP PUSH2 0x1F04 PUSH1 0x20 DUP4 ADD DUP7 PUSH2 0x1DBE JUMP JUMPDEST PUSH2 0x1F11 PUSH1 0x40 DUP4 ADD DUP6 PUSH2 0x1D94 JUMP JUMPDEST PUSH2 0x1F1E PUSH1 0x60 DUP4 ADD DUP5 PUSH2 0x1ECC JUMP JUMPDEST SWAP6 SWAP5 POP POP POP POP POP JUMP JUMPDEST PUSH1 0x0 DUP2 MLOAD SWAP1 POP SWAP2 SWAP1 POP JUMP JUMPDEST PUSH1 0x0 DUP3 DUP3 MSTORE PUSH1 0x20 DUP3 ADD SWAP1 POP SWAP3 SWAP2 POP POP JUMP JUMPDEST PUSH1 0x0 DUP2 SWAP1 POP PUSH1 0x20 DUP3 ADD SWAP1 POP SWAP2 SWAP1 POP JUMP JUMPDEST PUSH1 0x0 DUP3 DUP3 MSTORE PUSH1 0x20 DUP3 ADD SWAP1 POP SWAP3 SWAP2 POP POP JUMP JUMPDEST PUSH1 0x0 PUSH2 0x1F6F DUP3 PUSH2 0x1BF8 JUMP JUMPDEST PUSH2 0x1F79 DUP2 DUP6 PUSH2 0x1F53 JUMP JUMPDEST SWAP4 POP PUSH2 0x1F89 DUP2 DUP6 PUSH1 0x20 DUP7 ADD PUSH2 0x1C14 JUMP JUMPDEST PUSH2 0x1F92 DUP2 PUSH2 0x1C3E JUMP JUMPDEST DUP5 ADD SWAP2 POP POP SWAP3 SWAP2 POP POP JUMP JUMPDEST PUSH2 0x1FA6 DUP2 PUSH2 0x1B15 JUMP JUMPDEST DUP3 MSTORE POP POP JUMP JUMPDEST PUSH2 0x1FB5 DUP2 PUSH2 0x1D88 JUMP JUMPDEST DUP3 MSTORE POP POP JUMP JUMPDEST PUSH2 0x1FC4 DUP2 PUSH2 0x1CDE JUMP JUMPDEST DUP3 MSTORE POP POP JUMP JUMPDEST PUSH1 0x0 PUSH1 0x80 DUP4 ADD PUSH1 0x0 DUP4 ADD MLOAD DUP5 DUP3 SUB PUSH1 0x0 DUP7 ADD MSTORE PUSH2 0x1FE7 DUP3 DUP3 PUSH2 0x1F64 JUMP JUMPDEST SWAP2 POP POP PUSH1 0x20 DUP4 ADD MLOAD PUSH2 0x1FFC PUSH1 0x20 DUP7 ADD DUP3 PUSH2 0x1F9D JUMP JUMPDEST POP PUSH1 0x40 DUP4 ADD MLOAD PUSH2 0x200F PUSH1 0x40 DUP7 ADD DUP3 PUSH2 0x1FAC JUMP JUMPDEST POP PUSH1 0x60 DUP4 ADD MLOAD PUSH2 0x2022 PUSH1 0x60 DUP7 ADD DUP3 PUSH2 0x1FBB JUMP JUMPDEST POP DUP1 SWAP2 POP POP SWAP3 SWAP2 POP POP JUMP JUMPDEST PUSH1 0x0 PUSH2 0x2039 DUP4 DUP4 PUSH2 0x1FCA JUMP JUMPDEST SWAP1 POP SWAP3 SWAP2 POP POP JUMP JUMPDEST PUSH1 0x0 PUSH1 0x20 DUP3 ADD SWAP1 POP SWAP2 SWAP1 POP JUMP JUMPDEST PUSH1 0x0 PUSH2 0x2059 DUP3 PUSH2 0x1F27 JUMP JUMPDEST PUSH2 0x2063 DUP2 DUP6 PUSH2 0x1F32 JUMP JUMPDEST SWAP4 POP DUP4 PUSH1 0x20 DUP3 MUL DUP6 ADD PUSH2 0x2075 DUP6 PUSH2 0x1F43 JUMP JUMPDEST DUP1 PUSH1 0x0 JUMPDEST DUP6 DUP2 LT ISZERO PUSH2 0x20B1 JUMPI DUP5 DUP5 SUB DUP10 MSTORE DUP2 MLOAD PUSH2 0x2092 DUP6 DUP3 PUSH2 0x202D JUMP JUMPDEST SWAP5 POP PUSH2 0x209D DUP4 PUSH2 0x2041 JUMP JUMPDEST SWAP3 POP PUSH1 0x20 DUP11 ADD SWAP10 POP POP PUSH1 0x1 DUP2 ADD SWAP1 POP PUSH2 0x2079 JUMP JUMPDEST POP DUP3 SWAP8 POP DUP8 SWAP6 POP POP POP POP POP POP SWAP3 SWAP2 POP POP JUMP JUMPDEST PUSH1 0x0 PUSH1 0x20 DUP3 ADD SWAP1 POP DUP2 DUP2 SUB PUSH1 0x0 DUP4 ADD MSTORE PUSH2 0x20DD DUP2 DUP5 PUSH2 0x204E JUMP JUMPDEST SWAP1 POP SWAP3 SWAP2 POP POP JUMP JUMPDEST PUSH1 0x0 DUP1 REVERT JUMPDEST PUSH1 0x0 DUP1 REVERT JUMPDEST PUSH32 0x4E487B7100000000000000000000000000000000000000000000000000000000 PUSH1 0x0 MSTORE PUSH1 0x41 PUSH1 0x4 MSTORE PUSH1 0x24 PUSH1 0x0 REVERT JUMPDEST PUSH2 0x2127 DUP3 PUSH2 0x1C3E JUMP JUMPDEST DUP2 ADD DUP2 DUP2 LT PUSH8 0xFFFFFFFFFFFFFFFF DUP3 GT OR ISZERO PUSH2 0x2146 JUMPI PUSH2 0x2145 PUSH2 0x20EF JUMP JUMPDEST JUMPDEST DUP1 PUSH1 0x40 MSTORE POP POP POP JUMP JUMPDEST PUSH1 0x0 PUSH2 0x2159 PUSH2 0x1CAA JUMP JUMPDEST SWAP1 POP PUSH2 0x2165 DUP3 DUP3 PUSH2 0x211E JUMP JUMPDEST SWAP2 SWAP1 POP JUMP JUMPDEST PUSH1 0x0 PUSH8 0xFFFFFFFFFFFFFFFF DUP3 GT ISZERO PUSH2 0x2185 JUMPI PUSH2 0x2184 PUSH2 0x20EF JUMP JUMPDEST JUMPDEST PUSH2 0x218E DUP3 PUSH2 0x1C3E JUMP JUMPDEST SWAP1 POP PUSH1 0x20 DUP2 ADD SWAP1 POP SWAP2 SWAP1 POP JUMP JUMPDEST DUP3 DUP2 DUP4 CALLDATACOPY PUSH1 0x0 DUP4 DUP4 ADD MSTORE POP POP POP JUMP JUMPDEST PUSH1 0x0 PUSH2 0x21BD PUSH2 0x21B8 DUP5 PUSH2 0x216A JUMP JUMPDEST PUSH2 0x214F JUMP JUMPDEST SWAP1 POP DUP3 DUP2 MSTORE PUSH1 0x20 DUP2 ADD DUP5 DUP5 DUP5 ADD GT ISZERO PUSH2 0x21D9 JUMPI PUSH2 0x21D8 PUSH2 0x20EA JUMP JUMPDEST JUMPDEST PUSH2 0x21E4 DUP5 DUP3 DUP6 PUSH2 0x219B JUMP JUMPDEST POP SWAP4 SWAP3 POP POP POP JUMP JUMPDEST PUSH1 0x0 DUP3 PUSH1 0x1F DUP4 ADD SLT PUSH2 0x2201 JUMPI PUSH2 0x2200 PUSH2 0x20E5 JUMP JUMPDEST JUMPDEST DUP2 CALLDATALOAD PUSH2 0x2211 DUP5 DUP3 PUSH1 0x20 DUP7 ADD PUSH2 0x21AA JUMP JUMPDEST SWAP2 POP POP SWAP3 SWAP2 POP POP JUMP JUMPDEST PUSH1 0x0 DUP1 PUSH1 0x40 DUP4 DUP6 SUB SLT ISZERO PUSH2 0x2231 JUMPI PUSH2 0x2230 PUSH2 0x1CB4 JUMP JUMPDEST JUMPDEST PUSH1 0x0 DUP4 ADD CALLDATALOAD PUSH8 0xFFFFFFFFFFFFFFFF DUP2 GT ISZERO PUSH2 0x224F JUMPI PUSH2 0x224E PUSH2 0x1CB9 JUMP JUMPDEST JUMPDEST PUSH2 0x225B DUP6 DUP3 DUP7 ADD PUSH2 0x21EC JUMP JUMPDEST SWAP3 POP POP PUSH1 0x20 PUSH2 0x226C DUP6 DUP3 DUP7 ADD PUSH2 0x1D33 JUMP JUMPDEST SWAP2 POP POP SWAP3 POP SWAP3 SWAP1 POP JUMP JUMPDEST PUSH1 0x0 DUP1 PUSH1 0x40 DUP4 DUP6 SUB SLT ISZERO PUSH2 0x228D JUMPI PUSH2 0x228C PUSH2 0x1CB4 JUMP JUMPDEST JUMPDEST PUSH1 0x0 PUSH2 0x229B DUP6 DUP3 DUP7 ADD PUSH2 0x1D07 JUMP JUMPDEST SWAP3 POP POP PUSH1 0x20 PUSH2 0x22AC DUP6 DUP3 DUP7 ADD PUSH2 0x1D07 JUMP JUMPDEST SWAP2 POP POP SWAP3 POP SWAP3 SWAP1 POP JUMP JUMPDEST PUSH1 0x0 DUP2 SWAP1 POP SWAP2 SWAP1 POP JUMP JUMPDEST PUSH1 0x0 PUSH2 0x22DB PUSH2 0x22D6 PUSH2 0x22D1 DUP5 PUSH2 0x1CBE JUMP JUMPDEST PUSH2 0x22B6 JUMP JUMPDEST PUSH2 0x1CBE JUMP JUMPDEST SWAP1 POP SWAP2 SWAP1 POP JUMP JUMPDEST PUSH1 0x0 PUSH2 0x22ED DUP3 PUSH2 0x22C0 JUMP JUMPDEST SWAP1 POP SWAP2 SWAP1 POP JUMP JUMPDEST PUSH1 0x0 PUSH2 0x22FF DUP3 PUSH2 0x22E2 JUMP JUMPDEST SWAP1 POP SWAP2 SWAP1 POP JUMP JUMPDEST PUSH2 0x230F DUP2 PUSH2 0x22F4 JUMP JUMPDEST DUP3 MSTORE POP POP JUMP JUMPDEST PUSH1 0x0 PUSH1 0x20 DUP3 ADD SWAP1 POP PUSH2 0x232A PUSH1 0x0 DUP4 ADD DUP5 PUSH2 0x2306 JUMP JUMPDEST SWAP3 SWAP2 POP POP JUMP JUMPDEST PUSH32 0x4E487B7100000000000000000000000000000000000000000000000000000000 PUSH1 0x0 MSTORE PUSH1 0x22 PUSH1 0x4 MSTORE PUSH1 0x24 PUSH1 0x0 REVERT JUMPDEST PUSH1 0x0 PUSH1 0x2 DUP3 DIV SWAP1 POP PUSH1 0x1 DUP3 AND DUP1 PUSH2 0x2377 JUMPI PUSH1 0x7F DUP3 AND SWAP2 POP JUMPDEST PUSH1 0x20 DUP3 LT DUP2 SUB PUSH2 0x238A JUMPI PUSH2 0x2389 PUSH2 0x2330 JUMP JUMPDEST JUMPDEST POP SWAP2 SWAP1 POP JUMP JUMPDEST PUSH1 0x0 PUSH1 0x60 DUP3 ADD SWAP1 POP PUSH2 0x23A5 PUSH1 0x0 DUP4 ADD DUP7 PUSH2 0x1ECC JUMP JUMPDEST PUSH2 0x23B2 PUSH1 0x20 DUP4 ADD DUP6 PUSH2 0x1ECC JUMP JUMPDEST PUSH2 0x23BF PUSH1 0x40 DUP4 ADD DUP5 PUSH2 0x1DBE JUMP JUMPDEST SWAP5 SWAP4 POP POP POP POP JUMP JUMPDEST PUSH32 0x50726F64756374206973206E6F7420666F722073616C65000000000000000000 PUSH1 0x0 DUP3 ADD MSTORE POP JUMP JUMPDEST PUSH1 0x0 PUSH2 0x23FD PUSH1 0x17 DUP4 PUSH2 0x1C03 JUMP JUMPDEST SWAP2 POP PUSH2 0x2408 DUP3 PUSH2 0x23C7 JUMP JUMPDEST PUSH1 0x20 DUP3 ADD SWAP1 POP SWAP2 SWAP1 POP JUMP JUMPDEST PUSH1 0x0 PUSH1 0x20 DUP3 ADD SWAP1 POP DUP2 DUP2 SUB PUSH1 0x0 DUP4 ADD MSTORE PUSH2 0x242C DUP2 PUSH2 0x23F0 JUMP JUMPDEST SWAP1 POP SWAP2 SWAP1 POP JUMP JUMPDEST PUSH1 0x0 PUSH1 0x20 DUP3 ADD SWAP1 POP PUSH2 0x2448 PUSH1 0x0 DUP4 ADD DUP5 PUSH2 0x1ECC JUMP JUMPDEST SWAP3 SWAP2 POP POP JUMP JUMPDEST PUSH1 0x0 DUP2 MLOAD SWAP1 POP PUSH2 0x245D DUP2 PUSH2 0x1D1C JUMP JUMPDEST SWAP3 SWAP2 POP POP JUMP JUMPDEST PUSH1 0x0 PUSH1 0x20 DUP3 DUP5 SUB SLT ISZERO PUSH2 0x2479 JUMPI PUSH2 0x2478 PUSH2 0x1CB4 JUMP JUMPDEST JUMPDEST PUSH1 0x0 PUSH2 0x2487 DUP5 DUP3 DUP6 ADD PUSH2 0x244E JUMP JUMPDEST SWAP2 POP POP SWAP3 SWAP2 POP POP JUMP JUMPDEST PUSH32 0x496E73756666696369656E742062616C616E6365000000000000000000000000 PUSH1 0x0 DUP3 ADD MSTORE POP JUMP JUMPDEST PUSH1 0x0 PUSH2 0x24C6 PUSH1 0x14 DUP4 PUSH2 0x1C03 JUMP JUMPDEST SWAP2 POP PUSH2 0x24D1 DUP3 PUSH2 0x2490 JUMP JUMPDEST PUSH1 0x20 DUP3 ADD SWAP1 POP SWAP2 SWAP1 POP JUMP JUMPDEST PUSH1 0x0 PUSH1 0x20 DUP3 ADD SWAP1 POP DUP2 DUP2 SUB PUSH1 0x0 DUP4 ADD MSTORE PUSH2 0x24F5 DUP2 PUSH2 0x24B9 JUMP JUMPDEST SWAP1 POP SWAP2 SWAP1 POP JUMP JUMPDEST PUSH2 0x2505 DUP2 PUSH2 0x1D88 JUMP JUMPDEST DUP2 EQ PUSH2 0x2510 JUMPI PUSH1 0x0 DUP1 REVERT JUMPDEST POP JUMP JUMPDEST PUSH1 0x0 DUP2 MLOAD SWAP1 POP PUSH2 0x2522 DUP2 PUSH2 0x24FC JUMP JUMPDEST SWAP3 SWAP2 POP POP JUMP JUMPDEST PUSH1 0x0 PUSH1 0x20 DUP3 DUP5 SUB SLT ISZERO PUSH2 0x253E JUMPI PUSH2 0x253D PUSH2 0x1CB4 JUMP JUMPDEST JUMPDEST PUSH1 0x0 PUSH2 0x254C DUP5 DUP3 DUP6 ADD PUSH2 0x2513 JUMP JUMPDEST SWAP2 POP POP SWAP3 SWAP2 POP POP JUMP JUMPDEST PUSH1 0x0 PUSH1 0x40 DUP3 ADD SWAP1 POP PUSH2 0x256A PUSH1 0x0 DUP4 ADD DUP6 PUSH2 0x1ECC JUMP JUMPDEST PUSH2 0x2577 PUSH1 0x20 DUP4 ADD DUP5 PUSH2 0x1DBE JUMP JUMPDEST SWAP4 SWAP3 POP POP POP JUMP JUMPDEST PUSH1 0x0 DUP2 SLOAD SWAP1 POP PUSH2 0x258D DUP2 PUSH2 0x235F JUMP JUMPDEST SWAP1 POP SWAP2 SWAP1 POP JUMP JUMPDEST PUSH1 0x0 DUP2 SWAP1 POP DUP2 PUSH1 0x0 MSTORE PUSH1 0x20 PUSH1 0x0 KECCAK256 SWAP1 POP SWAP2 SWAP1 POP JUMP JUMPDEST PUSH1 0x0 PUSH1 0x20 PUSH1 0x1F DUP4 ADD DIV SWAP1 POP SWAP2 SWAP1 POP JUMP JUMPDEST PUSH1 0x0 DUP3 DUP3 SHL SWAP1 POP SWAP3 SWAP2 POP POP JUMP JUMPDEST PUSH1 0x0 PUSH1 0x8 DUP4 MUL PUSH2 0x25F6 PUSH32 0xFFFFFFFFFFFFFFFFFFFFFFFFFFFFFFFFFFFFFFFFFFFFFFFFFFFFFFFFFFFFFFFF DUP3 PUSH2 0x25B9 JUMP JUMPDEST PUSH2 0x2600 DUP7 DUP4 PUSH2 0x25B9 JUMP JUMPDEST SWAP6 POP DUP1 NOT DUP5 AND SWAP4 POP DUP1 DUP7 AND DUP5 OR SWAP3 POP POP POP SWAP4 SWAP3 POP POP POP JUMP JUMPDEST PUSH1 0x0 PUSH2 0x2633 PUSH2 0x262E PUSH2 0x2629 DUP5 PUSH2 0x1B15 JUMP JUMPDEST PUSH2 0x22B6 JUMP JUMPDEST PUSH2 0x1B15 JUMP JUMPDEST SWAP1 POP SWAP2 SWAP1 POP JUMP JUMPDEST PUSH1 0x0 DUP2 SWAP1 POP SWAP2 SWAP1 POP JUMP JUMPDEST PUSH2 0x264D DUP4 PUSH2 0x2618 JUMP JUMPDEST PUSH2 0x2661 PUSH2 0x2659 DUP3 PUSH2 0x263A JUMP JUMPDEST DUP5 DUP5 SLOAD PUSH2 0x25C6 JUMP JUMPDEST DUP3 SSTORE POP POP POP POP JUMP JUMPDEST PUSH1 0x0 SWAP1 JUMP JUMPDEST PUSH2 0x2676 PUSH2 0x2669 JUMP JUMPDEST PUSH2 0x2681 DUP2 DUP5 DUP5 PUSH2 0x2644 JUMP JUMPDEST POP POP POP JUMP JUMPDEST JUMPDEST DUP2 DUP2 LT ISZERO PUSH2 0x26A5 JUMPI PUSH2 0x269A PUSH1 0x0 DUP3 PUSH2 0x266E JUMP JUMPDEST PUSH1 0x1 DUP2 ADD SWAP1 POP PUSH2 0x2687 JUMP JUMPDEST POP POP JUMP JUMPDEST PUSH1 0x1F DUP3 GT ISZERO PUSH2 0x26EA JUMPI PUSH2 0x26BB DUP2 PUSH2 0x2594 JUMP JUMPDEST PUSH2 0x26C4 DUP5 PUSH2 0x25A9 JUMP JUMPDEST DUP2 ADD PUSH1 0x20 DUP6 LT ISZERO PUSH2 0x26D3 JUMPI DUP2 SWAP1 POP JUMPDEST PUSH2 0x26E7 PUSH2 0x26DF DUP6 PUSH2 0x25A9 JUMP JUMPDEST DUP4 ADD DUP3 PUSH2 0x2686 JUMP JUMPDEST POP POP JUMPDEST POP POP POP JUMP JUMPDEST PUSH1 0x0 DUP3 DUP3 SHR SWAP1 POP SWAP3 SWAP2 POP POP JUMP JUMPDEST PUSH1 0x0 PUSH2 0x270D PUSH1 0x0 NOT DUP5 PUSH1 0x8 MUL PUSH2 0x26EF JUMP JUMPDEST NOT DUP1 DUP4 AND SWAP2 POP POP SWAP3 SWAP2 POP POP JUMP JUMPDEST PUSH1 0x0 PUSH2 0x2726 DUP4 DUP4 PUSH2 0x26FC JUMP JUMPDEST SWAP2 POP DUP3 PUSH1 0x2 MUL DUP3 OR SWAP1 POP SWAP3 SWAP2 POP POP JUMP JUMPDEST DUP2 DUP2 SUB PUSH2 0x2744 JUMPI POP POP PUSH2 0x281C JUMP JUMPDEST PUSH2 0x274D DUP3 PUSH2 0x257E JUMP JUMPDEST PUSH8 0xFFFFFFFFFFFFFFFF DUP2 GT ISZERO PUSH2 0x2766 JUMPI PUSH2 0x2765 PUSH2 0x20EF JUMP JUMPDEST JUMPDEST PUSH2 0x2770 DUP3 SLOAD PUSH2 0x235F JUMP JUMPDEST PUSH2 0x277B DUP3 DUP3 DUP6 PUSH2 0x26A9 JUMP JUMPDEST PUSH1 0x0 PUSH1 0x1F DUP4 GT PUSH1 0x1 DUP2 EQ PUSH2 0x27AA JUMPI PUSH1 0x0 DUP5 ISZERO PUSH2 0x2798 JUMPI DUP3 DUP8 ADD SLOAD SWAP1 POP JUMPDEST PUSH2 0x27A2 DUP6 DUP3 PUSH2 0x271A JUMP JUMPDEST DUP7 SSTORE POP PUSH2 0x2815 JUMP JUMPDEST PUSH1 0x1F NOT DUP5 AND PUSH2 0x27B8 DUP8 PUSH2 0x2594 JUMP JUMPDEST SWAP7 POP PUSH2 0x27C3 DUP7 PUSH2 0x2594 JUMP JUMPDEST PUSH1 0x0 JUMPDEST DUP3 DUP2 LT ISZERO PUSH2 0x27EB JUMPI DUP5 DUP10 ADD SLOAD DUP3 SSTORE PUSH1 0x1 DUP3 ADD SWAP2 POP PUSH1 0x1 DUP6 ADD SWAP5 POP PUSH1 0x20 DUP2 ADD SWAP1 POP PUSH2 0x27C6 JUMP JUMPDEST DUP7 DUP4 LT ISZERO PUSH2 0x2808 JUMPI DUP5 DUP10 ADD SLOAD PUSH2 0x2804 PUSH1 0x1F DUP10 AND DUP3 PUSH2 0x26FC JUMP JUMPDEST DUP4 SSTORE POP JUMPDEST PUSH1 0x1 PUSH1 0x2 DUP9 MUL ADD DUP9 SSTORE POP POP POP JUMPDEST POP POP POP POP POP POP JUMPDEST JUMP JUMPDEST PUSH32 0x4E487B7100000000000000000000000000000000000000000000000000000000 PUSH1 0x0 MSTORE PUSH1 0x32 PUSH1 0x4 MSTORE PUSH1 0x24 PUSH1 0x0 REVERT JUMPDEST PUSH1 0x0 PUSH2 0x2858 DUP3 PUSH2 0x1B15 JUMP JUMPDEST SWAP2 POP PUSH32 0xFFFFFFFFFFFFFFFFFFFFFFFFFFFFFFFFFFFFFFFFFFFFFFFFFFFFFFFFFFFFFFFF DUP3 SUB PUSH2 0x288A JUMPI PUSH2 0x2889 PUSH2 0x1B1F JUMP JUMPDEST JUMPDEST PUSH1 0x1 DUP3 ADD SWAP1 POP SWAP2 SWAP1 POP JUMP JUMPDEST PUSH32 0x496E76616C69642070726F647563742049440000000000000000000000000000 PUSH1 0x0 DUP3 ADD MSTORE POP JUMP JUMPDEST PUSH1 0x0 PUSH2 0x28CB PUSH1 0x12 DUP4 PUSH2 0x1C03 JUMP JUMPDEST SWAP2 POP PUSH2 0x28D6 DUP3 PUSH2 0x2895 JUMP JUMPDEST PUSH1 0x20 DUP3 ADD SWAP1 POP SWAP2 SWAP1 POP JUMP JUMPDEST PUSH1 0x0 PUSH1 0x20 DUP3 ADD SWAP1 POP DUP2 DUP2 SUB PUSH1 0x0 DUP4 ADD MSTORE PUSH2 0x28FA DUP2 PUSH2 0x28BE JUMP JUMPDEST SWAP1 POP SWAP2 SWAP1 POP JUMP JUMPDEST PUSH32 0x596F7520646F6E2774206F776E20746869732070726F64756374000000000000 PUSH1 0x0 DUP3 ADD MSTORE POP JUMP JUMPDEST PUSH1 0x0 PUSH2 0x2937 PUSH1 0x1A DUP4 PUSH2 0x1C03 JUMP JUMPDEST SWAP2 POP PUSH2 0x2942 DUP3 PUSH2 0x2901 JUMP JUMPDEST PUSH1 0x20 DUP3 ADD SWAP1 POP SWAP2 SWAP1 POP JUMP JUMPDEST PUSH1 0x0 PUSH1 0x20 DUP3 ADD SWAP1 POP DUP2 DUP2 SUB PUSH1 0x0 DUP4 ADD MSTORE PUSH2 0x2966 DUP2 PUSH2 0x292A JUMP JUMPDEST SWAP1 POP SWAP2 SWAP1 POP JUMP JUMPDEST PUSH2 0x2976 DUP3 PUSH2 0x1BF8 JUMP JUMPDEST PUSH8 0xFFFFFFFFFFFFFFFF DUP2 GT ISZERO PUSH2 0x298F JUMPI PUSH2 0x298E PUSH2 0x20EF JUMP JUMPDEST JUMPDEST PUSH2 0x2999 DUP3 SLOAD PUSH2 0x235F JUMP JUMPDEST PUSH2 0x29A4 DUP3 DUP3 DUP6 PUSH2 0x26A9 JUMP JUMPDEST PUSH1 0x0 PUSH1 0x20 SWAP1 POP PUSH1 0x1F DUP4 GT PUSH1 0x1 DUP2 EQ PUSH2 0x29D7 JUMPI PUSH1 0x0 DUP5 ISZERO PUSH2 0x29C5 JUMPI DUP3 DUP8 ADD MLOAD SWAP1 POP JUMPDEST PUSH2 0x29CF DUP6 DUP3 PUSH2 0x271A JUMP JUMPDEST DUP7 SSTORE POP PUSH2 0x2A37 JUMP JUMPDEST PUSH1 0x1F NOT DUP5 AND PUSH2 0x29E5 DUP7 PUSH2 0x2594 JUMP JUMPDEST PUSH1 0x0 JUMPDEST DUP3 DUP2 LT ISZERO PUSH2 0x2A0D JUMPI DUP5 DUP10 ADD MLOAD DUP3 SSTORE PUSH1 0x1 DUP3 ADD SWAP2 POP PUSH1 0x20 DUP6 ADD SWAP5 POP PUSH1 0x20 DUP2 ADD SWAP1 POP PUSH2 0x29E8 JUMP JUMPDEST DUP7 DUP4 LT ISZERO PUSH2 0x2A2A JUMPI DUP5 DUP10 ADD MLOAD PUSH2 0x2A26 PUSH1 0x1F DUP10 AND DUP3 PUSH2 0x26FC JUMP JUMPDEST DUP4 SSTORE POP JUMPDEST PUSH1 0x1 PUSH1 0x2 DUP9 MUL ADD DUP9 SSTORE POP POP POP JUMPDEST POP POP POP POP POP POP JUMP INVALID LOG2 PUSH5 0x6970667358 0x22 SLT KECCAK256 SWAP2 SHL OR 0x21 EXTCODEHASH 0xEE 0xD2 0x29 AND GAS BALANCE SELFBALANCE SWAP4 0xB9 JUMP 0x28 PUSH24 0xD2013E68314C618E4B73651911AB9F64736F6C6343000813 STOP CALLER "
				},
				"gasEstimates": {
					"creation": {
						"codeDepositCost": "2173800",
						"executionCost": "infinite",
						"totalCost": "infinite"
					},
					"external": {
						"allProducts(uint256)": "infinite",
						"allowance(address,address)": "infinite",
						"approve(address,uint256)": "infinite",
						"balanceOf(address)": "2886",
						"balances(address)": "2837",
						"burn(uint256)": "infinite",
						"decimals()": "2516",
						"forSaleProducts(uint256)": "infinite",
						"listProduct(uint256)": "infinite",
						"name()": "infinite",
						"purchaseProduct(uint256)": "infinite",
						"registerProduct(string,uint256)": "infinite",
						"showAllUserProducts()": "infinite",
						"symbol()": "infinite",
						"token()": "infinite",
						"totalSupply()": "2497",
						"transfer(address,uint256)": "infinite",
						"transferFrom(address,address,uint256)": "infinite",
						"userProducts(address,uint256)": "infinite"
					}
				},
				"methodIdentifiers": {
					"allProducts(uint256)": "cfaaef56",
					"allowance(address,address)": "dd62ed3e",
					"approve(address,uint256)": "095ea7b3",
					"balanceOf(address)": "70a08231",
					"balances(address)": "27e235e3",
					"burn(uint256)": "42966c68",
					"decimals()": "313ce567",
					"forSaleProducts(uint256)": "d84ea06d",
					"listProduct(uint256)": "8890fe98",
					"name()": "06fdde03",
					"purchaseProduct(uint256)": "38e76a03",
					"registerProduct(string,uint256)": "8c96091b",
					"showAllUserProducts()": "43fdcd56",
					"symbol()": "95d89b41",
					"token()": "fc0c546a",
					"totalSupply()": "18160ddd",
					"transfer(address,uint256)": "a9059cbb",
					"transferFrom(address,address,uint256)": "23b872dd",
					"userProducts(address,uint256)": "3d527883"
				}
			},
			"storageLayout": {
				"storage": [
					{
						"astId": 6,
						"contract": "toy/gusdnr/contracts/store.sol:Marketplace",
						"label": "name",
						"offset": 0,
						"slot": "0",
						"type": "t_string_storage"
					},
					{
						"astId": 8,
						"contract": "toy/gusdnr/contracts/store.sol:Marketplace",
						"label": "symbol",
						"offset": 0,
						"slot": "1",
						"type": "t_string_storage"
					},
					{
						"astId": 11,
						"contract": "toy/gusdnr/contracts/store.sol:Marketplace",
						"label": "decimals",
						"offset": 0,
						"slot": "2",
						"type": "t_uint8"
					},
					{
						"astId": 14,
						"contract": "toy/gusdnr/contracts/store.sol:Marketplace",
						"label": "totalSupply",
						"offset": 0,
						"slot": "3",
						"type": "t_uint256"
					},
					{
						"astId": 16,
						"contract": "toy/gusdnr/contracts/store.sol:Marketplace",
						"label": "owner",
						"offset": 0,
						"slot": "4",
						"type": "t_address"
					},
					{
						"astId": 55,
						"contract": "toy/gusdnr/contracts/store.sol:Marketplace",
						"label": "balances",
						"offset": 0,
						"slot": "5",
						"type": "t_mapping(t_address,t_uint256)"
					},
					{
						"astId": 62,
						"contract": "toy/gusdnr/contracts/store.sol:Marketplace",
						"label": "allowance",
						"offset": 0,
						"slot": "6",
						"type": "t_mapping(t_address,t_mapping(t_address,t_uint256))"
					},
					{
						"astId": 348,
						"contract": "toy/gusdnr/contracts/store.sol:Marketplace",
						"label": "allProducts",
						"offset": 0,
						"slot": "7",
						"type": "t_array(t_struct(Product)344_storage)dyn_storage"
					},
					{
						"astId": 351,
						"contract": "toy/gusdnr/contracts/store.sol:Marketplace",
						"label": "tokenPrice",
						"offset": 0,
						"slot": "8",
						"type": "t_uint256"
					},
					{
						"astId": 357,
						"contract": "toy/gusdnr/contracts/store.sol:Marketplace",
						"label": "userProducts",
						"offset": 0,
						"slot": "9",
						"type": "t_mapping(t_address,t_array(t_struct(Product)344_storage)dyn_storage)"
					},
					{
						"astId": 362,
						"contract": "toy/gusdnr/contracts/store.sol:Marketplace",
						"label": "forSaleProducts",
						"offset": 0,
						"slot": "10",
						"type": "t_mapping(t_uint256,t_struct(Product)344_storage)"
					},
					{
						"astId": 365,
						"contract": "toy/gusdnr/contracts/store.sol:Marketplace",
						"label": "token",
						"offset": 0,
						"slot": "11",
						"type": "t_contract(ERC20)261"
					}
				],
				"types": {
					"t_address": {
						"encoding": "inplace",
						"label": "address",
						"numberOfBytes": "20"
					},
					"t_array(t_struct(Product)344_storage)dyn_storage": {
						"base": "t_struct(Product)344_storage",
						"encoding": "dynamic_array",
						"label": "struct Marketplace.Product[]",
						"numberOfBytes": "32"
					},
					"t_bool": {
						"encoding": "inplace",
						"label": "bool",
						"numberOfBytes": "1"
					},
					"t_contract(ERC20)261": {
						"encoding": "inplace",
						"label": "contract ERC20",
						"numberOfBytes": "20"
					},
					"t_mapping(t_address,t_array(t_struct(Product)344_storage)dyn_storage)": {
						"encoding": "mapping",
						"key": "t_address",
						"label": "mapping(address => struct Marketplace.Product[])",
						"numberOfBytes": "32",
						"value": "t_array(t_struct(Product)344_storage)dyn_storage"
					},
					"t_mapping(t_address,t_mapping(t_address,t_uint256))": {
						"encoding": "mapping",
						"key": "t_address",
						"label": "mapping(address => mapping(address => uint256))",
						"numberOfBytes": "32",
						"value": "t_mapping(t_address,t_uint256)"
					},
					"t_mapping(t_address,t_uint256)": {
						"encoding": "mapping",
						"key": "t_address",
						"label": "mapping(address => uint256)",
						"numberOfBytes": "32",
						"value": "t_uint256"
					},
					"t_mapping(t_uint256,t_struct(Product)344_storage)": {
						"encoding": "mapping",
						"key": "t_uint256",
						"label": "mapping(uint256 => struct Marketplace.Product)",
						"numberOfBytes": "32",
						"value": "t_struct(Product)344_storage"
					},
					"t_string_storage": {
						"encoding": "bytes",
						"label": "string",
						"numberOfBytes": "32"
					},
					"t_struct(Product)344_storage": {
						"encoding": "inplace",
						"label": "struct Marketplace.Product",
						"members": [
							{
								"astId": 337,
								"contract": "toy/gusdnr/contracts/store.sol:Marketplace",
								"label": "name",
								"offset": 0,
								"slot": "0",
								"type": "t_string_storage"
							},
							{
								"astId": 339,
								"contract": "toy/gusdnr/contracts/store.sol:Marketplace",
								"label": "price",
								"offset": 0,
								"slot": "1",
								"type": "t_uint256"
							},
							{
								"astId": 341,
								"contract": "toy/gusdnr/contracts/store.sol:Marketplace",
								"label": "forSale",
								"offset": 0,
								"slot": "2",
								"type": "t_bool"
							},
							{
								"astId": 343,
								"contract": "toy/gusdnr/contracts/store.sol:Marketplace",
								"label": "owner",
								"offset": 1,
								"slot": "2",
								"type": "t_address"
							}
						],
						"numberOfBytes": "96"
					},
					"t_uint256": {
						"encoding": "inplace",
						"label": "uint256",
						"numberOfBytes": "32"
					},
					"t_uint8": {
						"encoding": "inplace",
						"label": "uint8",
						"numberOfBytes": "1"
					}
				}
			},
			"userdoc": {
				"kind": "user",
				"methods": {},
				"version": 1
			}
		}
	}
}