{
	"myNFT.sol": {
		"MyNFT": {
			"abi": [
				{
					"inputs": [
						{
							"internalType": "string",
							"name": "_name",
							"type": "string"
						},
						{
							"internalType": "string",
							"name": "_symbol",
							"type": "string"
						}
					],
					"stateMutability": "nonpayable",
					"type": "constructor"
				},
				{
					"inputs": [
						{
							"internalType": "address",
							"name": "sender",
							"type": "address"
						},
						{
							"internalType": "uint256",
							"name": "tokenId",
							"type": "uint256"
						},
						{
							"internalType": "address",
							"name": "owner",
							"type": "address"
						}
					],
					"name": "ERC721IncorrectOwner",
					"type": "error"
				},
				{
					"inputs": [
						{
							"internalType": "address",
							"name": "operator",
							"type": "address"
						},
						{
							"internalType": "uint256",
							"name": "tokenId",
							"type": "uint256"
						}
					],
					"name": "ERC721InsufficientApproval",
					"type": "error"
				},
				{
					"inputs": [
						{
							"internalType": "address",
							"name": "approver",
							"type": "address"
						}
					],
					"name": "ERC721InvalidApprover",
					"type": "error"
				},
				{
					"inputs": [
						{
							"internalType": "address",
							"name": "operator",
							"type": "address"
						}
					],
					"name": "ERC721InvalidOperator",
					"type": "error"
				},
				{
					"inputs": [
						{
							"internalType": "address",
							"name": "owner",
							"type": "address"
						}
					],
					"name": "ERC721InvalidOwner",
					"type": "error"
				},
				{
					"inputs": [
						{
							"internalType": "address",
							"name": "receiver",
							"type": "address"
						}
					],
					"name": "ERC721InvalidReceiver",
					"type": "error"
				},
				{
					"inputs": [
						{
							"internalType": "address",
							"name": "sender",
							"type": "address"
						}
					],
					"name": "ERC721InvalidSender",
					"type": "error"
				},
				{
					"inputs": [
						{
							"internalType": "uint256",
							"name": "tokenId",
							"type": "uint256"
						}
					],
					"name": "ERC721NonexistentToken",
					"type": "error"
				},
				{
					"anonymous": false,
					"inputs": [
						{
							"indexed": true,
							"internalType": "address",
							"name": "owner",
							"type": "address"
						},
						{
							"indexed": true,
							"internalType": "address",
							"name": "approved",
							"type": "address"
						},
						{
							"indexed": true,
							"internalType": "uint256",
							"name": "tokenId",
							"type": "uint256"
						}
					],
					"name": "Approval",
					"type": "event"
				},
				{
					"anonymous": false,
					"inputs": [
						{
							"indexed": true,
							"internalType": "address",
							"name": "owner",
							"type": "address"
						},
						{
							"indexed": true,
							"internalType": "address",
							"name": "operator",
							"type": "address"
						},
						{
							"indexed": false,
							"internalType": "bool",
							"name": "approved",
							"type": "bool"
						}
					],
					"name": "ApprovalForAll",
					"type": "event"
				},
				{
					"anonymous": false,
					"inputs": [
						{
							"indexed": true,
							"internalType": "address",
							"name": "from",
							"type": "address"
						},
						{
							"indexed": true,
							"internalType": "address",
							"name": "to",
							"type": "address"
						},
						{
							"indexed": true,
							"internalType": "uint256",
							"name": "tokenId",
							"type": "uint256"
						}
					],
					"name": "Transfer",
					"type": "event"
				},
				{
					"inputs": [],
					"name": "_totalsupply",
					"outputs": [
						{
							"internalType": "uint256",
							"name": "",
							"type": "uint256"
						}
					],
					"stateMutability": "view",
					"type": "function"
				},
				{
					"inputs": [
						{
							"internalType": "address",
							"name": "to",
							"type": "address"
						},
						{
							"internalType": "uint256",
							"name": "tokenId",
							"type": "uint256"
						}
					],
					"name": "approve",
					"outputs": [],
					"stateMutability": "nonpayable",
					"type": "function"
				},
				{
					"inputs": [
						{
							"internalType": "address",
							"name": "owner",
							"type": "address"
						}
					],
					"name": "balanceOf",
					"outputs": [
						{
							"internalType": "uint256",
							"name": "",
							"type": "uint256"
						}
					],
					"stateMutability": "view",
					"type": "function"
				},
				{
					"inputs": [
						{
							"internalType": "uint256",
							"name": "tokenId",
							"type": "uint256"
						}
					],
					"name": "getApproved",
					"outputs": [
						{
							"internalType": "address",
							"name": "",
							"type": "address"
						}
					],
					"stateMutability": "view",
					"type": "function"
				},
				{
					"inputs": [
						{
							"internalType": "address",
							"name": "owner",
							"type": "address"
						},
						{
							"internalType": "address",
							"name": "operator",
							"type": "address"
						}
					],
					"name": "isApprovedForAll",
					"outputs": [
						{
							"internalType": "bool",
							"name": "",
							"type": "bool"
						}
					],
					"stateMutability": "view",
					"type": "function"
				},
				{
					"inputs": [
						{
							"internalType": "uint256",
							"name": "_tokenId",
							"type": "uint256"
						},
						{
							"internalType": "string",
							"name": "tokenURI",
							"type": "string"
						}
					],
					"name": "minting",
					"outputs": [],
					"stateMutability": "nonpayable",
					"type": "function"
				},
				{
					"inputs": [
						{
							"internalType": "address",
							"name": "owner",
							"type": "address"
						}
					],
					"name": "msgsenderOwntoken",
					"outputs": [
						{
							"internalType": "uint256[]",
							"name": "",
							"type": "uint256[]"
						}
					],
					"stateMutability": "view",
					"type": "function"
				},
				{
					"inputs": [],
					"name": "name",
					"outputs": [
						{
							"internalType": "string",
							"name": "",
							"type": "string"
						}
					],
					"stateMutability": "view",
					"type": "function"
				},
				{
					"inputs": [
						{
							"internalType": "uint256",
							"name": "tokenId",
							"type": "uint256"
						}
					],
					"name": "ownerOf",
					"outputs": [
						{
							"internalType": "address",
							"name": "",
							"type": "address"
						}
					],
					"stateMutability": "view",
					"type": "function"
				},
				{
					"inputs": [
						{
							"internalType": "address",
							"name": "from",
							"type": "address"
						},
						{
							"internalType": "address",
							"name": "to",
							"type": "address"
						},
						{
							"internalType": "uint256",
							"name": "tokenId",
							"type": "uint256"
						}
					],
					"name": "safeTransferFrom",
					"outputs": [],
					"stateMutability": "nonpayable",
					"type": "function"
				},
				{
					"inputs": [
						{
							"internalType": "address",
							"name": "from",
							"type": "address"
						},
						{
							"internalType": "address",
							"name": "to",
							"type": "address"
						},
						{
							"internalType": "uint256",
							"name": "tokenId",
							"type": "uint256"
						},
						{
							"internalType": "bytes",
							"name": "data",
							"type": "bytes"
						}
					],
					"name": "safeTransferFrom",
					"outputs": [],
					"stateMutability": "nonpayable",
					"type": "function"
				},
				{
					"inputs": [
						{
							"internalType": "address",
							"name": "owner",
							"type": "address"
						},
						{
							"internalType": "address",
							"name": "operator",
							"type": "address"
						},
						{
							"internalType": "bool",
							"name": "approved",
							"type": "bool"
						}
					],
					"name": "setAppAll",
					"outputs": [],
					"stateMutability": "nonpayable",
					"type": "function"
				},
				{
					"inputs": [
						{
							"internalType": "address",
							"name": "operator",
							"type": "address"
						},
						{
							"internalType": "bool",
							"name": "approved",
							"type": "bool"
						}
					],
					"name": "setApprovalForAll",
					"outputs": [],
					"stateMutability": "nonpayable",
					"type": "function"
				},
				{
					"inputs": [],
					"name": "showtotalsupply",
					"outputs": [
						{
							"internalType": "uint256",
							"name": "",
							"type": "uint256"
						}
					],
					"stateMutability": "view",
					"type": "function"
				},
				{
					"inputs": [
						{
							"internalType": "bytes4",
							"name": "interfaceId",
							"type": "bytes4"
						}
					],
					"name": "supportsInterface",
					"outputs": [
						{
							"internalType": "bool",
							"name": "",
							"type": "bool"
						}
					],
					"stateMutability": "view",
					"type": "function"
				},
				{
					"inputs": [],
					"name": "symbol",
					"outputs": [
						{
							"internalType": "string",
							"name": "",
							"type": "string"
						}
					],
					"stateMutability": "view",
					"type": "function"
				},
				{
					"inputs": [
						{
							"internalType": "uint256",
							"name": "_tokenId",
							"type": "uint256"
						}
					],
					"name": "tokenURI",
					"outputs": [
						{
							"internalType": "string",
							"name": "",
							"type": "string"
						}
					],
					"stateMutability": "view",
					"type": "function"
				},
				{
					"inputs": [
						{
							"internalType": "address",
							"name": "from",
							"type": "address"
						},
						{
							"internalType": "address",
							"name": "to",
							"type": "address"
						},
						{
							"internalType": "uint256",
							"name": "tokenId",
							"type": "uint256"
						}
					],
					"name": "transferFrom",
					"outputs": [],
					"stateMutability": "nonpayable",
					"type": "function"
				},
				{
					"inputs": [
						{
							"internalType": "string",
							"name": "_url",
							"type": "string"
						}
					],
					"name": "urlmaker",
					"outputs": [
						{
							"internalType": "string",
							"name": "",
							"type": "string"
						}
					],
					"stateMutability": "view",
					"type": "function"
				}
			],
			"devdoc": {
				"errors": {
					"ERC721IncorrectOwner(address,uint256,address)": [
						{
							"details": "Indicates an error related to the ownership over a particular token. Used in transfers.",
							"params": {
								"owner": "Address of the current owner of a token.",
								"sender": "Address whose tokens are being transferred.",
								"tokenId": "Identifier number of a token."
							}
						}
					],
					"ERC721InsufficientApproval(address,uint256)": [
						{
							"details": "Indicates a failure with the `operator`’s approval. Used in transfers.",
							"params": {
								"operator": "Address that may be allowed to operate on tokens without being their owner.",
								"tokenId": "Identifier number of a token."
							}
						}
					],
					"ERC721InvalidApprover(address)": [
						{
							"details": "Indicates a failure with the `approver` of a token to be approved. Used in approvals.",
							"params": {
								"approver": "Address initiating an approval operation."
							}
						}
					],
					"ERC721InvalidOperator(address)": [
						{
							"details": "Indicates a failure with the `operator` to be approved. Used in approvals.",
							"params": {
								"operator": "Address that may be allowed to operate on tokens without being their owner."
							}
						}
					],
					"ERC721InvalidOwner(address)": [
						{
							"details": "Indicates that an address can't be an owner. For example, `address(0)` is a forbidden owner in EIP-20. Used in balance queries.",
							"params": {
								"owner": "Address of the current owner of a token."
							}
						}
					],
					"ERC721InvalidReceiver(address)": [
						{
							"details": "Indicates a failure with the token `receiver`. Used in transfers.",
							"params": {
								"receiver": "Address to which tokens are being transferred."
							}
						}
					],
					"ERC721InvalidSender(address)": [
						{
							"details": "Indicates a failure with the token `sender`. Used in transfers.",
							"params": {
								"sender": "Address whose tokens are being transferred."
							}
						}
					],
					"ERC721NonexistentToken(uint256)": [
						{
							"details": "Indicates a `tokenId` whose `owner` is the zero address.",
							"params": {
								"tokenId": "Identifier number of a token."
							}
						}
					]
				},
				"events": {
					"Approval(address,address,uint256)": {
						"details": "Emitted when `owner` enables `approved` to manage the `tokenId` token."
					},
					"ApprovalForAll(address,address,bool)": {
						"details": "Emitted when `owner` enables or disables (`approved`) `operator` to manage all of its assets."
					},
					"Transfer(address,address,uint256)": {
						"details": "Emitted when `tokenId` token is transferred from `from` to `to`."
					}
				},
				"kind": "dev",
				"methods": {
					"approve(address,uint256)": {
						"details": "See {IERC721-approve}."
					},
					"balanceOf(address)": {
						"details": "See {IERC721-balanceOf}."
					},
					"getApproved(uint256)": {
						"details": "See {IERC721-getApproved}."
					},
					"isApprovedForAll(address,address)": {
						"details": "See {IERC721-isApprovedForAll}."
					},
					"name()": {
						"details": "See {IERC721Metadata-name}."
					},
					"ownerOf(uint256)": {
						"details": "See {IERC721-ownerOf}."
					},
					"safeTransferFrom(address,address,uint256)": {
						"details": "See {IERC721-safeTransferFrom}."
					},
					"safeTransferFrom(address,address,uint256,bytes)": {
						"details": "See {IERC721-safeTransferFrom}."
					},
					"setApprovalForAll(address,bool)": {
						"details": "See {IERC721-setApprovalForAll}."
					},
					"supportsInterface(bytes4)": {
						"details": "See {IERC165-supportsInterface}."
					},
					"symbol()": {
						"details": "See {IERC721Metadata-symbol}."
					},
					"transferFrom(address,address,uint256)": {
						"details": "See {IERC721-transferFrom}."
					}
				},
				"version": 1
			},
			"evm": {
				"assembly": "    /* \"myNFT.sol\":129:1218  contract MyNFT is ERC721{... */\n  mstore(0x40, 0x80)\n    /* \"myNFT.sol\":157:235  constructor(string memory _name,string memory _symbol) ERC721(_name,_symbol){} */\n  callvalue\n  dup1\n  iszero\n  tag_1\n  jumpi\n  0x00\n  dup1\n  revert\ntag_1:\n  pop\n  mload(0x40)\n  sub(codesize, bytecodeSize)\n  dup1\n  bytecodeSize\n  dup4\n  codecopy\n  dup2\n  dup2\n  add\n  0x40\n  mstore\n  dup2\n  add\n  swap1\n  tag_2\n  swap2\n  swap1\n  tag_3\n  jump\t// in\ntag_2:\n    /* \"myNFT.sol\":219:224  _name */\n  dup2\n    /* \"myNFT.sol\":225:232  _symbol */\n  dup2\n    /* \"node_modules/@openzeppelin/contracts/token/ERC721/ERC721.sol\":2009:2014  name_ */\n  dup2\n    /* \"node_modules/@openzeppelin/contracts/token/ERC721/ERC721.sol\":2001:2006  _name */\n  0x00\n    /* \"node_modules/@openzeppelin/contracts/token/ERC721/ERC721.sol\":2001:2014  _name = name_ */\n  swap1\n  dup2\n  tag_7\n  swap2\n  swap1\n  tag_8\n  jump\t// in\ntag_7:\n  pop\n    /* \"node_modules/@openzeppelin/contracts/token/ERC721/ERC721.sol\":2034:2041  symbol_ */\n  dup1\n    /* \"node_modules/@openzeppelin/contracts/token/ERC721/ERC721.sol\":2024:2031  _symbol */\n  0x01\n    /* \"node_modules/@openzeppelin/contracts/token/ERC721/ERC721.sol\":2024:2041  _symbol = symbol_ */\n  swap1\n  dup2\n  tag_9\n  swap2\n  swap1\n  tag_8\n  jump\t// in\ntag_9:\n  pop\n    /* \"node_modules/@openzeppelin/contracts/token/ERC721/ERC721.sol\":2064:2065  0 */\n  0x00\n    /* \"node_modules/@openzeppelin/contracts/token/ERC721/ERC721.sol\":2051:2063  _totalsupply */\n  0x02\n    /* \"node_modules/@openzeppelin/contracts/token/ERC721/ERC721.sol\":2051:2065  _totalsupply=0 */\n  dup2\n  swap1\n  sstore\n  pop\n    /* \"node_modules/@openzeppelin/contracts/token/ERC721/ERC721.sol\":1935:2072  constructor(string memory name_, string memory symbol_) {... */\n  pop\n  pop\n    /* \"myNFT.sol\":157:235  constructor(string memory _name,string memory _symbol) ERC721(_name,_symbol){} */\n  pop\n  pop\n    /* \"myNFT.sol\":129:1218  contract MyNFT is ERC721{... */\n  jump(tag_11)\n    /* \"#utility.yul\":7:82   */\ntag_12:\n    /* \"#utility.yul\":40:46   */\n  0x00\n    /* \"#utility.yul\":73:75   */\n  0x40\n    /* \"#utility.yul\":67:76   */\n  mload\n    /* \"#utility.yul\":57:76   */\n  swap1\n  pop\n    /* \"#utility.yul\":7:82   */\n  swap1\n  jump\t// out\n    /* \"#utility.yul\":88:205   */\ntag_13:\n    /* \"#utility.yul\":197:198   */\n  0x00\n    /* \"#utility.yul\":194:195   */\n  dup1\n    /* \"#utility.yul\":187:199   */\n  revert\n    /* \"#utility.yul\":211:328   */\ntag_14:\n    /* \"#utility.yul\":320:321   */\n  0x00\n    /* \"#utility.yul\":317:318   */\n  dup1\n    /* \"#utility.yul\":310:322   */\n  revert\n    /* \"#utility.yul\":334:451   */\ntag_15:\n    /* \"#utility.yul\":443:444   */\n  0x00\n    /* \"#utility.yul\":440:441   */\n  dup1\n    /* \"#utility.yul\":433:445   */\n  revert\n    /* \"#utility.yul\":457:574   */\ntag_16:\n    /* \"#utility.yul\":566:567   */\n  0x00\n    /* \"#utility.yul\":563:564   */\n  dup1\n    /* \"#utility.yul\":556:568   */\n  revert\n    /* \"#utility.yul\":580:682   */\ntag_17:\n    /* \"#utility.yul\":621:627   */\n  0x00\n    /* \"#utility.yul\":672:674   */\n  0x1f\n    /* \"#utility.yul\":668:675   */\n  not\n    /* \"#utility.yul\":663:665   */\n  0x1f\n    /* \"#utility.yul\":656:661   */\n  dup4\n    /* \"#utility.yul\":652:666   */\n  add\n    /* \"#utility.yul\":648:676   */\n  and\n    /* \"#utility.yul\":638:676   */\n  swap1\n  pop\n    /* \"#utility.yul\":580:682   */\n  swap2\n  swap1\n  pop\n  jump\t// out\n    /* \"#utility.yul\":688:868   */\ntag_18:\n    /* \"#utility.yul\":736:813   */\n  0x4e487b7100000000000000000000000000000000000000000000000000000000\n    /* \"#utility.yul\":733:734   */\n  0x00\n    /* \"#utility.yul\":726:814   */\n  mstore\n    /* \"#utility.yul\":833:837   */\n  0x41\n    /* \"#utility.yul\":830:831   */\n  0x04\n    /* \"#utility.yul\":823:838   */\n  mstore\n    /* \"#utility.yul\":857:861   */\n  0x24\n    /* \"#utility.yul\":854:855   */\n  0x00\n    /* \"#utility.yul\":847:862   */\n  revert\n    /* \"#utility.yul\":874:1155   */\ntag_19:\n    /* \"#utility.yul\":957:984   */\n  tag_53\n    /* \"#utility.yul\":979:983   */\n  dup3\n    /* \"#utility.yul\":957:984   */\n  tag_17\n  jump\t// in\ntag_53:\n    /* \"#utility.yul\":949:955   */\n  dup2\n    /* \"#utility.yul\":945:985   */\n  add\n    /* \"#utility.yul\":1087:1093   */\n  dup2\n    /* \"#utility.yul\":1075:1085   */\n  dup2\n    /* \"#utility.yul\":1072:1094   */\n  lt\n    /* \"#utility.yul\":1051:1069   */\n  0xffffffffffffffff\n    /* \"#utility.yul\":1039:1049   */\n  dup3\n    /* \"#utility.yul\":1036:1070   */\n  gt\n    /* \"#utility.yul\":1033:1095   */\n  or\n    /* \"#utility.yul\":1030:1118   */\n  iszero\n  tag_54\n  jumpi\n    /* \"#utility.yul\":1098:1116   */\n  tag_55\n  tag_18\n  jump\t// in\ntag_55:\n    /* \"#utility.yul\":1030:1118   */\ntag_54:\n    /* \"#utility.yul\":1138:1148   */\n  dup1\n    /* \"#utility.yul\":1134:1136   */\n  0x40\n    /* \"#utility.yul\":1127:1149   */\n  mstore\n    /* \"#utility.yul\":917:1155   */\n  pop\n    /* \"#utility.yul\":874:1155   */\n  pop\n  pop\n  jump\t// out\n    /* \"#utility.yul\":1161:1290   */\ntag_20:\n    /* \"#utility.yul\":1195:1201   */\n  0x00\n    /* \"#utility.yul\":1222:1242   */\n  tag_57\n  tag_12\n  jump\t// in\ntag_57:\n    /* \"#utility.yul\":1212:1242   */\n  swap1\n  pop\n    /* \"#utility.yul\":1251:1284   */\n  tag_58\n    /* \"#utility.yul\":1279:1283   */\n  dup3\n    /* \"#utility.yul\":1271:1277   */\n  dup3\n    /* \"#utility.yul\":1251:1284   */\n  tag_19\n  jump\t// in\ntag_58:\n    /* \"#utility.yul\":1161:1290   */\n  swap2\n  swap1\n  pop\n  jump\t// out\n    /* \"#utility.yul\":1296:1604   */\ntag_21:\n    /* \"#utility.yul\":1358:1362   */\n  0x00\n    /* \"#utility.yul\":1448:1466   */\n  0xffffffffffffffff\n    /* \"#utility.yul\":1440:1446   */\n  dup3\n    /* \"#utility.yul\":1437:1467   */\n  gt\n    /* \"#utility.yul\":1434:1490   */\n  iszero\n  tag_60\n  jumpi\n    /* \"#utility.yul\":1470:1488   */\n  tag_61\n  tag_18\n  jump\t// in\ntag_61:\n    /* \"#utility.yul\":1434:1490   */\ntag_60:\n    /* \"#utility.yul\":1508:1537   */\n  tag_62\n    /* \"#utility.yul\":1530:1536   */\n  dup3\n    /* \"#utility.yul\":1508:1537   */\n  tag_17\n  jump\t// in\ntag_62:\n    /* \"#utility.yul\":1500:1537   */\n  swap1\n  pop\n    /* \"#utility.yul\":1592:1596   */\n  0x20\n    /* \"#utility.yul\":1586:1590   */\n  dup2\n    /* \"#utility.yul\":1582:1597   */\n  add\n    /* \"#utility.yul\":1574:1597   */\n  swap1\n  pop\n    /* \"#utility.yul\":1296:1604   */\n  swap2\n  swap1\n  pop\n  jump\t// out\n    /* \"#utility.yul\":1610:1856   */\ntag_22:\n    /* \"#utility.yul\":1691:1692   */\n  0x00\n    /* \"#utility.yul\":1701:1814   */\ntag_64:\n    /* \"#utility.yul\":1715:1721   */\n  dup4\n    /* \"#utility.yul\":1712:1713   */\n  dup2\n    /* \"#utility.yul\":1709:1722   */\n  lt\n    /* \"#utility.yul\":1701:1814   */\n  iszero\n  tag_66\n  jumpi\n    /* \"#utility.yul\":1800:1801   */\n  dup1\n    /* \"#utility.yul\":1795:1798   */\n  dup3\n    /* \"#utility.yul\":1791:1802   */\n  add\n    /* \"#utility.yul\":1785:1803   */\n  mload\n    /* \"#utility.yul\":1781:1782   */\n  dup2\n    /* \"#utility.yul\":1776:1779   */\n  dup5\n    /* \"#utility.yul\":1772:1783   */\n  add\n    /* \"#utility.yul\":1765:1804   */\n  mstore\n    /* \"#utility.yul\":1737:1739   */\n  0x20\n    /* \"#utility.yul\":1734:1735   */\n  dup2\n    /* \"#utility.yul\":1730:1740   */\n  add\n    /* \"#utility.yul\":1725:1740   */\n  swap1\n  pop\n    /* \"#utility.yul\":1701:1814   */\n  jump(tag_64)\ntag_66:\n    /* \"#utility.yul\":1848:1849   */\n  0x00\n    /* \"#utility.yul\":1839:1845   */\n  dup5\n    /* \"#utility.yul\":1834:1837   */\n  dup5\n    /* \"#utility.yul\":1830:1846   */\n  add\n    /* \"#utility.yul\":1823:1850   */\n  mstore\n    /* \"#utility.yul\":1672:1856   */\n  pop\n    /* \"#utility.yul\":1610:1856   */\n  pop\n  pop\n  pop\n  jump\t// out\n    /* \"#utility.yul\":1862:2296   */\ntag_23:\n    /* \"#utility.yul\":1951:1956   */\n  0x00\n    /* \"#utility.yul\":1976:2042   */\n  tag_68\n    /* \"#utility.yul\":1992:2041   */\n  tag_69\n    /* \"#utility.yul\":2034:2040   */\n  dup5\n    /* \"#utility.yul\":1992:2041   */\n  tag_21\n  jump\t// in\ntag_69:\n    /* \"#utility.yul\":1976:2042   */\n  tag_20\n  jump\t// in\ntag_68:\n    /* \"#utility.yul\":1967:2042   */\n  swap1\n  pop\n    /* \"#utility.yul\":2065:2071   */\n  dup3\n    /* \"#utility.yul\":2058:2063   */\n  dup2\n    /* \"#utility.yul\":2051:2072   */\n  mstore\n    /* \"#utility.yul\":2103:2107   */\n  0x20\n    /* \"#utility.yul\":2096:2101   */\n  dup2\n    /* \"#utility.yul\":2092:2108   */\n  add\n    /* \"#utility.yul\":2141:2144   */\n  dup5\n    /* \"#utility.yul\":2132:2138   */\n  dup5\n    /* \"#utility.yul\":2127:2130   */\n  dup5\n    /* \"#utility.yul\":2123:2139   */\n  add\n    /* \"#utility.yul\":2120:2145   */\n  gt\n    /* \"#utility.yul\":2117:2229   */\n  iszero\n  tag_70\n  jumpi\n    /* \"#utility.yul\":2148:2227   */\n  tag_71\n  tag_16\n  jump\t// in\ntag_71:\n    /* \"#utility.yul\":2117:2229   */\ntag_70:\n    /* \"#utility.yul\":2238:2290   */\n  tag_72\n    /* \"#utility.yul\":2283:2289   */\n  dup5\n    /* \"#utility.yul\":2278:2281   */\n  dup3\n    /* \"#utility.yul\":2273:2276   */\n  dup6\n    /* \"#utility.yul\":2238:2290   */\n  tag_22\n  jump\t// in\ntag_72:\n    /* \"#utility.yul\":1957:2296   */\n  pop\n    /* \"#utility.yul\":1862:2296   */\n  swap4\n  swap3\n  pop\n  pop\n  pop\n  jump\t// out\n    /* \"#utility.yul\":2316:2671   */\ntag_24:\n    /* \"#utility.yul\":2383:2388   */\n  0x00\n    /* \"#utility.yul\":2432:2435   */\n  dup3\n    /* \"#utility.yul\":2425:2429   */\n  0x1f\n    /* \"#utility.yul\":2417:2423   */\n  dup4\n    /* \"#utility.yul\":2413:2430   */\n  add\n    /* \"#utility.yul\":2409:2436   */\n  slt\n    /* \"#utility.yul\":2399:2521   */\n  tag_74\n  jumpi\n    /* \"#utility.yul\":2440:2519   */\n  tag_75\n  tag_15\n  jump\t// in\ntag_75:\n    /* \"#utility.yul\":2399:2521   */\ntag_74:\n    /* \"#utility.yul\":2550:2556   */\n  dup2\n    /* \"#utility.yul\":2544:2557   */\n  mload\n    /* \"#utility.yul\":2575:2665   */\n  tag_76\n    /* \"#utility.yul\":2661:2664   */\n  dup5\n    /* \"#utility.yul\":2653:2659   */\n  dup3\n    /* \"#utility.yul\":2646:2650   */\n  0x20\n    /* \"#utility.yul\":2638:2644   */\n  dup7\n    /* \"#utility.yul\":2634:2651   */\n  add\n    /* \"#utility.yul\":2575:2665   */\n  tag_23\n  jump\t// in\ntag_76:\n    /* \"#utility.yul\":2566:2665   */\n  swap2\n  pop\n    /* \"#utility.yul\":2389:2671   */\n  pop\n    /* \"#utility.yul\":2316:2671   */\n  swap3\n  swap2\n  pop\n  pop\n  jump\t// out\n    /* \"#utility.yul\":2677:3530   */\ntag_3:\n    /* \"#utility.yul\":2776:2782   */\n  0x00\n    /* \"#utility.yul\":2784:2790   */\n  dup1\n    /* \"#utility.yul\":2833:2835   */\n  0x40\n    /* \"#utility.yul\":2821:2830   */\n  dup4\n    /* \"#utility.yul\":2812:2819   */\n  dup6\n    /* \"#utility.yul\":2808:2831   */\n  sub\n    /* \"#utility.yul\":2804:2836   */\n  slt\n    /* \"#utility.yul\":2801:2920   */\n  iszero\n  tag_78\n  jumpi\n    /* \"#utility.yul\":2839:2918   */\n  tag_79\n  tag_13\n  jump\t// in\ntag_79:\n    /* \"#utility.yul\":2801:2920   */\ntag_78:\n    /* \"#utility.yul\":2980:2981   */\n  0x00\n    /* \"#utility.yul\":2969:2978   */\n  dup4\n    /* \"#utility.yul\":2965:2982   */\n  add\n    /* \"#utility.yul\":2959:2983   */\n  mload\n    /* \"#utility.yul\":3010:3028   */\n  0xffffffffffffffff\n    /* \"#utility.yul\":3002:3008   */\n  dup2\n    /* \"#utility.yul\":2999:3029   */\n  gt\n    /* \"#utility.yul\":2996:3113   */\n  iszero\n  tag_80\n  jumpi\n    /* \"#utility.yul\":3032:3111   */\n  tag_81\n  tag_14\n  jump\t// in\ntag_81:\n    /* \"#utility.yul\":2996:3113   */\ntag_80:\n    /* \"#utility.yul\":3137:3211   */\n  tag_82\n    /* \"#utility.yul\":3203:3210   */\n  dup6\n    /* \"#utility.yul\":3194:3200   */\n  dup3\n    /* \"#utility.yul\":3183:3192   */\n  dup7\n    /* \"#utility.yul\":3179:3201   */\n  add\n    /* \"#utility.yul\":3137:3211   */\n  tag_24\n  jump\t// in\ntag_82:\n    /* \"#utility.yul\":3127:3211   */\n  swap3\n  pop\n    /* \"#utility.yul\":2930:3221   */\n  pop\n    /* \"#utility.yul\":3281:3283   */\n  0x20\n    /* \"#utility.yul\":3270:3279   */\n  dup4\n    /* \"#utility.yul\":3266:3284   */\n  add\n    /* \"#utility.yul\":3260:3285   */\n  mload\n    /* \"#utility.yul\":3312:3330   */\n  0xffffffffffffffff\n    /* \"#utility.yul\":3304:3310   */\n  dup2\n    /* \"#utility.yul\":3301:3331   */\n  gt\n    /* \"#utility.yul\":3298:3415   */\n  iszero\n  tag_83\n  jumpi\n    /* \"#utility.yul\":3334:3413   */\n  tag_84\n  tag_14\n  jump\t// in\ntag_84:\n    /* \"#utility.yul\":3298:3415   */\ntag_83:\n    /* \"#utility.yul\":3439:3513   */\n  tag_85\n    /* \"#utility.yul\":3505:3512   */\n  dup6\n    /* \"#utility.yul\":3496:3502   */\n  dup3\n    /* \"#utility.yul\":3485:3494   */\n  dup7\n    /* \"#utility.yul\":3481:3503   */\n  add\n    /* \"#utility.yul\":3439:3513   */\n  tag_24\n  jump\t// in\ntag_85:\n    /* \"#utility.yul\":3429:3513   */\n  swap2\n  pop\n    /* \"#utility.yul\":3231:3523   */\n  pop\n    /* \"#utility.yul\":2677:3530   */\n  swap3\n  pop\n  swap3\n  swap1\n  pop\n  jump\t// out\n    /* \"#utility.yul\":3536:3635   */\ntag_25:\n    /* \"#utility.yul\":3588:3594   */\n  0x00\n    /* \"#utility.yul\":3622:3627   */\n  dup2\n    /* \"#utility.yul\":3616:3628   */\n  mload\n    /* \"#utility.yul\":3606:3628   */\n  swap1\n  pop\n    /* \"#utility.yul\":3536:3635   */\n  swap2\n  swap1\n  pop\n  jump\t// out\n    /* \"#utility.yul\":3641:3821   */\ntag_26:\n    /* \"#utility.yul\":3689:3766   */\n  0x4e487b7100000000000000000000000000000000000000000000000000000000\n    /* \"#utility.yul\":3686:3687   */\n  0x00\n    /* \"#utility.yul\":3679:3767   */\n  mstore\n    /* \"#utility.yul\":3786:3790   */\n  0x22\n    /* \"#utility.yul\":3783:3784   */\n  0x04\n    /* \"#utility.yul\":3776:3791   */\n  mstore\n    /* \"#utility.yul\":3810:3814   */\n  0x24\n    /* \"#utility.yul\":3807:3808   */\n  0x00\n    /* \"#utility.yul\":3800:3815   */\n  revert\n    /* \"#utility.yul\":3827:4147   */\ntag_27:\n    /* \"#utility.yul\":3871:3877   */\n  0x00\n    /* \"#utility.yul\":3908:3909   */\n  0x02\n    /* \"#utility.yul\":3902:3906   */\n  dup3\n    /* \"#utility.yul\":3898:3910   */\n  div\n    /* \"#utility.yul\":3888:3910   */\n  swap1\n  pop\n    /* \"#utility.yul\":3955:3956   */\n  0x01\n    /* \"#utility.yul\":3949:3953   */\n  dup3\n    /* \"#utility.yul\":3945:3957   */\n  and\n    /* \"#utility.yul\":3976:3994   */\n  dup1\n    /* \"#utility.yul\":3966:4047   */\n  tag_89\n  jumpi\n    /* \"#utility.yul\":4032:4036   */\n  0x7f\n    /* \"#utility.yul\":4024:4030   */\n  dup3\n    /* \"#utility.yul\":4020:4037   */\n  and\n    /* \"#utility.yul\":4010:4037   */\n  swap2\n  pop\n    /* \"#utility.yul\":3966:4047   */\ntag_89:\n    /* \"#utility.yul\":4094:4096   */\n  0x20\n    /* \"#utility.yul\":4086:4092   */\n  dup3\n    /* \"#utility.yul\":4083:4097   */\n  lt\n    /* \"#utility.yul\":4063:4081   */\n  dup2\n    /* \"#utility.yul\":4060:4098   */\n  sub\n    /* \"#utility.yul\":4057:4141   */\n  tag_90\n  jumpi\n    /* \"#utility.yul\":4113:4131   */\n  tag_91\n  tag_26\n  jump\t// in\ntag_91:\n    /* \"#utility.yul\":4057:4141   */\ntag_90:\n    /* \"#utility.yul\":3878:4147   */\n  pop\n    /* \"#utility.yul\":3827:4147   */\n  swap2\n  swap1\n  pop\n  jump\t// out\n    /* \"#utility.yul\":4153:4294   */\ntag_28:\n    /* \"#utility.yul\":4202:4206   */\n  0x00\n    /* \"#utility.yul\":4225:4228   */\n  dup2\n    /* \"#utility.yul\":4217:4228   */\n  swap1\n  pop\n    /* \"#utility.yul\":4248:4251   */\n  dup2\n    /* \"#utility.yul\":4245:4246   */\n  0x00\n    /* \"#utility.yul\":4238:4252   */\n  mstore\n    /* \"#utility.yul\":4282:4286   */\n  0x20\n    /* \"#utility.yul\":4279:4280   */\n  0x00\n    /* \"#utility.yul\":4269:4287   */\n  keccak256\n    /* \"#utility.yul\":4261:4287   */\n  swap1\n  pop\n    /* \"#utility.yul\":4153:4294   */\n  swap2\n  swap1\n  pop\n  jump\t// out\n    /* \"#utility.yul\":4300:4393   */\ntag_29:\n    /* \"#utility.yul\":4337:4343   */\n  0x00\n    /* \"#utility.yul\":4384:4386   */\n  0x20\n    /* \"#utility.yul\":4379:4381   */\n  0x1f\n    /* \"#utility.yul\":4372:4377   */\n  dup4\n    /* \"#utility.yul\":4368:4382   */\n  add\n    /* \"#utility.yul\":4364:4387   */\n  div\n    /* \"#utility.yul\":4354:4387   */\n  swap1\n  pop\n    /* \"#utility.yul\":4300:4393   */\n  swap2\n  swap1\n  pop\n  jump\t// out\n    /* \"#utility.yul\":4399:4506   */\ntag_30:\n    /* \"#utility.yul\":4443:4451   */\n  0x00\n    /* \"#utility.yul\":4493:4498   */\n  dup3\n    /* \"#utility.yul\":4487:4491   */\n  dup3\n    /* \"#utility.yul\":4483:4499   */\n  shl\n    /* \"#utility.yul\":4462:4499   */\n  swap1\n  pop\n    /* \"#utility.yul\":4399:4506   */\n  swap3\n  swap2\n  pop\n  pop\n  jump\t// out\n    /* \"#utility.yul\":4512:4905   */\ntag_31:\n    /* \"#utility.yul\":4581:4587   */\n  0x00\n    /* \"#utility.yul\":4631:4632   */\n  0x08\n    /* \"#utility.yul\":4619:4629   */\n  dup4\n    /* \"#utility.yul\":4615:4633   */\n  mul\n    /* \"#utility.yul\":4654:4751   */\n  tag_96\n    /* \"#utility.yul\":4684:4750   */\n  0xffffffffffffffffffffffffffffffffffffffffffffffffffffffffffffffff\n    /* \"#utility.yul\":4673:4682   */\n  dup3\n    /* \"#utility.yul\":4654:4751   */\n  tag_30\n  jump\t// in\ntag_96:\n    /* \"#utility.yul\":4772:4811   */\n  tag_97\n    /* \"#utility.yul\":4802:4810   */\n  dup7\n    /* \"#utility.yul\":4791:4800   */\n  dup4\n    /* \"#utility.yul\":4772:4811   */\n  tag_30\n  jump\t// in\ntag_97:\n    /* \"#utility.yul\":4760:4811   */\n  swap6\n  pop\n    /* \"#utility.yul\":4844:4848   */\n  dup1\n    /* \"#utility.yul\":4840:4849   */\n  not\n    /* \"#utility.yul\":4833:4838   */\n  dup5\n    /* \"#utility.yul\":4829:4850   */\n  and\n    /* \"#utility.yul\":4820:4850   */\n  swap4\n  pop\n    /* \"#utility.yul\":4893:4897   */\n  dup1\n    /* \"#utility.yul\":4883:4891   */\n  dup7\n    /* \"#utility.yul\":4879:4898   */\n  and\n    /* \"#utility.yul\":4872:4877   */\n  dup5\n    /* \"#utility.yul\":4869:4899   */\n  or\n    /* \"#utility.yul\":4859:4899   */\n  swap3\n  pop\n    /* \"#utility.yul\":4588:4905   */\n  pop\n  pop\n    /* \"#utility.yul\":4512:4905   */\n  swap4\n  swap3\n  pop\n  pop\n  pop\n  jump\t// out\n    /* \"#utility.yul\":4911:4988   */\ntag_32:\n    /* \"#utility.yul\":4948:4955   */\n  0x00\n    /* \"#utility.yul\":4977:4982   */\n  dup2\n    /* \"#utility.yul\":4966:4982   */\n  swap1\n  pop\n    /* \"#utility.yul\":4911:4988   */\n  swap2\n  swap1\n  pop\n  jump\t// out\n    /* \"#utility.yul\":4994:5054   */\ntag_33:\n    /* \"#utility.yul\":5022:5025   */\n  0x00\n    /* \"#utility.yul\":5043:5048   */\n  dup2\n    /* \"#utility.yul\":5036:5048   */\n  swap1\n  pop\n    /* \"#utility.yul\":4994:5054   */\n  swap2\n  swap1\n  pop\n  jump\t// out\n    /* \"#utility.yul\":5060:5202   */\ntag_34:\n    /* \"#utility.yul\":5110:5119   */\n  0x00\n    /* \"#utility.yul\":5143:5196   */\n  tag_101\n    /* \"#utility.yul\":5161:5195   */\n  tag_102\n    /* \"#utility.yul\":5170:5194   */\n  tag_103\n    /* \"#utility.yul\":5188:5193   */\n  dup5\n    /* \"#utility.yul\":5170:5194   */\n  tag_32\n  jump\t// in\ntag_103:\n    /* \"#utility.yul\":5161:5195   */\n  tag_33\n  jump\t// in\ntag_102:\n    /* \"#utility.yul\":5143:5196   */\n  tag_32\n  jump\t// in\ntag_101:\n    /* \"#utility.yul\":5130:5196   */\n  swap1\n  pop\n    /* \"#utility.yul\":5060:5202   */\n  swap2\n  swap1\n  pop\n  jump\t// out\n    /* \"#utility.yul\":5208:5283   */\ntag_35:\n    /* \"#utility.yul\":5251:5254   */\n  0x00\n    /* \"#utility.yul\":5272:5277   */\n  dup2\n    /* \"#utility.yul\":5265:5277   */\n  swap1\n  pop\n    /* \"#utility.yul\":5208:5283   */\n  swap2\n  swap1\n  pop\n  jump\t// out\n    /* \"#utility.yul\":5289:5558   */\ntag_36:\n    /* \"#utility.yul\":5399:5438   */\n  tag_106\n    /* \"#utility.yul\":5430:5437   */\n  dup4\n    /* \"#utility.yul\":5399:5438   */\n  tag_34\n  jump\t// in\ntag_106:\n    /* \"#utility.yul\":5460:5551   */\n  tag_107\n    /* \"#utility.yul\":5509:5550   */\n  tag_108\n    /* \"#utility.yul\":5533:5549   */\n  dup3\n    /* \"#utility.yul\":5509:5550   */\n  tag_35\n  jump\t// in\ntag_108:\n    /* \"#utility.yul\":5501:5507   */\n  dup5\n    /* \"#utility.yul\":5494:5498   */\n  dup5\n    /* \"#utility.yul\":5488:5499   */\n  sload\n    /* \"#utility.yul\":5460:5551   */\n  tag_31\n  jump\t// in\ntag_107:\n    /* \"#utility.yul\":5454:5458   */\n  dup3\n    /* \"#utility.yul\":5447:5552   */\n  sstore\n    /* \"#utility.yul\":5365:5558   */\n  pop\n    /* \"#utility.yul\":5289:5558   */\n  pop\n  pop\n  pop\n  jump\t// out\n    /* \"#utility.yul\":5564:5637   */\ntag_37:\n    /* \"#utility.yul\":5609:5612   */\n  0x00\n    /* \"#utility.yul\":5564:5637   */\n  swap1\n  jump\t// out\n    /* \"#utility.yul\":5643:5832   */\ntag_38:\n    /* \"#utility.yul\":5720:5752   */\n  tag_111\n  tag_37\n  jump\t// in\ntag_111:\n    /* \"#utility.yul\":5761:5826   */\n  tag_112\n    /* \"#utility.yul\":5819:5825   */\n  dup2\n    /* \"#utility.yul\":5811:5817   */\n  dup5\n    /* \"#utility.yul\":5805:5809   */\n  dup5\n    /* \"#utility.yul\":5761:5826   */\n  tag_36\n  jump\t// in\ntag_112:\n    /* \"#utility.yul\":5696:5832   */\n  pop\n    /* \"#utility.yul\":5643:5832   */\n  pop\n  pop\n  jump\t// out\n    /* \"#utility.yul\":5838:6024   */\ntag_39:\n    /* \"#utility.yul\":5898:6018   */\ntag_114:\n    /* \"#utility.yul\":5915:5918   */\n  dup2\n    /* \"#utility.yul\":5908:5913   */\n  dup2\n    /* \"#utility.yul\":5905:5919   */\n  lt\n    /* \"#utility.yul\":5898:6018   */\n  iszero\n  tag_116\n  jumpi\n    /* \"#utility.yul\":5969:6008   */\n  tag_117\n    /* \"#utility.yul\":6006:6007   */\n  0x00\n    /* \"#utility.yul\":5999:6004   */\n  dup3\n    /* \"#utility.yul\":5969:6008   */\n  tag_38\n  jump\t// in\ntag_117:\n    /* \"#utility.yul\":5942:5943   */\n  0x01\n    /* \"#utility.yul\":5935:5940   */\n  dup2\n    /* \"#utility.yul\":5931:5944   */\n  add\n    /* \"#utility.yul\":5922:5944   */\n  swap1\n  pop\n    /* \"#utility.yul\":5898:6018   */\n  jump(tag_114)\ntag_116:\n    /* \"#utility.yul\":5838:6024   */\n  pop\n  pop\n  jump\t// out\n    /* \"#utility.yul\":6030:6573   */\ntag_40:\n    /* \"#utility.yul\":6131:6133   */\n  0x1f\n    /* \"#utility.yul\":6126:6129   */\n  dup3\n    /* \"#utility.yul\":6123:6134   */\n  gt\n    /* \"#utility.yul\":6120:6566   */\n  iszero\n  tag_119\n  jumpi\n    /* \"#utility.yul\":6165:6203   */\n  tag_120\n    /* \"#utility.yul\":6197:6202   */\n  dup2\n    /* \"#utility.yul\":6165:6203   */\n  tag_28\n  jump\t// in\ntag_120:\n    /* \"#utility.yul\":6249:6278   */\n  tag_121\n    /* \"#utility.yul\":6267:6277   */\n  dup5\n    /* \"#utility.yul\":6249:6278   */\n  tag_29\n  jump\t// in\ntag_121:\n    /* \"#utility.yul\":6239:6247   */\n  dup2\n    /* \"#utility.yul\":6235:6279   */\n  add\n    /* \"#utility.yul\":6432:6434   */\n  0x20\n    /* \"#utility.yul\":6420:6430   */\n  dup6\n    /* \"#utility.yul\":6417:6435   */\n  lt\n    /* \"#utility.yul\":6414:6463   */\n  iszero\n  tag_122\n  jumpi\n    /* \"#utility.yul\":6453:6461   */\n  dup2\n    /* \"#utility.yul\":6438:6461   */\n  swap1\n  pop\n    /* \"#utility.yul\":6414:6463   */\ntag_122:\n    /* \"#utility.yul\":6476:6556   */\n  tag_123\n    /* \"#utility.yul\":6532:6554   */\n  tag_124\n    /* \"#utility.yul\":6550:6553   */\n  dup6\n    /* \"#utility.yul\":6532:6554   */\n  tag_29\n  jump\t// in\ntag_124:\n    /* \"#utility.yul\":6522:6530   */\n  dup4\n    /* \"#utility.yul\":6518:6555   */\n  add\n    /* \"#utility.yul\":6505:6516   */\n  dup3\n    /* \"#utility.yul\":6476:6556   */\n  tag_39\n  jump\t// in\ntag_123:\n    /* \"#utility.yul\":6135:6566   */\n  pop\n  pop\n    /* \"#utility.yul\":6120:6566   */\ntag_119:\n    /* \"#utility.yul\":6030:6573   */\n  pop\n  pop\n  pop\n  jump\t// out\n    /* \"#utility.yul\":6579:6696   */\ntag_41:\n    /* \"#utility.yul\":6633:6641   */\n  0x00\n    /* \"#utility.yul\":6683:6688   */\n  dup3\n    /* \"#utility.yul\":6677:6681   */\n  dup3\n    /* \"#utility.yul\":6673:6689   */\n  shr\n    /* \"#utility.yul\":6652:6689   */\n  swap1\n  pop\n    /* \"#utility.yul\":6579:6696   */\n  swap3\n  swap2\n  pop\n  pop\n  jump\t// out\n    /* \"#utility.yul\":6702:6871   */\ntag_42:\n    /* \"#utility.yul\":6746:6752   */\n  0x00\n    /* \"#utility.yul\":6779:6830   */\n  tag_127\n    /* \"#utility.yul\":6827:6828   */\n  0x00\n    /* \"#utility.yul\":6823:6829   */\n  not\n    /* \"#utility.yul\":6815:6820   */\n  dup5\n    /* \"#utility.yul\":6812:6813   */\n  0x08\n    /* \"#utility.yul\":6808:6821   */\n  mul\n    /* \"#utility.yul\":6779:6830   */\n  tag_41\n  jump\t// in\ntag_127:\n    /* \"#utility.yul\":6775:6831   */\n  not\n    /* \"#utility.yul\":6860:6864   */\n  dup1\n    /* \"#utility.yul\":6854:6858   */\n  dup4\n    /* \"#utility.yul\":6850:6865   */\n  and\n    /* \"#utility.yul\":6840:6865   */\n  swap2\n  pop\n    /* \"#utility.yul\":6753:6871   */\n  pop\n    /* \"#utility.yul\":6702:6871   */\n  swap3\n  swap2\n  pop\n  pop\n  jump\t// out\n    /* \"#utility.yul\":6876:7171   */\ntag_43:\n    /* \"#utility.yul\":6952:6956   */\n  0x00\n    /* \"#utility.yul\":7098:7127   */\n  tag_129\n    /* \"#utility.yul\":7123:7126   */\n  dup4\n    /* \"#utility.yul\":7117:7121   */\n  dup4\n    /* \"#utility.yul\":7098:7127   */\n  tag_42\n  jump\t// in\ntag_129:\n    /* \"#utility.yul\":7090:7127   */\n  swap2\n  pop\n    /* \"#utility.yul\":7160:7163   */\n  dup3\n    /* \"#utility.yul\":7157:7158   */\n  0x02\n    /* \"#utility.yul\":7153:7164   */\n  mul\n    /* \"#utility.yul\":7147:7151   */\n  dup3\n    /* \"#utility.yul\":7144:7165   */\n  or\n    /* \"#utility.yul\":7136:7165   */\n  swap1\n  pop\n    /* \"#utility.yul\":6876:7171   */\n  swap3\n  swap2\n  pop\n  pop\n  jump\t// out\n    /* \"#utility.yul\":7176:8571   */\ntag_8:\n    /* \"#utility.yul\":7293:7330   */\n  tag_131\n    /* \"#utility.yul\":7326:7329   */\n  dup3\n    /* \"#utility.yul\":7293:7330   */\n  tag_25\n  jump\t// in\ntag_131:\n    /* \"#utility.yul\":7395:7413   */\n  0xffffffffffffffff\n    /* \"#utility.yul\":7387:7393   */\n  dup2\n    /* \"#utility.yul\":7384:7414   */\n  gt\n    /* \"#utility.yul\":7381:7437   */\n  iszero\n  tag_132\n  jumpi\n    /* \"#utility.yul\":7417:7435   */\n  tag_133\n  tag_18\n  jump\t// in\ntag_133:\n    /* \"#utility.yul\":7381:7437   */\ntag_132:\n    /* \"#utility.yul\":7461:7499   */\n  tag_134\n    /* \"#utility.yul\":7493:7497   */\n  dup3\n    /* \"#utility.yul\":7487:7498   */\n  sload\n    /* \"#utility.yul\":7461:7499   */\n  tag_27\n  jump\t// in\ntag_134:\n    /* \"#utility.yul\":7546:7613   */\n  tag_135\n    /* \"#utility.yul\":7606:7612   */\n  dup3\n    /* \"#utility.yul\":7598:7604   */\n  dup3\n    /* \"#utility.yul\":7592:7596   */\n  dup6\n    /* \"#utility.yul\":7546:7613   */\n  tag_40\n  jump\t// in\ntag_135:\n    /* \"#utility.yul\":7640:7641   */\n  0x00\n    /* \"#utility.yul\":7664:7668   */\n  0x20\n    /* \"#utility.yul\":7651:7668   */\n  swap1\n  pop\n    /* \"#utility.yul\":7696:7698   */\n  0x1f\n    /* \"#utility.yul\":7688:7694   */\n  dup4\n    /* \"#utility.yul\":7685:7699   */\n  gt\n    /* \"#utility.yul\":7713:7714   */\n  0x01\n    /* \"#utility.yul\":7708:8326   */\n  dup2\n  eq\n  tag_137\n  jumpi\n    /* \"#utility.yul\":8370:8371   */\n  0x00\n    /* \"#utility.yul\":8387:8393   */\n  dup5\n    /* \"#utility.yul\":8384:8461   */\n  iszero\n  tag_138\n  jumpi\n    /* \"#utility.yul\":8436:8445   */\n  dup3\n    /* \"#utility.yul\":8431:8434   */\n  dup8\n    /* \"#utility.yul\":8427:8446   */\n  add\n    /* \"#utility.yul\":8421:8447   */\n  mload\n    /* \"#utility.yul\":8412:8447   */\n  swap1\n  pop\n    /* \"#utility.yul\":8384:8461   */\ntag_138:\n    /* \"#utility.yul\":8487:8554   */\n  tag_139\n    /* \"#utility.yul\":8547:8553   */\n  dup6\n    /* \"#utility.yul\":8540:8545   */\n  dup3\n    /* \"#utility.yul\":8487:8554   */\n  tag_43\n  jump\t// in\ntag_139:\n    /* \"#utility.yul\":8481:8485   */\n  dup7\n    /* \"#utility.yul\":8474:8555   */\n  sstore\n    /* \"#utility.yul\":8343:8565   */\n  pop\n    /* \"#utility.yul\":7678:8565   */\n  jump(tag_136)\n    /* \"#utility.yul\":7708:8326   */\ntag_137:\n    /* \"#utility.yul\":7760:7764   */\n  0x1f\n    /* \"#utility.yul\":7756:7765   */\n  not\n    /* \"#utility.yul\":7748:7754   */\n  dup5\n    /* \"#utility.yul\":7744:7766   */\n  and\n    /* \"#utility.yul\":7794:7831   */\n  tag_140\n    /* \"#utility.yul\":7826:7830   */\n  dup7\n    /* \"#utility.yul\":7794:7831   */\n  tag_28\n  jump\t// in\ntag_140:\n    /* \"#utility.yul\":7853:7854   */\n  0x00\n    /* \"#utility.yul\":7867:8075   */\ntag_141:\n    /* \"#utility.yul\":7881:7888   */\n  dup3\n    /* \"#utility.yul\":7878:7879   */\n  dup2\n    /* \"#utility.yul\":7875:7889   */\n  lt\n    /* \"#utility.yul\":7867:8075   */\n  iszero\n  tag_143\n  jumpi\n    /* \"#utility.yul\":7960:7969   */\n  dup5\n    /* \"#utility.yul\":7955:7958   */\n  dup10\n    /* \"#utility.yul\":7951:7970   */\n  add\n    /* \"#utility.yul\":7945:7971   */\n  mload\n    /* \"#utility.yul\":7937:7943   */\n  dup3\n    /* \"#utility.yul\":7930:7972   */\n  sstore\n    /* \"#utility.yul\":8011:8012   */\n  0x01\n    /* \"#utility.yul\":8003:8009   */\n  dup3\n    /* \"#utility.yul\":7999:8013   */\n  add\n    /* \"#utility.yul\":7989:8013   */\n  swap2\n  pop\n    /* \"#utility.yul\":8058:8060   */\n  0x20\n    /* \"#utility.yul\":8047:8056   */\n  dup6\n    /* \"#utility.yul\":8043:8061   */\n  add\n    /* \"#utility.yul\":8030:8061   */\n  swap5\n  pop\n    /* \"#utility.yul\":7904:7908   */\n  0x20\n    /* \"#utility.yul\":7901:7902   */\n  dup2\n    /* \"#utility.yul\":7897:7909   */\n  add\n    /* \"#utility.yul\":7892:7909   */\n  swap1\n  pop\n    /* \"#utility.yul\":7867:8075   */\n  jump(tag_141)\ntag_143:\n    /* \"#utility.yul\":8103:8109   */\n  dup7\n    /* \"#utility.yul\":8094:8101   */\n  dup4\n    /* \"#utility.yul\":8091:8110   */\n  lt\n    /* \"#utility.yul\":8088:8267   */\n  iszero\n  tag_144\n  jumpi\n    /* \"#utility.yul\":8161:8170   */\n  dup5\n    /* \"#utility.yul\":8156:8159   */\n  dup10\n    /* \"#utility.yul\":8152:8171   */\n  add\n    /* \"#utility.yul\":8146:8172   */\n  mload\n    /* \"#utility.yul\":8204:8252   */\n  tag_145\n    /* \"#utility.yul\":8246:8250   */\n  0x1f\n    /* \"#utility.yul\":8238:8244   */\n  dup10\n    /* \"#utility.yul\":8234:8251   */\n  and\n    /* \"#utility.yul\":8223:8232   */\n  dup3\n    /* \"#utility.yul\":8204:8252   */\n  tag_42\n  jump\t// in\ntag_145:\n    /* \"#utility.yul\":8196:8202   */\n  dup4\n    /* \"#utility.yul\":8189:8253   */\n  sstore\n    /* \"#utility.yul\":8111:8267   */\n  pop\n    /* \"#utility.yul\":8088:8267   */\ntag_144:\n    /* \"#utility.yul\":8313:8314   */\n  0x01\n    /* \"#utility.yul\":8309:8310   */\n  0x02\n    /* \"#utility.yul\":8301:8307   */\n  dup9\n    /* \"#utility.yul\":8297:8311   */\n  mul\n    /* \"#utility.yul\":8293:8315   */\n  add\n    /* \"#utility.yul\":8287:8291   */\n  dup9\n    /* \"#utility.yul\":8280:8316   */\n  sstore\n    /* \"#utility.yul\":7715:8326   */\n  pop\n  pop\n  pop\n    /* \"#utility.yul\":7678:8565   */\ntag_136:\n  pop\n    /* \"#utility.yul\":7268:8571   */\n  pop\n  pop\n  pop\n    /* \"#utility.yul\":7176:8571   */\n  pop\n  pop\n  jump\t// out\n    /* \"myNFT.sol\":129:1218  contract MyNFT is ERC721{... */\ntag_11:\n  dataSize(sub_0)\n  dup1\n  dataOffset(sub_0)\n  0x00\n  codecopy\n  0x00\n  return\nstop\n\nsub_0: assembly {\n        /* \"myNFT.sol\":129:1218  contract MyNFT is ERC721{... */\n      mstore(0x40, 0x80)\n      callvalue\n      dup1\n      iszero\n      tag_1\n      jumpi\n      0x00\n      dup1\n      revert\n    tag_1:\n      pop\n      jumpi(tag_2, lt(calldatasize, 0x04))\n      shr(0xe0, calldataload(0x00))\n      dup1\n      0x70a08231\n      gt\n      tag_22\n      jumpi\n      dup1\n      0xabec7101\n      gt\n      tag_23\n      jumpi\n      dup1\n      0xabec7101\n      eq\n      tag_17\n      jumpi\n      dup1\n      0xb88d4fde\n      eq\n      tag_18\n      jumpi\n      dup1\n      0xc87b56dd\n      eq\n      tag_19\n      jumpi\n      dup1\n      0xe2c4c4b2\n      eq\n      tag_20\n      jumpi\n      dup1\n      0xe985e9c5\n      eq\n      tag_21\n      jumpi\n      jump(tag_2)\n    tag_23:\n      dup1\n      0x70a08231\n      eq\n      tag_12\n      jumpi\n      dup1\n      0x828e7a01\n      eq\n      tag_13\n      jumpi\n      dup1\n      0x95d89b41\n      eq\n      tag_14\n      jumpi\n      dup1\n      0xa22cb465\n      eq\n      tag_15\n      jumpi\n      dup1\n      0xa393dc44\n      eq\n      tag_16\n      jumpi\n      jump(tag_2)\n    tag_22:\n      dup1\n      0x1b00fd16\n      gt\n      tag_24\n      jumpi\n      dup1\n      0x1b00fd16\n      eq\n      tag_7\n      jumpi\n      dup1\n      0x23b872dd\n      eq\n      tag_8\n      jumpi\n      dup1\n      0x29d6724e\n      eq\n      tag_9\n      jumpi\n      dup1\n      0x42842e0e\n      eq\n      tag_10\n      jumpi\n      dup1\n      0x6352211e\n      eq\n      tag_11\n      jumpi\n      jump(tag_2)\n    tag_24:\n      dup1\n      0x01ffc9a7\n      eq\n      tag_3\n      jumpi\n      dup1\n      0x06fdde03\n      eq\n      tag_4\n      jumpi\n      dup1\n      0x081812fc\n      eq\n      tag_5\n      jumpi\n      dup1\n      0x095ea7b3\n      eq\n      tag_6\n      jumpi\n    tag_2:\n      0x00\n      dup1\n      revert\n        /* \"node_modules/@openzeppelin/contracts/token/ERC721/ERC721.sol\":2240:2540  function supportsInterface(bytes4 interfaceId) public view virtual override(ERC165, IERC165) returns (bool) {... */\n    tag_3:\n      tag_25\n      0x04\n      dup1\n      calldatasize\n      sub\n      dup2\n      add\n      swap1\n      tag_26\n      swap2\n      swap1\n      tag_27\n      jump\t// in\n    tag_26:\n      tag_28\n      jump\t// in\n    tag_25:\n      mload(0x40)\n      tag_29\n      swap2\n      swap1\n      tag_30\n      jump\t// in\n    tag_29:\n      mload(0x40)\n      dup1\n      swap2\n      sub\n      swap1\n      return\n        /* \"node_modules/@openzeppelin/contracts/token/ERC721/ERC721.sol\":3938:4027  function name() public view virtual returns (string memory) {... */\n    tag_4:\n      tag_31\n      tag_32\n      jump\t// in\n    tag_31:\n      mload(0x40)\n      tag_33\n      swap2\n      swap1\n      tag_34\n      jump\t// in\n    tag_33:\n      mload(0x40)\n      dup1\n      swap2\n      sub\n      swap1\n      return\n        /* \"node_modules/@openzeppelin/contracts/token/ERC721/ERC721.sol\":5477:5631  function getApproved(uint256 tokenId) public view virtual returns (address) {... */\n    tag_5:\n      tag_35\n      0x04\n      dup1\n      calldatasize\n      sub\n      dup2\n      add\n      swap1\n      tag_36\n      swap2\n      swap1\n      tag_37\n      jump\t// in\n    tag_36:\n      tag_38\n      jump\t// in\n    tag_35:\n      mload(0x40)\n      tag_39\n      swap2\n      swap1\n      tag_40\n      jump\t// in\n    tag_39:\n      mload(0x40)\n      dup1\n      swap2\n      sub\n      swap1\n      return\n        /* \"node_modules/@openzeppelin/contracts/token/ERC721/ERC721.sol\":5303:5416  function approve(address to, uint256 tokenId) public virtual {... */\n    tag_6:\n      tag_41\n      0x04\n      dup1\n      calldatasize\n      sub\n      dup2\n      add\n      swap1\n      tag_42\n      swap2\n      swap1\n      tag_43\n      jump\t// in\n    tag_42:\n      tag_44\n      jump\t// in\n    tag_41:\n      stop\n        /* \"myNFT.sol\":628:810  function urlmaker(string memory  _url) public view returns (string memory) {... */\n    tag_7:\n      tag_45\n      0x04\n      dup1\n      calldatasize\n      sub\n      dup2\n      add\n      swap1\n      tag_46\n      swap2\n      swap1\n      tag_47\n      jump\t// in\n    tag_46:\n      tag_48\n      jump\t// in\n    tag_45:\n      mload(0x40)\n      tag_49\n      swap2\n      swap1\n      tag_34\n      jump\t// in\n    tag_49:\n      mload(0x40)\n      dup1\n      swap2\n      sub\n      swap1\n      return\n        /* \"node_modules/@openzeppelin/contracts/token/ERC721/ERC721.sol\":6123:6701  function transferFrom(address from, address to, uint256 tokenId) public virtual {... */\n    tag_8:\n      tag_50\n      0x04\n      dup1\n      calldatasize\n      sub\n      dup2\n      add\n      swap1\n      tag_51\n      swap2\n      swap1\n      tag_52\n      jump\t// in\n    tag_51:\n      tag_53\n      jump\t// in\n    tag_50:\n      stop\n        /* \"myNFT.sol\":1066:1202  function setAppAll(address owner, address operator, bool approved) public {... */\n    tag_9:\n      tag_54\n      0x04\n      dup1\n      calldatasize\n      sub\n      dup2\n      add\n      swap1\n      tag_55\n      swap2\n      swap1\n      tag_56\n      jump\t// in\n    tag_55:\n      tag_57\n      jump\t// in\n    tag_54:\n      stop\n        /* \"node_modules/@openzeppelin/contracts/token/ERC721/ERC721.sol\":6767:6899  function safeTransferFrom(address from, address to, uint256 tokenId) public {... */\n    tag_10:\n      tag_58\n      0x04\n      dup1\n      calldatasize\n      sub\n      dup2\n      add\n      swap1\n      tag_59\n      swap2\n      swap1\n      tag_52\n      jump\t// in\n    tag_59:\n      tag_60\n      jump\t// in\n    tag_58:\n      stop\n        /* \"node_modules/@openzeppelin/contracts/token/ERC721/ERC721.sol\":3713:3831  function ownerOf(uint256 tokenId) public view virtual returns (address) {... */\n    tag_11:\n      tag_61\n      0x04\n      dup1\n      calldatasize\n      sub\n      dup2\n      add\n      swap1\n      tag_62\n      swap2\n      swap1\n      tag_37\n      jump\t// in\n    tag_62:\n      tag_63\n      jump\t// in\n    tag_61:\n      mload(0x40)\n      tag_64\n      swap2\n      swap1\n      tag_40\n      jump\t// in\n    tag_64:\n      mload(0x40)\n      dup1\n      swap2\n      sub\n      swap1\n      return\n        /* \"node_modules/@openzeppelin/contracts/token/ERC721/ERC721.sol\":2684:2892  function balanceOf(address owner) public view virtual returns (uint256) {... */\n    tag_12:\n      tag_65\n      0x04\n      dup1\n      calldatasize\n      sub\n      dup2\n      add\n      swap1\n      tag_66\n      swap2\n      swap1\n      tag_67\n      jump\t// in\n    tag_66:\n      tag_68\n      jump\t// in\n    tag_65:\n      mload(0x40)\n      tag_69\n      swap2\n      swap1\n      tag_70\n      jump\t// in\n    tag_69:\n      mload(0x40)\n      dup1\n      swap2\n      sub\n      swap1\n      return\n        /* \"node_modules/@openzeppelin/contracts/token/ERC721/ERC721.sol\":2895:3481  function msgsenderOwntoken(address owner) public view returns (uint256[] memory) {... */\n    tag_13:\n      tag_71\n      0x04\n      dup1\n      calldatasize\n      sub\n      dup2\n      add\n      swap1\n      tag_72\n      swap2\n      swap1\n      tag_67\n      jump\t// in\n    tag_72:\n      tag_73\n      jump\t// in\n    tag_71:\n      mload(0x40)\n      tag_74\n      swap2\n      swap1\n      tag_75\n      jump\t// in\n    tag_74:\n      mload(0x40)\n      dup1\n      swap2\n      sub\n      swap1\n      return\n        /* \"node_modules/@openzeppelin/contracts/token/ERC721/ERC721.sol\":4091:4184  function symbol() public view virtual returns (string memory) {... */\n    tag_14:\n      tag_76\n      tag_77\n      jump\t// in\n    tag_76:\n      mload(0x40)\n      tag_78\n      swap2\n      swap1\n      tag_34\n      jump\t// in\n    tag_78:\n      mload(0x40)\n      dup1\n      swap2\n      sub\n      swap1\n      return\n        /* \"node_modules/@openzeppelin/contracts/token/ERC721/ERC721.sol\":5698:5842  function setApprovalForAll(address operator, bool approved) public virtual {... */\n    tag_15:\n      tag_79\n      0x04\n      dup1\n      calldatasize\n      sub\n      dup2\n      add\n      swap1\n      tag_80\n      swap2\n      swap1\n      tag_81\n      jump\t// in\n    tag_80:\n      tag_82\n      jump\t// in\n    tag_79:\n      stop\n        /* \"node_modules/@openzeppelin/contracts/token/ERC721/ERC721.sol\":1197:1224  uint256 public _totalsupply */\n    tag_16:\n      tag_83\n      tag_84\n      jump\t// in\n    tag_83:\n      mload(0x40)\n      tag_85\n      swap2\n      swap1\n      tag_70\n      jump\t// in\n    tag_85:\n      mload(0x40)\n      dup1\n      swap2\n      sub\n      swap1\n      return\n        /* \"node_modules/@openzeppelin/contracts/token/ERC721/ERC721.sol\":12295:12387  function showtotalsupply() public view returns(uint256 ){... */\n    tag_17:\n      tag_86\n      tag_87\n      jump\t// in\n    tag_86:\n      mload(0x40)\n      tag_88\n      swap2\n      swap1\n      tag_70\n      jump\t// in\n    tag_88:\n      mload(0x40)\n      dup1\n      swap2\n      sub\n      swap1\n      return\n        /* \"node_modules/@openzeppelin/contracts/token/ERC721/ERC721.sol\":6965:7173  function safeTransferFrom(address from, address to, uint256 tokenId, bytes memory data) public virtual {... */\n    tag_18:\n      tag_89\n      0x04\n      dup1\n      calldatasize\n      sub\n      dup2\n      add\n      swap1\n      tag_90\n      swap2\n      swap1\n      tag_91\n      jump\t// in\n    tag_90:\n      tag_92\n      jump\t// in\n    tag_89:\n      stop\n        /* \"myNFT.sol\":497:622  function tokenURI(uint256 _tokenId) public view override returns (string memory) {... */\n    tag_19:\n      tag_93\n      0x04\n      dup1\n      calldatasize\n      sub\n      dup2\n      add\n      swap1\n      tag_94\n      swap2\n      swap1\n      tag_37\n      jump\t// in\n    tag_94:\n      tag_95\n      jump\t// in\n    tag_93:\n      mload(0x40)\n      tag_96\n      swap2\n      swap1\n      tag_34\n      jump\t// in\n    tag_96:\n      mload(0x40)\n      dup1\n      swap2\n      sub\n      swap1\n      return\n        /* \"myNFT.sol\":351:490  function minting(uint256 _tokenId,string memory tokenURI) public{... */\n    tag_20:\n      tag_97\n      0x04\n      dup1\n      calldatasize\n      sub\n      dup2\n      add\n      swap1\n      tag_98\n      swap2\n      swap1\n      tag_99\n      jump\t// in\n    tag_98:\n      tag_100\n      jump\t// in\n    tag_97:\n      stop\n        /* \"node_modules/@openzeppelin/contracts/token/ERC721/ERC721.sol\":5908:6061  function isApprovedForAll(address owner, address operator) public view virtual returns (bool) {... */\n    tag_21:\n      tag_101\n      0x04\n      dup1\n      calldatasize\n      sub\n      dup2\n      add\n      swap1\n      tag_102\n      swap2\n      swap1\n      tag_103\n      jump\t// in\n    tag_102:\n      tag_104\n      jump\t// in\n    tag_101:\n      mload(0x40)\n      tag_105\n      swap2\n      swap1\n      tag_30\n      jump\t// in\n    tag_105:\n      mload(0x40)\n      dup1\n      swap2\n      sub\n      swap1\n      return\n        /* \"node_modules/@openzeppelin/contracts/token/ERC721/ERC721.sol\":2240:2540  function supportsInterface(bytes4 interfaceId) public view virtual override(ERC165, IERC165) returns (bool) {... */\n    tag_28:\n        /* \"node_modules/@openzeppelin/contracts/token/ERC721/ERC721.sol\":2342:2346  bool */\n      0x00\n        /* \"node_modules/@openzeppelin/contracts/token/ERC721/ERC721.sol\":2392:2417  type(IERC721).interfaceId */\n      0x80ac58cd00000000000000000000000000000000000000000000000000000000\n        /* \"node_modules/@openzeppelin/contracts/token/ERC721/ERC721.sol\":2377:2417  interfaceId == type(IERC721).interfaceId */\n      not(0xffffffffffffffffffffffffffffffffffffffffffffffffffffffff)\n      and\n        /* \"node_modules/@openzeppelin/contracts/token/ERC721/ERC721.sol\":2377:2388  interfaceId */\n      dup3\n        /* \"node_modules/@openzeppelin/contracts/token/ERC721/ERC721.sol\":2377:2417  interfaceId == type(IERC721).interfaceId */\n      not(0xffffffffffffffffffffffffffffffffffffffffffffffffffffffff)\n      and\n      eq\n        /* \"node_modules/@openzeppelin/contracts/token/ERC721/ERC721.sol\":2377:2481  interfaceId == type(IERC721).interfaceId ||... */\n      dup1\n      tag_107\n      jumpi\n      pop\n        /* \"node_modules/@openzeppelin/contracts/token/ERC721/ERC721.sol\":2448:2481  type(IERC721Metadata).interfaceId */\n      0x5b5e139f00000000000000000000000000000000000000000000000000000000\n        /* \"node_modules/@openzeppelin/contracts/token/ERC721/ERC721.sol\":2433:2481  interfaceId == type(IERC721Metadata).interfaceId */\n      not(0xffffffffffffffffffffffffffffffffffffffffffffffffffffffff)\n      and\n        /* \"node_modules/@openzeppelin/contracts/token/ERC721/ERC721.sol\":2433:2444  interfaceId */\n      dup3\n        /* \"node_modules/@openzeppelin/contracts/token/ERC721/ERC721.sol\":2433:2481  interfaceId == type(IERC721Metadata).interfaceId */\n      not(0xffffffffffffffffffffffffffffffffffffffffffffffffffffffff)\n      and\n      eq\n        /* \"node_modules/@openzeppelin/contracts/token/ERC721/ERC721.sol\":2377:2481  interfaceId == type(IERC721).interfaceId ||... */\n    tag_107:\n        /* \"node_modules/@openzeppelin/contracts/token/ERC721/ERC721.sol\":2377:2533  interfaceId == type(IERC721).interfaceId ||... */\n      dup1\n      tag_108\n      jumpi\n      pop\n        /* \"node_modules/@openzeppelin/contracts/token/ERC721/ERC721.sol\":2497:2533  super.supportsInterface(interfaceId) */\n      tag_109\n        /* \"node_modules/@openzeppelin/contracts/token/ERC721/ERC721.sol\":2521:2532  interfaceId */\n      dup3\n        /* \"node_modules/@openzeppelin/contracts/token/ERC721/ERC721.sol\":2497:2520  super.supportsInterface */\n      tag_110\n        /* \"node_modules/@openzeppelin/contracts/token/ERC721/ERC721.sol\":2497:2533  super.supportsInterface(interfaceId) */\n      jump\t// in\n    tag_109:\n        /* \"node_modules/@openzeppelin/contracts/token/ERC721/ERC721.sol\":2377:2533  interfaceId == type(IERC721).interfaceId ||... */\n    tag_108:\n        /* \"node_modules/@openzeppelin/contracts/token/ERC721/ERC721.sol\":2358:2533  return... */\n      swap1\n      pop\n        /* \"node_modules/@openzeppelin/contracts/token/ERC721/ERC721.sol\":2240:2540  function supportsInterface(bytes4 interfaceId) public view virtual override(ERC165, IERC165) returns (bool) {... */\n      swap2\n      swap1\n      pop\n      jump\t// out\n        /* \"node_modules/@openzeppelin/contracts/token/ERC721/ERC721.sol\":3938:4027  function name() public view virtual returns (string memory) {... */\n    tag_32:\n        /* \"node_modules/@openzeppelin/contracts/token/ERC721/ERC721.sol\":3983:3996  string memory */\n      0x60\n        /* \"node_modules/@openzeppelin/contracts/token/ERC721/ERC721.sol\":4015:4020  _name */\n      0x00\n        /* \"node_modules/@openzeppelin/contracts/token/ERC721/ERC721.sol\":4008:4020  return _name */\n      dup1\n      sload\n      tag_112\n      swap1\n      tag_113\n      jump\t// in\n    tag_112:\n      dup1\n      0x1f\n      add\n      0x20\n      dup1\n      swap2\n      div\n      mul\n      0x20\n      add\n      mload(0x40)\n      swap1\n      dup2\n      add\n      0x40\n      mstore\n      dup1\n      swap3\n      swap2\n      swap1\n      dup2\n      dup2\n      mstore\n      0x20\n      add\n      dup3\n      dup1\n      sload\n      tag_114\n      swap1\n      tag_113\n      jump\t// in\n    tag_114:\n      dup1\n      iszero\n      tag_115\n      jumpi\n      dup1\n      0x1f\n      lt\n      tag_116\n      jumpi\n      0x0100\n      dup1\n      dup4\n      sload\n      div\n      mul\n      dup4\n      mstore\n      swap2\n      0x20\n      add\n      swap2\n      jump(tag_115)\n    tag_116:\n      dup3\n      add\n      swap2\n      swap1\n      0x00\n      mstore\n      keccak256(0x00, 0x20)\n      swap1\n    tag_117:\n      dup2\n      sload\n      dup2\n      mstore\n      swap1\n      0x01\n      add\n      swap1\n      0x20\n      add\n      dup1\n      dup4\n      gt\n      tag_117\n      jumpi\n      dup3\n      swap1\n      sub\n      0x1f\n      and\n      dup3\n      add\n      swap2\n    tag_115:\n      pop\n      pop\n      pop\n      pop\n      pop\n      swap1\n      pop\n        /* \"node_modules/@openzeppelin/contracts/token/ERC721/ERC721.sol\":3938:4027  function name() public view virtual returns (string memory) {... */\n      swap1\n      jump\t// out\n        /* \"node_modules/@openzeppelin/contracts/token/ERC721/ERC721.sol\":5477:5631  function getApproved(uint256 tokenId) public view virtual returns (address) {... */\n    tag_38:\n        /* \"node_modules/@openzeppelin/contracts/token/ERC721/ERC721.sol\":5544:5551  address */\n      0x00\n        /* \"node_modules/@openzeppelin/contracts/token/ERC721/ERC721.sol\":5563:5585  _requireOwned(tokenId) */\n      tag_119\n        /* \"node_modules/@openzeppelin/contracts/token/ERC721/ERC721.sol\":5577:5584  tokenId */\n      dup3\n        /* \"node_modules/@openzeppelin/contracts/token/ERC721/ERC721.sol\":5563:5576  _requireOwned */\n      tag_120\n        /* \"node_modules/@openzeppelin/contracts/token/ERC721/ERC721.sol\":5563:5585  _requireOwned(tokenId) */\n      jump\t// in\n    tag_119:\n      pop\n        /* \"node_modules/@openzeppelin/contracts/token/ERC721/ERC721.sol\":5603:5624  _getApproved(tokenId) */\n      tag_121\n        /* \"node_modules/@openzeppelin/contracts/token/ERC721/ERC721.sol\":5616:5623  tokenId */\n      dup3\n        /* \"node_modules/@openzeppelin/contracts/token/ERC721/ERC721.sol\":5603:5615  _getApproved */\n      tag_122\n        /* \"node_modules/@openzeppelin/contracts/token/ERC721/ERC721.sol\":5603:5624  _getApproved(tokenId) */\n      jump\t// in\n    tag_121:\n        /* \"node_modules/@openzeppelin/contracts/token/ERC721/ERC721.sol\":5596:5624  return _getApproved(tokenId) */\n      swap1\n      pop\n        /* \"node_modules/@openzeppelin/contracts/token/ERC721/ERC721.sol\":5477:5631  function getApproved(uint256 tokenId) public view virtual returns (address) {... */\n      swap2\n      swap1\n      pop\n      jump\t// out\n        /* \"node_modules/@openzeppelin/contracts/token/ERC721/ERC721.sol\":5303:5416  function approve(address to, uint256 tokenId) public virtual {... */\n    tag_44:\n        /* \"node_modules/@openzeppelin/contracts/token/ERC721/ERC721.sol\":5374:5409  _approve(to, tokenId, _msgSender()) */\n      tag_124\n        /* \"node_modules/@openzeppelin/contracts/token/ERC721/ERC721.sol\":5383:5385  to */\n      dup3\n        /* \"node_modules/@openzeppelin/contracts/token/ERC721/ERC721.sol\":5387:5394  tokenId */\n      dup3\n        /* \"node_modules/@openzeppelin/contracts/token/ERC721/ERC721.sol\":5396:5408  _msgSender() */\n      tag_125\n        /* \"node_modules/@openzeppelin/contracts/token/ERC721/ERC721.sol\":5396:5406  _msgSender */\n      tag_126\n        /* \"node_modules/@openzeppelin/contracts/token/ERC721/ERC721.sol\":5396:5408  _msgSender() */\n      jump\t// in\n    tag_125:\n        /* \"node_modules/@openzeppelin/contracts/token/ERC721/ERC721.sol\":5374:5382  _approve */\n      tag_127\n        /* \"node_modules/@openzeppelin/contracts/token/ERC721/ERC721.sol\":5374:5409  _approve(to, tokenId, _msgSender()) */\n      jump\t// in\n    tag_124:\n        /* \"node_modules/@openzeppelin/contracts/token/ERC721/ERC721.sol\":5303:5416  function approve(address to, uint256 tokenId) public virtual {... */\n      pop\n      pop\n      jump\t// out\n        /* \"myNFT.sol\":628:810  function urlmaker(string memory  _url) public view returns (string memory) {... */\n    tag_48:\n        /* \"myNFT.sol\":688:701  string memory */\n      0x60\n        /* \"myNFT.sol\":713:734  string memory baseURI */\n      0x00\n        /* \"myNFT.sol\":737:747  _baseURI() */\n      tag_129\n        /* \"myNFT.sol\":737:745  _baseURI */\n      tag_130\n        /* \"myNFT.sol\":737:747  _baseURI() */\n      jump\t// in\n    tag_129:\n        /* \"myNFT.sol\":713:747  string memory baseURI = _baseURI() */\n      swap1\n      pop\n        /* \"myNFT.sol\":788:795  baseURI */\n      dup1\n        /* \"myNFT.sol\":797:801  _url */\n      dup4\n        /* \"myNFT.sol\":771:802  abi.encodePacked(baseURI, _url) */\n      add(0x20, mload(0x40))\n      tag_131\n      swap3\n      swap2\n      swap1\n      tag_132\n      jump\t// in\n    tag_131:\n      mload(0x40)\n      0x20\n      dup2\n      dup4\n      sub\n      sub\n      dup2\n      mstore\n      swap1\n      0x40\n      mstore\n        /* \"myNFT.sol\":757:803  return string(abi.encodePacked(baseURI, _url)) */\n      swap2\n      pop\n      pop\n        /* \"myNFT.sol\":628:810  function urlmaker(string memory  _url) public view returns (string memory) {... */\n      swap2\n      swap1\n      pop\n      jump\t// out\n        /* \"node_modules/@openzeppelin/contracts/token/ERC721/ERC721.sol\":6123:6701  function transferFrom(address from, address to, uint256 tokenId) public virtual {... */\n    tag_53:\n        /* \"node_modules/@openzeppelin/contracts/token/ERC721/ERC721.sol\":6231:6232  0 */\n      0x00\n        /* \"node_modules/@openzeppelin/contracts/token/ERC721/ERC721.sol\":6217:6233  to == address(0) */\n      0xffffffffffffffffffffffffffffffffffffffff\n      and\n        /* \"node_modules/@openzeppelin/contracts/token/ERC721/ERC721.sol\":6217:6219  to */\n      dup3\n        /* \"node_modules/@openzeppelin/contracts/token/ERC721/ERC721.sol\":6217:6233  to == address(0) */\n      0xffffffffffffffffffffffffffffffffffffffff\n      and\n      sub\n        /* \"node_modules/@openzeppelin/contracts/token/ERC721/ERC721.sol\":6213:6300  if (to == address(0)) {... */\n      tag_134\n      jumpi\n        /* \"node_modules/@openzeppelin/contracts/token/ERC721/ERC721.sol\":6286:6287  0 */\n      0x00\n        /* \"node_modules/@openzeppelin/contracts/token/ERC721/ERC721.sol\":6256:6289  ERC721InvalidReceiver(address(0)) */\n      mload(0x40)\n      0x64a0ae9200000000000000000000000000000000000000000000000000000000\n      dup2\n      mstore\n      0x04\n      add\n      tag_135\n      swap2\n      swap1\n      tag_40\n      jump\t// in\n    tag_135:\n      mload(0x40)\n      dup1\n      swap2\n      sub\n      swap1\n      revert\n        /* \"node_modules/@openzeppelin/contracts/token/ERC721/ERC721.sol\":6213:6300  if (to == address(0)) {... */\n    tag_134:\n        /* \"node_modules/@openzeppelin/contracts/token/ERC721/ERC721.sol\":6518:6539  address previousOwner */\n      0x00\n        /* \"node_modules/@openzeppelin/contracts/token/ERC721/ERC721.sol\":6542:6576  _update(to, tokenId, _msgSender()) */\n      tag_136\n        /* \"node_modules/@openzeppelin/contracts/token/ERC721/ERC721.sol\":6550:6552  to */\n      dup4\n        /* \"node_modules/@openzeppelin/contracts/token/ERC721/ERC721.sol\":6554:6561  tokenId */\n      dup4\n        /* \"node_modules/@openzeppelin/contracts/token/ERC721/ERC721.sol\":6563:6575  _msgSender() */\n      tag_137\n        /* \"node_modules/@openzeppelin/contracts/token/ERC721/ERC721.sol\":6563:6573  _msgSender */\n      tag_126\n        /* \"node_modules/@openzeppelin/contracts/token/ERC721/ERC721.sol\":6563:6575  _msgSender() */\n      jump\t// in\n    tag_137:\n        /* \"node_modules/@openzeppelin/contracts/token/ERC721/ERC721.sol\":6542:6549  _update */\n      tag_138\n        /* \"node_modules/@openzeppelin/contracts/token/ERC721/ERC721.sol\":6542:6576  _update(to, tokenId, _msgSender()) */\n      jump\t// in\n    tag_136:\n        /* \"node_modules/@openzeppelin/contracts/token/ERC721/ERC721.sol\":6518:6576  address previousOwner = _update(to, tokenId, _msgSender()) */\n      swap1\n      pop\n        /* \"node_modules/@openzeppelin/contracts/token/ERC721/ERC721.sol\":6607:6611  from */\n      dup4\n        /* \"node_modules/@openzeppelin/contracts/token/ERC721/ERC721.sol\":6590:6611  previousOwner != from */\n      0xffffffffffffffffffffffffffffffffffffffff\n      and\n        /* \"node_modules/@openzeppelin/contracts/token/ERC721/ERC721.sol\":6590:6603  previousOwner */\n      dup2\n        /* \"node_modules/@openzeppelin/contracts/token/ERC721/ERC721.sol\":6590:6611  previousOwner != from */\n      0xffffffffffffffffffffffffffffffffffffffff\n      and\n      eq\n        /* \"node_modules/@openzeppelin/contracts/token/ERC721/ERC721.sol\":6586:6695  if (previousOwner != from) {... */\n      tag_139\n      jumpi\n        /* \"node_modules/@openzeppelin/contracts/token/ERC721/ERC721.sol\":6655:6659  from */\n      dup4\n        /* \"node_modules/@openzeppelin/contracts/token/ERC721/ERC721.sol\":6661:6668  tokenId */\n      dup3\n        /* \"node_modules/@openzeppelin/contracts/token/ERC721/ERC721.sol\":6670:6683  previousOwner */\n      dup3\n        /* \"node_modules/@openzeppelin/contracts/token/ERC721/ERC721.sol\":6634:6684  ERC721IncorrectOwner(from, tokenId, previousOwner) */\n      mload(0x40)\n      0x64283d7b00000000000000000000000000000000000000000000000000000000\n      dup2\n      mstore\n      0x04\n      add\n      tag_140\n      swap4\n      swap3\n      swap2\n      swap1\n      tag_141\n      jump\t// in\n    tag_140:\n      mload(0x40)\n      dup1\n      swap2\n      sub\n      swap1\n      revert\n        /* \"node_modules/@openzeppelin/contracts/token/ERC721/ERC721.sol\":6586:6695  if (previousOwner != from) {... */\n    tag_139:\n        /* \"node_modules/@openzeppelin/contracts/token/ERC721/ERC721.sol\":6203:6701  {... */\n      pop\n        /* \"node_modules/@openzeppelin/contracts/token/ERC721/ERC721.sol\":6123:6701  function transferFrom(address from, address to, uint256 tokenId) public virtual {... */\n      pop\n      pop\n      pop\n      jump\t// out\n        /* \"myNFT.sol\":1066:1202  function setAppAll(address owner, address operator, bool approved) public {... */\n    tag_57:\n        /* \"myNFT.sol\":1150:1195  _setApprovalForAll(owner, operator, approved) */\n      tag_143\n        /* \"myNFT.sol\":1169:1174  owner */\n      dup4\n        /* \"myNFT.sol\":1176:1184  operator */\n      dup4\n        /* \"myNFT.sol\":1186:1194  approved */\n      dup4\n        /* \"myNFT.sol\":1150:1168  _setApprovalForAll */\n      tag_144\n        /* \"myNFT.sol\":1150:1195  _setApprovalForAll(owner, operator, approved) */\n      jump\t// in\n    tag_143:\n        /* \"myNFT.sol\":1066:1202  function setAppAll(address owner, address operator, bool approved) public {... */\n      pop\n      pop\n      pop\n      jump\t// out\n        /* \"node_modules/@openzeppelin/contracts/token/ERC721/ERC721.sol\":6767:6899  function safeTransferFrom(address from, address to, uint256 tokenId) public {... */\n    tag_60:\n        /* \"node_modules/@openzeppelin/contracts/token/ERC721/ERC721.sol\":6853:6892  safeTransferFrom(from, to, tokenId, \"\") */\n      tag_146\n        /* \"node_modules/@openzeppelin/contracts/token/ERC721/ERC721.sol\":6870:6874  from */\n      dup4\n        /* \"node_modules/@openzeppelin/contracts/token/ERC721/ERC721.sol\":6876:6878  to */\n      dup4\n        /* \"node_modules/@openzeppelin/contracts/token/ERC721/ERC721.sol\":6880:6887  tokenId */\n      dup4\n        /* \"node_modules/@openzeppelin/contracts/token/ERC721/ERC721.sol\":6853:6892  safeTransferFrom(from, to, tokenId, \"\") */\n      mload(0x40)\n      dup1\n      0x20\n      add\n      0x40\n      mstore\n      dup1\n      0x00\n      dup2\n      mstore\n      pop\n        /* \"node_modules/@openzeppelin/contracts/token/ERC721/ERC721.sol\":6853:6869  safeTransferFrom */\n      tag_92\n        /* \"node_modules/@openzeppelin/contracts/token/ERC721/ERC721.sol\":6853:6892  safeTransferFrom(from, to, tokenId, \"\") */\n      jump\t// in\n    tag_146:\n        /* \"node_modules/@openzeppelin/contracts/token/ERC721/ERC721.sol\":6767:6899  function safeTransferFrom(address from, address to, uint256 tokenId) public {... */\n      pop\n      pop\n      pop\n      jump\t// out\n        /* \"node_modules/@openzeppelin/contracts/token/ERC721/ERC721.sol\":3713:3831  function ownerOf(uint256 tokenId) public view virtual returns (address) {... */\n    tag_63:\n        /* \"node_modules/@openzeppelin/contracts/token/ERC721/ERC721.sol\":3776:3783  address */\n      0x00\n        /* \"node_modules/@openzeppelin/contracts/token/ERC721/ERC721.sol\":3802:3824  _requireOwned(tokenId) */\n      tag_148\n        /* \"node_modules/@openzeppelin/contracts/token/ERC721/ERC721.sol\":3816:3823  tokenId */\n      dup3\n        /* \"node_modules/@openzeppelin/contracts/token/ERC721/ERC721.sol\":3802:3815  _requireOwned */\n      tag_120\n        /* \"node_modules/@openzeppelin/contracts/token/ERC721/ERC721.sol\":3802:3824  _requireOwned(tokenId) */\n      jump\t// in\n    tag_148:\n        /* \"node_modules/@openzeppelin/contracts/token/ERC721/ERC721.sol\":3795:3824  return _requireOwned(tokenId) */\n      swap1\n      pop\n        /* \"node_modules/@openzeppelin/contracts/token/ERC721/ERC721.sol\":3713:3831  function ownerOf(uint256 tokenId) public view virtual returns (address) {... */\n      swap2\n      swap1\n      pop\n      jump\t// out\n        /* \"node_modules/@openzeppelin/contracts/token/ERC721/ERC721.sol\":2684:2892  function balanceOf(address owner) public view virtual returns (uint256) {... */\n    tag_68:\n        /* \"node_modules/@openzeppelin/contracts/token/ERC721/ERC721.sol\":2747:2754  uint256 */\n      0x00\n        /* \"node_modules/@openzeppelin/contracts/token/ERC721/ERC721.sol\":2787:2788  0 */\n      dup1\n        /* \"node_modules/@openzeppelin/contracts/token/ERC721/ERC721.sol\":2770:2789  owner == address(0) */\n      0xffffffffffffffffffffffffffffffffffffffff\n      and\n        /* \"node_modules/@openzeppelin/contracts/token/ERC721/ERC721.sol\":2770:2775  owner */\n      dup3\n        /* \"node_modules/@openzeppelin/contracts/token/ERC721/ERC721.sol\":2770:2789  owner == address(0) */\n      0xffffffffffffffffffffffffffffffffffffffff\n      and\n      sub\n        /* \"node_modules/@openzeppelin/contracts/token/ERC721/ERC721.sol\":2766:2853  if (owner == address(0)) {... */\n      tag_150\n      jumpi\n        /* \"node_modules/@openzeppelin/contracts/token/ERC721/ERC721.sol\":2839:2840  0 */\n      0x00\n        /* \"node_modules/@openzeppelin/contracts/token/ERC721/ERC721.sol\":2812:2842  ERC721InvalidOwner(address(0)) */\n      mload(0x40)\n      0x89c62b6400000000000000000000000000000000000000000000000000000000\n      dup2\n      mstore\n      0x04\n      add\n      tag_151\n      swap2\n      swap1\n      tag_40\n      jump\t// in\n    tag_151:\n      mload(0x40)\n      dup1\n      swap2\n      sub\n      swap1\n      revert\n        /* \"node_modules/@openzeppelin/contracts/token/ERC721/ERC721.sol\":2766:2853  if (owner == address(0)) {... */\n    tag_150:\n        /* \"node_modules/@openzeppelin/contracts/token/ERC721/ERC721.sol\":2869:2878  _balances */\n      0x04\n        /* \"node_modules/@openzeppelin/contracts/token/ERC721/ERC721.sol\":2869:2885  _balances[owner] */\n      0x00\n        /* \"node_modules/@openzeppelin/contracts/token/ERC721/ERC721.sol\":2879:2884  owner */\n      dup4\n        /* \"node_modules/@openzeppelin/contracts/token/ERC721/ERC721.sol\":2869:2885  _balances[owner] */\n      0xffffffffffffffffffffffffffffffffffffffff\n      and\n      0xffffffffffffffffffffffffffffffffffffffff\n      and\n      dup2\n      mstore\n      0x20\n      add\n      swap1\n      dup2\n      mstore\n      0x20\n      add\n      0x00\n      keccak256\n      sload\n        /* \"node_modules/@openzeppelin/contracts/token/ERC721/ERC721.sol\":2862:2885  return _balances[owner] */\n      swap1\n      pop\n        /* \"node_modules/@openzeppelin/contracts/token/ERC721/ERC721.sol\":2684:2892  function balanceOf(address owner) public view virtual returns (uint256) {... */\n      swap2\n      swap1\n      pop\n      jump\t// out\n        /* \"node_modules/@openzeppelin/contracts/token/ERC721/ERC721.sol\":2895:3481  function msgsenderOwntoken(address owner) public view returns (uint256[] memory) {... */\n    tag_73:\n        /* \"node_modules/@openzeppelin/contracts/token/ERC721/ERC721.sol\":2958:2974  uint256[] memory */\n      0x60\n        /* \"node_modules/@openzeppelin/contracts/token/ERC721/ERC721.sol\":2982:3002  uint256[] memory arr */\n      0x00\n        /* \"node_modules/@openzeppelin/contracts/token/ERC721/ERC721.sol\":3019:3031  _totalsupply */\n      sload(0x02)\n        /* \"node_modules/@openzeppelin/contracts/token/ERC721/ERC721.sol\":3005:3032  new uint256[](_totalsupply) */\n      0xffffffffffffffff\n      dup2\n      gt\n      iszero\n      tag_153\n      jumpi\n      tag_154\n      tag_155\n      jump\t// in\n    tag_154:\n    tag_153:\n      mload(0x40)\n      swap1\n      dup1\n      dup3\n      mstore\n      dup1\n      0x20\n      mul\n      0x20\n      add\n      dup3\n      add\n      0x40\n      mstore\n      dup1\n      iszero\n      tag_156\n      jumpi\n      dup2\n      0x20\n      add\n      0x20\n      dup3\n      mul\n      dup1\n      calldatasize\n      dup4\n      calldatacopy\n      dup1\n      dup3\n      add\n      swap2\n      pop\n      pop\n      swap1\n      pop\n    tag_156:\n      pop\n        /* \"node_modules/@openzeppelin/contracts/token/ERC721/ERC721.sol\":2982:3032  uint256[] memory arr = new uint256[](_totalsupply) */\n      swap1\n      pop\n        /* \"node_modules/@openzeppelin/contracts/token/ERC721/ERC721.sol\":3087:3100  uint256 index */\n      0x00\n        /* \"node_modules/@openzeppelin/contracts/token/ERC721/ERC721.sol\":3115:3124  uint256 i */\n      dup1\n        /* \"node_modules/@openzeppelin/contracts/token/ERC721/ERC721.sol\":3110:3254  for (uint256 i = 0; i < _totalsupply; i++) {... */\n    tag_157:\n        /* \"node_modules/@openzeppelin/contracts/token/ERC721/ERC721.sol\":3134:3146  _totalsupply */\n      sload(0x02)\n        /* \"node_modules/@openzeppelin/contracts/token/ERC721/ERC721.sol\":3130:3131  i */\n      dup2\n        /* \"node_modules/@openzeppelin/contracts/token/ERC721/ERC721.sol\":3130:3146  i < _totalsupply */\n      lt\n        /* \"node_modules/@openzeppelin/contracts/token/ERC721/ERC721.sol\":3110:3254  for (uint256 i = 0; i < _totalsupply; i++) {... */\n      iszero\n      tag_158\n      jumpi\n        /* \"node_modules/@openzeppelin/contracts/token/ERC721/ERC721.sol\":3176:3186  ownerOf(i) */\n      tag_160\n        /* \"node_modules/@openzeppelin/contracts/token/ERC721/ERC721.sol\":3184:3185  i */\n      dup2\n        /* \"node_modules/@openzeppelin/contracts/token/ERC721/ERC721.sol\":3176:3183  ownerOf */\n      tag_63\n        /* \"node_modules/@openzeppelin/contracts/token/ERC721/ERC721.sol\":3176:3186  ownerOf(i) */\n      jump\t// in\n    tag_160:\n        /* \"node_modules/@openzeppelin/contracts/token/ERC721/ERC721.sol\":3167:3186  owner == ownerOf(i) */\n      0xffffffffffffffffffffffffffffffffffffffff\n      and\n        /* \"node_modules/@openzeppelin/contracts/token/ERC721/ERC721.sol\":3167:3172  owner */\n      dup6\n        /* \"node_modules/@openzeppelin/contracts/token/ERC721/ERC721.sol\":3167:3186  owner == ownerOf(i) */\n      0xffffffffffffffffffffffffffffffffffffffff\n      and\n      sub\n        /* \"node_modules/@openzeppelin/contracts/token/ERC721/ERC721.sol\":3163:3248  if (owner == ownerOf(i)) {... */\n      tag_161\n      jumpi\n        /* \"node_modules/@openzeppelin/contracts/token/ERC721/ERC721.sol\":3215:3216  i */\n      dup1\n        /* \"node_modules/@openzeppelin/contracts/token/ERC721/ERC721.sol\":3202:3205  arr */\n      dup4\n        /* \"node_modules/@openzeppelin/contracts/token/ERC721/ERC721.sol\":3206:3211  index */\n      dup4\n        /* \"node_modules/@openzeppelin/contracts/token/ERC721/ERC721.sol\":3202:3212  arr[index] */\n      dup2\n      mload\n      dup2\n      lt\n      tag_162\n      jumpi\n      tag_163\n      tag_164\n      jump\t// in\n    tag_163:\n    tag_162:\n      0x20\n      mul\n      0x20\n      add\n      add\n        /* \"node_modules/@openzeppelin/contracts/token/ERC721/ERC721.sol\":3202:3216  arr[index] = i */\n      dup2\n      dup2\n      mstore\n      pop\n      pop\n        /* \"node_modules/@openzeppelin/contracts/token/ERC721/ERC721.sol\":3230:3237  index++ */\n      dup2\n      dup1\n      tag_165\n      swap1\n      tag_166\n      jump\t// in\n    tag_165:\n      swap3\n      pop\n      pop\n        /* \"node_modules/@openzeppelin/contracts/token/ERC721/ERC721.sol\":3163:3248  if (owner == ownerOf(i)) {... */\n    tag_161:\n        /* \"node_modules/@openzeppelin/contracts/token/ERC721/ERC721.sol\":3148:3151  i++ */\n      dup1\n      dup1\n      tag_167\n      swap1\n      tag_166\n      jump\t// in\n    tag_167:\n      swap2\n      pop\n      pop\n        /* \"node_modules/@openzeppelin/contracts/token/ERC721/ERC721.sol\":3110:3254  for (uint256 i = 0; i < _totalsupply; i++) {... */\n      jump(tag_157)\n    tag_158:\n      pop\n        /* \"node_modules/@openzeppelin/contracts/token/ERC721/ERC721.sol\":3336:3359  uint256[] memory result */\n      0x00\n        /* \"node_modules/@openzeppelin/contracts/token/ERC721/ERC721.sol\":3376:3381  index */\n      dup2\n        /* \"node_modules/@openzeppelin/contracts/token/ERC721/ERC721.sol\":3362:3382  new uint256[](index) */\n      0xffffffffffffffff\n      dup2\n      gt\n      iszero\n      tag_168\n      jumpi\n      tag_169\n      tag_155\n      jump\t// in\n    tag_169:\n    tag_168:\n      mload(0x40)\n      swap1\n      dup1\n      dup3\n      mstore\n      dup1\n      0x20\n      mul\n      0x20\n      add\n      dup3\n      add\n      0x40\n      mstore\n      dup1\n      iszero\n      tag_170\n      jumpi\n      dup2\n      0x20\n      add\n      0x20\n      dup3\n      mul\n      dup1\n      calldatasize\n      dup4\n      calldatacopy\n      dup1\n      dup3\n      add\n      swap2\n      pop\n      pop\n      swap1\n      pop\n    tag_170:\n      pop\n        /* \"node_modules/@openzeppelin/contracts/token/ERC721/ERC721.sol\":3336:3382  uint256[] memory result = new uint256[](index) */\n      swap1\n      pop\n        /* \"node_modules/@openzeppelin/contracts/token/ERC721/ERC721.sol\":3393:3402  uint256 i */\n      0x00\n        /* \"node_modules/@openzeppelin/contracts/token/ERC721/ERC721.sol\":3388:3459  for (uint256 i = 0; i < index; i++) {... */\n    tag_171:\n        /* \"node_modules/@openzeppelin/contracts/token/ERC721/ERC721.sol\":3412:3417  index */\n      dup3\n        /* \"node_modules/@openzeppelin/contracts/token/ERC721/ERC721.sol\":3408:3409  i */\n      dup2\n        /* \"node_modules/@openzeppelin/contracts/token/ERC721/ERC721.sol\":3408:3417  i < index */\n      lt\n        /* \"node_modules/@openzeppelin/contracts/token/ERC721/ERC721.sol\":3388:3459  for (uint256 i = 0; i < index; i++) {... */\n      iszero\n      tag_172\n      jumpi\n        /* \"node_modules/@openzeppelin/contracts/token/ERC721/ERC721.sol\":3446:3449  arr */\n      dup4\n        /* \"node_modules/@openzeppelin/contracts/token/ERC721/ERC721.sol\":3450:3451  i */\n      dup2\n        /* \"node_modules/@openzeppelin/contracts/token/ERC721/ERC721.sol\":3446:3452  arr[i] */\n      dup2\n      mload\n      dup2\n      lt\n      tag_174\n      jumpi\n      tag_175\n      tag_164\n      jump\t// in\n    tag_175:\n    tag_174:\n      0x20\n      mul\n      0x20\n      add\n      add\n      mload\n        /* \"node_modules/@openzeppelin/contracts/token/ERC721/ERC721.sol\":3434:3440  result */\n      dup3\n        /* \"node_modules/@openzeppelin/contracts/token/ERC721/ERC721.sol\":3441:3442  i */\n      dup3\n        /* \"node_modules/@openzeppelin/contracts/token/ERC721/ERC721.sol\":3434:3443  result[i] */\n      dup2\n      mload\n      dup2\n      lt\n      tag_176\n      jumpi\n      tag_177\n      tag_164\n      jump\t// in\n    tag_177:\n    tag_176:\n      0x20\n      mul\n      0x20\n      add\n      add\n        /* \"node_modules/@openzeppelin/contracts/token/ERC721/ERC721.sol\":3434:3452  result[i] = arr[i] */\n      dup2\n      dup2\n      mstore\n      pop\n      pop\n        /* \"node_modules/@openzeppelin/contracts/token/ERC721/ERC721.sol\":3419:3422  i++ */\n      dup1\n      dup1\n      tag_178\n      swap1\n      tag_166\n      jump\t// in\n    tag_178:\n      swap2\n      pop\n      pop\n        /* \"node_modules/@openzeppelin/contracts/token/ERC721/ERC721.sol\":3388:3459  for (uint256 i = 0; i < index; i++) {... */\n      jump(tag_171)\n    tag_172:\n      pop\n        /* \"node_modules/@openzeppelin/contracts/token/ERC721/ERC721.sol\":3472:3478  result */\n      dup1\n        /* \"node_modules/@openzeppelin/contracts/token/ERC721/ERC721.sol\":3465:3478  return result */\n      swap4\n      pop\n      pop\n      pop\n      pop\n        /* \"node_modules/@openzeppelin/contracts/token/ERC721/ERC721.sol\":2895:3481  function msgsenderOwntoken(address owner) public view returns (uint256[] memory) {... */\n      swap2\n      swap1\n      pop\n      jump\t// out\n        /* \"node_modules/@openzeppelin/contracts/token/ERC721/ERC721.sol\":4091:4184  function symbol() public view virtual returns (string memory) {... */\n    tag_77:\n        /* \"node_modules/@openzeppelin/contracts/token/ERC721/ERC721.sol\":4138:4151  string memory */\n      0x60\n        /* \"node_modules/@openzeppelin/contracts/token/ERC721/ERC721.sol\":4170:4177  _symbol */\n      0x01\n        /* \"node_modules/@openzeppelin/contracts/token/ERC721/ERC721.sol\":4163:4177  return _symbol */\n      dup1\n      sload\n      tag_180\n      swap1\n      tag_113\n      jump\t// in\n    tag_180:\n      dup1\n      0x1f\n      add\n      0x20\n      dup1\n      swap2\n      div\n      mul\n      0x20\n      add\n      mload(0x40)\n      swap1\n      dup2\n      add\n      0x40\n      mstore\n      dup1\n      swap3\n      swap2\n      swap1\n      dup2\n      dup2\n      mstore\n      0x20\n      add\n      dup3\n      dup1\n      sload\n      tag_181\n      swap1\n      tag_113\n      jump\t// in\n    tag_181:\n      dup1\n      iszero\n      tag_182\n      jumpi\n      dup1\n      0x1f\n      lt\n      tag_183\n      jumpi\n      0x0100\n      dup1\n      dup4\n      sload\n      div\n      mul\n      dup4\n      mstore\n      swap2\n      0x20\n      add\n      swap2\n      jump(tag_182)\n    tag_183:\n      dup3\n      add\n      swap2\n      swap1\n      0x00\n      mstore\n      keccak256(0x00, 0x20)\n      swap1\n    tag_184:\n      dup2\n      sload\n      dup2\n      mstore\n      swap1\n      0x01\n      add\n      swap1\n      0x20\n      add\n      dup1\n      dup4\n      gt\n      tag_184\n      jumpi\n      dup3\n      swap1\n      sub\n      0x1f\n      and\n      dup3\n      add\n      swap2\n    tag_182:\n      pop\n      pop\n      pop\n      pop\n      pop\n      swap1\n      pop\n        /* \"node_modules/@openzeppelin/contracts/token/ERC721/ERC721.sol\":4091:4184  function symbol() public view virtual returns (string memory) {... */\n      swap1\n      jump\t// out\n        /* \"node_modules/@openzeppelin/contracts/token/ERC721/ERC721.sol\":5698:5842  function setApprovalForAll(address operator, bool approved) public virtual {... */\n    tag_82:\n        /* \"node_modules/@openzeppelin/contracts/token/ERC721/ERC721.sol\":5783:5835  _setApprovalForAll(_msgSender(), operator, approved) */\n      tag_186\n        /* \"node_modules/@openzeppelin/contracts/token/ERC721/ERC721.sol\":5802:5814  _msgSender() */\n      tag_187\n        /* \"node_modules/@openzeppelin/contracts/token/ERC721/ERC721.sol\":5802:5812  _msgSender */\n      tag_126\n        /* \"node_modules/@openzeppelin/contracts/token/ERC721/ERC721.sol\":5802:5814  _msgSender() */\n      jump\t// in\n    tag_187:\n        /* \"node_modules/@openzeppelin/contracts/token/ERC721/ERC721.sol\":5816:5824  operator */\n      dup4\n        /* \"node_modules/@openzeppelin/contracts/token/ERC721/ERC721.sol\":5826:5834  approved */\n      dup4\n        /* \"node_modules/@openzeppelin/contracts/token/ERC721/ERC721.sol\":5783:5801  _setApprovalForAll */\n      tag_144\n        /* \"node_modules/@openzeppelin/contracts/token/ERC721/ERC721.sol\":5783:5835  _setApprovalForAll(_msgSender(), operator, approved) */\n      jump\t// in\n    tag_186:\n        /* \"node_modules/@openzeppelin/contracts/token/ERC721/ERC721.sol\":5698:5842  function setApprovalForAll(address operator, bool approved) public virtual {... */\n      pop\n      pop\n      jump\t// out\n        /* \"node_modules/@openzeppelin/contracts/token/ERC721/ERC721.sol\":1197:1224  uint256 public _totalsupply */\n    tag_84:\n      sload(0x02)\n      dup2\n      jump\t// out\n        /* \"node_modules/@openzeppelin/contracts/token/ERC721/ERC721.sol\":12295:12387  function showtotalsupply() public view returns(uint256 ){... */\n    tag_87:\n        /* \"node_modules/@openzeppelin/contracts/token/ERC721/ERC721.sol\":12342:12349  uint256 */\n      0x00\n        /* \"node_modules/@openzeppelin/contracts/token/ERC721/ERC721.sol\":12368:12380  _totalsupply */\n      sload(0x02)\n        /* \"node_modules/@openzeppelin/contracts/token/ERC721/ERC721.sol\":12361:12380  return _totalsupply */\n      swap1\n      pop\n        /* \"node_modules/@openzeppelin/contracts/token/ERC721/ERC721.sol\":12295:12387  function showtotalsupply() public view returns(uint256 ){... */\n      swap1\n      jump\t// out\n        /* \"node_modules/@openzeppelin/contracts/token/ERC721/ERC721.sol\":6965:7173  function safeTransferFrom(address from, address to, uint256 tokenId, bytes memory data) public virtual {... */\n    tag_92:\n        /* \"node_modules/@openzeppelin/contracts/token/ERC721/ERC721.sol\":7078:7109  transferFrom(from, to, tokenId) */\n      tag_190\n        /* \"node_modules/@openzeppelin/contracts/token/ERC721/ERC721.sol\":7091:7095  from */\n      dup5\n        /* \"node_modules/@openzeppelin/contracts/token/ERC721/ERC721.sol\":7097:7099  to */\n      dup5\n        /* \"node_modules/@openzeppelin/contracts/token/ERC721/ERC721.sol\":7101:7108  tokenId */\n      dup5\n        /* \"node_modules/@openzeppelin/contracts/token/ERC721/ERC721.sol\":7078:7090  transferFrom */\n      tag_53\n        /* \"node_modules/@openzeppelin/contracts/token/ERC721/ERC721.sol\":7078:7109  transferFrom(from, to, tokenId) */\n      jump\t// in\n    tag_190:\n        /* \"node_modules/@openzeppelin/contracts/token/ERC721/ERC721.sol\":7119:7166  _checkOnERC721Received(from, to, tokenId, data) */\n      tag_191\n        /* \"node_modules/@openzeppelin/contracts/token/ERC721/ERC721.sol\":7142:7146  from */\n      dup5\n        /* \"node_modules/@openzeppelin/contracts/token/ERC721/ERC721.sol\":7148:7150  to */\n      dup5\n        /* \"node_modules/@openzeppelin/contracts/token/ERC721/ERC721.sol\":7152:7159  tokenId */\n      dup5\n        /* \"node_modules/@openzeppelin/contracts/token/ERC721/ERC721.sol\":7161:7165  data */\n      dup5\n        /* \"node_modules/@openzeppelin/contracts/token/ERC721/ERC721.sol\":7119:7141  _checkOnERC721Received */\n      tag_192\n        /* \"node_modules/@openzeppelin/contracts/token/ERC721/ERC721.sol\":7119:7166  _checkOnERC721Received(from, to, tokenId, data) */\n      jump\t// in\n    tag_191:\n        /* \"node_modules/@openzeppelin/contracts/token/ERC721/ERC721.sol\":6965:7173  function safeTransferFrom(address from, address to, uint256 tokenId, bytes memory data) public virtual {... */\n      pop\n      pop\n      pop\n      pop\n      jump\t// out\n        /* \"myNFT.sol\":497:622  function tokenURI(uint256 _tokenId) public view override returns (string memory) {... */\n    tag_95:\n        /* \"myNFT.sol\":563:576  string memory */\n      0x60\n        /* \"myNFT.sol\":595:605  _tokenURIs */\n      0x07\n        /* \"myNFT.sol\":595:615  _tokenURIs[_tokenId] */\n      0x00\n        /* \"myNFT.sol\":606:614  _tokenId */\n      dup4\n        /* \"myNFT.sol\":595:615  _tokenURIs[_tokenId] */\n      dup2\n      mstore\n      0x20\n      add\n      swap1\n      dup2\n      mstore\n      0x20\n      add\n      0x00\n      keccak256\n        /* \"myNFT.sol\":588:615  return _tokenURIs[_tokenId] */\n      dup1\n      sload\n      tag_194\n      swap1\n      tag_113\n      jump\t// in\n    tag_194:\n      dup1\n      0x1f\n      add\n      0x20\n      dup1\n      swap2\n      div\n      mul\n      0x20\n      add\n      mload(0x40)\n      swap1\n      dup2\n      add\n      0x40\n      mstore\n      dup1\n      swap3\n      swap2\n      swap1\n      dup2\n      dup2\n      mstore\n      0x20\n      add\n      dup3\n      dup1\n      sload\n      tag_195\n      swap1\n      tag_113\n      jump\t// in\n    tag_195:\n      dup1\n      iszero\n      tag_196\n      jumpi\n      dup1\n      0x1f\n      lt\n      tag_197\n      jumpi\n      0x0100\n      dup1\n      dup4\n      sload\n      div\n      mul\n      dup4\n      mstore\n      swap2\n      0x20\n      add\n      swap2\n      jump(tag_196)\n    tag_197:\n      dup3\n      add\n      swap2\n      swap1\n      0x00\n      mstore\n      keccak256(0x00, 0x20)\n      swap1\n    tag_198:\n      dup2\n      sload\n      dup2\n      mstore\n      swap1\n      0x01\n      add\n      swap1\n      0x20\n      add\n      dup1\n      dup4\n      gt\n      tag_198\n      jumpi\n      dup3\n      swap1\n      sub\n      0x1f\n      and\n      dup3\n      add\n      swap2\n    tag_196:\n      pop\n      pop\n      pop\n      pop\n      pop\n      swap1\n      pop\n        /* \"myNFT.sol\":497:622  function tokenURI(uint256 _tokenId) public view override returns (string memory) {... */\n      swap2\n      swap1\n      pop\n      jump\t// out\n        /* \"myNFT.sol\":351:490  function minting(uint256 _tokenId,string memory tokenURI) public{... */\n    tag_100:\n        /* \"myNFT.sol\":443:451  tokenURI */\n      dup1\n        /* \"myNFT.sol\":420:430  _tokenURIs */\n      0x07\n        /* \"myNFT.sol\":420:440  _tokenURIs[_tokenId] */\n      0x00\n        /* \"myNFT.sol\":431:439  _tokenId */\n      dup5\n        /* \"myNFT.sol\":420:440  _tokenURIs[_tokenId] */\n      dup2\n      mstore\n      0x20\n      add\n      swap1\n      dup2\n      mstore\n      0x20\n      add\n      0x00\n      keccak256\n        /* \"myNFT.sol\":420:451  _tokenURIs[_tokenId] = tokenURI */\n      swap1\n      dup2\n      tag_200\n      swap2\n      swap1\n      tag_201\n      jump\t// in\n    tag_200:\n      pop\n        /* \"myNFT.sol\":459:485  _mint(msg.sender,_tokenId) */\n      tag_202\n        /* \"myNFT.sol\":465:475  msg.sender */\n      caller\n        /* \"myNFT.sol\":476:484  _tokenId */\n      dup4\n        /* \"myNFT.sol\":459:464  _mint */\n      tag_203\n        /* \"myNFT.sol\":459:485  _mint(msg.sender,_tokenId) */\n      jump\t// in\n    tag_202:\n        /* \"myNFT.sol\":351:490  function minting(uint256 _tokenId,string memory tokenURI) public{... */\n      pop\n      pop\n      jump\t// out\n        /* \"node_modules/@openzeppelin/contracts/token/ERC721/ERC721.sol\":5908:6061  function isApprovedForAll(address owner, address operator) public view virtual returns (bool) {... */\n    tag_104:\n        /* \"node_modules/@openzeppelin/contracts/token/ERC721/ERC721.sol\":5996:6000  bool */\n      0x00\n        /* \"node_modules/@openzeppelin/contracts/token/ERC721/ERC721.sol\":6019:6037  _operatorApprovals */\n      0x06\n        /* \"node_modules/@openzeppelin/contracts/token/ERC721/ERC721.sol\":6019:6044  _operatorApprovals[owner] */\n      0x00\n        /* \"node_modules/@openzeppelin/contracts/token/ERC721/ERC721.sol\":6038:6043  owner */\n      dup5\n        /* \"node_modules/@openzeppelin/contracts/token/ERC721/ERC721.sol\":6019:6044  _operatorApprovals[owner] */\n      0xffffffffffffffffffffffffffffffffffffffff\n      and\n      0xffffffffffffffffffffffffffffffffffffffff\n      and\n      dup2\n      mstore\n      0x20\n      add\n      swap1\n      dup2\n      mstore\n      0x20\n      add\n      0x00\n      keccak256\n        /* \"node_modules/@openzeppelin/contracts/token/ERC721/ERC721.sol\":6019:6054  _operatorApprovals[owner][operator] */\n      0x00\n        /* \"node_modules/@openzeppelin/contracts/token/ERC721/ERC721.sol\":6045:6053  operator */\n      dup4\n        /* \"node_modules/@openzeppelin/contracts/token/ERC721/ERC721.sol\":6019:6054  _operatorApprovals[owner][operator] */\n      0xffffffffffffffffffffffffffffffffffffffff\n      and\n      0xffffffffffffffffffffffffffffffffffffffff\n      and\n      dup2\n      mstore\n      0x20\n      add\n      swap1\n      dup2\n      mstore\n      0x20\n      add\n      0x00\n      keccak256\n      0x00\n      swap1\n      sload\n      swap1\n      0x0100\n      exp\n      swap1\n      div\n      0xff\n      and\n        /* \"node_modules/@openzeppelin/contracts/token/ERC721/ERC721.sol\":6012:6054  return _operatorApprovals[owner][operator] */\n      swap1\n      pop\n        /* \"node_modules/@openzeppelin/contracts/token/ERC721/ERC721.sol\":5908:6061  function isApprovedForAll(address owner, address operator) public view virtual returns (bool) {... */\n      swap3\n      swap2\n      pop\n      pop\n      jump\t// out\n        /* \"node_modules/@openzeppelin/contracts/utils/introspection/ERC165.sol\":762:908  function supportsInterface(bytes4 interfaceId) public view virtual returns (bool) {... */\n    tag_110:\n        /* \"node_modules/@openzeppelin/contracts/utils/introspection/ERC165.sol\":838:842  bool */\n      0x00\n        /* \"node_modules/@openzeppelin/contracts/utils/introspection/ERC165.sol\":876:901  type(IERC165).interfaceId */\n      0x01ffc9a700000000000000000000000000000000000000000000000000000000\n        /* \"node_modules/@openzeppelin/contracts/utils/introspection/ERC165.sol\":861:901  interfaceId == type(IERC165).interfaceId */\n      not(0xffffffffffffffffffffffffffffffffffffffffffffffffffffffff)\n      and\n        /* \"node_modules/@openzeppelin/contracts/utils/introspection/ERC165.sol\":861:872  interfaceId */\n      dup3\n        /* \"node_modules/@openzeppelin/contracts/utils/introspection/ERC165.sol\":861:901  interfaceId == type(IERC165).interfaceId */\n      not(0xffffffffffffffffffffffffffffffffffffffffffffffffffffffff)\n      and\n      eq\n        /* \"node_modules/@openzeppelin/contracts/utils/introspection/ERC165.sol\":854:901  return interfaceId == type(IERC165).interfaceId */\n      swap1\n      pop\n        /* \"node_modules/@openzeppelin/contracts/utils/introspection/ERC165.sol\":762:908  function supportsInterface(bytes4 interfaceId) public view virtual returns (bool) {... */\n      swap2\n      swap1\n      pop\n      jump\t// out\n        /* \"node_modules/@openzeppelin/contracts/token/ERC721/ERC721.sol\":18242:18483  function _requireOwned(uint256 tokenId) internal view returns (address) {... */\n    tag_120:\n        /* \"node_modules/@openzeppelin/contracts/token/ERC721/ERC721.sol\":18305:18312  address */\n      0x00\n        /* \"node_modules/@openzeppelin/contracts/token/ERC721/ERC721.sol\":18324:18337  address owner */\n      dup1\n        /* \"node_modules/@openzeppelin/contracts/token/ERC721/ERC721.sol\":18340:18357  _ownerOf(tokenId) */\n      tag_207\n        /* \"node_modules/@openzeppelin/contracts/token/ERC721/ERC721.sol\":18349:18356  tokenId */\n      dup4\n        /* \"node_modules/@openzeppelin/contracts/token/ERC721/ERC721.sol\":18340:18348  _ownerOf */\n      tag_208\n        /* \"node_modules/@openzeppelin/contracts/token/ERC721/ERC721.sol\":18340:18357  _ownerOf(tokenId) */\n      jump\t// in\n    tag_207:\n        /* \"node_modules/@openzeppelin/contracts/token/ERC721/ERC721.sol\":18324:18357  address owner = _ownerOf(tokenId) */\n      swap1\n      pop\n        /* \"node_modules/@openzeppelin/contracts/token/ERC721/ERC721.sol\":18388:18389  0 */\n      0x00\n        /* \"node_modules/@openzeppelin/contracts/token/ERC721/ERC721.sol\":18371:18390  owner == address(0) */\n      0xffffffffffffffffffffffffffffffffffffffff\n      and\n        /* \"node_modules/@openzeppelin/contracts/token/ERC721/ERC721.sol\":18371:18376  owner */\n      dup2\n        /* \"node_modules/@openzeppelin/contracts/token/ERC721/ERC721.sol\":18371:18390  owner == address(0) */\n      0xffffffffffffffffffffffffffffffffffffffff\n      and\n      sub\n        /* \"node_modules/@openzeppelin/contracts/token/ERC721/ERC721.sol\":18367:18455  if (owner == address(0)) {... */\n      tag_209\n      jumpi\n        /* \"node_modules/@openzeppelin/contracts/token/ERC721/ERC721.sol\":18436:18443  tokenId */\n      dup3\n        /* \"node_modules/@openzeppelin/contracts/token/ERC721/ERC721.sol\":18413:18444  ERC721NonexistentToken(tokenId) */\n      mload(0x40)\n      0x7e27328900000000000000000000000000000000000000000000000000000000\n      dup2\n      mstore\n      0x04\n      add\n      tag_210\n      swap2\n      swap1\n      tag_70\n      jump\t// in\n    tag_210:\n      mload(0x40)\n      dup1\n      swap2\n      sub\n      swap1\n      revert\n        /* \"node_modules/@openzeppelin/contracts/token/ERC721/ERC721.sol\":18367:18455  if (owner == address(0)) {... */\n    tag_209:\n        /* \"node_modules/@openzeppelin/contracts/token/ERC721/ERC721.sol\":18471:18476  owner */\n      dup1\n        /* \"node_modules/@openzeppelin/contracts/token/ERC721/ERC721.sol\":18464:18476  return owner */\n      swap2\n      pop\n      pop\n        /* \"node_modules/@openzeppelin/contracts/token/ERC721/ERC721.sol\":18242:18483  function _requireOwned(uint256 tokenId) internal view returns (address) {... */\n      swap2\n      swap1\n      pop\n      jump\t// out\n        /* \"node_modules/@openzeppelin/contracts/token/ERC721/ERC721.sol\":7918:8045  function _getApproved(uint256 tokenId) internal view virtual returns (address) {... */\n    tag_122:\n        /* \"node_modules/@openzeppelin/contracts/token/ERC721/ERC721.sol\":7988:7995  address */\n      0x00\n        /* \"node_modules/@openzeppelin/contracts/token/ERC721/ERC721.sol\":8014:8029  _tokenApprovals */\n      0x05\n        /* \"node_modules/@openzeppelin/contracts/token/ERC721/ERC721.sol\":8014:8038  _tokenApprovals[tokenId] */\n      0x00\n        /* \"node_modules/@openzeppelin/contracts/token/ERC721/ERC721.sol\":8030:8037  tokenId */\n      dup4\n        /* \"node_modules/@openzeppelin/contracts/token/ERC721/ERC721.sol\":8014:8038  _tokenApprovals[tokenId] */\n      dup2\n      mstore\n      0x20\n      add\n      swap1\n      dup2\n      mstore\n      0x20\n      add\n      0x00\n      keccak256\n      0x00\n      swap1\n      sload\n      swap1\n      0x0100\n      exp\n      swap1\n      div\n      0xffffffffffffffffffffffffffffffffffffffff\n      and\n        /* \"node_modules/@openzeppelin/contracts/token/ERC721/ERC721.sol\":8007:8038  return _tokenApprovals[tokenId] */\n      swap1\n      pop\n        /* \"node_modules/@openzeppelin/contracts/token/ERC721/ERC721.sol\":7918:8045  function _getApproved(uint256 tokenId) internal view virtual returns (address) {... */\n      swap2\n      swap1\n      pop\n      jump\t// out\n        /* \"node_modules/@openzeppelin/contracts/utils/Context.sol\":656:752  function _msgSender() internal view virtual returns (address) {... */\n    tag_126:\n        /* \"node_modules/@openzeppelin/contracts/utils/Context.sol\":709:716  address */\n      0x00\n        /* \"node_modules/@openzeppelin/contracts/utils/Context.sol\":735:745  msg.sender */\n      caller\n        /* \"node_modules/@openzeppelin/contracts/utils/Context.sol\":728:745  return msg.sender */\n      swap1\n      pop\n        /* \"node_modules/@openzeppelin/contracts/utils/Context.sol\":656:752  function _msgSender() internal view virtual returns (address) {... */\n      swap1\n      jump\t// out\n        /* \"node_modules/@openzeppelin/contracts/token/ERC721/ERC721.sol\":16522:16642  function _approve(address to, uint256 tokenId, address auth) internal {... */\n    tag_127:\n        /* \"node_modules/@openzeppelin/contracts/token/ERC721/ERC721.sol\":16602:16635  _approve(to, tokenId, auth, true) */\n      tag_214\n        /* \"node_modules/@openzeppelin/contracts/token/ERC721/ERC721.sol\":16611:16613  to */\n      dup4\n        /* \"node_modules/@openzeppelin/contracts/token/ERC721/ERC721.sol\":16615:16622  tokenId */\n      dup4\n        /* \"node_modules/@openzeppelin/contracts/token/ERC721/ERC721.sol\":16624:16628  auth */\n      dup4\n        /* \"node_modules/@openzeppelin/contracts/token/ERC721/ERC721.sol\":16630:16634  true */\n      0x01\n        /* \"node_modules/@openzeppelin/contracts/token/ERC721/ERC721.sol\":16602:16610  _approve */\n      tag_215\n        /* \"node_modules/@openzeppelin/contracts/token/ERC721/ERC721.sol\":16602:16635  _approve(to, tokenId, auth, true) */\n      jump\t// in\n    tag_214:\n        /* \"node_modules/@openzeppelin/contracts/token/ERC721/ERC721.sol\":16522:16642  function _approve(address to, uint256 tokenId, address auth) internal {... */\n      pop\n      pop\n      pop\n      jump\t// out\n        /* \"myNFT.sol\":813:948  function _baseURI()internal view override returns (string memory){... */\n    tag_130:\n        /* \"myNFT.sol\":864:877  string memory */\n      0x60\n        /* \"myNFT.sol\":884:943  return \"https://coral-dear-gibbon-930.mypinata.cloud/ipfs/\" */\n      mload(0x40)\n      dup1\n      0x60\n      add\n      0x40\n      mstore\n      dup1\n      0x32\n      dup2\n      mstore\n      0x20\n      add\n      data_d1f8d88b6e34b43596d2de84a0185752a3add6e83a91b900a9741f09edc98ffe\n      0x32\n      swap2\n      codecopy\n      swap1\n      pop\n        /* \"myNFT.sol\":813:948  function _baseURI()internal view override returns (string memory){... */\n      swap1\n      jump\t// out\n        /* \"node_modules/@openzeppelin/contracts/token/ERC721/ERC721.sol\":10822:11617  function _update(address to, uint256 tokenId, address auth) internal virtual returns (address) {... */\n    tag_138:\n        /* \"node_modules/@openzeppelin/contracts/token/ERC721/ERC721.sol\":10908:10915  address */\n      0x00\n        /* \"node_modules/@openzeppelin/contracts/token/ERC721/ERC721.sol\":10927:10939  address from */\n      dup1\n        /* \"node_modules/@openzeppelin/contracts/token/ERC721/ERC721.sol\":10942:10959  _ownerOf(tokenId) */\n      tag_218\n        /* \"node_modules/@openzeppelin/contracts/token/ERC721/ERC721.sol\":10951:10958  tokenId */\n      dup5\n        /* \"node_modules/@openzeppelin/contracts/token/ERC721/ERC721.sol\":10942:10950  _ownerOf */\n      tag_208\n        /* \"node_modules/@openzeppelin/contracts/token/ERC721/ERC721.sol\":10942:10959  _ownerOf(tokenId) */\n      jump\t// in\n    tag_218:\n        /* \"node_modules/@openzeppelin/contracts/token/ERC721/ERC721.sol\":10927:10959  address from = _ownerOf(tokenId) */\n      swap1\n      pop\n        /* \"node_modules/@openzeppelin/contracts/token/ERC721/ERC721.sol\":11035:11036  0 */\n      0x00\n        /* \"node_modules/@openzeppelin/contracts/token/ERC721/ERC721.sol\":11019:11037  auth != address(0) */\n      0xffffffffffffffffffffffffffffffffffffffff\n      and\n        /* \"node_modules/@openzeppelin/contracts/token/ERC721/ERC721.sol\":11019:11023  auth */\n      dup4\n        /* \"node_modules/@openzeppelin/contracts/token/ERC721/ERC721.sol\":11019:11037  auth != address(0) */\n      0xffffffffffffffffffffffffffffffffffffffff\n      and\n      eq\n        /* \"node_modules/@openzeppelin/contracts/token/ERC721/ERC721.sol\":11015:11101  if (auth != address(0)) {... */\n      tag_219\n      jumpi\n        /* \"node_modules/@openzeppelin/contracts/token/ERC721/ERC721.sol\":11053:11090  _checkAuthorized(from, auth, tokenId) */\n      tag_220\n        /* \"node_modules/@openzeppelin/contracts/token/ERC721/ERC721.sol\":11070:11074  from */\n      dup2\n        /* \"node_modules/@openzeppelin/contracts/token/ERC721/ERC721.sol\":11076:11080  auth */\n      dup5\n        /* \"node_modules/@openzeppelin/contracts/token/ERC721/ERC721.sol\":11082:11089  tokenId */\n      dup7\n        /* \"node_modules/@openzeppelin/contracts/token/ERC721/ERC721.sol\":11053:11069  _checkAuthorized */\n      tag_221\n        /* \"node_modules/@openzeppelin/contracts/token/ERC721/ERC721.sol\":11053:11090  _checkAuthorized(from, auth, tokenId) */\n      jump\t// in\n    tag_220:\n        /* \"node_modules/@openzeppelin/contracts/token/ERC721/ERC721.sol\":11015:11101  if (auth != address(0)) {... */\n    tag_219:\n        /* \"node_modules/@openzeppelin/contracts/token/ERC721/ERC721.sol\":11161:11162  0 */\n      0x00\n        /* \"node_modules/@openzeppelin/contracts/token/ERC721/ERC721.sol\":11145:11163  from != address(0) */\n      0xffffffffffffffffffffffffffffffffffffffff\n      and\n        /* \"node_modules/@openzeppelin/contracts/token/ERC721/ERC721.sol\":11145:11149  from */\n      dup2\n        /* \"node_modules/@openzeppelin/contracts/token/ERC721/ERC721.sol\":11145:11163  from != address(0) */\n      0xffffffffffffffffffffffffffffffffffffffff\n      and\n      eq\n        /* \"node_modules/@openzeppelin/contracts/token/ERC721/ERC721.sol\":11141:11397  if (from != address(0)) {... */\n      tag_222\n      jumpi\n        /* \"node_modules/@openzeppelin/contracts/token/ERC721/ERC721.sol\":11261:11309  _approve(address(0), tokenId, address(0), false) */\n      tag_223\n        /* \"node_modules/@openzeppelin/contracts/token/ERC721/ERC721.sol\":11278:11279  0 */\n      0x00\n        /* \"node_modules/@openzeppelin/contracts/token/ERC721/ERC721.sol\":11282:11289  tokenId */\n      dup6\n        /* \"node_modules/@openzeppelin/contracts/token/ERC721/ERC721.sol\":11299:11300  0 */\n      0x00\n        /* \"node_modules/@openzeppelin/contracts/token/ERC721/ERC721.sol\":11303:11308  false */\n      dup1\n        /* \"node_modules/@openzeppelin/contracts/token/ERC721/ERC721.sol\":11261:11269  _approve */\n      tag_215\n        /* \"node_modules/@openzeppelin/contracts/token/ERC721/ERC721.sol\":11261:11309  _approve(address(0), tokenId, address(0), false) */\n      jump\t// in\n    tag_223:\n        /* \"node_modules/@openzeppelin/contracts/token/ERC721/ERC721.sol\":11371:11372  1 */\n      0x01\n        /* \"node_modules/@openzeppelin/contracts/token/ERC721/ERC721.sol\":11352:11361  _balances */\n      0x04\n        /* \"node_modules/@openzeppelin/contracts/token/ERC721/ERC721.sol\":11352:11367  _balances[from] */\n      0x00\n        /* \"node_modules/@openzeppelin/contracts/token/ERC721/ERC721.sol\":11362:11366  from */\n      dup4\n        /* \"node_modules/@openzeppelin/contracts/token/ERC721/ERC721.sol\":11352:11367  _balances[from] */\n      0xffffffffffffffffffffffffffffffffffffffff\n      and\n      0xffffffffffffffffffffffffffffffffffffffff\n      and\n      dup2\n      mstore\n      0x20\n      add\n      swap1\n      dup2\n      mstore\n      0x20\n      add\n      0x00\n      keccak256\n      0x00\n        /* \"node_modules/@openzeppelin/contracts/token/ERC721/ERC721.sol\":11352:11372  _balances[from] -= 1 */\n      dup3\n      dup3\n      sload\n      sub\n      swap3\n      pop\n      pop\n      dup2\n      swap1\n      sstore\n      pop\n        /* \"node_modules/@openzeppelin/contracts/token/ERC721/ERC721.sol\":11141:11397  if (from != address(0)) {... */\n    tag_222:\n        /* \"node_modules/@openzeppelin/contracts/token/ERC721/ERC721.sol\":11425:11426  0 */\n      0x00\n        /* \"node_modules/@openzeppelin/contracts/token/ERC721/ERC721.sol\":11411:11427  to != address(0) */\n      0xffffffffffffffffffffffffffffffffffffffff\n      and\n        /* \"node_modules/@openzeppelin/contracts/token/ERC721/ERC721.sol\":11411:11413  to */\n      dup6\n        /* \"node_modules/@openzeppelin/contracts/token/ERC721/ERC721.sol\":11411:11427  to != address(0) */\n      0xffffffffffffffffffffffffffffffffffffffff\n      and\n      eq\n        /* \"node_modules/@openzeppelin/contracts/token/ERC721/ERC721.sol\":11407:11514  if (to != address(0)) {... */\n      tag_224\n      jumpi\n        /* \"node_modules/@openzeppelin/contracts/token/ERC721/ERC721.sol\":11488:11489  1 */\n      0x01\n        /* \"node_modules/@openzeppelin/contracts/token/ERC721/ERC721.sol\":11471:11480  _balances */\n      0x04\n        /* \"node_modules/@openzeppelin/contracts/token/ERC721/ERC721.sol\":11471:11484  _balances[to] */\n      0x00\n        /* \"node_modules/@openzeppelin/contracts/token/ERC721/ERC721.sol\":11481:11483  to */\n      dup8\n        /* \"node_modules/@openzeppelin/contracts/token/ERC721/ERC721.sol\":11471:11484  _balances[to] */\n      0xffffffffffffffffffffffffffffffffffffffff\n      and\n      0xffffffffffffffffffffffffffffffffffffffff\n      and\n      dup2\n      mstore\n      0x20\n      add\n      swap1\n      dup2\n      mstore\n      0x20\n      add\n      0x00\n      keccak256\n      0x00\n        /* \"node_modules/@openzeppelin/contracts/token/ERC721/ERC721.sol\":11471:11489  _balances[to] += 1 */\n      dup3\n      dup3\n      sload\n      add\n      swap3\n      pop\n      pop\n      dup2\n      swap1\n      sstore\n      pop\n        /* \"node_modules/@openzeppelin/contracts/token/ERC721/ERC721.sol\":11407:11514  if (to != address(0)) {... */\n    tag_224:\n        /* \"node_modules/@openzeppelin/contracts/token/ERC721/ERC721.sol\":11543:11545  to */\n      dup5\n        /* \"node_modules/@openzeppelin/contracts/token/ERC721/ERC721.sol\":11524:11531  _owners */\n      0x03\n        /* \"node_modules/@openzeppelin/contracts/token/ERC721/ERC721.sol\":11524:11540  _owners[tokenId] */\n      0x00\n        /* \"node_modules/@openzeppelin/contracts/token/ERC721/ERC721.sol\":11532:11539  tokenId */\n      dup7\n        /* \"node_modules/@openzeppelin/contracts/token/ERC721/ERC721.sol\":11524:11540  _owners[tokenId] */\n      dup2\n      mstore\n      0x20\n      add\n      swap1\n      dup2\n      mstore\n      0x20\n      add\n      0x00\n      keccak256\n      0x00\n        /* \"node_modules/@openzeppelin/contracts/token/ERC721/ERC721.sol\":11524:11545  _owners[tokenId] = to */\n      0x0100\n      exp\n      dup2\n      sload\n      dup2\n      0xffffffffffffffffffffffffffffffffffffffff\n      mul\n      not\n      and\n      swap1\n      dup4\n      0xffffffffffffffffffffffffffffffffffffffff\n      and\n      mul\n      or\n      swap1\n      sstore\n      pop\n        /* \"node_modules/@openzeppelin/contracts/token/ERC721/ERC721.sol\":11580:11587  tokenId */\n      dup4\n        /* \"node_modules/@openzeppelin/contracts/token/ERC721/ERC721.sol\":11576:11578  to */\n      dup6\n        /* \"node_modules/@openzeppelin/contracts/token/ERC721/ERC721.sol\":11561:11588  Transfer(from, to, tokenId) */\n      0xffffffffffffffffffffffffffffffffffffffff\n      and\n        /* \"node_modules/@openzeppelin/contracts/token/ERC721/ERC721.sol\":11570:11574  from */\n      dup3\n        /* \"node_modules/@openzeppelin/contracts/token/ERC721/ERC721.sol\":11561:11588  Transfer(from, to, tokenId) */\n      0xffffffffffffffffffffffffffffffffffffffff\n      and\n      0xddf252ad1be2c89b69c2b068fc378daa952ba7f163c4a11628f55a4df523b3ef\n      mload(0x40)\n      mload(0x40)\n      dup1\n      swap2\n      sub\n      swap1\n      log4\n        /* \"node_modules/@openzeppelin/contracts/token/ERC721/ERC721.sol\":11606:11610  from */\n      dup1\n        /* \"node_modules/@openzeppelin/contracts/token/ERC721/ERC721.sol\":11599:11610  return from */\n      swap2\n      pop\n      pop\n        /* \"node_modules/@openzeppelin/contracts/token/ERC721/ERC721.sol\":10822:11617  function _update(address to, uint256 tokenId, address auth) internal virtual returns (address) {... */\n      swap4\n      swap3\n      pop\n      pop\n      pop\n      jump\t// out\n        /* \"node_modules/@openzeppelin/contracts/token/ERC721/ERC721.sol\":17695:18007  function _setApprovalForAll(address owner, address operator, bool approved) internal virtual {... */\n    tag_144:\n        /* \"node_modules/@openzeppelin/contracts/token/ERC721/ERC721.sol\":17822:17823  0 */\n      0x00\n        /* \"node_modules/@openzeppelin/contracts/token/ERC721/ERC721.sol\":17802:17824  operator == address(0) */\n      0xffffffffffffffffffffffffffffffffffffffff\n      and\n        /* \"node_modules/@openzeppelin/contracts/token/ERC721/ERC721.sol\":17802:17810  operator */\n      dup3\n        /* \"node_modules/@openzeppelin/contracts/token/ERC721/ERC721.sol\":17802:17824  operator == address(0) */\n      0xffffffffffffffffffffffffffffffffffffffff\n      and\n      sub\n        /* \"node_modules/@openzeppelin/contracts/token/ERC721/ERC721.sol\":17798:17889  if (operator == address(0)) {... */\n      tag_226\n      jumpi\n        /* \"node_modules/@openzeppelin/contracts/token/ERC721/ERC721.sol\":17869:17877  operator */\n      dup2\n        /* \"node_modules/@openzeppelin/contracts/token/ERC721/ERC721.sol\":17847:17878  ERC721InvalidOperator(operator) */\n      mload(0x40)\n      0x5b08ba1800000000000000000000000000000000000000000000000000000000\n      dup2\n      mstore\n      0x04\n      add\n      tag_227\n      swap2\n      swap1\n      tag_40\n      jump\t// in\n    tag_227:\n      mload(0x40)\n      dup1\n      swap2\n      sub\n      swap1\n      revert\n        /* \"node_modules/@openzeppelin/contracts/token/ERC721/ERC721.sol\":17798:17889  if (operator == address(0)) {... */\n    tag_226:\n        /* \"node_modules/@openzeppelin/contracts/token/ERC721/ERC721.sol\":17936:17944  approved */\n      dup1\n        /* \"node_modules/@openzeppelin/contracts/token/ERC721/ERC721.sol\":17898:17916  _operatorApprovals */\n      0x06\n        /* \"node_modules/@openzeppelin/contracts/token/ERC721/ERC721.sol\":17898:17923  _operatorApprovals[owner] */\n      0x00\n        /* \"node_modules/@openzeppelin/contracts/token/ERC721/ERC721.sol\":17917:17922  owner */\n      dup6\n        /* \"node_modules/@openzeppelin/contracts/token/ERC721/ERC721.sol\":17898:17923  _operatorApprovals[owner] */\n      0xffffffffffffffffffffffffffffffffffffffff\n      and\n      0xffffffffffffffffffffffffffffffffffffffff\n      and\n      dup2\n      mstore\n      0x20\n      add\n      swap1\n      dup2\n      mstore\n      0x20\n      add\n      0x00\n      keccak256\n        /* \"node_modules/@openzeppelin/contracts/token/ERC721/ERC721.sol\":17898:17933  _operatorApprovals[owner][operator] */\n      0x00\n        /* \"node_modules/@openzeppelin/contracts/token/ERC721/ERC721.sol\":17924:17932  operator */\n      dup5\n        /* \"node_modules/@openzeppelin/contracts/token/ERC721/ERC721.sol\":17898:17933  _operatorApprovals[owner][operator] */\n      0xffffffffffffffffffffffffffffffffffffffff\n      and\n      0xffffffffffffffffffffffffffffffffffffffff\n      and\n      dup2\n      mstore\n      0x20\n      add\n      swap1\n      dup2\n      mstore\n      0x20\n      add\n      0x00\n      keccak256\n      0x00\n        /* \"node_modules/@openzeppelin/contracts/token/ERC721/ERC721.sol\":17898:17944  _operatorApprovals[owner][operator] = approved */\n      0x0100\n      exp\n      dup2\n      sload\n      dup2\n      0xff\n      mul\n      not\n      and\n      swap1\n      dup4\n      iszero\n      iszero\n      mul\n      or\n      swap1\n      sstore\n      pop\n        /* \"node_modules/@openzeppelin/contracts/token/ERC721/ERC721.sol\":17981:17989  operator */\n      dup2\n        /* \"node_modules/@openzeppelin/contracts/token/ERC721/ERC721.sol\":17959:18000  ApprovalForAll(owner, operator, approved) */\n      0xffffffffffffffffffffffffffffffffffffffff\n      and\n        /* \"node_modules/@openzeppelin/contracts/token/ERC721/ERC721.sol\":17974:17979  owner */\n      dup4\n        /* \"node_modules/@openzeppelin/contracts/token/ERC721/ERC721.sol\":17959:18000  ApprovalForAll(owner, operator, approved) */\n      0xffffffffffffffffffffffffffffffffffffffff\n      and\n      0x17307eab39ab6107e8899845ad3d59bd9653f200f220920489ca2b5937696c31\n        /* \"node_modules/@openzeppelin/contracts/token/ERC721/ERC721.sol\":17991:17999  approved */\n      dup4\n        /* \"node_modules/@openzeppelin/contracts/token/ERC721/ERC721.sol\":17959:18000  ApprovalForAll(owner, operator, approved) */\n      mload(0x40)\n      tag_228\n      swap2\n      swap1\n      tag_30\n      jump\t// in\n    tag_228:\n      mload(0x40)\n      dup1\n      swap2\n      sub\n      swap1\n      log3\n        /* \"node_modules/@openzeppelin/contracts/token/ERC721/ERC721.sol\":17695:18007  function _setApprovalForAll(address owner, address operator, bool approved) internal virtual {... */\n      pop\n      pop\n      pop\n      jump\t// out\n        /* \"node_modules/@openzeppelin/contracts/token/ERC721/ERC721.sol\":19022:19804  function _checkOnERC721Received(address from, address to, uint256 tokenId, bytes memory data) private {... */\n    tag_192:\n        /* \"node_modules/@openzeppelin/contracts/token/ERC721/ERC721.sol\":19155:19156  0 */\n      0x00\n        /* \"node_modules/@openzeppelin/contracts/token/ERC721/ERC721.sol\":19138:19140  to */\n      dup4\n        /* \"node_modules/@openzeppelin/contracts/token/ERC721/ERC721.sol\":19138:19152  to.code.length */\n      0xffffffffffffffffffffffffffffffffffffffff\n      and\n      extcodesize\n        /* \"node_modules/@openzeppelin/contracts/token/ERC721/ERC721.sol\":19138:19156  to.code.length > 0 */\n      gt\n        /* \"node_modules/@openzeppelin/contracts/token/ERC721/ERC721.sol\":19134:19798  if (to.code.length > 0) {... */\n      iszero\n      tag_230\n      jumpi\n        /* \"node_modules/@openzeppelin/contracts/token/ERC721/ERC721.sol\":19192:19194  to */\n      dup3\n        /* \"node_modules/@openzeppelin/contracts/token/ERC721/ERC721.sol\":19176:19212  IERC721Receiver(to).onERC721Received */\n      0xffffffffffffffffffffffffffffffffffffffff\n      and\n      0x150b7a02\n        /* \"node_modules/@openzeppelin/contracts/token/ERC721/ERC721.sol\":19213:19225  _msgSender() */\n      tag_231\n        /* \"node_modules/@openzeppelin/contracts/token/ERC721/ERC721.sol\":19213:19223  _msgSender */\n      tag_126\n        /* \"node_modules/@openzeppelin/contracts/token/ERC721/ERC721.sol\":19213:19225  _msgSender() */\n      jump\t// in\n    tag_231:\n        /* \"node_modules/@openzeppelin/contracts/token/ERC721/ERC721.sol\":19227:19231  from */\n      dup7\n        /* \"node_modules/@openzeppelin/contracts/token/ERC721/ERC721.sol\":19233:19240  tokenId */\n      dup6\n        /* \"node_modules/@openzeppelin/contracts/token/ERC721/ERC721.sol\":19242:19246  data */\n      dup6\n        /* \"node_modules/@openzeppelin/contracts/token/ERC721/ERC721.sol\":19176:19247  IERC721Receiver(to).onERC721Received(_msgSender(), from, tokenId, data) */\n      mload(0x40)\n      dup6\n      0xffffffff\n      and\n      0xe0\n      shl\n      dup2\n      mstore\n      0x04\n      add\n      tag_232\n      swap5\n      swap4\n      swap3\n      swap2\n      swap1\n      tag_233\n      jump\t// in\n    tag_232:\n      0x20\n      mload(0x40)\n      dup1\n      dup4\n      sub\n      dup2\n      0x00\n      dup8\n      gas\n      call\n      swap3\n      pop\n      pop\n      pop\n      dup1\n      iszero\n      tag_234\n      jumpi\n      pop\n      mload(0x40)\n      returndatasize\n      not(0x1f)\n      0x1f\n      dup3\n      add\n      and\n      dup3\n      add\n      dup1\n      0x40\n      mstore\n      pop\n      dup2\n      add\n      swap1\n      tag_235\n      swap2\n      swap1\n      tag_236\n      jump\t// in\n    tag_235:\n      0x01\n    tag_234:\n        /* \"node_modules/@openzeppelin/contracts/token/ERC721/ERC721.sol\":19172:19788  try IERC721Receiver(to).onERC721Received(_msgSender(), from, tokenId, data) returns (bytes4 retval) {... */\n      tag_237\n      jumpi\n      returndatasize\n      dup1\n      0x00\n      dup2\n      eq\n      tag_242\n      jumpi\n      mload(0x40)\n      swap2\n      pop\n      and(add(returndatasize, 0x3f), not(0x1f))\n      dup3\n      add\n      0x40\n      mstore\n      returndatasize\n      dup3\n      mstore\n      returndatasize\n      0x00\n      0x20\n      dup5\n      add\n      returndatacopy\n      jump(tag_241)\n    tag_242:\n      0x60\n      swap2\n      pop\n    tag_241:\n      pop\n        /* \"node_modules/@openzeppelin/contracts/token/ERC721/ERC721.sol\":19502:19503  0 */\n      0x00\n        /* \"node_modules/@openzeppelin/contracts/token/ERC721/ERC721.sol\":19485:19491  reason */\n      dup2\n        /* \"node_modules/@openzeppelin/contracts/token/ERC721/ERC721.sol\":19485:19498  reason.length */\n      mload\n        /* \"node_modules/@openzeppelin/contracts/token/ERC721/ERC721.sol\":19485:19503  reason.length == 0 */\n      sub\n        /* \"node_modules/@openzeppelin/contracts/token/ERC721/ERC721.sol\":19481:19774  if (reason.length == 0) {... */\n      tag_243\n      jumpi\n        /* \"node_modules/@openzeppelin/contracts/token/ERC721/ERC721.sol\":19556:19558  to */\n      dup4\n        /* \"node_modules/@openzeppelin/contracts/token/ERC721/ERC721.sol\":19534:19559  ERC721InvalidReceiver(to) */\n      mload(0x40)\n      0x64a0ae9200000000000000000000000000000000000000000000000000000000\n      dup2\n      mstore\n      0x04\n      add\n      tag_244\n      swap2\n      swap1\n      tag_40\n      jump\t// in\n    tag_244:\n      mload(0x40)\n      dup1\n      swap2\n      sub\n      swap1\n      revert\n        /* \"node_modules/@openzeppelin/contracts/token/ERC721/ERC721.sol\":19481:19774  if (reason.length == 0) {... */\n    tag_243:\n        /* \"node_modules/@openzeppelin/contracts/token/ERC721/ERC721.sol\":19726:19732  reason */\n      dup1\n        /* \"node_modules/@openzeppelin/contracts/token/ERC721/ERC721.sol\":19720:19733  mload(reason) */\n      mload\n        /* \"node_modules/@openzeppelin/contracts/token/ERC721/ERC721.sol\":19711:19717  reason */\n      dup2\n        /* \"node_modules/@openzeppelin/contracts/token/ERC721/ERC721.sol\":19707:19709  32 */\n      0x20\n        /* \"node_modules/@openzeppelin/contracts/token/ERC721/ERC721.sol\":19703:19718  add(32, reason) */\n      add\n        /* \"node_modules/@openzeppelin/contracts/token/ERC721/ERC721.sol\":19696:19734  revert(add(32, reason), mload(reason)) */\n      revert\n        /* \"node_modules/@openzeppelin/contracts/token/ERC721/ERC721.sol\":19172:19788  try IERC721Receiver(to).onERC721Received(_msgSender(), from, tokenId, data) returns (bytes4 retval) {... */\n    tag_237:\n        /* \"node_modules/@openzeppelin/contracts/token/ERC721/ERC721.sol\":19304:19345  IERC721Receiver.onERC721Received.selector */\n      shl(0xe0, 0x150b7a02)\n        /* \"node_modules/@openzeppelin/contracts/token/ERC721/ERC721.sol\":19294:19345  retval != IERC721Receiver.onERC721Received.selector */\n      not(0xffffffffffffffffffffffffffffffffffffffffffffffffffffffff)\n      and\n        /* \"node_modules/@openzeppelin/contracts/token/ERC721/ERC721.sol\":19294:19300  retval */\n      dup2\n        /* \"node_modules/@openzeppelin/contracts/token/ERC721/ERC721.sol\":19294:19345  retval != IERC721Receiver.onERC721Received.selector */\n      not(0xffffffffffffffffffffffffffffffffffffffffffffffffffffffff)\n      and\n      eq\n        /* \"node_modules/@openzeppelin/contracts/token/ERC721/ERC721.sol\":19290:19420  if (retval != IERC721Receiver.onERC721Received.selector) {... */\n      tag_247\n      jumpi\n        /* \"node_modules/@openzeppelin/contracts/token/ERC721/ERC721.sol\":19398:19400  to */\n      dup4\n        /* \"node_modules/@openzeppelin/contracts/token/ERC721/ERC721.sol\":19376:19401  ERC721InvalidReceiver(to) */\n      mload(0x40)\n      0x64a0ae9200000000000000000000000000000000000000000000000000000000\n      dup2\n      mstore\n      0x04\n      add\n      tag_248\n      swap2\n      swap1\n      tag_40\n      jump\t// in\n    tag_248:\n      mload(0x40)\n      dup1\n      swap2\n      sub\n      swap1\n      revert\n        /* \"node_modules/@openzeppelin/contracts/token/ERC721/ERC721.sol\":19290:19420  if (retval != IERC721Receiver.onERC721Received.selector) {... */\n    tag_247:\n        /* \"node_modules/@openzeppelin/contracts/token/ERC721/ERC721.sol\":19248:19434  returns (bytes4 retval) {... */\n      pop\n        /* \"node_modules/@openzeppelin/contracts/token/ERC721/ERC721.sol\":19134:19798  if (to.code.length > 0) {... */\n    tag_230:\n        /* \"node_modules/@openzeppelin/contracts/token/ERC721/ERC721.sol\":19022:19804  function _checkOnERC721Received(address from, address to, uint256 tokenId, bytes memory data) private {... */\n      pop\n      pop\n      pop\n      pop\n      jump\t// out\n        /* \"node_modules/@openzeppelin/contracts/token/ERC721/ERC721.sol\":11939:12290  function _mint(address to, uint256 tokenId) internal {... */\n    tag_203:\n        /* \"node_modules/@openzeppelin/contracts/token/ERC721/ERC721.sol\":12020:12021  0 */\n      0x00\n        /* \"node_modules/@openzeppelin/contracts/token/ERC721/ERC721.sol\":12006:12022  to == address(0) */\n      0xffffffffffffffffffffffffffffffffffffffff\n      and\n        /* \"node_modules/@openzeppelin/contracts/token/ERC721/ERC721.sol\":12006:12008  to */\n      dup3\n        /* \"node_modules/@openzeppelin/contracts/token/ERC721/ERC721.sol\":12006:12022  to == address(0) */\n      0xffffffffffffffffffffffffffffffffffffffff\n      and\n      sub\n        /* \"node_modules/@openzeppelin/contracts/token/ERC721/ERC721.sol\":12002:12089  if (to == address(0)) {... */\n      tag_250\n      jumpi\n        /* \"node_modules/@openzeppelin/contracts/token/ERC721/ERC721.sol\":12075:12076  0 */\n      0x00\n        /* \"node_modules/@openzeppelin/contracts/token/ERC721/ERC721.sol\":12045:12078  ERC721InvalidReceiver(address(0)) */\n      mload(0x40)\n      0x64a0ae9200000000000000000000000000000000000000000000000000000000\n      dup2\n      mstore\n      0x04\n      add\n      tag_251\n      swap2\n      swap1\n      tag_40\n      jump\t// in\n    tag_251:\n      mload(0x40)\n      dup1\n      swap2\n      sub\n      swap1\n      revert\n        /* \"node_modules/@openzeppelin/contracts/token/ERC721/ERC721.sol\":12002:12089  if (to == address(0)) {... */\n    tag_250:\n        /* \"node_modules/@openzeppelin/contracts/token/ERC721/ERC721.sol\":12098:12119  address previousOwner */\n      0x00\n        /* \"node_modules/@openzeppelin/contracts/token/ERC721/ERC721.sol\":12122:12154  _update(to, tokenId, address(0)) */\n      tag_252\n        /* \"node_modules/@openzeppelin/contracts/token/ERC721/ERC721.sol\":12130:12132  to */\n      dup4\n        /* \"node_modules/@openzeppelin/contracts/token/ERC721/ERC721.sol\":12134:12141  tokenId */\n      dup4\n        /* \"node_modules/@openzeppelin/contracts/token/ERC721/ERC721.sol\":12151:12152  0 */\n      0x00\n        /* \"node_modules/@openzeppelin/contracts/token/ERC721/ERC721.sol\":12122:12129  _update */\n      tag_138\n        /* \"node_modules/@openzeppelin/contracts/token/ERC721/ERC721.sol\":12122:12154  _update(to, tokenId, address(0)) */\n      jump\t// in\n    tag_252:\n        /* \"node_modules/@openzeppelin/contracts/token/ERC721/ERC721.sol\":12098:12154  address previousOwner = _update(to, tokenId, address(0)) */\n      swap1\n      pop\n        /* \"node_modules/@openzeppelin/contracts/token/ERC721/ERC721.sol\":12193:12194  0 */\n      0x00\n        /* \"node_modules/@openzeppelin/contracts/token/ERC721/ERC721.sol\":12168:12195  previousOwner != address(0) */\n      0xffffffffffffffffffffffffffffffffffffffff\n      and\n        /* \"node_modules/@openzeppelin/contracts/token/ERC721/ERC721.sol\":12168:12181  previousOwner */\n      dup2\n        /* \"node_modules/@openzeppelin/contracts/token/ERC721/ERC721.sol\":12168:12195  previousOwner != address(0) */\n      0xffffffffffffffffffffffffffffffffffffffff\n      and\n      eq\n        /* \"node_modules/@openzeppelin/contracts/token/ERC721/ERC721.sol\":12164:12260  if (previousOwner != address(0)) {... */\n      tag_253\n      jumpi\n        /* \"node_modules/@openzeppelin/contracts/token/ERC721/ERC721.sol\":12246:12247  0 */\n      0x00\n        /* \"node_modules/@openzeppelin/contracts/token/ERC721/ERC721.sol\":12218:12249  ERC721InvalidSender(address(0)) */\n      mload(0x40)\n      0x73c6ac6e00000000000000000000000000000000000000000000000000000000\n      dup2\n      mstore\n      0x04\n      add\n      tag_254\n      swap2\n      swap1\n      tag_40\n      jump\t// in\n    tag_254:\n      mload(0x40)\n      dup1\n      swap2\n      sub\n      swap1\n      revert\n        /* \"node_modules/@openzeppelin/contracts/token/ERC721/ERC721.sol\":12164:12260  if (previousOwner != address(0)) {... */\n    tag_253:\n        /* \"node_modules/@openzeppelin/contracts/token/ERC721/ERC721.sol\":12269:12281  _totalsupply */\n      0x02\n      0x00\n        /* \"node_modules/@openzeppelin/contracts/token/ERC721/ERC721.sol\":12269:12283  _totalsupply++ */\n      dup2\n      sload\n      dup1\n      swap3\n      swap2\n      swap1\n      tag_255\n      swap1\n      tag_166\n      jump\t// in\n    tag_255:\n      swap2\n      swap1\n      pop\n      sstore\n      pop\n        /* \"node_modules/@openzeppelin/contracts/token/ERC721/ERC721.sol\":11992:12290  {... */\n      pop\n        /* \"node_modules/@openzeppelin/contracts/token/ERC721/ERC721.sol\":11939:12290  function _mint(address to, uint256 tokenId) internal {... */\n      pop\n      pop\n      jump\t// out\n        /* \"node_modules/@openzeppelin/contracts/token/ERC721/ERC721.sol\":7687:7802  function _ownerOf(uint256 tokenId) internal view virtual returns (address) {... */\n    tag_208:\n        /* \"node_modules/@openzeppelin/contracts/token/ERC721/ERC721.sol\":7753:7760  address */\n      0x00\n        /* \"node_modules/@openzeppelin/contracts/token/ERC721/ERC721.sol\":7779:7786  _owners */\n      0x03\n        /* \"node_modules/@openzeppelin/contracts/token/ERC721/ERC721.sol\":7779:7795  _owners[tokenId] */\n      0x00\n        /* \"node_modules/@openzeppelin/contracts/token/ERC721/ERC721.sol\":7787:7794  tokenId */\n      dup4\n        /* \"node_modules/@openzeppelin/contracts/token/ERC721/ERC721.sol\":7779:7795  _owners[tokenId] */\n      dup2\n      mstore\n      0x20\n      add\n      swap1\n      dup2\n      mstore\n      0x20\n      add\n      0x00\n      keccak256\n      0x00\n      swap1\n      sload\n      swap1\n      0x0100\n      exp\n      swap1\n      div\n      0xffffffffffffffffffffffffffffffffffffffff\n      and\n        /* \"node_modules/@openzeppelin/contracts/token/ERC721/ERC721.sol\":7772:7795  return _owners[tokenId] */\n      swap1\n      pop\n        /* \"node_modules/@openzeppelin/contracts/token/ERC721/ERC721.sol\":7687:7802  function _ownerOf(uint256 tokenId) internal view virtual returns (address) {... */\n      swap2\n      swap1\n      pop\n      jump\t// out\n        /* \"node_modules/@openzeppelin/contracts/token/ERC721/ERC721.sol\":16824:17486  function _approve(address to, uint256 tokenId, address auth, bool emitEvent) internal virtual {... */\n    tag_215:\n        /* \"node_modules/@openzeppelin/contracts/token/ERC721/ERC721.sol\":16984:16993  emitEvent */\n      dup1\n        /* \"node_modules/@openzeppelin/contracts/token/ERC721/ERC721.sol\":16984:17015  emitEvent || auth != address(0) */\n      dup1\n      tag_258\n      jumpi\n      pop\n        /* \"node_modules/@openzeppelin/contracts/token/ERC721/ERC721.sol\":17013:17014  0 */\n      0x00\n        /* \"node_modules/@openzeppelin/contracts/token/ERC721/ERC721.sol\":16997:17015  auth != address(0) */\n      0xffffffffffffffffffffffffffffffffffffffff\n      and\n        /* \"node_modules/@openzeppelin/contracts/token/ERC721/ERC721.sol\":16997:17001  auth */\n      dup3\n        /* \"node_modules/@openzeppelin/contracts/token/ERC721/ERC721.sol\":16997:17015  auth != address(0) */\n      0xffffffffffffffffffffffffffffffffffffffff\n      and\n      eq\n      iszero\n        /* \"node_modules/@openzeppelin/contracts/token/ERC721/ERC721.sol\":16984:17015  emitEvent || auth != address(0) */\n    tag_258:\n        /* \"node_modules/@openzeppelin/contracts/token/ERC721/ERC721.sol\":16980:17440  if (emitEvent || auth != address(0)) {... */\n      iszero\n      tag_259\n      jumpi\n        /* \"node_modules/@openzeppelin/contracts/token/ERC721/ERC721.sol\":17031:17044  address owner */\n      0x00\n        /* \"node_modules/@openzeppelin/contracts/token/ERC721/ERC721.sol\":17047:17069  _requireOwned(tokenId) */\n      tag_260\n        /* \"node_modules/@openzeppelin/contracts/token/ERC721/ERC721.sol\":17061:17068  tokenId */\n      dup5\n        /* \"node_modules/@openzeppelin/contracts/token/ERC721/ERC721.sol\":17047:17060  _requireOwned */\n      tag_120\n        /* \"node_modules/@openzeppelin/contracts/token/ERC721/ERC721.sol\":17047:17069  _requireOwned(tokenId) */\n      jump\t// in\n    tag_260:\n        /* \"node_modules/@openzeppelin/contracts/token/ERC721/ERC721.sol\":17031:17069  address owner = _requireOwned(tokenId) */\n      swap1\n      pop\n        /* \"node_modules/@openzeppelin/contracts/token/ERC721/ERC721.sol\":17213:17214  0 */\n      0x00\n        /* \"node_modules/@openzeppelin/contracts/token/ERC721/ERC721.sol\":17197:17215  auth != address(0) */\n      0xffffffffffffffffffffffffffffffffffffffff\n      and\n        /* \"node_modules/@openzeppelin/contracts/token/ERC721/ERC721.sol\":17197:17201  auth */\n      dup4\n        /* \"node_modules/@openzeppelin/contracts/token/ERC721/ERC721.sol\":17197:17215  auth != address(0) */\n      0xffffffffffffffffffffffffffffffffffffffff\n      and\n      eq\n      iszero\n        /* \"node_modules/@openzeppelin/contracts/token/ERC721/ERC721.sol\":17197:17232  auth != address(0) && owner != auth */\n      dup1\n      iszero\n      tag_261\n      jumpi\n      pop\n        /* \"node_modules/@openzeppelin/contracts/token/ERC721/ERC721.sol\":17228:17232  auth */\n      dup3\n        /* \"node_modules/@openzeppelin/contracts/token/ERC721/ERC721.sol\":17219:17232  owner != auth */\n      0xffffffffffffffffffffffffffffffffffffffff\n      and\n        /* \"node_modules/@openzeppelin/contracts/token/ERC721/ERC721.sol\":17219:17224  owner */\n      dup2\n        /* \"node_modules/@openzeppelin/contracts/token/ERC721/ERC721.sol\":17219:17232  owner != auth */\n      0xffffffffffffffffffffffffffffffffffffffff\n      and\n      eq\n      iszero\n        /* \"node_modules/@openzeppelin/contracts/token/ERC721/ERC721.sol\":17197:17232  auth != address(0) && owner != auth */\n    tag_261:\n        /* \"node_modules/@openzeppelin/contracts/token/ERC721/ERC721.sol\":17197:17266  auth != address(0) && owner != auth && !isApprovedForAll(owner, auth) */\n      dup1\n      iszero\n      tag_262\n      jumpi\n      pop\n        /* \"node_modules/@openzeppelin/contracts/token/ERC721/ERC721.sol\":17237:17266  isApprovedForAll(owner, auth) */\n      tag_263\n        /* \"node_modules/@openzeppelin/contracts/token/ERC721/ERC721.sol\":17254:17259  owner */\n      dup2\n        /* \"node_modules/@openzeppelin/contracts/token/ERC721/ERC721.sol\":17261:17265  auth */\n      dup5\n        /* \"node_modules/@openzeppelin/contracts/token/ERC721/ERC721.sol\":17237:17253  isApprovedForAll */\n      tag_104\n        /* \"node_modules/@openzeppelin/contracts/token/ERC721/ERC721.sol\":17237:17266  isApprovedForAll(owner, auth) */\n      jump\t// in\n    tag_263:\n        /* \"node_modules/@openzeppelin/contracts/token/ERC721/ERC721.sol\":17236:17266  !isApprovedForAll(owner, auth) */\n      iszero\n        /* \"node_modules/@openzeppelin/contracts/token/ERC721/ERC721.sol\":17197:17266  auth != address(0) && owner != auth && !isApprovedForAll(owner, auth) */\n    tag_262:\n        /* \"node_modules/@openzeppelin/contracts/token/ERC721/ERC721.sol\":17193:17335  if (auth != address(0) && owner != auth && !isApprovedForAll(owner, auth)) {... */\n      iszero\n      tag_264\n      jumpi\n        /* \"node_modules/@openzeppelin/contracts/token/ERC721/ERC721.sol\":17315:17319  auth */\n      dup3\n        /* \"node_modules/@openzeppelin/contracts/token/ERC721/ERC721.sol\":17293:17320  ERC721InvalidApprover(auth) */\n      mload(0x40)\n      0xa9fbf51f00000000000000000000000000000000000000000000000000000000\n      dup2\n      mstore\n      0x04\n      add\n      tag_265\n      swap2\n      swap1\n      tag_40\n      jump\t// in\n    tag_265:\n      mload(0x40)\n      dup1\n      swap2\n      sub\n      swap1\n      revert\n        /* \"node_modules/@openzeppelin/contracts/token/ERC721/ERC721.sol\":17193:17335  if (auth != address(0) && owner != auth && !isApprovedForAll(owner, auth)) {... */\n    tag_264:\n        /* \"node_modules/@openzeppelin/contracts/token/ERC721/ERC721.sol\":17353:17362  emitEvent */\n      dup2\n        /* \"node_modules/@openzeppelin/contracts/token/ERC721/ERC721.sol\":17349:17430  if (emitEvent) {... */\n      iszero\n      tag_266\n      jumpi\n        /* \"node_modules/@openzeppelin/contracts/token/ERC721/ERC721.sol\":17407:17414  tokenId */\n      dup4\n        /* \"node_modules/@openzeppelin/contracts/token/ERC721/ERC721.sol\":17403:17405  to */\n      dup6\n        /* \"node_modules/@openzeppelin/contracts/token/ERC721/ERC721.sol\":17387:17415  Approval(owner, to, tokenId) */\n      0xffffffffffffffffffffffffffffffffffffffff\n      and\n        /* \"node_modules/@openzeppelin/contracts/token/ERC721/ERC721.sol\":17396:17401  owner */\n      dup3\n        /* \"node_modules/@openzeppelin/contracts/token/ERC721/ERC721.sol\":17387:17415  Approval(owner, to, tokenId) */\n      0xffffffffffffffffffffffffffffffffffffffff\n      and\n      0x8c5be1e5ebec7d5bd14f71427d1e84f3dd0314c0f7b2291e5b200ac8c7c3b925\n      mload(0x40)\n      mload(0x40)\n      dup1\n      swap2\n      sub\n      swap1\n      log4\n        /* \"node_modules/@openzeppelin/contracts/token/ERC721/ERC721.sol\":17349:17430  if (emitEvent) {... */\n    tag_266:\n        /* \"node_modules/@openzeppelin/contracts/token/ERC721/ERC721.sol\":17017:17440  {... */\n      pop\n        /* \"node_modules/@openzeppelin/contracts/token/ERC721/ERC721.sol\":16980:17440  if (emitEvent || auth != address(0)) {... */\n    tag_259:\n        /* \"node_modules/@openzeppelin/contracts/token/ERC721/ERC721.sol\":17477:17479  to */\n      dup4\n        /* \"node_modules/@openzeppelin/contracts/token/ERC721/ERC721.sol\":17450:17465  _tokenApprovals */\n      0x05\n        /* \"node_modules/@openzeppelin/contracts/token/ERC721/ERC721.sol\":17450:17474  _tokenApprovals[tokenId] */\n      0x00\n        /* \"node_modules/@openzeppelin/contracts/token/ERC721/ERC721.sol\":17466:17473  tokenId */\n      dup6\n        /* \"node_modules/@openzeppelin/contracts/token/ERC721/ERC721.sol\":17450:17474  _tokenApprovals[tokenId] */\n      dup2\n      mstore\n      0x20\n      add\n      swap1\n      dup2\n      mstore\n      0x20\n      add\n      0x00\n      keccak256\n      0x00\n        /* \"node_modules/@openzeppelin/contracts/token/ERC721/ERC721.sol\":17450:17479  _tokenApprovals[tokenId] = to */\n      0x0100\n      exp\n      dup2\n      sload\n      dup2\n      0xffffffffffffffffffffffffffffffffffffffff\n      mul\n      not\n      and\n      swap1\n      dup4\n      0xffffffffffffffffffffffffffffffffffffffff\n      and\n      mul\n      or\n      swap1\n      sstore\n      pop\n        /* \"node_modules/@openzeppelin/contracts/token/ERC721/ERC721.sol\":16824:17486  function _approve(address to, uint256 tokenId, address auth, bool emitEvent) internal virtual {... */\n      pop\n      pop\n      pop\n      pop\n      jump\t// out\n        /* \"node_modules/@openzeppelin/contracts/token/ERC721/ERC721.sol\":9062:9430  function _checkAuthorized(address owner, address spender, uint256 tokenId) internal view virtual {... */\n    tag_221:\n        /* \"node_modules/@openzeppelin/contracts/token/ERC721/ERC721.sol\":9174:9212  _isAuthorized(owner, spender, tokenId) */\n      tag_268\n        /* \"node_modules/@openzeppelin/contracts/token/ERC721/ERC721.sol\":9188:9193  owner */\n      dup4\n        /* \"node_modules/@openzeppelin/contracts/token/ERC721/ERC721.sol\":9195:9202  spender */\n      dup4\n        /* \"node_modules/@openzeppelin/contracts/token/ERC721/ERC721.sol\":9204:9211  tokenId */\n      dup4\n        /* \"node_modules/@openzeppelin/contracts/token/ERC721/ERC721.sol\":9174:9187  _isAuthorized */\n      tag_269\n        /* \"node_modules/@openzeppelin/contracts/token/ERC721/ERC721.sol\":9174:9212  _isAuthorized(owner, spender, tokenId) */\n      jump\t// in\n    tag_268:\n        /* \"node_modules/@openzeppelin/contracts/token/ERC721/ERC721.sol\":9169:9424  if (!_isAuthorized(owner, spender, tokenId)) {... */\n      tag_270\n      jumpi\n        /* \"node_modules/@openzeppelin/contracts/token/ERC721/ERC721.sol\":9249:9250  0 */\n      0x00\n        /* \"node_modules/@openzeppelin/contracts/token/ERC721/ERC721.sol\":9232:9251  owner == address(0) */\n      0xffffffffffffffffffffffffffffffffffffffff\n      and\n        /* \"node_modules/@openzeppelin/contracts/token/ERC721/ERC721.sol\":9232:9237  owner */\n      dup4\n        /* \"node_modules/@openzeppelin/contracts/token/ERC721/ERC721.sol\":9232:9251  owner == address(0) */\n      0xffffffffffffffffffffffffffffffffffffffff\n      and\n      sub\n        /* \"node_modules/@openzeppelin/contracts/token/ERC721/ERC721.sol\":9228:9414  if (owner == address(0)) {... */\n      tag_271\n      jumpi\n        /* \"node_modules/@openzeppelin/contracts/token/ERC721/ERC721.sol\":9301:9308  tokenId */\n      dup1\n        /* \"node_modules/@openzeppelin/contracts/token/ERC721/ERC721.sol\":9278:9309  ERC721NonexistentToken(tokenId) */\n      mload(0x40)\n      0x7e27328900000000000000000000000000000000000000000000000000000000\n      dup2\n      mstore\n      0x04\n      add\n      tag_272\n      swap2\n      swap1\n      tag_70\n      jump\t// in\n    tag_272:\n      mload(0x40)\n      dup1\n      swap2\n      sub\n      swap1\n      revert\n        /* \"node_modules/@openzeppelin/contracts/token/ERC721/ERC721.sol\":9228:9414  if (owner == address(0)) {... */\n    tag_271:\n        /* \"node_modules/@openzeppelin/contracts/token/ERC721/ERC721.sol\":9382:9389  spender */\n      dup2\n        /* \"node_modules/@openzeppelin/contracts/token/ERC721/ERC721.sol\":9391:9398  tokenId */\n      dup2\n        /* \"node_modules/@openzeppelin/contracts/token/ERC721/ERC721.sol\":9355:9399  ERC721InsufficientApproval(spender, tokenId) */\n      mload(0x40)\n      0x177e802f00000000000000000000000000000000000000000000000000000000\n      dup2\n      mstore\n      0x04\n      add\n      tag_274\n      swap3\n      swap2\n      swap1\n      tag_275\n      jump\t// in\n    tag_274:\n      mload(0x40)\n      dup1\n      swap2\n      sub\n      swap1\n      revert\n        /* \"node_modules/@openzeppelin/contracts/token/ERC721/ERC721.sol\":9169:9424  if (!_isAuthorized(owner, spender, tokenId)) {... */\n    tag_270:\n        /* \"node_modules/@openzeppelin/contracts/token/ERC721/ERC721.sol\":9062:9430  function _checkAuthorized(address owner, address spender, uint256 tokenId) internal view virtual {... */\n      pop\n      pop\n      pop\n      jump\t// out\n        /* \"node_modules/@openzeppelin/contracts/token/ERC721/ERC721.sol\":8356:8628  function _isAuthorized(address owner, address spender, uint256 tokenId) internal view virtual returns (bool) {... */\n    tag_269:\n        /* \"node_modules/@openzeppelin/contracts/token/ERC721/ERC721.sol\":8459:8463  bool */\n      0x00\n        /* \"node_modules/@openzeppelin/contracts/token/ERC721/ERC721.sol\":8513:8514  0 */\n      dup1\n        /* \"node_modules/@openzeppelin/contracts/token/ERC721/ERC721.sol\":8494:8515  spender != address(0) */\n      0xffffffffffffffffffffffffffffffffffffffff\n      and\n        /* \"node_modules/@openzeppelin/contracts/token/ERC721/ERC721.sol\":8494:8501  spender */\n      dup4\n        /* \"node_modules/@openzeppelin/contracts/token/ERC721/ERC721.sol\":8494:8515  spender != address(0) */\n      0xffffffffffffffffffffffffffffffffffffffff\n      and\n      eq\n      iszero\n        /* \"node_modules/@openzeppelin/contracts/token/ERC721/ERC721.sol\":8494:8621  spender != address(0) &&... */\n      dup1\n      iszero\n      tag_277\n      jumpi\n      pop\n        /* \"node_modules/@openzeppelin/contracts/token/ERC721/ERC721.sol\":8541:8548  spender */\n      dup3\n        /* \"node_modules/@openzeppelin/contracts/token/ERC721/ERC721.sol\":8532:8548  owner == spender */\n      0xffffffffffffffffffffffffffffffffffffffff\n      and\n        /* \"node_modules/@openzeppelin/contracts/token/ERC721/ERC721.sol\":8532:8537  owner */\n      dup5\n        /* \"node_modules/@openzeppelin/contracts/token/ERC721/ERC721.sol\":8532:8548  owner == spender */\n      0xffffffffffffffffffffffffffffffffffffffff\n      and\n      eq\n        /* \"node_modules/@openzeppelin/contracts/token/ERC721/ERC721.sol\":8532:8584  owner == spender || isApprovedForAll(owner, spender) */\n      dup1\n      tag_278\n      jumpi\n      pop\n        /* \"node_modules/@openzeppelin/contracts/token/ERC721/ERC721.sol\":8552:8584  isApprovedForAll(owner, spender) */\n      tag_279\n        /* \"node_modules/@openzeppelin/contracts/token/ERC721/ERC721.sol\":8569:8574  owner */\n      dup5\n        /* \"node_modules/@openzeppelin/contracts/token/ERC721/ERC721.sol\":8576:8583  spender */\n      dup5\n        /* \"node_modules/@openzeppelin/contracts/token/ERC721/ERC721.sol\":8552:8568  isApprovedForAll */\n      tag_104\n        /* \"node_modules/@openzeppelin/contracts/token/ERC721/ERC721.sol\":8552:8584  isApprovedForAll(owner, spender) */\n      jump\t// in\n    tag_279:\n        /* \"node_modules/@openzeppelin/contracts/token/ERC721/ERC721.sol\":8532:8584  owner == spender || isApprovedForAll(owner, spender) */\n    tag_278:\n        /* \"node_modules/@openzeppelin/contracts/token/ERC721/ERC721.sol\":8532:8620  owner == spender || isApprovedForAll(owner, spender) || _getApproved(tokenId) == spender */\n      dup1\n      tag_280\n      jumpi\n      pop\n        /* \"node_modules/@openzeppelin/contracts/token/ERC721/ERC721.sol\":8613:8620  spender */\n      dup3\n        /* \"node_modules/@openzeppelin/contracts/token/ERC721/ERC721.sol\":8588:8620  _getApproved(tokenId) == spender */\n      0xffffffffffffffffffffffffffffffffffffffff\n      and\n        /* \"node_modules/@openzeppelin/contracts/token/ERC721/ERC721.sol\":8588:8609  _getApproved(tokenId) */\n      tag_281\n        /* \"node_modules/@openzeppelin/contracts/token/ERC721/ERC721.sol\":8601:8608  tokenId */\n      dup4\n        /* \"node_modules/@openzeppelin/contracts/token/ERC721/ERC721.sol\":8588:8600  _getApproved */\n      tag_122\n        /* \"node_modules/@openzeppelin/contracts/token/ERC721/ERC721.sol\":8588:8609  _getApproved(tokenId) */\n      jump\t// in\n    tag_281:\n        /* \"node_modules/@openzeppelin/contracts/token/ERC721/ERC721.sol\":8588:8620  _getApproved(tokenId) == spender */\n      0xffffffffffffffffffffffffffffffffffffffff\n      and\n      eq\n        /* \"node_modules/@openzeppelin/contracts/token/ERC721/ERC721.sol\":8532:8620  owner == spender || isApprovedForAll(owner, spender) || _getApproved(tokenId) == spender */\n    tag_280:\n        /* \"node_modules/@openzeppelin/contracts/token/ERC721/ERC721.sol\":8494:8621  spender != address(0) &&... */\n    tag_277:\n        /* \"node_modules/@openzeppelin/contracts/token/ERC721/ERC721.sol\":8475:8621  return... */\n      swap1\n      pop\n        /* \"node_modules/@openzeppelin/contracts/token/ERC721/ERC721.sol\":8356:8628  function _isAuthorized(address owner, address spender, uint256 tokenId) internal view virtual returns (bool) {... */\n      swap4\n      swap3\n      pop\n      pop\n      pop\n      jump\t// out\n        /* \"#utility.yul\":7:82   */\n    tag_282:\n        /* \"#utility.yul\":40:46   */\n      0x00\n        /* \"#utility.yul\":73:75   */\n      0x40\n        /* \"#utility.yul\":67:76   */\n      mload\n        /* \"#utility.yul\":57:76   */\n      swap1\n      pop\n        /* \"#utility.yul\":7:82   */\n      swap1\n      jump\t// out\n        /* \"#utility.yul\":88:205   */\n    tag_283:\n        /* \"#utility.yul\":197:198   */\n      0x00\n        /* \"#utility.yul\":194:195   */\n      dup1\n        /* \"#utility.yul\":187:199   */\n      revert\n        /* \"#utility.yul\":211:328   */\n    tag_284:\n        /* \"#utility.yul\":320:321   */\n      0x00\n        /* \"#utility.yul\":317:318   */\n      dup1\n        /* \"#utility.yul\":310:322   */\n      revert\n        /* \"#utility.yul\":334:483   */\n    tag_285:\n        /* \"#utility.yul\":370:377   */\n      0x00\n        /* \"#utility.yul\":410:476   */\n      0xffffffff00000000000000000000000000000000000000000000000000000000\n        /* \"#utility.yul\":403:408   */\n      dup3\n        /* \"#utility.yul\":399:477   */\n      and\n        /* \"#utility.yul\":388:477   */\n      swap1\n      pop\n        /* \"#utility.yul\":334:483   */\n      swap2\n      swap1\n      pop\n      jump\t// out\n        /* \"#utility.yul\":489:609   */\n    tag_286:\n        /* \"#utility.yul\":561:584   */\n      tag_353\n        /* \"#utility.yul\":578:583   */\n      dup2\n        /* \"#utility.yul\":561:584   */\n      tag_285\n      jump\t// in\n    tag_353:\n        /* \"#utility.yul\":554:559   */\n      dup2\n        /* \"#utility.yul\":551:585   */\n      eq\n        /* \"#utility.yul\":541:603   */\n      tag_354\n      jumpi\n        /* \"#utility.yul\":599:600   */\n      0x00\n        /* \"#utility.yul\":596:597   */\n      dup1\n        /* \"#utility.yul\":589:601   */\n      revert\n        /* \"#utility.yul\":541:603   */\n    tag_354:\n        /* \"#utility.yul\":489:609   */\n      pop\n      jump\t// out\n        /* \"#utility.yul\":615:752   */\n    tag_287:\n        /* \"#utility.yul\":660:665   */\n      0x00\n        /* \"#utility.yul\":698:704   */\n      dup2\n        /* \"#utility.yul\":685:705   */\n      calldataload\n        /* \"#utility.yul\":676:705   */\n      swap1\n      pop\n        /* \"#utility.yul\":714:746   */\n      tag_356\n        /* \"#utility.yul\":740:745   */\n      dup2\n        /* \"#utility.yul\":714:746   */\n      tag_286\n      jump\t// in\n    tag_356:\n        /* \"#utility.yul\":615:752   */\n      swap3\n      swap2\n      pop\n      pop\n      jump\t// out\n        /* \"#utility.yul\":758:1085   */\n    tag_27:\n        /* \"#utility.yul\":816:822   */\n      0x00\n        /* \"#utility.yul\":865:867   */\n      0x20\n        /* \"#utility.yul\":853:862   */\n      dup3\n        /* \"#utility.yul\":844:851   */\n      dup5\n        /* \"#utility.yul\":840:863   */\n      sub\n        /* \"#utility.yul\":836:868   */\n      slt\n        /* \"#utility.yul\":833:952   */\n      iszero\n      tag_358\n      jumpi\n        /* \"#utility.yul\":871:950   */\n      tag_359\n      tag_283\n      jump\t// in\n    tag_359:\n        /* \"#utility.yul\":833:952   */\n    tag_358:\n        /* \"#utility.yul\":991:992   */\n      0x00\n        /* \"#utility.yul\":1016:1068   */\n      tag_360\n        /* \"#utility.yul\":1060:1067   */\n      dup5\n        /* \"#utility.yul\":1051:1057   */\n      dup3\n        /* \"#utility.yul\":1040:1049   */\n      dup6\n        /* \"#utility.yul\":1036:1058   */\n      add\n        /* \"#utility.yul\":1016:1068   */\n      tag_287\n      jump\t// in\n    tag_360:\n        /* \"#utility.yul\":1006:1068   */\n      swap2\n      pop\n        /* \"#utility.yul\":962:1078   */\n      pop\n        /* \"#utility.yul\":758:1085   */\n      swap3\n      swap2\n      pop\n      pop\n      jump\t// out\n        /* \"#utility.yul\":1091:1181   */\n    tag_288:\n        /* \"#utility.yul\":1125:1132   */\n      0x00\n        /* \"#utility.yul\":1168:1173   */\n      dup2\n        /* \"#utility.yul\":1161:1174   */\n      iszero\n        /* \"#utility.yul\":1154:1175   */\n      iszero\n        /* \"#utility.yul\":1143:1175   */\n      swap1\n      pop\n        /* \"#utility.yul\":1091:1181   */\n      swap2\n      swap1\n      pop\n      jump\t// out\n        /* \"#utility.yul\":1187:1296   */\n    tag_289:\n        /* \"#utility.yul\":1268:1289   */\n      tag_363\n        /* \"#utility.yul\":1283:1288   */\n      dup2\n        /* \"#utility.yul\":1268:1289   */\n      tag_288\n      jump\t// in\n    tag_363:\n        /* \"#utility.yul\":1263:1266   */\n      dup3\n        /* \"#utility.yul\":1256:1290   */\n      mstore\n        /* \"#utility.yul\":1187:1296   */\n      pop\n      pop\n      jump\t// out\n        /* \"#utility.yul\":1302:1512   */\n    tag_30:\n        /* \"#utility.yul\":1389:1393   */\n      0x00\n        /* \"#utility.yul\":1427:1429   */\n      0x20\n        /* \"#utility.yul\":1416:1425   */\n      dup3\n        /* \"#utility.yul\":1412:1430   */\n      add\n        /* \"#utility.yul\":1404:1430   */\n      swap1\n      pop\n        /* \"#utility.yul\":1440:1505   */\n      tag_365\n        /* \"#utility.yul\":1502:1503   */\n      0x00\n        /* \"#utility.yul\":1491:1500   */\n      dup4\n        /* \"#utility.yul\":1487:1504   */\n      add\n        /* \"#utility.yul\":1478:1484   */\n      dup5\n        /* \"#utility.yul\":1440:1505   */\n      tag_289\n      jump\t// in\n    tag_365:\n        /* \"#utility.yul\":1302:1512   */\n      swap3\n      swap2\n      pop\n      pop\n      jump\t// out\n        /* \"#utility.yul\":1518:1617   */\n    tag_290:\n        /* \"#utility.yul\":1570:1576   */\n      0x00\n        /* \"#utility.yul\":1604:1609   */\n      dup2\n        /* \"#utility.yul\":1598:1610   */\n      mload\n        /* \"#utility.yul\":1588:1610   */\n      swap1\n      pop\n        /* \"#utility.yul\":1518:1617   */\n      swap2\n      swap1\n      pop\n      jump\t// out\n        /* \"#utility.yul\":1623:1792   */\n    tag_291:\n        /* \"#utility.yul\":1707:1718   */\n      0x00\n        /* \"#utility.yul\":1741:1747   */\n      dup3\n        /* \"#utility.yul\":1736:1739   */\n      dup3\n        /* \"#utility.yul\":1729:1748   */\n      mstore\n        /* \"#utility.yul\":1781:1785   */\n      0x20\n        /* \"#utility.yul\":1776:1779   */\n      dup3\n        /* \"#utility.yul\":1772:1786   */\n      add\n        /* \"#utility.yul\":1757:1786   */\n      swap1\n      pop\n        /* \"#utility.yul\":1623:1792   */\n      swap3\n      swap2\n      pop\n      pop\n      jump\t// out\n        /* \"#utility.yul\":1798:2044   */\n    tag_292:\n        /* \"#utility.yul\":1879:1880   */\n      0x00\n        /* \"#utility.yul\":1889:2002   */\n    tag_369:\n        /* \"#utility.yul\":1903:1909   */\n      dup4\n        /* \"#utility.yul\":1900:1901   */\n      dup2\n        /* \"#utility.yul\":1897:1910   */\n      lt\n        /* \"#utility.yul\":1889:2002   */\n      iszero\n      tag_371\n      jumpi\n        /* \"#utility.yul\":1988:1989   */\n      dup1\n        /* \"#utility.yul\":1983:1986   */\n      dup3\n        /* \"#utility.yul\":1979:1990   */\n      add\n        /* \"#utility.yul\":1973:1991   */\n      mload\n        /* \"#utility.yul\":1969:1970   */\n      dup2\n        /* \"#utility.yul\":1964:1967   */\n      dup5\n        /* \"#utility.yul\":1960:1971   */\n      add\n        /* \"#utility.yul\":1953:1992   */\n      mstore\n        /* \"#utility.yul\":1925:1927   */\n      0x20\n        /* \"#utility.yul\":1922:1923   */\n      dup2\n        /* \"#utility.yul\":1918:1928   */\n      add\n        /* \"#utility.yul\":1913:1928   */\n      swap1\n      pop\n        /* \"#utility.yul\":1889:2002   */\n      jump(tag_369)\n    tag_371:\n        /* \"#utility.yul\":2036:2037   */\n      0x00\n        /* \"#utility.yul\":2027:2033   */\n      dup5\n        /* \"#utility.yul\":2022:2025   */\n      dup5\n        /* \"#utility.yul\":2018:2034   */\n      add\n        /* \"#utility.yul\":2011:2038   */\n      mstore\n        /* \"#utility.yul\":1860:2044   */\n      pop\n        /* \"#utility.yul\":1798:2044   */\n      pop\n      pop\n      pop\n      jump\t// out\n        /* \"#utility.yul\":2050:2152   */\n    tag_293:\n        /* \"#utility.yul\":2091:2097   */\n      0x00\n        /* \"#utility.yul\":2142:2144   */\n      0x1f\n        /* \"#utility.yul\":2138:2145   */\n      not\n        /* \"#utility.yul\":2133:2135   */\n      0x1f\n        /* \"#utility.yul\":2126:2131   */\n      dup4\n        /* \"#utility.yul\":2122:2136   */\n      add\n        /* \"#utility.yul\":2118:2146   */\n      and\n        /* \"#utility.yul\":2108:2146   */\n      swap1\n      pop\n        /* \"#utility.yul\":2050:2152   */\n      swap2\n      swap1\n      pop\n      jump\t// out\n        /* \"#utility.yul\":2158:2535   */\n    tag_294:\n        /* \"#utility.yul\":2246:2249   */\n      0x00\n        /* \"#utility.yul\":2274:2313   */\n      tag_374\n        /* \"#utility.yul\":2307:2312   */\n      dup3\n        /* \"#utility.yul\":2274:2313   */\n      tag_290\n      jump\t// in\n    tag_374:\n        /* \"#utility.yul\":2329:2400   */\n      tag_375\n        /* \"#utility.yul\":2393:2399   */\n      dup2\n        /* \"#utility.yul\":2388:2391   */\n      dup6\n        /* \"#utility.yul\":2329:2400   */\n      tag_291\n      jump\t// in\n    tag_375:\n        /* \"#utility.yul\":2322:2400   */\n      swap4\n      pop\n        /* \"#utility.yul\":2409:2474   */\n      tag_376\n        /* \"#utility.yul\":2467:2473   */\n      dup2\n        /* \"#utility.yul\":2462:2465   */\n      dup6\n        /* \"#utility.yul\":2455:2459   */\n      0x20\n        /* \"#utility.yul\":2448:2453   */\n      dup7\n        /* \"#utility.yul\":2444:2460   */\n      add\n        /* \"#utility.yul\":2409:2474   */\n      tag_292\n      jump\t// in\n    tag_376:\n        /* \"#utility.yul\":2499:2528   */\n      tag_377\n        /* \"#utility.yul\":2521:2527   */\n      dup2\n        /* \"#utility.yul\":2499:2528   */\n      tag_293\n      jump\t// in\n    tag_377:\n        /* \"#utility.yul\":2494:2497   */\n      dup5\n        /* \"#utility.yul\":2490:2529   */\n      add\n        /* \"#utility.yul\":2483:2529   */\n      swap2\n      pop\n        /* \"#utility.yul\":2250:2535   */\n      pop\n        /* \"#utility.yul\":2158:2535   */\n      swap3\n      swap2\n      pop\n      pop\n      jump\t// out\n        /* \"#utility.yul\":2541:2854   */\n    tag_34:\n        /* \"#utility.yul\":2654:2658   */\n      0x00\n        /* \"#utility.yul\":2692:2694   */\n      0x20\n        /* \"#utility.yul\":2681:2690   */\n      dup3\n        /* \"#utility.yul\":2677:2695   */\n      add\n        /* \"#utility.yul\":2669:2695   */\n      swap1\n      pop\n        /* \"#utility.yul\":2741:2750   */\n      dup2\n        /* \"#utility.yul\":2735:2739   */\n      dup2\n        /* \"#utility.yul\":2731:2751   */\n      sub\n        /* \"#utility.yul\":2727:2728   */\n      0x00\n        /* \"#utility.yul\":2716:2725   */\n      dup4\n        /* \"#utility.yul\":2712:2729   */\n      add\n        /* \"#utility.yul\":2705:2752   */\n      mstore\n        /* \"#utility.yul\":2769:2847   */\n      tag_379\n        /* \"#utility.yul\":2842:2846   */\n      dup2\n        /* \"#utility.yul\":2833:2839   */\n      dup5\n        /* \"#utility.yul\":2769:2847   */\n      tag_294\n      jump\t// in\n    tag_379:\n        /* \"#utility.yul\":2761:2847   */\n      swap1\n      pop\n        /* \"#utility.yul\":2541:2854   */\n      swap3\n      swap2\n      pop\n      pop\n      jump\t// out\n        /* \"#utility.yul\":2860:2937   */\n    tag_295:\n        /* \"#utility.yul\":2897:2904   */\n      0x00\n        /* \"#utility.yul\":2926:2931   */\n      dup2\n        /* \"#utility.yul\":2915:2931   */\n      swap1\n      pop\n        /* \"#utility.yul\":2860:2937   */\n      swap2\n      swap1\n      pop\n      jump\t// out\n        /* \"#utility.yul\":2943:3065   */\n    tag_296:\n        /* \"#utility.yul\":3016:3040   */\n      tag_382\n        /* \"#utility.yul\":3034:3039   */\n      dup2\n        /* \"#utility.yul\":3016:3040   */\n      tag_295\n      jump\t// in\n    tag_382:\n        /* \"#utility.yul\":3009:3014   */\n      dup2\n        /* \"#utility.yul\":3006:3041   */\n      eq\n        /* \"#utility.yul\":2996:3059   */\n      tag_383\n      jumpi\n        /* \"#utility.yul\":3055:3056   */\n      0x00\n        /* \"#utility.yul\":3052:3053   */\n      dup1\n        /* \"#utility.yul\":3045:3057   */\n      revert\n        /* \"#utility.yul\":2996:3059   */\n    tag_383:\n        /* \"#utility.yul\":2943:3065   */\n      pop\n      jump\t// out\n        /* \"#utility.yul\":3071:3210   */\n    tag_297:\n        /* \"#utility.yul\":3117:3122   */\n      0x00\n        /* \"#utility.yul\":3155:3161   */\n      dup2\n        /* \"#utility.yul\":3142:3162   */\n      calldataload\n        /* \"#utility.yul\":3133:3162   */\n      swap1\n      pop\n        /* \"#utility.yul\":3171:3204   */\n      tag_385\n        /* \"#utility.yul\":3198:3203   */\n      dup2\n        /* \"#utility.yul\":3171:3204   */\n      tag_296\n      jump\t// in\n    tag_385:\n        /* \"#utility.yul\":3071:3210   */\n      swap3\n      swap2\n      pop\n      pop\n      jump\t// out\n        /* \"#utility.yul\":3216:3545   */\n    tag_37:\n        /* \"#utility.yul\":3275:3281   */\n      0x00\n        /* \"#utility.yul\":3324:3326   */\n      0x20\n        /* \"#utility.yul\":3312:3321   */\n      dup3\n        /* \"#utility.yul\":3303:3310   */\n      dup5\n        /* \"#utility.yul\":3299:3322   */\n      sub\n        /* \"#utility.yul\":3295:3327   */\n      slt\n        /* \"#utility.yul\":3292:3411   */\n      iszero\n      tag_387\n      jumpi\n        /* \"#utility.yul\":3330:3409   */\n      tag_388\n      tag_283\n      jump\t// in\n    tag_388:\n        /* \"#utility.yul\":3292:3411   */\n    tag_387:\n        /* \"#utility.yul\":3450:3451   */\n      0x00\n        /* \"#utility.yul\":3475:3528   */\n      tag_389\n        /* \"#utility.yul\":3520:3527   */\n      dup5\n        /* \"#utility.yul\":3511:3517   */\n      dup3\n        /* \"#utility.yul\":3500:3509   */\n      dup6\n        /* \"#utility.yul\":3496:3518   */\n      add\n        /* \"#utility.yul\":3475:3528   */\n      tag_297\n      jump\t// in\n    tag_389:\n        /* \"#utility.yul\":3465:3528   */\n      swap2\n      pop\n        /* \"#utility.yul\":3421:3538   */\n      pop\n        /* \"#utility.yul\":3216:3545   */\n      swap3\n      swap2\n      pop\n      pop\n      jump\t// out\n        /* \"#utility.yul\":3551:3677   */\n    tag_298:\n        /* \"#utility.yul\":3588:3595   */\n      0x00\n        /* \"#utility.yul\":3628:3670   */\n      0xffffffffffffffffffffffffffffffffffffffff\n        /* \"#utility.yul\":3621:3626   */\n      dup3\n        /* \"#utility.yul\":3617:3671   */\n      and\n        /* \"#utility.yul\":3606:3671   */\n      swap1\n      pop\n        /* \"#utility.yul\":3551:3677   */\n      swap2\n      swap1\n      pop\n      jump\t// out\n        /* \"#utility.yul\":3683:3779   */\n    tag_299:\n        /* \"#utility.yul\":3720:3727   */\n      0x00\n        /* \"#utility.yul\":3749:3773   */\n      tag_392\n        /* \"#utility.yul\":3767:3772   */\n      dup3\n        /* \"#utility.yul\":3749:3773   */\n      tag_298\n      jump\t// in\n    tag_392:\n        /* \"#utility.yul\":3738:3773   */\n      swap1\n      pop\n        /* \"#utility.yul\":3683:3779   */\n      swap2\n      swap1\n      pop\n      jump\t// out\n        /* \"#utility.yul\":3785:3903   */\n    tag_300:\n        /* \"#utility.yul\":3872:3896   */\n      tag_394\n        /* \"#utility.yul\":3890:3895   */\n      dup2\n        /* \"#utility.yul\":3872:3896   */\n      tag_299\n      jump\t// in\n    tag_394:\n        /* \"#utility.yul\":3867:3870   */\n      dup3\n        /* \"#utility.yul\":3860:3897   */\n      mstore\n        /* \"#utility.yul\":3785:3903   */\n      pop\n      pop\n      jump\t// out\n        /* \"#utility.yul\":3909:4131   */\n    tag_40:\n        /* \"#utility.yul\":4002:4006   */\n      0x00\n        /* \"#utility.yul\":4040:4042   */\n      0x20\n        /* \"#utility.yul\":4029:4038   */\n      dup3\n        /* \"#utility.yul\":4025:4043   */\n      add\n        /* \"#utility.yul\":4017:4043   */\n      swap1\n      pop\n        /* \"#utility.yul\":4053:4124   */\n      tag_396\n        /* \"#utility.yul\":4121:4122   */\n      0x00\n        /* \"#utility.yul\":4110:4119   */\n      dup4\n        /* \"#utility.yul\":4106:4123   */\n      add\n        /* \"#utility.yul\":4097:4103   */\n      dup5\n        /* \"#utility.yul\":4053:4124   */\n      tag_300\n      jump\t// in\n    tag_396:\n        /* \"#utility.yul\":3909:4131   */\n      swap3\n      swap2\n      pop\n      pop\n      jump\t// out\n        /* \"#utility.yul\":4137:4259   */\n    tag_301:\n        /* \"#utility.yul\":4210:4234   */\n      tag_398\n        /* \"#utility.yul\":4228:4233   */\n      dup2\n        /* \"#utility.yul\":4210:4234   */\n      tag_299\n      jump\t// in\n    tag_398:\n        /* \"#utility.yul\":4203:4208   */\n      dup2\n        /* \"#utility.yul\":4200:4235   */\n      eq\n        /* \"#utility.yul\":4190:4253   */\n      tag_399\n      jumpi\n        /* \"#utility.yul\":4249:4250   */\n      0x00\n        /* \"#utility.yul\":4246:4247   */\n      dup1\n        /* \"#utility.yul\":4239:4251   */\n      revert\n        /* \"#utility.yul\":4190:4253   */\n    tag_399:\n        /* \"#utility.yul\":4137:4259   */\n      pop\n      jump\t// out\n        /* \"#utility.yul\":4265:4404   */\n    tag_302:\n        /* \"#utility.yul\":4311:4316   */\n      0x00\n        /* \"#utility.yul\":4349:4355   */\n      dup2\n        /* \"#utility.yul\":4336:4356   */\n      calldataload\n        /* \"#utility.yul\":4327:4356   */\n      swap1\n      pop\n        /* \"#utility.yul\":4365:4398   */\n      tag_401\n        /* \"#utility.yul\":4392:4397   */\n      dup2\n        /* \"#utility.yul\":4365:4398   */\n      tag_301\n      jump\t// in\n    tag_401:\n        /* \"#utility.yul\":4265:4404   */\n      swap3\n      swap2\n      pop\n      pop\n      jump\t// out\n        /* \"#utility.yul\":4410:4884   */\n    tag_43:\n        /* \"#utility.yul\":4478:4484   */\n      0x00\n        /* \"#utility.yul\":4486:4492   */\n      dup1\n        /* \"#utility.yul\":4535:4537   */\n      0x40\n        /* \"#utility.yul\":4523:4532   */\n      dup4\n        /* \"#utility.yul\":4514:4521   */\n      dup6\n        /* \"#utility.yul\":4510:4533   */\n      sub\n        /* \"#utility.yul\":4506:4538   */\n      slt\n        /* \"#utility.yul\":4503:4622   */\n      iszero\n      tag_403\n      jumpi\n        /* \"#utility.yul\":4541:4620   */\n      tag_404\n      tag_283\n      jump\t// in\n    tag_404:\n        /* \"#utility.yul\":4503:4622   */\n    tag_403:\n        /* \"#utility.yul\":4661:4662   */\n      0x00\n        /* \"#utility.yul\":4686:4739   */\n      tag_405\n        /* \"#utility.yul\":4731:4738   */\n      dup6\n        /* \"#utility.yul\":4722:4728   */\n      dup3\n        /* \"#utility.yul\":4711:4720   */\n      dup7\n        /* \"#utility.yul\":4707:4729   */\n      add\n        /* \"#utility.yul\":4686:4739   */\n      tag_302\n      jump\t// in\n    tag_405:\n        /* \"#utility.yul\":4676:4739   */\n      swap3\n      pop\n        /* \"#utility.yul\":4632:4749   */\n      pop\n        /* \"#utility.yul\":4788:4790   */\n      0x20\n        /* \"#utility.yul\":4814:4867   */\n      tag_406\n        /* \"#utility.yul\":4859:4866   */\n      dup6\n        /* \"#utility.yul\":4850:4856   */\n      dup3\n        /* \"#utility.yul\":4839:4848   */\n      dup7\n        /* \"#utility.yul\":4835:4857   */\n      add\n        /* \"#utility.yul\":4814:4867   */\n      tag_297\n      jump\t// in\n    tag_406:\n        /* \"#utility.yul\":4804:4867   */\n      swap2\n      pop\n        /* \"#utility.yul\":4759:4877   */\n      pop\n        /* \"#utility.yul\":4410:4884   */\n      swap3\n      pop\n      swap3\n      swap1\n      pop\n      jump\t// out\n        /* \"#utility.yul\":4890:5007   */\n    tag_303:\n        /* \"#utility.yul\":4999:5000   */\n      0x00\n        /* \"#utility.yul\":4996:4997   */\n      dup1\n        /* \"#utility.yul\":4989:5001   */\n      revert\n        /* \"#utility.yul\":5013:5130   */\n    tag_304:\n        /* \"#utility.yul\":5122:5123   */\n      0x00\n        /* \"#utility.yul\":5119:5120   */\n      dup1\n        /* \"#utility.yul\":5112:5124   */\n      revert\n        /* \"#utility.yul\":5136:5316   */\n    tag_155:\n        /* \"#utility.yul\":5184:5261   */\n      0x4e487b7100000000000000000000000000000000000000000000000000000000\n        /* \"#utility.yul\":5181:5182   */\n      0x00\n        /* \"#utility.yul\":5174:5262   */\n      mstore\n        /* \"#utility.yul\":5281:5285   */\n      0x41\n        /* \"#utility.yul\":5278:5279   */\n      0x04\n        /* \"#utility.yul\":5271:5286   */\n      mstore\n        /* \"#utility.yul\":5305:5309   */\n      0x24\n        /* \"#utility.yul\":5302:5303   */\n      0x00\n        /* \"#utility.yul\":5295:5310   */\n      revert\n        /* \"#utility.yul\":5322:5603   */\n    tag_305:\n        /* \"#utility.yul\":5405:5432   */\n      tag_411\n        /* \"#utility.yul\":5427:5431   */\n      dup3\n        /* \"#utility.yul\":5405:5432   */\n      tag_293\n      jump\t// in\n    tag_411:\n        /* \"#utility.yul\":5397:5403   */\n      dup2\n        /* \"#utility.yul\":5393:5433   */\n      add\n        /* \"#utility.yul\":5535:5541   */\n      dup2\n        /* \"#utility.yul\":5523:5533   */\n      dup2\n        /* \"#utility.yul\":5520:5542   */\n      lt\n        /* \"#utility.yul\":5499:5517   */\n      0xffffffffffffffff\n        /* \"#utility.yul\":5487:5497   */\n      dup3\n        /* \"#utility.yul\":5484:5518   */\n      gt\n        /* \"#utility.yul\":5481:5543   */\n      or\n        /* \"#utility.yul\":5478:5566   */\n      iszero\n      tag_412\n      jumpi\n        /* \"#utility.yul\":5546:5564   */\n      tag_413\n      tag_155\n      jump\t// in\n    tag_413:\n        /* \"#utility.yul\":5478:5566   */\n    tag_412:\n        /* \"#utility.yul\":5586:5596   */\n      dup1\n        /* \"#utility.yul\":5582:5584   */\n      0x40\n        /* \"#utility.yul\":5575:5597   */\n      mstore\n        /* \"#utility.yul\":5365:5603   */\n      pop\n        /* \"#utility.yul\":5322:5603   */\n      pop\n      pop\n      jump\t// out\n        /* \"#utility.yul\":5609:5738   */\n    tag_306:\n        /* \"#utility.yul\":5643:5649   */\n      0x00\n        /* \"#utility.yul\":5670:5690   */\n      tag_415\n      tag_282\n      jump\t// in\n    tag_415:\n        /* \"#utility.yul\":5660:5690   */\n      swap1\n      pop\n        /* \"#utility.yul\":5699:5732   */\n      tag_416\n        /* \"#utility.yul\":5727:5731   */\n      dup3\n        /* \"#utility.yul\":5719:5725   */\n      dup3\n        /* \"#utility.yul\":5699:5732   */\n      tag_305\n      jump\t// in\n    tag_416:\n        /* \"#utility.yul\":5609:5738   */\n      swap2\n      swap1\n      pop\n      jump\t// out\n        /* \"#utility.yul\":5744:6052   */\n    tag_307:\n        /* \"#utility.yul\":5806:5810   */\n      0x00\n        /* \"#utility.yul\":5896:5914   */\n      0xffffffffffffffff\n        /* \"#utility.yul\":5888:5894   */\n      dup3\n        /* \"#utility.yul\":5885:5915   */\n      gt\n        /* \"#utility.yul\":5882:5938   */\n      iszero\n      tag_418\n      jumpi\n        /* \"#utility.yul\":5918:5936   */\n      tag_419\n      tag_155\n      jump\t// in\n    tag_419:\n        /* \"#utility.yul\":5882:5938   */\n    tag_418:\n        /* \"#utility.yul\":5956:5985   */\n      tag_420\n        /* \"#utility.yul\":5978:5984   */\n      dup3\n        /* \"#utility.yul\":5956:5985   */\n      tag_293\n      jump\t// in\n    tag_420:\n        /* \"#utility.yul\":5948:5985   */\n      swap1\n      pop\n        /* \"#utility.yul\":6040:6044   */\n      0x20\n        /* \"#utility.yul\":6034:6038   */\n      dup2\n        /* \"#utility.yul\":6030:6045   */\n      add\n        /* \"#utility.yul\":6022:6045   */\n      swap1\n      pop\n        /* \"#utility.yul\":5744:6052   */\n      swap2\n      swap1\n      pop\n      jump\t// out\n        /* \"#utility.yul\":6058:6204   */\n    tag_308:\n        /* \"#utility.yul\":6155:6161   */\n      dup3\n        /* \"#utility.yul\":6150:6153   */\n      dup2\n        /* \"#utility.yul\":6145:6148   */\n      dup4\n        /* \"#utility.yul\":6132:6162   */\n      calldatacopy\n        /* \"#utility.yul\":6196:6197   */\n      0x00\n        /* \"#utility.yul\":6187:6193   */\n      dup4\n        /* \"#utility.yul\":6182:6185   */\n      dup4\n        /* \"#utility.yul\":6178:6194   */\n      add\n        /* \"#utility.yul\":6171:6198   */\n      mstore\n        /* \"#utility.yul\":6058:6204   */\n      pop\n      pop\n      pop\n      jump\t// out\n        /* \"#utility.yul\":6210:6635   */\n    tag_309:\n        /* \"#utility.yul\":6288:6293   */\n      0x00\n        /* \"#utility.yul\":6313:6379   */\n      tag_423\n        /* \"#utility.yul\":6329:6378   */\n      tag_424\n        /* \"#utility.yul\":6371:6377   */\n      dup5\n        /* \"#utility.yul\":6329:6378   */\n      tag_307\n      jump\t// in\n    tag_424:\n        /* \"#utility.yul\":6313:6379   */\n      tag_306\n      jump\t// in\n    tag_423:\n        /* \"#utility.yul\":6304:6379   */\n      swap1\n      pop\n        /* \"#utility.yul\":6402:6408   */\n      dup3\n        /* \"#utility.yul\":6395:6400   */\n      dup2\n        /* \"#utility.yul\":6388:6409   */\n      mstore\n        /* \"#utility.yul\":6440:6444   */\n      0x20\n        /* \"#utility.yul\":6433:6438   */\n      dup2\n        /* \"#utility.yul\":6429:6445   */\n      add\n        /* \"#utility.yul\":6478:6481   */\n      dup5\n        /* \"#utility.yul\":6469:6475   */\n      dup5\n        /* \"#utility.yul\":6464:6467   */\n      dup5\n        /* \"#utility.yul\":6460:6476   */\n      add\n        /* \"#utility.yul\":6457:6482   */\n      gt\n        /* \"#utility.yul\":6454:6566   */\n      iszero\n      tag_425\n      jumpi\n        /* \"#utility.yul\":6485:6564   */\n      tag_426\n      tag_304\n      jump\t// in\n    tag_426:\n        /* \"#utility.yul\":6454:6566   */\n    tag_425:\n        /* \"#utility.yul\":6575:6629   */\n      tag_427\n        /* \"#utility.yul\":6622:6628   */\n      dup5\n        /* \"#utility.yul\":6617:6620   */\n      dup3\n        /* \"#utility.yul\":6612:6615   */\n      dup6\n        /* \"#utility.yul\":6575:6629   */\n      tag_308\n      jump\t// in\n    tag_427:\n        /* \"#utility.yul\":6294:6635   */\n      pop\n        /* \"#utility.yul\":6210:6635   */\n      swap4\n      swap3\n      pop\n      pop\n      pop\n      jump\t// out\n        /* \"#utility.yul\":6655:6995   */\n    tag_310:\n        /* \"#utility.yul\":6711:6716   */\n      0x00\n        /* \"#utility.yul\":6760:6763   */\n      dup3\n        /* \"#utility.yul\":6753:6757   */\n      0x1f\n        /* \"#utility.yul\":6745:6751   */\n      dup4\n        /* \"#utility.yul\":6741:6758   */\n      add\n        /* \"#utility.yul\":6737:6764   */\n      slt\n        /* \"#utility.yul\":6727:6849   */\n      tag_429\n      jumpi\n        /* \"#utility.yul\":6768:6847   */\n      tag_430\n      tag_303\n      jump\t// in\n    tag_430:\n        /* \"#utility.yul\":6727:6849   */\n    tag_429:\n        /* \"#utility.yul\":6885:6891   */\n      dup2\n        /* \"#utility.yul\":6872:6892   */\n      calldataload\n        /* \"#utility.yul\":6910:6989   */\n      tag_431\n        /* \"#utility.yul\":6985:6988   */\n      dup5\n        /* \"#utility.yul\":6977:6983   */\n      dup3\n        /* \"#utility.yul\":6970:6974   */\n      0x20\n        /* \"#utility.yul\":6962:6968   */\n      dup7\n        /* \"#utility.yul\":6958:6975   */\n      add\n        /* \"#utility.yul\":6910:6989   */\n      tag_309\n      jump\t// in\n    tag_431:\n        /* \"#utility.yul\":6901:6989   */\n      swap2\n      pop\n        /* \"#utility.yul\":6717:6995   */\n      pop\n        /* \"#utility.yul\":6655:6995   */\n      swap3\n      swap2\n      pop\n      pop\n      jump\t// out\n        /* \"#utility.yul\":7001:7510   */\n    tag_47:\n        /* \"#utility.yul\":7070:7076   */\n      0x00\n        /* \"#utility.yul\":7119:7121   */\n      0x20\n        /* \"#utility.yul\":7107:7116   */\n      dup3\n        /* \"#utility.yul\":7098:7105   */\n      dup5\n        /* \"#utility.yul\":7094:7117   */\n      sub\n        /* \"#utility.yul\":7090:7122   */\n      slt\n        /* \"#utility.yul\":7087:7206   */\n      iszero\n      tag_433\n      jumpi\n        /* \"#utility.yul\":7125:7204   */\n      tag_434\n      tag_283\n      jump\t// in\n    tag_434:\n        /* \"#utility.yul\":7087:7206   */\n    tag_433:\n        /* \"#utility.yul\":7273:7274   */\n      0x00\n        /* \"#utility.yul\":7262:7271   */\n      dup3\n        /* \"#utility.yul\":7258:7275   */\n      add\n        /* \"#utility.yul\":7245:7276   */\n      calldataload\n        /* \"#utility.yul\":7303:7321   */\n      0xffffffffffffffff\n        /* \"#utility.yul\":7295:7301   */\n      dup2\n        /* \"#utility.yul\":7292:7322   */\n      gt\n        /* \"#utility.yul\":7289:7406   */\n      iszero\n      tag_435\n      jumpi\n        /* \"#utility.yul\":7325:7404   */\n      tag_436\n      tag_284\n      jump\t// in\n    tag_436:\n        /* \"#utility.yul\":7289:7406   */\n    tag_435:\n        /* \"#utility.yul\":7430:7493   */\n      tag_437\n        /* \"#utility.yul\":7485:7492   */\n      dup5\n        /* \"#utility.yul\":7476:7482   */\n      dup3\n        /* \"#utility.yul\":7465:7474   */\n      dup6\n        /* \"#utility.yul\":7461:7483   */\n      add\n        /* \"#utility.yul\":7430:7493   */\n      tag_310\n      jump\t// in\n    tag_437:\n        /* \"#utility.yul\":7420:7493   */\n      swap2\n      pop\n        /* \"#utility.yul\":7216:7503   */\n      pop\n        /* \"#utility.yul\":7001:7510   */\n      swap3\n      swap2\n      pop\n      pop\n      jump\t// out\n        /* \"#utility.yul\":7516:8135   */\n    tag_52:\n        /* \"#utility.yul\":7593:7599   */\n      0x00\n        /* \"#utility.yul\":7601:7607   */\n      dup1\n        /* \"#utility.yul\":7609:7615   */\n      0x00\n        /* \"#utility.yul\":7658:7660   */\n      0x60\n        /* \"#utility.yul\":7646:7655   */\n      dup5\n        /* \"#utility.yul\":7637:7644   */\n      dup7\n        /* \"#utility.yul\":7633:7656   */\n      sub\n        /* \"#utility.yul\":7629:7661   */\n      slt\n        /* \"#utility.yul\":7626:7745   */\n      iszero\n      tag_439\n      jumpi\n        /* \"#utility.yul\":7664:7743   */\n      tag_440\n      tag_283\n      jump\t// in\n    tag_440:\n        /* \"#utility.yul\":7626:7745   */\n    tag_439:\n        /* \"#utility.yul\":7784:7785   */\n      0x00\n        /* \"#utility.yul\":7809:7862   */\n      tag_441\n        /* \"#utility.yul\":7854:7861   */\n      dup7\n        /* \"#utility.yul\":7845:7851   */\n      dup3\n        /* \"#utility.yul\":7834:7843   */\n      dup8\n        /* \"#utility.yul\":7830:7852   */\n      add\n        /* \"#utility.yul\":7809:7862   */\n      tag_302\n      jump\t// in\n    tag_441:\n        /* \"#utility.yul\":7799:7862   */\n      swap4\n      pop\n        /* \"#utility.yul\":7755:7872   */\n      pop\n        /* \"#utility.yul\":7911:7913   */\n      0x20\n        /* \"#utility.yul\":7937:7990   */\n      tag_442\n        /* \"#utility.yul\":7982:7989   */\n      dup7\n        /* \"#utility.yul\":7973:7979   */\n      dup3\n        /* \"#utility.yul\":7962:7971   */\n      dup8\n        /* \"#utility.yul\":7958:7980   */\n      add\n        /* \"#utility.yul\":7937:7990   */\n      tag_302\n      jump\t// in\n    tag_442:\n        /* \"#utility.yul\":7927:7990   */\n      swap3\n      pop\n        /* \"#utility.yul\":7882:8000   */\n      pop\n        /* \"#utility.yul\":8039:8041   */\n      0x40\n        /* \"#utility.yul\":8065:8118   */\n      tag_443\n        /* \"#utility.yul\":8110:8117   */\n      dup7\n        /* \"#utility.yul\":8101:8107   */\n      dup3\n        /* \"#utility.yul\":8090:8099   */\n      dup8\n        /* \"#utility.yul\":8086:8108   */\n      add\n        /* \"#utility.yul\":8065:8118   */\n      tag_297\n      jump\t// in\n    tag_443:\n        /* \"#utility.yul\":8055:8118   */\n      swap2\n      pop\n        /* \"#utility.yul\":8010:8128   */\n      pop\n        /* \"#utility.yul\":7516:8135   */\n      swap3\n      pop\n      swap3\n      pop\n      swap3\n      jump\t// out\n        /* \"#utility.yul\":8141:8257   */\n    tag_311:\n        /* \"#utility.yul\":8211:8232   */\n      tag_445\n        /* \"#utility.yul\":8226:8231   */\n      dup2\n        /* \"#utility.yul\":8211:8232   */\n      tag_288\n      jump\t// in\n    tag_445:\n        /* \"#utility.yul\":8204:8209   */\n      dup2\n        /* \"#utility.yul\":8201:8233   */\n      eq\n        /* \"#utility.yul\":8191:8251   */\n      tag_446\n      jumpi\n        /* \"#utility.yul\":8247:8248   */\n      0x00\n        /* \"#utility.yul\":8244:8245   */\n      dup1\n        /* \"#utility.yul\":8237:8249   */\n      revert\n        /* \"#utility.yul\":8191:8251   */\n    tag_446:\n        /* \"#utility.yul\":8141:8257   */\n      pop\n      jump\t// out\n        /* \"#utility.yul\":8263:8396   */\n    tag_312:\n        /* \"#utility.yul\":8306:8311   */\n      0x00\n        /* \"#utility.yul\":8344:8350   */\n      dup2\n        /* \"#utility.yul\":8331:8351   */\n      calldataload\n        /* \"#utility.yul\":8322:8351   */\n      swap1\n      pop\n        /* \"#utility.yul\":8360:8390   */\n      tag_448\n        /* \"#utility.yul\":8384:8389   */\n      dup2\n        /* \"#utility.yul\":8360:8390   */\n      tag_311\n      jump\t// in\n    tag_448:\n        /* \"#utility.yul\":8263:8396   */\n      swap3\n      swap2\n      pop\n      pop\n      jump\t// out\n        /* \"#utility.yul\":8402:9015   */\n    tag_56:\n        /* \"#utility.yul\":8476:8482   */\n      0x00\n        /* \"#utility.yul\":8484:8490   */\n      dup1\n        /* \"#utility.yul\":8492:8498   */\n      0x00\n        /* \"#utility.yul\":8541:8543   */\n      0x60\n        /* \"#utility.yul\":8529:8538   */\n      dup5\n        /* \"#utility.yul\":8520:8527   */\n      dup7\n        /* \"#utility.yul\":8516:8539   */\n      sub\n        /* \"#utility.yul\":8512:8544   */\n      slt\n        /* \"#utility.yul\":8509:8628   */\n      iszero\n      tag_450\n      jumpi\n        /* \"#utility.yul\":8547:8626   */\n      tag_451\n      tag_283\n      jump\t// in\n    tag_451:\n        /* \"#utility.yul\":8509:8628   */\n    tag_450:\n        /* \"#utility.yul\":8667:8668   */\n      0x00\n        /* \"#utility.yul\":8692:8745   */\n      tag_452\n        /* \"#utility.yul\":8737:8744   */\n      dup7\n        /* \"#utility.yul\":8728:8734   */\n      dup3\n        /* \"#utility.yul\":8717:8726   */\n      dup8\n        /* \"#utility.yul\":8713:8735   */\n      add\n        /* \"#utility.yul\":8692:8745   */\n      tag_302\n      jump\t// in\n    tag_452:\n        /* \"#utility.yul\":8682:8745   */\n      swap4\n      pop\n        /* \"#utility.yul\":8638:8755   */\n      pop\n        /* \"#utility.yul\":8794:8796   */\n      0x20\n        /* \"#utility.yul\":8820:8873   */\n      tag_453\n        /* \"#utility.yul\":8865:8872   */\n      dup7\n        /* \"#utility.yul\":8856:8862   */\n      dup3\n        /* \"#utility.yul\":8845:8854   */\n      dup8\n        /* \"#utility.yul\":8841:8863   */\n      add\n        /* \"#utility.yul\":8820:8873   */\n      tag_302\n      jump\t// in\n    tag_453:\n        /* \"#utility.yul\":8810:8873   */\n      swap3\n      pop\n        /* \"#utility.yul\":8765:8883   */\n      pop\n        /* \"#utility.yul\":8922:8924   */\n      0x40\n        /* \"#utility.yul\":8948:8998   */\n      tag_454\n        /* \"#utility.yul\":8990:8997   */\n      dup7\n        /* \"#utility.yul\":8981:8987   */\n      dup3\n        /* \"#utility.yul\":8970:8979   */\n      dup8\n        /* \"#utility.yul\":8966:8988   */\n      add\n        /* \"#utility.yul\":8948:8998   */\n      tag_312\n      jump\t// in\n    tag_454:\n        /* \"#utility.yul\":8938:8998   */\n      swap2\n      pop\n        /* \"#utility.yul\":8893:9008   */\n      pop\n        /* \"#utility.yul\":8402:9015   */\n      swap3\n      pop\n      swap3\n      pop\n      swap3\n      jump\t// out\n        /* \"#utility.yul\":9021:9350   */\n    tag_67:\n        /* \"#utility.yul\":9080:9086   */\n      0x00\n        /* \"#utility.yul\":9129:9131   */\n      0x20\n        /* \"#utility.yul\":9117:9126   */\n      dup3\n        /* \"#utility.yul\":9108:9115   */\n      dup5\n        /* \"#utility.yul\":9104:9127   */\n      sub\n        /* \"#utility.yul\":9100:9132   */\n      slt\n        /* \"#utility.yul\":9097:9216   */\n      iszero\n      tag_456\n      jumpi\n        /* \"#utility.yul\":9135:9214   */\n      tag_457\n      tag_283\n      jump\t// in\n    tag_457:\n        /* \"#utility.yul\":9097:9216   */\n    tag_456:\n        /* \"#utility.yul\":9255:9256   */\n      0x00\n        /* \"#utility.yul\":9280:9333   */\n      tag_458\n        /* \"#utility.yul\":9325:9332   */\n      dup5\n        /* \"#utility.yul\":9316:9322   */\n      dup3\n        /* \"#utility.yul\":9305:9314   */\n      dup6\n        /* \"#utility.yul\":9301:9323   */\n      add\n        /* \"#utility.yul\":9280:9333   */\n      tag_302\n      jump\t// in\n    tag_458:\n        /* \"#utility.yul\":9270:9333   */\n      swap2\n      pop\n        /* \"#utility.yul\":9226:9343   */\n      pop\n        /* \"#utility.yul\":9021:9350   */\n      swap3\n      swap2\n      pop\n      pop\n      jump\t// out\n        /* \"#utility.yul\":9356:9474   */\n    tag_313:\n        /* \"#utility.yul\":9443:9467   */\n      tag_460\n        /* \"#utility.yul\":9461:9466   */\n      dup2\n        /* \"#utility.yul\":9443:9467   */\n      tag_295\n      jump\t// in\n    tag_460:\n        /* \"#utility.yul\":9438:9441   */\n      dup3\n        /* \"#utility.yul\":9431:9468   */\n      mstore\n        /* \"#utility.yul\":9356:9474   */\n      pop\n      pop\n      jump\t// out\n        /* \"#utility.yul\":9480:9702   */\n    tag_70:\n        /* \"#utility.yul\":9573:9577   */\n      0x00\n        /* \"#utility.yul\":9611:9613   */\n      0x20\n        /* \"#utility.yul\":9600:9609   */\n      dup3\n        /* \"#utility.yul\":9596:9614   */\n      add\n        /* \"#utility.yul\":9588:9614   */\n      swap1\n      pop\n        /* \"#utility.yul\":9624:9695   */\n      tag_462\n        /* \"#utility.yul\":9692:9693   */\n      0x00\n        /* \"#utility.yul\":9681:9690   */\n      dup4\n        /* \"#utility.yul\":9677:9694   */\n      add\n        /* \"#utility.yul\":9668:9674   */\n      dup5\n        /* \"#utility.yul\":9624:9695   */\n      tag_313\n      jump\t// in\n    tag_462:\n        /* \"#utility.yul\":9480:9702   */\n      swap3\n      swap2\n      pop\n      pop\n      jump\t// out\n        /* \"#utility.yul\":9708:9822   */\n    tag_314:\n        /* \"#utility.yul\":9775:9781   */\n      0x00\n        /* \"#utility.yul\":9809:9814   */\n      dup2\n        /* \"#utility.yul\":9803:9815   */\n      mload\n        /* \"#utility.yul\":9793:9815   */\n      swap1\n      pop\n        /* \"#utility.yul\":9708:9822   */\n      swap2\n      swap1\n      pop\n      jump\t// out\n        /* \"#utility.yul\":9828:10012   */\n    tag_315:\n        /* \"#utility.yul\":9927:9938   */\n      0x00\n        /* \"#utility.yul\":9961:9967   */\n      dup3\n        /* \"#utility.yul\":9956:9959   */\n      dup3\n        /* \"#utility.yul\":9949:9968   */\n      mstore\n        /* \"#utility.yul\":10001:10005   */\n      0x20\n        /* \"#utility.yul\":9996:9999   */\n      dup3\n        /* \"#utility.yul\":9992:10006   */\n      add\n        /* \"#utility.yul\":9977:10006   */\n      swap1\n      pop\n        /* \"#utility.yul\":9828:10012   */\n      swap3\n      swap2\n      pop\n      pop\n      jump\t// out\n        /* \"#utility.yul\":10018:10150   */\n    tag_316:\n        /* \"#utility.yul\":10085:10089   */\n      0x00\n        /* \"#utility.yul\":10108:10111   */\n      dup2\n        /* \"#utility.yul\":10100:10111   */\n      swap1\n      pop\n        /* \"#utility.yul\":10138:10142   */\n      0x20\n        /* \"#utility.yul\":10133:10136   */\n      dup3\n        /* \"#utility.yul\":10129:10143   */\n      add\n        /* \"#utility.yul\":10121:10143   */\n      swap1\n      pop\n        /* \"#utility.yul\":10018:10150   */\n      swap2\n      swap1\n      pop\n      jump\t// out\n        /* \"#utility.yul\":10156:10264   */\n    tag_317:\n        /* \"#utility.yul\":10233:10257   */\n      tag_467\n        /* \"#utility.yul\":10251:10256   */\n      dup2\n        /* \"#utility.yul\":10233:10257   */\n      tag_295\n      jump\t// in\n    tag_467:\n        /* \"#utility.yul\":10228:10231   */\n      dup3\n        /* \"#utility.yul\":10221:10258   */\n      mstore\n        /* \"#utility.yul\":10156:10264   */\n      pop\n      pop\n      jump\t// out\n        /* \"#utility.yul\":10270:10449   */\n    tag_318:\n        /* \"#utility.yul\":10339:10349   */\n      0x00\n        /* \"#utility.yul\":10360:10406   */\n      tag_469\n        /* \"#utility.yul\":10402:10405   */\n      dup4\n        /* \"#utility.yul\":10394:10400   */\n      dup4\n        /* \"#utility.yul\":10360:10406   */\n      tag_317\n      jump\t// in\n    tag_469:\n        /* \"#utility.yul\":10438:10442   */\n      0x20\n        /* \"#utility.yul\":10433:10436   */\n      dup4\n        /* \"#utility.yul\":10429:10443   */\n      add\n        /* \"#utility.yul\":10415:10443   */\n      swap1\n      pop\n        /* \"#utility.yul\":10270:10449   */\n      swap3\n      swap2\n      pop\n      pop\n      jump\t// out\n        /* \"#utility.yul\":10455:10568   */\n    tag_319:\n        /* \"#utility.yul\":10525:10529   */\n      0x00\n        /* \"#utility.yul\":10557:10561   */\n      0x20\n        /* \"#utility.yul\":10552:10555   */\n      dup3\n        /* \"#utility.yul\":10548:10562   */\n      add\n        /* \"#utility.yul\":10540:10562   */\n      swap1\n      pop\n        /* \"#utility.yul\":10455:10568   */\n      swap2\n      swap1\n      pop\n      jump\t// out\n        /* \"#utility.yul\":10604:11336   */\n    tag_320:\n        /* \"#utility.yul\":10723:10726   */\n      0x00\n        /* \"#utility.yul\":10752:10806   */\n      tag_472\n        /* \"#utility.yul\":10800:10805   */\n      dup3\n        /* \"#utility.yul\":10752:10806   */\n      tag_314\n      jump\t// in\n    tag_472:\n        /* \"#utility.yul\":10822:10908   */\n      tag_473\n        /* \"#utility.yul\":10901:10907   */\n      dup2\n        /* \"#utility.yul\":10896:10899   */\n      dup6\n        /* \"#utility.yul\":10822:10908   */\n      tag_315\n      jump\t// in\n    tag_473:\n        /* \"#utility.yul\":10815:10908   */\n      swap4\n      pop\n        /* \"#utility.yul\":10932:10988   */\n      tag_474\n        /* \"#utility.yul\":10982:10987   */\n      dup4\n        /* \"#utility.yul\":10932:10988   */\n      tag_316\n      jump\t// in\n    tag_474:\n        /* \"#utility.yul\":11011:11018   */\n      dup1\n        /* \"#utility.yul\":11042:11043   */\n      0x00\n        /* \"#utility.yul\":11027:11311   */\n    tag_475:\n        /* \"#utility.yul\":11052:11058   */\n      dup4\n        /* \"#utility.yul\":11049:11050   */\n      dup2\n        /* \"#utility.yul\":11046:11059   */\n      lt\n        /* \"#utility.yul\":11027:11311   */\n      iszero\n      tag_477\n      jumpi\n        /* \"#utility.yul\":11128:11134   */\n      dup2\n        /* \"#utility.yul\":11122:11135   */\n      mload\n        /* \"#utility.yul\":11155:11218   */\n      tag_478\n        /* \"#utility.yul\":11214:11217   */\n      dup9\n        /* \"#utility.yul\":11199:11212   */\n      dup3\n        /* \"#utility.yul\":11155:11218   */\n      tag_318\n      jump\t// in\n    tag_478:\n        /* \"#utility.yul\":11148:11218   */\n      swap8\n      pop\n        /* \"#utility.yul\":11241:11301   */\n      tag_479\n        /* \"#utility.yul\":11294:11300   */\n      dup4\n        /* \"#utility.yul\":11241:11301   */\n      tag_319\n      jump\t// in\n    tag_479:\n        /* \"#utility.yul\":11231:11301   */\n      swap3\n      pop\n        /* \"#utility.yul\":11087:11311   */\n      pop\n        /* \"#utility.yul\":11074:11075   */\n      0x01\n        /* \"#utility.yul\":11071:11072   */\n      dup2\n        /* \"#utility.yul\":11067:11076   */\n      add\n        /* \"#utility.yul\":11062:11076   */\n      swap1\n      pop\n        /* \"#utility.yul\":11027:11311   */\n      jump(tag_475)\n    tag_477:\n        /* \"#utility.yul\":11031:11045   */\n      pop\n        /* \"#utility.yul\":11327:11330   */\n      dup6\n        /* \"#utility.yul\":11320:11330   */\n      swap4\n      pop\n        /* \"#utility.yul\":10728:11336   */\n      pop\n      pop\n      pop\n        /* \"#utility.yul\":10604:11336   */\n      swap3\n      swap2\n      pop\n      pop\n      jump\t// out\n        /* \"#utility.yul\":11342:11715   */\n    tag_75:\n        /* \"#utility.yul\":11485:11489   */\n      0x00\n        /* \"#utility.yul\":11523:11525   */\n      0x20\n        /* \"#utility.yul\":11512:11521   */\n      dup3\n        /* \"#utility.yul\":11508:11526   */\n      add\n        /* \"#utility.yul\":11500:11526   */\n      swap1\n      pop\n        /* \"#utility.yul\":11572:11581   */\n      dup2\n        /* \"#utility.yul\":11566:11570   */\n      dup2\n        /* \"#utility.yul\":11562:11582   */\n      sub\n        /* \"#utility.yul\":11558:11559   */\n      0x00\n        /* \"#utility.yul\":11547:11556   */\n      dup4\n        /* \"#utility.yul\":11543:11560   */\n      add\n        /* \"#utility.yul\":11536:11583   */\n      mstore\n        /* \"#utility.yul\":11600:11708   */\n      tag_481\n        /* \"#utility.yul\":11703:11707   */\n      dup2\n        /* \"#utility.yul\":11694:11700   */\n      dup5\n        /* \"#utility.yul\":11600:11708   */\n      tag_320\n      jump\t// in\n    tag_481:\n        /* \"#utility.yul\":11592:11708   */\n      swap1\n      pop\n        /* \"#utility.yul\":11342:11715   */\n      swap3\n      swap2\n      pop\n      pop\n      jump\t// out\n        /* \"#utility.yul\":11721:12189   */\n    tag_81:\n        /* \"#utility.yul\":11786:11792   */\n      0x00\n        /* \"#utility.yul\":11794:11800   */\n      dup1\n        /* \"#utility.yul\":11843:11845   */\n      0x40\n        /* \"#utility.yul\":11831:11840   */\n      dup4\n        /* \"#utility.yul\":11822:11829   */\n      dup6\n        /* \"#utility.yul\":11818:11841   */\n      sub\n        /* \"#utility.yul\":11814:11846   */\n      slt\n        /* \"#utility.yul\":11811:11930   */\n      iszero\n      tag_483\n      jumpi\n        /* \"#utility.yul\":11849:11928   */\n      tag_484\n      tag_283\n      jump\t// in\n    tag_484:\n        /* \"#utility.yul\":11811:11930   */\n    tag_483:\n        /* \"#utility.yul\":11969:11970   */\n      0x00\n        /* \"#utility.yul\":11994:12047   */\n      tag_485\n        /* \"#utility.yul\":12039:12046   */\n      dup6\n        /* \"#utility.yul\":12030:12036   */\n      dup3\n        /* \"#utility.yul\":12019:12028   */\n      dup7\n        /* \"#utility.yul\":12015:12037   */\n      add\n        /* \"#utility.yul\":11994:12047   */\n      tag_302\n      jump\t// in\n    tag_485:\n        /* \"#utility.yul\":11984:12047   */\n      swap3\n      pop\n        /* \"#utility.yul\":11940:12057   */\n      pop\n        /* \"#utility.yul\":12096:12098   */\n      0x20\n        /* \"#utility.yul\":12122:12172   */\n      tag_486\n        /* \"#utility.yul\":12164:12171   */\n      dup6\n        /* \"#utility.yul\":12155:12161   */\n      dup3\n        /* \"#utility.yul\":12144:12153   */\n      dup7\n        /* \"#utility.yul\":12140:12162   */\n      add\n        /* \"#utility.yul\":12122:12172   */\n      tag_312\n      jump\t// in\n    tag_486:\n        /* \"#utility.yul\":12112:12172   */\n      swap2\n      pop\n        /* \"#utility.yul\":12067:12182   */\n      pop\n        /* \"#utility.yul\":11721:12189   */\n      swap3\n      pop\n      swap3\n      swap1\n      pop\n      jump\t// out\n        /* \"#utility.yul\":12195:12502   */\n    tag_321:\n        /* \"#utility.yul\":12256:12260   */\n      0x00\n        /* \"#utility.yul\":12346:12364   */\n      0xffffffffffffffff\n        /* \"#utility.yul\":12338:12344   */\n      dup3\n        /* \"#utility.yul\":12335:12365   */\n      gt\n        /* \"#utility.yul\":12332:12388   */\n      iszero\n      tag_488\n      jumpi\n        /* \"#utility.yul\":12368:12386   */\n      tag_489\n      tag_155\n      jump\t// in\n    tag_489:\n        /* \"#utility.yul\":12332:12388   */\n    tag_488:\n        /* \"#utility.yul\":12406:12435   */\n      tag_490\n        /* \"#utility.yul\":12428:12434   */\n      dup3\n        /* \"#utility.yul\":12406:12435   */\n      tag_293\n      jump\t// in\n    tag_490:\n        /* \"#utility.yul\":12398:12435   */\n      swap1\n      pop\n        /* \"#utility.yul\":12490:12494   */\n      0x20\n        /* \"#utility.yul\":12484:12488   */\n      dup2\n        /* \"#utility.yul\":12480:12495   */\n      add\n        /* \"#utility.yul\":12472:12495   */\n      swap1\n      pop\n        /* \"#utility.yul\":12195:12502   */\n      swap2\n      swap1\n      pop\n      jump\t// out\n        /* \"#utility.yul\":12508:12931   */\n    tag_322:\n        /* \"#utility.yul\":12585:12590   */\n      0x00\n        /* \"#utility.yul\":12610:12675   */\n      tag_492\n        /* \"#utility.yul\":12626:12674   */\n      tag_493\n        /* \"#utility.yul\":12667:12673   */\n      dup5\n        /* \"#utility.yul\":12626:12674   */\n      tag_321\n      jump\t// in\n    tag_493:\n        /* \"#utility.yul\":12610:12675   */\n      tag_306\n      jump\t// in\n    tag_492:\n        /* \"#utility.yul\":12601:12675   */\n      swap1\n      pop\n        /* \"#utility.yul\":12698:12704   */\n      dup3\n        /* \"#utility.yul\":12691:12696   */\n      dup2\n        /* \"#utility.yul\":12684:12705   */\n      mstore\n        /* \"#utility.yul\":12736:12740   */\n      0x20\n        /* \"#utility.yul\":12729:12734   */\n      dup2\n        /* \"#utility.yul\":12725:12741   */\n      add\n        /* \"#utility.yul\":12774:12777   */\n      dup5\n        /* \"#utility.yul\":12765:12771   */\n      dup5\n        /* \"#utility.yul\":12760:12763   */\n      dup5\n        /* \"#utility.yul\":12756:12772   */\n      add\n        /* \"#utility.yul\":12753:12778   */\n      gt\n        /* \"#utility.yul\":12750:12862   */\n      iszero\n      tag_494\n      jumpi\n        /* \"#utility.yul\":12781:12860   */\n      tag_495\n      tag_304\n      jump\t// in\n    tag_495:\n        /* \"#utility.yul\":12750:12862   */\n    tag_494:\n        /* \"#utility.yul\":12871:12925   */\n      tag_496\n        /* \"#utility.yul\":12918:12924   */\n      dup5\n        /* \"#utility.yul\":12913:12916   */\n      dup3\n        /* \"#utility.yul\":12908:12911   */\n      dup6\n        /* \"#utility.yul\":12871:12925   */\n      tag_308\n      jump\t// in\n    tag_496:\n        /* \"#utility.yul\":12591:12931   */\n      pop\n        /* \"#utility.yul\":12508:12931   */\n      swap4\n      swap3\n      pop\n      pop\n      pop\n      jump\t// out\n        /* \"#utility.yul\":12950:13288   */\n    tag_323:\n        /* \"#utility.yul\":13005:13010   */\n      0x00\n        /* \"#utility.yul\":13054:13057   */\n      dup3\n        /* \"#utility.yul\":13047:13051   */\n      0x1f\n        /* \"#utility.yul\":13039:13045   */\n      dup4\n        /* \"#utility.yul\":13035:13052   */\n      add\n        /* \"#utility.yul\":13031:13058   */\n      slt\n        /* \"#utility.yul\":13021:13143   */\n      tag_498\n      jumpi\n        /* \"#utility.yul\":13062:13141   */\n      tag_499\n      tag_303\n      jump\t// in\n    tag_499:\n        /* \"#utility.yul\":13021:13143   */\n    tag_498:\n        /* \"#utility.yul\":13179:13185   */\n      dup2\n        /* \"#utility.yul\":13166:13186   */\n      calldataload\n        /* \"#utility.yul\":13204:13282   */\n      tag_500\n        /* \"#utility.yul\":13278:13281   */\n      dup5\n        /* \"#utility.yul\":13270:13276   */\n      dup3\n        /* \"#utility.yul\":13263:13267   */\n      0x20\n        /* \"#utility.yul\":13255:13261   */\n      dup7\n        /* \"#utility.yul\":13251:13268   */\n      add\n        /* \"#utility.yul\":13204:13282   */\n      tag_322\n      jump\t// in\n    tag_500:\n        /* \"#utility.yul\":13195:13282   */\n      swap2\n      pop\n        /* \"#utility.yul\":13011:13288   */\n      pop\n        /* \"#utility.yul\":12950:13288   */\n      swap3\n      swap2\n      pop\n      pop\n      jump\t// out\n        /* \"#utility.yul\":13294:14237   */\n    tag_91:\n        /* \"#utility.yul\":13389:13395   */\n      0x00\n        /* \"#utility.yul\":13397:13403   */\n      dup1\n        /* \"#utility.yul\":13405:13411   */\n      0x00\n        /* \"#utility.yul\":13413:13419   */\n      dup1\n        /* \"#utility.yul\":13462:13465   */\n      0x80\n        /* \"#utility.yul\":13450:13459   */\n      dup6\n        /* \"#utility.yul\":13441:13448   */\n      dup8\n        /* \"#utility.yul\":13437:13460   */\n      sub\n        /* \"#utility.yul\":13433:13466   */\n      slt\n        /* \"#utility.yul\":13430:13550   */\n      iszero\n      tag_502\n      jumpi\n        /* \"#utility.yul\":13469:13548   */\n      tag_503\n      tag_283\n      jump\t// in\n    tag_503:\n        /* \"#utility.yul\":13430:13550   */\n    tag_502:\n        /* \"#utility.yul\":13589:13590   */\n      0x00\n        /* \"#utility.yul\":13614:13667   */\n      tag_504\n        /* \"#utility.yul\":13659:13666   */\n      dup8\n        /* \"#utility.yul\":13650:13656   */\n      dup3\n        /* \"#utility.yul\":13639:13648   */\n      dup9\n        /* \"#utility.yul\":13635:13657   */\n      add\n        /* \"#utility.yul\":13614:13667   */\n      tag_302\n      jump\t// in\n    tag_504:\n        /* \"#utility.yul\":13604:13667   */\n      swap5\n      pop\n        /* \"#utility.yul\":13560:13677   */\n      pop\n        /* \"#utility.yul\":13716:13718   */\n      0x20\n        /* \"#utility.yul\":13742:13795   */\n      tag_505\n        /* \"#utility.yul\":13787:13794   */\n      dup8\n        /* \"#utility.yul\":13778:13784   */\n      dup3\n        /* \"#utility.yul\":13767:13776   */\n      dup9\n        /* \"#utility.yul\":13763:13785   */\n      add\n        /* \"#utility.yul\":13742:13795   */\n      tag_302\n      jump\t// in\n    tag_505:\n        /* \"#utility.yul\":13732:13795   */\n      swap4\n      pop\n        /* \"#utility.yul\":13687:13805   */\n      pop\n        /* \"#utility.yul\":13844:13846   */\n      0x40\n        /* \"#utility.yul\":13870:13923   */\n      tag_506\n        /* \"#utility.yul\":13915:13922   */\n      dup8\n        /* \"#utility.yul\":13906:13912   */\n      dup3\n        /* \"#utility.yul\":13895:13904   */\n      dup9\n        /* \"#utility.yul\":13891:13913   */\n      add\n        /* \"#utility.yul\":13870:13923   */\n      tag_297\n      jump\t// in\n    tag_506:\n        /* \"#utility.yul\":13860:13923   */\n      swap3\n      pop\n        /* \"#utility.yul\":13815:13933   */\n      pop\n        /* \"#utility.yul\":14000:14002   */\n      0x60\n        /* \"#utility.yul\":13989:13998   */\n      dup6\n        /* \"#utility.yul\":13985:14003   */\n      add\n        /* \"#utility.yul\":13972:14004   */\n      calldataload\n        /* \"#utility.yul\":14031:14049   */\n      0xffffffffffffffff\n        /* \"#utility.yul\":14023:14029   */\n      dup2\n        /* \"#utility.yul\":14020:14050   */\n      gt\n        /* \"#utility.yul\":14017:14134   */\n      iszero\n      tag_507\n      jumpi\n        /* \"#utility.yul\":14053:14132   */\n      tag_508\n      tag_284\n      jump\t// in\n    tag_508:\n        /* \"#utility.yul\":14017:14134   */\n    tag_507:\n        /* \"#utility.yul\":14158:14220   */\n      tag_509\n        /* \"#utility.yul\":14212:14219   */\n      dup8\n        /* \"#utility.yul\":14203:14209   */\n      dup3\n        /* \"#utility.yul\":14192:14201   */\n      dup9\n        /* \"#utility.yul\":14188:14210   */\n      add\n        /* \"#utility.yul\":14158:14220   */\n      tag_323\n      jump\t// in\n    tag_509:\n        /* \"#utility.yul\":14148:14220   */\n      swap2\n      pop\n        /* \"#utility.yul\":13943:14230   */\n      pop\n        /* \"#utility.yul\":13294:14237   */\n      swap3\n      swap6\n      swap2\n      swap5\n      pop\n      swap3\n      pop\n      jump\t// out\n        /* \"#utility.yul\":14243:14897   */\n    tag_99:\n        /* \"#utility.yul\":14321:14327   */\n      0x00\n        /* \"#utility.yul\":14329:14335   */\n      dup1\n        /* \"#utility.yul\":14378:14380   */\n      0x40\n        /* \"#utility.yul\":14366:14375   */\n      dup4\n        /* \"#utility.yul\":14357:14364   */\n      dup6\n        /* \"#utility.yul\":14353:14376   */\n      sub\n        /* \"#utility.yul\":14349:14381   */\n      slt\n        /* \"#utility.yul\":14346:14465   */\n      iszero\n      tag_511\n      jumpi\n        /* \"#utility.yul\":14384:14463   */\n      tag_512\n      tag_283\n      jump\t// in\n    tag_512:\n        /* \"#utility.yul\":14346:14465   */\n    tag_511:\n        /* \"#utility.yul\":14504:14505   */\n      0x00\n        /* \"#utility.yul\":14529:14582   */\n      tag_513\n        /* \"#utility.yul\":14574:14581   */\n      dup6\n        /* \"#utility.yul\":14565:14571   */\n      dup3\n        /* \"#utility.yul\":14554:14563   */\n      dup7\n        /* \"#utility.yul\":14550:14572   */\n      add\n        /* \"#utility.yul\":14529:14582   */\n      tag_297\n      jump\t// in\n    tag_513:\n        /* \"#utility.yul\":14519:14582   */\n      swap3\n      pop\n        /* \"#utility.yul\":14475:14592   */\n      pop\n        /* \"#utility.yul\":14659:14661   */\n      0x20\n        /* \"#utility.yul\":14648:14657   */\n      dup4\n        /* \"#utility.yul\":14644:14662   */\n      add\n        /* \"#utility.yul\":14631:14663   */\n      calldataload\n        /* \"#utility.yul\":14690:14708   */\n      0xffffffffffffffff\n        /* \"#utility.yul\":14682:14688   */\n      dup2\n        /* \"#utility.yul\":14679:14709   */\n      gt\n        /* \"#utility.yul\":14676:14793   */\n      iszero\n      tag_514\n      jumpi\n        /* \"#utility.yul\":14712:14791   */\n      tag_515\n      tag_284\n      jump\t// in\n    tag_515:\n        /* \"#utility.yul\":14676:14793   */\n    tag_514:\n        /* \"#utility.yul\":14817:14880   */\n      tag_516\n        /* \"#utility.yul\":14872:14879   */\n      dup6\n        /* \"#utility.yul\":14863:14869   */\n      dup3\n        /* \"#utility.yul\":14852:14861   */\n      dup7\n        /* \"#utility.yul\":14848:14870   */\n      add\n        /* \"#utility.yul\":14817:14880   */\n      tag_310\n      jump\t// in\n    tag_516:\n        /* \"#utility.yul\":14807:14880   */\n      swap2\n      pop\n        /* \"#utility.yul\":14602:14890   */\n      pop\n        /* \"#utility.yul\":14243:14897   */\n      swap3\n      pop\n      swap3\n      swap1\n      pop\n      jump\t// out\n        /* \"#utility.yul\":14903:15377   */\n    tag_103:\n        /* \"#utility.yul\":14971:14977   */\n      0x00\n        /* \"#utility.yul\":14979:14985   */\n      dup1\n        /* \"#utility.yul\":15028:15030   */\n      0x40\n        /* \"#utility.yul\":15016:15025   */\n      dup4\n        /* \"#utility.yul\":15007:15014   */\n      dup6\n        /* \"#utility.yul\":15003:15026   */\n      sub\n        /* \"#utility.yul\":14999:15031   */\n      slt\n        /* \"#utility.yul\":14996:15115   */\n      iszero\n      tag_518\n      jumpi\n        /* \"#utility.yul\":15034:15113   */\n      tag_519\n      tag_283\n      jump\t// in\n    tag_519:\n        /* \"#utility.yul\":14996:15115   */\n    tag_518:\n        /* \"#utility.yul\":15154:15155   */\n      0x00\n        /* \"#utility.yul\":15179:15232   */\n      tag_520\n        /* \"#utility.yul\":15224:15231   */\n      dup6\n        /* \"#utility.yul\":15215:15221   */\n      dup3\n        /* \"#utility.yul\":15204:15213   */\n      dup7\n        /* \"#utility.yul\":15200:15222   */\n      add\n        /* \"#utility.yul\":15179:15232   */\n      tag_302\n      jump\t// in\n    tag_520:\n        /* \"#utility.yul\":15169:15232   */\n      swap3\n      pop\n        /* \"#utility.yul\":15125:15242   */\n      pop\n        /* \"#utility.yul\":15281:15283   */\n      0x20\n        /* \"#utility.yul\":15307:15360   */\n      tag_521\n        /* \"#utility.yul\":15352:15359   */\n      dup6\n        /* \"#utility.yul\":15343:15349   */\n      dup3\n        /* \"#utility.yul\":15332:15341   */\n      dup7\n        /* \"#utility.yul\":15328:15350   */\n      add\n        /* \"#utility.yul\":15307:15360   */\n      tag_302\n      jump\t// in\n    tag_521:\n        /* \"#utility.yul\":15297:15360   */\n      swap2\n      pop\n        /* \"#utility.yul\":15252:15370   */\n      pop\n        /* \"#utility.yul\":14903:15377   */\n      swap3\n      pop\n      swap3\n      swap1\n      pop\n      jump\t// out\n        /* \"#utility.yul\":15383:15563   */\n    tag_324:\n        /* \"#utility.yul\":15431:15508   */\n      0x4e487b7100000000000000000000000000000000000000000000000000000000\n        /* \"#utility.yul\":15428:15429   */\n      0x00\n        /* \"#utility.yul\":15421:15509   */\n      mstore\n        /* \"#utility.yul\":15528:15532   */\n      0x22\n        /* \"#utility.yul\":15525:15526   */\n      0x04\n        /* \"#utility.yul\":15518:15533   */\n      mstore\n        /* \"#utility.yul\":15552:15556   */\n      0x24\n        /* \"#utility.yul\":15549:15550   */\n      0x00\n        /* \"#utility.yul\":15542:15557   */\n      revert\n        /* \"#utility.yul\":15569:15889   */\n    tag_113:\n        /* \"#utility.yul\":15613:15619   */\n      0x00\n        /* \"#utility.yul\":15650:15651   */\n      0x02\n        /* \"#utility.yul\":15644:15648   */\n      dup3\n        /* \"#utility.yul\":15640:15652   */\n      div\n        /* \"#utility.yul\":15630:15652   */\n      swap1\n      pop\n        /* \"#utility.yul\":15697:15698   */\n      0x01\n        /* \"#utility.yul\":15691:15695   */\n      dup3\n        /* \"#utility.yul\":15687:15699   */\n      and\n        /* \"#utility.yul\":15718:15736   */\n      dup1\n        /* \"#utility.yul\":15708:15789   */\n      tag_524\n      jumpi\n        /* \"#utility.yul\":15774:15778   */\n      0x7f\n        /* \"#utility.yul\":15766:15772   */\n      dup3\n        /* \"#utility.yul\":15762:15779   */\n      and\n        /* \"#utility.yul\":15752:15779   */\n      swap2\n      pop\n        /* \"#utility.yul\":15708:15789   */\n    tag_524:\n        /* \"#utility.yul\":15836:15838   */\n      0x20\n        /* \"#utility.yul\":15828:15834   */\n      dup3\n        /* \"#utility.yul\":15825:15839   */\n      lt\n        /* \"#utility.yul\":15805:15823   */\n      dup2\n        /* \"#utility.yul\":15802:15840   */\n      sub\n        /* \"#utility.yul\":15799:15883   */\n      tag_525\n      jumpi\n        /* \"#utility.yul\":15855:15873   */\n      tag_526\n      tag_324\n      jump\t// in\n    tag_526:\n        /* \"#utility.yul\":15799:15883   */\n    tag_525:\n        /* \"#utility.yul\":15620:15889   */\n      pop\n        /* \"#utility.yul\":15569:15889   */\n      swap2\n      swap1\n      pop\n      jump\t// out\n        /* \"#utility.yul\":15895:16043   */\n    tag_325:\n        /* \"#utility.yul\":15997:16008   */\n      0x00\n        /* \"#utility.yul\":16034:16037   */\n      dup2\n        /* \"#utility.yul\":16019:16037   */\n      swap1\n      pop\n        /* \"#utility.yul\":15895:16043   */\n      swap3\n      swap2\n      pop\n      pop\n      jump\t// out\n        /* \"#utility.yul\":16049:16439   */\n    tag_326:\n        /* \"#utility.yul\":16155:16158   */\n      0x00\n        /* \"#utility.yul\":16183:16222   */\n      tag_529\n        /* \"#utility.yul\":16216:16221   */\n      dup3\n        /* \"#utility.yul\":16183:16222   */\n      tag_290\n      jump\t// in\n    tag_529:\n        /* \"#utility.yul\":16238:16327   */\n      tag_530\n        /* \"#utility.yul\":16320:16326   */\n      dup2\n        /* \"#utility.yul\":16315:16318   */\n      dup6\n        /* \"#utility.yul\":16238:16327   */\n      tag_325\n      jump\t// in\n    tag_530:\n        /* \"#utility.yul\":16231:16327   */\n      swap4\n      pop\n        /* \"#utility.yul\":16336:16401   */\n      tag_531\n        /* \"#utility.yul\":16394:16400   */\n      dup2\n        /* \"#utility.yul\":16389:16392   */\n      dup6\n        /* \"#utility.yul\":16382:16386   */\n      0x20\n        /* \"#utility.yul\":16375:16380   */\n      dup7\n        /* \"#utility.yul\":16371:16387   */\n      add\n        /* \"#utility.yul\":16336:16401   */\n      tag_292\n      jump\t// in\n    tag_531:\n        /* \"#utility.yul\":16426:16432   */\n      dup1\n        /* \"#utility.yul\":16421:16424   */\n      dup5\n        /* \"#utility.yul\":16417:16433   */\n      add\n        /* \"#utility.yul\":16410:16433   */\n      swap2\n      pop\n        /* \"#utility.yul\":16159:16439   */\n      pop\n        /* \"#utility.yul\":16049:16439   */\n      swap3\n      swap2\n      pop\n      pop\n      jump\t// out\n        /* \"#utility.yul\":16445:16880   */\n    tag_132:\n        /* \"#utility.yul\":16625:16628   */\n      0x00\n        /* \"#utility.yul\":16647:16742   */\n      tag_533\n        /* \"#utility.yul\":16738:16741   */\n      dup3\n        /* \"#utility.yul\":16729:16735   */\n      dup6\n        /* \"#utility.yul\":16647:16742   */\n      tag_326\n      jump\t// in\n    tag_533:\n        /* \"#utility.yul\":16640:16742   */\n      swap2\n      pop\n        /* \"#utility.yul\":16759:16854   */\n      tag_534\n        /* \"#utility.yul\":16850:16853   */\n      dup3\n        /* \"#utility.yul\":16841:16847   */\n      dup5\n        /* \"#utility.yul\":16759:16854   */\n      tag_326\n      jump\t// in\n    tag_534:\n        /* \"#utility.yul\":16752:16854   */\n      swap2\n      pop\n        /* \"#utility.yul\":16871:16874   */\n      dup2\n        /* \"#utility.yul\":16864:16874   */\n      swap1\n      pop\n        /* \"#utility.yul\":16445:16880   */\n      swap4\n      swap3\n      pop\n      pop\n      pop\n      jump\t// out\n        /* \"#utility.yul\":16886:17328   */\n    tag_141:\n        /* \"#utility.yul\":17035:17039   */\n      0x00\n        /* \"#utility.yul\":17073:17075   */\n      0x60\n        /* \"#utility.yul\":17062:17071   */\n      dup3\n        /* \"#utility.yul\":17058:17076   */\n      add\n        /* \"#utility.yul\":17050:17076   */\n      swap1\n      pop\n        /* \"#utility.yul\":17086:17157   */\n      tag_536\n        /* \"#utility.yul\":17154:17155   */\n      0x00\n        /* \"#utility.yul\":17143:17152   */\n      dup4\n        /* \"#utility.yul\":17139:17156   */\n      add\n        /* \"#utility.yul\":17130:17136   */\n      dup7\n        /* \"#utility.yul\":17086:17157   */\n      tag_300\n      jump\t// in\n    tag_536:\n        /* \"#utility.yul\":17167:17239   */\n      tag_537\n        /* \"#utility.yul\":17235:17237   */\n      0x20\n        /* \"#utility.yul\":17224:17233   */\n      dup4\n        /* \"#utility.yul\":17220:17238   */\n      add\n        /* \"#utility.yul\":17211:17217   */\n      dup6\n        /* \"#utility.yul\":17167:17239   */\n      tag_313\n      jump\t// in\n    tag_537:\n        /* \"#utility.yul\":17249:17321   */\n      tag_538\n        /* \"#utility.yul\":17317:17319   */\n      0x40\n        /* \"#utility.yul\":17306:17315   */\n      dup4\n        /* \"#utility.yul\":17302:17320   */\n      add\n        /* \"#utility.yul\":17293:17299   */\n      dup5\n        /* \"#utility.yul\":17249:17321   */\n      tag_300\n      jump\t// in\n    tag_538:\n        /* \"#utility.yul\":16886:17328   */\n      swap5\n      swap4\n      pop\n      pop\n      pop\n      pop\n      jump\t// out\n        /* \"#utility.yul\":17334:17514   */\n    tag_164:\n        /* \"#utility.yul\":17382:17459   */\n      0x4e487b7100000000000000000000000000000000000000000000000000000000\n        /* \"#utility.yul\":17379:17380   */\n      0x00\n        /* \"#utility.yul\":17372:17460   */\n      mstore\n        /* \"#utility.yul\":17479:17483   */\n      0x32\n        /* \"#utility.yul\":17476:17477   */\n      0x04\n        /* \"#utility.yul\":17469:17484   */\n      mstore\n        /* \"#utility.yul\":17503:17507   */\n      0x24\n        /* \"#utility.yul\":17500:17501   */\n      0x00\n        /* \"#utility.yul\":17493:17508   */\n      revert\n        /* \"#utility.yul\":17520:17700   */\n    tag_327:\n        /* \"#utility.yul\":17568:17645   */\n      0x4e487b7100000000000000000000000000000000000000000000000000000000\n        /* \"#utility.yul\":17565:17566   */\n      0x00\n        /* \"#utility.yul\":17558:17646   */\n      mstore\n        /* \"#utility.yul\":17665:17669   */\n      0x11\n        /* \"#utility.yul\":17662:17663   */\n      0x04\n        /* \"#utility.yul\":17655:17670   */\n      mstore\n        /* \"#utility.yul\":17689:17693   */\n      0x24\n        /* \"#utility.yul\":17686:17687   */\n      0x00\n        /* \"#utility.yul\":17679:17694   */\n      revert\n        /* \"#utility.yul\":17706:17939   */\n    tag_166:\n        /* \"#utility.yul\":17745:17748   */\n      0x00\n        /* \"#utility.yul\":17768:17792   */\n      tag_542\n        /* \"#utility.yul\":17786:17791   */\n      dup3\n        /* \"#utility.yul\":17768:17792   */\n      tag_295\n      jump\t// in\n    tag_542:\n        /* \"#utility.yul\":17759:17792   */\n      swap2\n      pop\n        /* \"#utility.yul\":17814:17880   */\n      0xffffffffffffffffffffffffffffffffffffffffffffffffffffffffffffffff\n        /* \"#utility.yul\":17807:17812   */\n      dup3\n        /* \"#utility.yul\":17804:17881   */\n      sub\n        /* \"#utility.yul\":17801:17904   */\n      tag_543\n      jumpi\n        /* \"#utility.yul\":17884:17902   */\n      tag_544\n      tag_327\n      jump\t// in\n    tag_544:\n        /* \"#utility.yul\":17801:17904   */\n    tag_543:\n        /* \"#utility.yul\":17931:17932   */\n      0x01\n        /* \"#utility.yul\":17924:17929   */\n      dup3\n        /* \"#utility.yul\":17920:17933   */\n      add\n        /* \"#utility.yul\":17913:17933   */\n      swap1\n      pop\n        /* \"#utility.yul\":17706:17939   */\n      swap2\n      swap1\n      pop\n      jump\t// out\n        /* \"#utility.yul\":17945:18086   */\n    tag_328:\n        /* \"#utility.yul\":17994:17998   */\n      0x00\n        /* \"#utility.yul\":18017:18020   */\n      dup2\n        /* \"#utility.yul\":18009:18020   */\n      swap1\n      pop\n        /* \"#utility.yul\":18040:18043   */\n      dup2\n        /* \"#utility.yul\":18037:18038   */\n      0x00\n        /* \"#utility.yul\":18030:18044   */\n      mstore\n        /* \"#utility.yul\":18074:18078   */\n      0x20\n        /* \"#utility.yul\":18071:18072   */\n      0x00\n        /* \"#utility.yul\":18061:18079   */\n      keccak256\n        /* \"#utility.yul\":18053:18079   */\n      swap1\n      pop\n        /* \"#utility.yul\":17945:18086   */\n      swap2\n      swap1\n      pop\n      jump\t// out\n        /* \"#utility.yul\":18092:18185   */\n    tag_329:\n        /* \"#utility.yul\":18129:18135   */\n      0x00\n        /* \"#utility.yul\":18176:18178   */\n      0x20\n        /* \"#utility.yul\":18171:18173   */\n      0x1f\n        /* \"#utility.yul\":18164:18169   */\n      dup4\n        /* \"#utility.yul\":18160:18174   */\n      add\n        /* \"#utility.yul\":18156:18179   */\n      div\n        /* \"#utility.yul\":18146:18179   */\n      swap1\n      pop\n        /* \"#utility.yul\":18092:18185   */\n      swap2\n      swap1\n      pop\n      jump\t// out\n        /* \"#utility.yul\":18191:18298   */\n    tag_330:\n        /* \"#utility.yul\":18235:18243   */\n      0x00\n        /* \"#utility.yul\":18285:18290   */\n      dup3\n        /* \"#utility.yul\":18279:18283   */\n      dup3\n        /* \"#utility.yul\":18275:18291   */\n      shl\n        /* \"#utility.yul\":18254:18291   */\n      swap1\n      pop\n        /* \"#utility.yul\":18191:18298   */\n      swap3\n      swap2\n      pop\n      pop\n      jump\t// out\n        /* \"#utility.yul\":18304:18697   */\n    tag_331:\n        /* \"#utility.yul\":18373:18379   */\n      0x00\n        /* \"#utility.yul\":18423:18424   */\n      0x08\n        /* \"#utility.yul\":18411:18421   */\n      dup4\n        /* \"#utility.yul\":18407:18425   */\n      mul\n        /* \"#utility.yul\":18446:18543   */\n      tag_549\n        /* \"#utility.yul\":18476:18542   */\n      0xffffffffffffffffffffffffffffffffffffffffffffffffffffffffffffffff\n        /* \"#utility.yul\":18465:18474   */\n      dup3\n        /* \"#utility.yul\":18446:18543   */\n      tag_330\n      jump\t// in\n    tag_549:\n        /* \"#utility.yul\":18564:18603   */\n      tag_550\n        /* \"#utility.yul\":18594:18602   */\n      dup7\n        /* \"#utility.yul\":18583:18592   */\n      dup4\n        /* \"#utility.yul\":18564:18603   */\n      tag_330\n      jump\t// in\n    tag_550:\n        /* \"#utility.yul\":18552:18603   */\n      swap6\n      pop\n        /* \"#utility.yul\":18636:18640   */\n      dup1\n        /* \"#utility.yul\":18632:18641   */\n      not\n        /* \"#utility.yul\":18625:18630   */\n      dup5\n        /* \"#utility.yul\":18621:18642   */\n      and\n        /* \"#utility.yul\":18612:18642   */\n      swap4\n      pop\n        /* \"#utility.yul\":18685:18689   */\n      dup1\n        /* \"#utility.yul\":18675:18683   */\n      dup7\n        /* \"#utility.yul\":18671:18690   */\n      and\n        /* \"#utility.yul\":18664:18669   */\n      dup5\n        /* \"#utility.yul\":18661:18691   */\n      or\n        /* \"#utility.yul\":18651:18691   */\n      swap3\n      pop\n        /* \"#utility.yul\":18380:18697   */\n      pop\n      pop\n        /* \"#utility.yul\":18304:18697   */\n      swap4\n      swap3\n      pop\n      pop\n      pop\n      jump\t// out\n        /* \"#utility.yul\":18703:18763   */\n    tag_332:\n        /* \"#utility.yul\":18731:18734   */\n      0x00\n        /* \"#utility.yul\":18752:18757   */\n      dup2\n        /* \"#utility.yul\":18745:18757   */\n      swap1\n      pop\n        /* \"#utility.yul\":18703:18763   */\n      swap2\n      swap1\n      pop\n      jump\t// out\n        /* \"#utility.yul\":18769:18911   */\n    tag_333:\n        /* \"#utility.yul\":18819:18828   */\n      0x00\n        /* \"#utility.yul\":18852:18905   */\n      tag_553\n        /* \"#utility.yul\":18870:18904   */\n      tag_554\n        /* \"#utility.yul\":18879:18903   */\n      tag_555\n        /* \"#utility.yul\":18897:18902   */\n      dup5\n        /* \"#utility.yul\":18879:18903   */\n      tag_295\n      jump\t// in\n    tag_555:\n        /* \"#utility.yul\":18870:18904   */\n      tag_332\n      jump\t// in\n    tag_554:\n        /* \"#utility.yul\":18852:18905   */\n      tag_295\n      jump\t// in\n    tag_553:\n        /* \"#utility.yul\":18839:18905   */\n      swap1\n      pop\n        /* \"#utility.yul\":18769:18911   */\n      swap2\n      swap1\n      pop\n      jump\t// out\n        /* \"#utility.yul\":18917:18992   */\n    tag_334:\n        /* \"#utility.yul\":18960:18963   */\n      0x00\n        /* \"#utility.yul\":18981:18986   */\n      dup2\n        /* \"#utility.yul\":18974:18986   */\n      swap1\n      pop\n        /* \"#utility.yul\":18917:18992   */\n      swap2\n      swap1\n      pop\n      jump\t// out\n        /* \"#utility.yul\":18998:19267   */\n    tag_335:\n        /* \"#utility.yul\":19108:19147   */\n      tag_558\n        /* \"#utility.yul\":19139:19146   */\n      dup4\n        /* \"#utility.yul\":19108:19147   */\n      tag_333\n      jump\t// in\n    tag_558:\n        /* \"#utility.yul\":19169:19260   */\n      tag_559\n        /* \"#utility.yul\":19218:19259   */\n      tag_560\n        /* \"#utility.yul\":19242:19258   */\n      dup3\n        /* \"#utility.yul\":19218:19259   */\n      tag_334\n      jump\t// in\n    tag_560:\n        /* \"#utility.yul\":19210:19216   */\n      dup5\n        /* \"#utility.yul\":19203:19207   */\n      dup5\n        /* \"#utility.yul\":19197:19208   */\n      sload\n        /* \"#utility.yul\":19169:19260   */\n      tag_331\n      jump\t// in\n    tag_559:\n        /* \"#utility.yul\":19163:19167   */\n      dup3\n        /* \"#utility.yul\":19156:19261   */\n      sstore\n        /* \"#utility.yul\":19074:19267   */\n      pop\n        /* \"#utility.yul\":18998:19267   */\n      pop\n      pop\n      pop\n      jump\t// out\n        /* \"#utility.yul\":19273:19346   */\n    tag_336:\n        /* \"#utility.yul\":19318:19321   */\n      0x00\n        /* \"#utility.yul\":19273:19346   */\n      swap1\n      jump\t// out\n        /* \"#utility.yul\":19352:19541   */\n    tag_337:\n        /* \"#utility.yul\":19429:19461   */\n      tag_563\n      tag_336\n      jump\t// in\n    tag_563:\n        /* \"#utility.yul\":19470:19535   */\n      tag_564\n        /* \"#utility.yul\":19528:19534   */\n      dup2\n        /* \"#utility.yul\":19520:19526   */\n      dup5\n        /* \"#utility.yul\":19514:19518   */\n      dup5\n        /* \"#utility.yul\":19470:19535   */\n      tag_335\n      jump\t// in\n    tag_564:\n        /* \"#utility.yul\":19405:19541   */\n      pop\n        /* \"#utility.yul\":19352:19541   */\n      pop\n      pop\n      jump\t// out\n        /* \"#utility.yul\":19547:19733   */\n    tag_338:\n        /* \"#utility.yul\":19607:19727   */\n    tag_566:\n        /* \"#utility.yul\":19624:19627   */\n      dup2\n        /* \"#utility.yul\":19617:19622   */\n      dup2\n        /* \"#utility.yul\":19614:19628   */\n      lt\n        /* \"#utility.yul\":19607:19727   */\n      iszero\n      tag_568\n      jumpi\n        /* \"#utility.yul\":19678:19717   */\n      tag_569\n        /* \"#utility.yul\":19715:19716   */\n      0x00\n        /* \"#utility.yul\":19708:19713   */\n      dup3\n        /* \"#utility.yul\":19678:19717   */\n      tag_337\n      jump\t// in\n    tag_569:\n        /* \"#utility.yul\":19651:19652   */\n      0x01\n        /* \"#utility.yul\":19644:19649   */\n      dup2\n        /* \"#utility.yul\":19640:19653   */\n      add\n        /* \"#utility.yul\":19631:19653   */\n      swap1\n      pop\n        /* \"#utility.yul\":19607:19727   */\n      jump(tag_566)\n    tag_568:\n        /* \"#utility.yul\":19547:19733   */\n      pop\n      pop\n      jump\t// out\n        /* \"#utility.yul\":19739:20282   */\n    tag_339:\n        /* \"#utility.yul\":19840:19842   */\n      0x1f\n        /* \"#utility.yul\":19835:19838   */\n      dup3\n        /* \"#utility.yul\":19832:19843   */\n      gt\n        /* \"#utility.yul\":19829:20275   */\n      iszero\n      tag_571\n      jumpi\n        /* \"#utility.yul\":19874:19912   */\n      tag_572\n        /* \"#utility.yul\":19906:19911   */\n      dup2\n        /* \"#utility.yul\":19874:19912   */\n      tag_328\n      jump\t// in\n    tag_572:\n        /* \"#utility.yul\":19958:19987   */\n      tag_573\n        /* \"#utility.yul\":19976:19986   */\n      dup5\n        /* \"#utility.yul\":19958:19987   */\n      tag_329\n      jump\t// in\n    tag_573:\n        /* \"#utility.yul\":19948:19956   */\n      dup2\n        /* \"#utility.yul\":19944:19988   */\n      add\n        /* \"#utility.yul\":20141:20143   */\n      0x20\n        /* \"#utility.yul\":20129:20139   */\n      dup6\n        /* \"#utility.yul\":20126:20144   */\n      lt\n        /* \"#utility.yul\":20123:20172   */\n      iszero\n      tag_574\n      jumpi\n        /* \"#utility.yul\":20162:20170   */\n      dup2\n        /* \"#utility.yul\":20147:20170   */\n      swap1\n      pop\n        /* \"#utility.yul\":20123:20172   */\n    tag_574:\n        /* \"#utility.yul\":20185:20265   */\n      tag_575\n        /* \"#utility.yul\":20241:20263   */\n      tag_576\n        /* \"#utility.yul\":20259:20262   */\n      dup6\n        /* \"#utility.yul\":20241:20263   */\n      tag_329\n      jump\t// in\n    tag_576:\n        /* \"#utility.yul\":20231:20239   */\n      dup4\n        /* \"#utility.yul\":20227:20264   */\n      add\n        /* \"#utility.yul\":20214:20225   */\n      dup3\n        /* \"#utility.yul\":20185:20265   */\n      tag_338\n      jump\t// in\n    tag_575:\n        /* \"#utility.yul\":19844:20275   */\n      pop\n      pop\n        /* \"#utility.yul\":19829:20275   */\n    tag_571:\n        /* \"#utility.yul\":19739:20282   */\n      pop\n      pop\n      pop\n      jump\t// out\n        /* \"#utility.yul\":20288:20405   */\n    tag_340:\n        /* \"#utility.yul\":20342:20350   */\n      0x00\n        /* \"#utility.yul\":20392:20397   */\n      dup3\n        /* \"#utility.yul\":20386:20390   */\n      dup3\n        /* \"#utility.yul\":20382:20398   */\n      shr\n        /* \"#utility.yul\":20361:20398   */\n      swap1\n      pop\n        /* \"#utility.yul\":20288:20405   */\n      swap3\n      swap2\n      pop\n      pop\n      jump\t// out\n        /* \"#utility.yul\":20411:20580   */\n    tag_341:\n        /* \"#utility.yul\":20455:20461   */\n      0x00\n        /* \"#utility.yul\":20488:20539   */\n      tag_579\n        /* \"#utility.yul\":20536:20537   */\n      0x00\n        /* \"#utility.yul\":20532:20538   */\n      not\n        /* \"#utility.yul\":20524:20529   */\n      dup5\n        /* \"#utility.yul\":20521:20522   */\n      0x08\n        /* \"#utility.yul\":20517:20530   */\n      mul\n        /* \"#utility.yul\":20488:20539   */\n      tag_340\n      jump\t// in\n    tag_579:\n        /* \"#utility.yul\":20484:20540   */\n      not\n        /* \"#utility.yul\":20569:20573   */\n      dup1\n        /* \"#utility.yul\":20563:20567   */\n      dup4\n        /* \"#utility.yul\":20559:20574   */\n      and\n        /* \"#utility.yul\":20549:20574   */\n      swap2\n      pop\n        /* \"#utility.yul\":20462:20580   */\n      pop\n        /* \"#utility.yul\":20411:20580   */\n      swap3\n      swap2\n      pop\n      pop\n      jump\t// out\n        /* \"#utility.yul\":20585:20880   */\n    tag_342:\n        /* \"#utility.yul\":20661:20665   */\n      0x00\n        /* \"#utility.yul\":20807:20836   */\n      tag_581\n        /* \"#utility.yul\":20832:20835   */\n      dup4\n        /* \"#utility.yul\":20826:20830   */\n      dup4\n        /* \"#utility.yul\":20807:20836   */\n      tag_341\n      jump\t// in\n    tag_581:\n        /* \"#utility.yul\":20799:20836   */\n      swap2\n      pop\n        /* \"#utility.yul\":20869:20872   */\n      dup3\n        /* \"#utility.yul\":20866:20867   */\n      0x02\n        /* \"#utility.yul\":20862:20873   */\n      mul\n        /* \"#utility.yul\":20856:20860   */\n      dup3\n        /* \"#utility.yul\":20853:20874   */\n      or\n        /* \"#utility.yul\":20845:20874   */\n      swap1\n      pop\n        /* \"#utility.yul\":20585:20880   */\n      swap3\n      swap2\n      pop\n      pop\n      jump\t// out\n        /* \"#utility.yul\":20885:22280   */\n    tag_201:\n        /* \"#utility.yul\":21002:21039   */\n      tag_583\n        /* \"#utility.yul\":21035:21038   */\n      dup3\n        /* \"#utility.yul\":21002:21039   */\n      tag_290\n      jump\t// in\n    tag_583:\n        /* \"#utility.yul\":21104:21122   */\n      0xffffffffffffffff\n        /* \"#utility.yul\":21096:21102   */\n      dup2\n        /* \"#utility.yul\":21093:21123   */\n      gt\n        /* \"#utility.yul\":21090:21146   */\n      iszero\n      tag_584\n      jumpi\n        /* \"#utility.yul\":21126:21144   */\n      tag_585\n      tag_155\n      jump\t// in\n    tag_585:\n        /* \"#utility.yul\":21090:21146   */\n    tag_584:\n        /* \"#utility.yul\":21170:21208   */\n      tag_586\n        /* \"#utility.yul\":21202:21206   */\n      dup3\n        /* \"#utility.yul\":21196:21207   */\n      sload\n        /* \"#utility.yul\":21170:21208   */\n      tag_113\n      jump\t// in\n    tag_586:\n        /* \"#utility.yul\":21255:21322   */\n      tag_587\n        /* \"#utility.yul\":21315:21321   */\n      dup3\n        /* \"#utility.yul\":21307:21313   */\n      dup3\n        /* \"#utility.yul\":21301:21305   */\n      dup6\n        /* \"#utility.yul\":21255:21322   */\n      tag_339\n      jump\t// in\n    tag_587:\n        /* \"#utility.yul\":21349:21350   */\n      0x00\n        /* \"#utility.yul\":21373:21377   */\n      0x20\n        /* \"#utility.yul\":21360:21377   */\n      swap1\n      pop\n        /* \"#utility.yul\":21405:21407   */\n      0x1f\n        /* \"#utility.yul\":21397:21403   */\n      dup4\n        /* \"#utility.yul\":21394:21408   */\n      gt\n        /* \"#utility.yul\":21422:21423   */\n      0x01\n        /* \"#utility.yul\":21417:22035   */\n      dup2\n      eq\n      tag_589\n      jumpi\n        /* \"#utility.yul\":22079:22080   */\n      0x00\n        /* \"#utility.yul\":22096:22102   */\n      dup5\n        /* \"#utility.yul\":22093:22170   */\n      iszero\n      tag_590\n      jumpi\n        /* \"#utility.yul\":22145:22154   */\n      dup3\n        /* \"#utility.yul\":22140:22143   */\n      dup8\n        /* \"#utility.yul\":22136:22155   */\n      add\n        /* \"#utility.yul\":22130:22156   */\n      mload\n        /* \"#utility.yul\":22121:22156   */\n      swap1\n      pop\n        /* \"#utility.yul\":22093:22170   */\n    tag_590:\n        /* \"#utility.yul\":22196:22263   */\n      tag_591\n        /* \"#utility.yul\":22256:22262   */\n      dup6\n        /* \"#utility.yul\":22249:22254   */\n      dup3\n        /* \"#utility.yul\":22196:22263   */\n      tag_342\n      jump\t// in\n    tag_591:\n        /* \"#utility.yul\":22190:22194   */\n      dup7\n        /* \"#utility.yul\":22183:22264   */\n      sstore\n        /* \"#utility.yul\":22052:22274   */\n      pop\n        /* \"#utility.yul\":21387:22274   */\n      jump(tag_588)\n        /* \"#utility.yul\":21417:22035   */\n    tag_589:\n        /* \"#utility.yul\":21469:21473   */\n      0x1f\n        /* \"#utility.yul\":21465:21474   */\n      not\n        /* \"#utility.yul\":21457:21463   */\n      dup5\n        /* \"#utility.yul\":21453:21475   */\n      and\n        /* \"#utility.yul\":21503:21540   */\n      tag_592\n        /* \"#utility.yul\":21535:21539   */\n      dup7\n        /* \"#utility.yul\":21503:21540   */\n      tag_328\n      jump\t// in\n    tag_592:\n        /* \"#utility.yul\":21562:21563   */\n      0x00\n        /* \"#utility.yul\":21576:21784   */\n    tag_593:\n        /* \"#utility.yul\":21590:21597   */\n      dup3\n        /* \"#utility.yul\":21587:21588   */\n      dup2\n        /* \"#utility.yul\":21584:21598   */\n      lt\n        /* \"#utility.yul\":21576:21784   */\n      iszero\n      tag_595\n      jumpi\n        /* \"#utility.yul\":21669:21678   */\n      dup5\n        /* \"#utility.yul\":21664:21667   */\n      dup10\n        /* \"#utility.yul\":21660:21679   */\n      add\n        /* \"#utility.yul\":21654:21680   */\n      mload\n        /* \"#utility.yul\":21646:21652   */\n      dup3\n        /* \"#utility.yul\":21639:21681   */\n      sstore\n        /* \"#utility.yul\":21720:21721   */\n      0x01\n        /* \"#utility.yul\":21712:21718   */\n      dup3\n        /* \"#utility.yul\":21708:21722   */\n      add\n        /* \"#utility.yul\":21698:21722   */\n      swap2\n      pop\n        /* \"#utility.yul\":21767:21769   */\n      0x20\n        /* \"#utility.yul\":21756:21765   */\n      dup6\n        /* \"#utility.yul\":21752:21770   */\n      add\n        /* \"#utility.yul\":21739:21770   */\n      swap5\n      pop\n        /* \"#utility.yul\":21613:21617   */\n      0x20\n        /* \"#utility.yul\":21610:21611   */\n      dup2\n        /* \"#utility.yul\":21606:21618   */\n      add\n        /* \"#utility.yul\":21601:21618   */\n      swap1\n      pop\n        /* \"#utility.yul\":21576:21784   */\n      jump(tag_593)\n    tag_595:\n        /* \"#utility.yul\":21812:21818   */\n      dup7\n        /* \"#utility.yul\":21803:21810   */\n      dup4\n        /* \"#utility.yul\":21800:21819   */\n      lt\n        /* \"#utility.yul\":21797:21976   */\n      iszero\n      tag_596\n      jumpi\n        /* \"#utility.yul\":21870:21879   */\n      dup5\n        /* \"#utility.yul\":21865:21868   */\n      dup10\n        /* \"#utility.yul\":21861:21880   */\n      add\n        /* \"#utility.yul\":21855:21881   */\n      mload\n        /* \"#utility.yul\":21913:21961   */\n      tag_597\n        /* \"#utility.yul\":21955:21959   */\n      0x1f\n        /* \"#utility.yul\":21947:21953   */\n      dup10\n        /* \"#utility.yul\":21943:21960   */\n      and\n        /* \"#utility.yul\":21932:21941   */\n      dup3\n        /* \"#utility.yul\":21913:21961   */\n      tag_341\n      jump\t// in\n    tag_597:\n        /* \"#utility.yul\":21905:21911   */\n      dup4\n        /* \"#utility.yul\":21898:21962   */\n      sstore\n        /* \"#utility.yul\":21820:21976   */\n      pop\n        /* \"#utility.yul\":21797:21976   */\n    tag_596:\n        /* \"#utility.yul\":22022:22023   */\n      0x01\n        /* \"#utility.yul\":22018:22019   */\n      0x02\n        /* \"#utility.yul\":22010:22016   */\n      dup9\n        /* \"#utility.yul\":22006:22020   */\n      mul\n        /* \"#utility.yul\":22002:22024   */\n      add\n        /* \"#utility.yul\":21996:22000   */\n      dup9\n        /* \"#utility.yul\":21989:22025   */\n      sstore\n        /* \"#utility.yul\":21424:22035   */\n      pop\n      pop\n      pop\n        /* \"#utility.yul\":21387:22274   */\n    tag_588:\n      pop\n        /* \"#utility.yul\":20977:22280   */\n      pop\n      pop\n      pop\n        /* \"#utility.yul\":20885:22280   */\n      pop\n      pop\n      jump\t// out\n        /* \"#utility.yul\":22286:22384   */\n    tag_343:\n        /* \"#utility.yul\":22337:22343   */\n      0x00\n        /* \"#utility.yul\":22371:22376   */\n      dup2\n        /* \"#utility.yul\":22365:22377   */\n      mload\n        /* \"#utility.yul\":22355:22377   */\n      swap1\n      pop\n        /* \"#utility.yul\":22286:22384   */\n      swap2\n      swap1\n      pop\n      jump\t// out\n        /* \"#utility.yul\":22390:22558   */\n    tag_344:\n        /* \"#utility.yul\":22473:22484   */\n      0x00\n        /* \"#utility.yul\":22507:22513   */\n      dup3\n        /* \"#utility.yul\":22502:22505   */\n      dup3\n        /* \"#utility.yul\":22495:22514   */\n      mstore\n        /* \"#utility.yul\":22547:22551   */\n      0x20\n        /* \"#utility.yul\":22542:22545   */\n      dup3\n        /* \"#utility.yul\":22538:22552   */\n      add\n        /* \"#utility.yul\":22523:22552   */\n      swap1\n      pop\n        /* \"#utility.yul\":22390:22558   */\n      swap3\n      swap2\n      pop\n      pop\n      jump\t// out\n        /* \"#utility.yul\":22564:22937   */\n    tag_345:\n        /* \"#utility.yul\":22650:22653   */\n      0x00\n        /* \"#utility.yul\":22678:22716   */\n      tag_601\n        /* \"#utility.yul\":22710:22715   */\n      dup3\n        /* \"#utility.yul\":22678:22716   */\n      tag_343\n      jump\t// in\n    tag_601:\n        /* \"#utility.yul\":22732:22802   */\n      tag_602\n        /* \"#utility.yul\":22795:22801   */\n      dup2\n        /* \"#utility.yul\":22790:22793   */\n      dup6\n        /* \"#utility.yul\":22732:22802   */\n      tag_344\n      jump\t// in\n    tag_602:\n        /* \"#utility.yul\":22725:22802   */\n      swap4\n      pop\n        /* \"#utility.yul\":22811:22876   */\n      tag_603\n        /* \"#utility.yul\":22869:22875   */\n      dup2\n        /* \"#utility.yul\":22864:22867   */\n      dup6\n        /* \"#utility.yul\":22857:22861   */\n      0x20\n        /* \"#utility.yul\":22850:22855   */\n      dup7\n        /* \"#utility.yul\":22846:22862   */\n      add\n        /* \"#utility.yul\":22811:22876   */\n      tag_292\n      jump\t// in\n    tag_603:\n        /* \"#utility.yul\":22901:22930   */\n      tag_604\n        /* \"#utility.yul\":22923:22929   */\n      dup2\n        /* \"#utility.yul\":22901:22930   */\n      tag_293\n      jump\t// in\n    tag_604:\n        /* \"#utility.yul\":22896:22899   */\n      dup5\n        /* \"#utility.yul\":22892:22931   */\n      add\n        /* \"#utility.yul\":22885:22931   */\n      swap2\n      pop\n        /* \"#utility.yul\":22654:22937   */\n      pop\n        /* \"#utility.yul\":22564:22937   */\n      swap3\n      swap2\n      pop\n      pop\n      jump\t// out\n        /* \"#utility.yul\":22943:23583   */\n    tag_233:\n        /* \"#utility.yul\":23138:23142   */\n      0x00\n        /* \"#utility.yul\":23176:23179   */\n      0x80\n        /* \"#utility.yul\":23165:23174   */\n      dup3\n        /* \"#utility.yul\":23161:23180   */\n      add\n        /* \"#utility.yul\":23153:23180   */\n      swap1\n      pop\n        /* \"#utility.yul\":23190:23261   */\n      tag_606\n        /* \"#utility.yul\":23258:23259   */\n      0x00\n        /* \"#utility.yul\":23247:23256   */\n      dup4\n        /* \"#utility.yul\":23243:23260   */\n      add\n        /* \"#utility.yul\":23234:23240   */\n      dup8\n        /* \"#utility.yul\":23190:23261   */\n      tag_300\n      jump\t// in\n    tag_606:\n        /* \"#utility.yul\":23271:23343   */\n      tag_607\n        /* \"#utility.yul\":23339:23341   */\n      0x20\n        /* \"#utility.yul\":23328:23337   */\n      dup4\n        /* \"#utility.yul\":23324:23342   */\n      add\n        /* \"#utility.yul\":23315:23321   */\n      dup7\n        /* \"#utility.yul\":23271:23343   */\n      tag_300\n      jump\t// in\n    tag_607:\n        /* \"#utility.yul\":23353:23425   */\n      tag_608\n        /* \"#utility.yul\":23421:23423   */\n      0x40\n        /* \"#utility.yul\":23410:23419   */\n      dup4\n        /* \"#utility.yul\":23406:23424   */\n      add\n        /* \"#utility.yul\":23397:23403   */\n      dup6\n        /* \"#utility.yul\":23353:23425   */\n      tag_313\n      jump\t// in\n    tag_608:\n        /* \"#utility.yul\":23472:23481   */\n      dup2\n        /* \"#utility.yul\":23466:23470   */\n      dup2\n        /* \"#utility.yul\":23462:23482   */\n      sub\n        /* \"#utility.yul\":23457:23459   */\n      0x60\n        /* \"#utility.yul\":23446:23455   */\n      dup4\n        /* \"#utility.yul\":23442:23460   */\n      add\n        /* \"#utility.yul\":23435:23483   */\n      mstore\n        /* \"#utility.yul\":23500:23576   */\n      tag_609\n        /* \"#utility.yul\":23571:23575   */\n      dup2\n        /* \"#utility.yul\":23562:23568   */\n      dup5\n        /* \"#utility.yul\":23500:23576   */\n      tag_345\n      jump\t// in\n    tag_609:\n        /* \"#utility.yul\":23492:23576   */\n      swap1\n      pop\n        /* \"#utility.yul\":22943:23583   */\n      swap6\n      swap5\n      pop\n      pop\n      pop\n      pop\n      pop\n      jump\t// out\n        /* \"#utility.yul\":23589:23730   */\n    tag_346:\n        /* \"#utility.yul\":23645:23650   */\n      0x00\n        /* \"#utility.yul\":23676:23682   */\n      dup2\n        /* \"#utility.yul\":23670:23683   */\n      mload\n        /* \"#utility.yul\":23661:23683   */\n      swap1\n      pop\n        /* \"#utility.yul\":23692:23724   */\n      tag_611\n        /* \"#utility.yul\":23718:23723   */\n      dup2\n        /* \"#utility.yul\":23692:23724   */\n      tag_286\n      jump\t// in\n    tag_611:\n        /* \"#utility.yul\":23589:23730   */\n      swap3\n      swap2\n      pop\n      pop\n      jump\t// out\n        /* \"#utility.yul\":23736:24085   */\n    tag_236:\n        /* \"#utility.yul\":23805:23811   */\n      0x00\n        /* \"#utility.yul\":23854:23856   */\n      0x20\n        /* \"#utility.yul\":23842:23851   */\n      dup3\n        /* \"#utility.yul\":23833:23840   */\n      dup5\n        /* \"#utility.yul\":23829:23852   */\n      sub\n        /* \"#utility.yul\":23825:23857   */\n      slt\n        /* \"#utility.yul\":23822:23941   */\n      iszero\n      tag_613\n      jumpi\n        /* \"#utility.yul\":23860:23939   */\n      tag_614\n      tag_283\n      jump\t// in\n    tag_614:\n        /* \"#utility.yul\":23822:23941   */\n    tag_613:\n        /* \"#utility.yul\":23980:23981   */\n      0x00\n        /* \"#utility.yul\":24005:24068   */\n      tag_615\n        /* \"#utility.yul\":24060:24067   */\n      dup5\n        /* \"#utility.yul\":24051:24057   */\n      dup3\n        /* \"#utility.yul\":24040:24049   */\n      dup6\n        /* \"#utility.yul\":24036:24058   */\n      add\n        /* \"#utility.yul\":24005:24068   */\n      tag_346\n      jump\t// in\n    tag_615:\n        /* \"#utility.yul\":23995:24068   */\n      swap2\n      pop\n        /* \"#utility.yul\":23951:24078   */\n      pop\n        /* \"#utility.yul\":23736:24085   */\n      swap3\n      swap2\n      pop\n      pop\n      jump\t// out\n        /* \"#utility.yul\":24091:24423   */\n    tag_275:\n        /* \"#utility.yul\":24212:24216   */\n      0x00\n        /* \"#utility.yul\":24250:24252   */\n      0x40\n        /* \"#utility.yul\":24239:24248   */\n      dup3\n        /* \"#utility.yul\":24235:24253   */\n      add\n        /* \"#utility.yul\":24227:24253   */\n      swap1\n      pop\n        /* \"#utility.yul\":24263:24334   */\n      tag_617\n        /* \"#utility.yul\":24331:24332   */\n      0x00\n        /* \"#utility.yul\":24320:24329   */\n      dup4\n        /* \"#utility.yul\":24316:24333   */\n      add\n        /* \"#utility.yul\":24307:24313   */\n      dup6\n        /* \"#utility.yul\":24263:24334   */\n      tag_300\n      jump\t// in\n    tag_617:\n        /* \"#utility.yul\":24344:24416   */\n      tag_618\n        /* \"#utility.yul\":24412:24414   */\n      0x20\n        /* \"#utility.yul\":24401:24410   */\n      dup4\n        /* \"#utility.yul\":24397:24415   */\n      add\n        /* \"#utility.yul\":24388:24394   */\n      dup5\n        /* \"#utility.yul\":24344:24416   */\n      tag_313\n      jump\t// in\n    tag_618:\n        /* \"#utility.yul\":24091:24423   */\n      swap4\n      swap3\n      pop\n      pop\n      pop\n      jump\t// out\n    stop\n    data_d1f8d88b6e34b43596d2de84a0185752a3add6e83a91b900a9741f09edc98ffe 68747470733a2f2f636f72616c2d646561722d676962626f6e2d3933302e6d7970696e6174612e636c6f75642f697066732f\n\n    auxdata: 0xa264697066735822122061576c8260056190c3c57e00d237e99e57f8f85a2a926586deac2bb74dcc300864736f6c63430008140033\n}\n",
				"bytecode": {
					"linkReferences": {},
					"object": "608060405234801562000010575f80fd5b506040516200295a3803806200295a8339818101604052810190620000369190620001f1565b8181815f9081620000489190620004ab565b5080600190816200005a9190620004ab565b505f600281905550505050506200058f565b5f604051905090565b5f80fd5b5f80fd5b5f80fd5b5f80fd5b5f601f19601f8301169050919050565b7f4e487b71000000000000000000000000000000000000000000000000000000005f52604160045260245ffd5b620000cd8262000085565b810181811067ffffffffffffffff82111715620000ef57620000ee62000095565b5b80604052505050565b5f620001036200006c565b9050620001118282620000c2565b919050565b5f67ffffffffffffffff82111562000133576200013262000095565b5b6200013e8262000085565b9050602081019050919050565b5f5b838110156200016a5780820151818401526020810190506200014d565b5f8484015250505050565b5f6200018b620001858462000116565b620000f8565b905082815260208101848484011115620001aa57620001a962000081565b5b620001b78482856200014b565b509392505050565b5f82601f830112620001d657620001d56200007d565b5b8151620001e884826020860162000175565b91505092915050565b5f80604083850312156200020a576200020962000075565b5b5f83015167ffffffffffffffff8111156200022a576200022962000079565b5b6200023885828601620001bf565b925050602083015167ffffffffffffffff8111156200025c576200025b62000079565b5b6200026a85828601620001bf565b9150509250929050565b5f81519050919050565b7f4e487b71000000000000000000000000000000000000000000000000000000005f52602260045260245ffd5b5f6002820490506001821680620002c357607f821691505b602082108103620002d957620002d86200027e565b5b50919050565b5f819050815f5260205f209050919050565b5f6020601f8301049050919050565b5f82821b905092915050565b5f600883026200033d7fffffffffffffffffffffffffffffffffffffffffffffffffffffffffffffffff8262000300565b62000349868362000300565b95508019841693508086168417925050509392505050565b5f819050919050565b5f819050919050565b5f620003936200038d620003878462000361565b6200036a565b62000361565b9050919050565b5f819050919050565b620003ae8362000373565b620003c6620003bd826200039a565b8484546200030c565b825550505050565b5f90565b620003dc620003ce565b620003e9818484620003a3565b505050565b5b818110156200041057620004045f82620003d2565b600181019050620003ef565b5050565b601f8211156200045f576200042981620002df565b6200043484620002f1565b8101602085101562000444578190505b6200045c6200045385620002f1565b830182620003ee565b50505b505050565b5f82821c905092915050565b5f620004815f198460080262000464565b1980831691505092915050565b5f6200049b838362000470565b9150826002028217905092915050565b620004b68262000274565b67ffffffffffffffff811115620004d257620004d162000095565b5b620004de8254620002ab565b620004eb82828562000414565b5f60209050601f83116001811462000521575f84156200050c578287015190505b6200051885826200048e565b86555062000587565b601f1984166200053186620002df565b5f5b828110156200055a5784890151825560018201915060208501945060208101905062000533565b868310156200057a578489015162000576601f89168262000470565b8355505b6001600288020188555050505b505050505050565b6123bd806200059d5f395ff3fe608060405234801561000f575f80fd5b506004361061011f575f3560e01c806370a08231116100ab578063abec71011161006f578063abec710114610329578063b88d4fde14610347578063c87b56dd14610363578063e2c4c4b214610393578063e985e9c5146103af5761011f565b806370a0823114610271578063828e7a01146102a157806395d89b41146102d1578063a22cb465146102ef578063a393dc441461030b5761011f565b80631b00fd16116100f25780631b00fd16146101bd57806323b872dd146101ed57806329d6724e1461020957806342842e0e146102255780636352211e146102415761011f565b806301ffc9a71461012357806306fdde0314610153578063081812fc14610171578063095ea7b3146101a1575b5f80fd5b61013d600480360381019061013891906116d6565b6103df565b60405161014a919061171b565b60405180910390f35b61015b6104c0565b60405161016891906117be565b60405180910390f35b61018b60048036038101906101869190611811565b61054f565b604051610198919061187b565b60405180910390f35b6101bb60048036038101906101b691906118be565b61056a565b005b6101d760048036038101906101d29190611a28565b610580565b6040516101e491906117be565b60405180910390f35b61020760048036038101906102029190611a6f565b6105b7565b005b610223600480360381019061021e9190611ae9565b6106b6565b005b61023f600480360381019061023a9190611a6f565b6106c6565b005b61025b60048036038101906102569190611811565b6106e5565b604051610268919061187b565b60405180910390f35b61028b60048036038101906102869190611b39565b6106f6565b6040516102989190611b73565b60405180910390f35b6102bb60048036038101906102b69190611b39565b6107ac565b6040516102c89190611c43565b60405180910390f35b6102d9610936565b6040516102e691906117be565b60405180910390f35b61030960048036038101906103049190611c63565b6109c6565b005b6103136109dc565b6040516103209190611b73565b60405180910390f35b6103316109e2565b60405161033e9190611b73565b60405180910390f35b610361600480360381019061035c9190611d3f565b6109eb565b005b61037d60048036038101906103789190611811565b610a08565b60405161038a91906117be565b60405180910390f35b6103ad60048036038101906103a89190611dbf565b610aa9565b005b6103c960048036038101906103c49190611e19565b610ad6565b6040516103d6919061171b565b60405180910390f35b5f7f80ac58cd000000000000000000000000000000000000000000000000000000007bffffffffffffffffffffffffffffffffffffffffffffffffffffffff1916827bffffffffffffffffffffffffffffffffffffffffffffffffffffffff191614806104a957507f5b5e139f000000000000000000000000000000000000000000000000000000007bffffffffffffffffffffffffffffffffffffffffffffffffffffffff1916827bffffffffffffffffffffffffffffffffffffffffffffffffffffffff1916145b806104b957506104b882610b64565b5b9050919050565b60605f80546104ce90611e84565b80601f01602080910402602001604051908101604052809291908181526020018280546104fa90611e84565b80156105455780601f1061051c57610100808354040283529160200191610545565b820191905f5260205f20905b81548152906001019060200180831161052857829003601f168201915b5050505050905090565b5f61055982610bcd565b5061056382610c53565b9050919050565b61057c8282610577610c8c565b610c93565b5050565b60605f61058b610ca5565b905080836040516020016105a0929190611eee565b604051602081830303815290604052915050919050565b5f73ffffffffffffffffffffffffffffffffffffffff168273ffffffffffffffffffffffffffffffffffffffff1603610627575f6040517f64a0ae9200000000000000000000000000000000000000000000000000000000815260040161061e919061187b565b60405180910390fd5b5f61063a8383610635610c8c565b610cc5565b90508373ffffffffffffffffffffffffffffffffffffffff168173ffffffffffffffffffffffffffffffffffffffff16146106b0578382826040517f64283d7b0000000000000000000000000000000000000000000000000000000081526004016106a793929190611f11565b60405180910390fd5b50505050565b6106c1838383610ed0565b505050565b6106e083838360405180602001604052805f8152506109eb565b505050565b5f6106ef82610bcd565b9050919050565b5f8073ffffffffffffffffffffffffffffffffffffffff168273ffffffffffffffffffffffffffffffffffffffff1603610767575f6040517f89c62b6400000000000000000000000000000000000000000000000000000000815260040161075e919061187b565b60405180910390fd5b60045f8373ffffffffffffffffffffffffffffffffffffffff1673ffffffffffffffffffffffffffffffffffffffff1681526020019081526020015f20549050919050565b60605f60025467ffffffffffffffff8111156107cb576107ca611904565b5b6040519080825280602002602001820160405280156107f95781602001602082028036833780820191505090505b5090505f805b60025481101561088657610812816106e5565b73ffffffffffffffffffffffffffffffffffffffff168573ffffffffffffffffffffffffffffffffffffffff1603610873578083838151811061085857610857611f46565b5b602002602001018181525050818061086f90611fa0565b9250505b808061087e90611fa0565b9150506107ff565b505f8167ffffffffffffffff8111156108a2576108a1611904565b5b6040519080825280602002602001820160405280156108d05781602001602082028036833780820191505090505b5090505f5b8281101561092a578381815181106108f0576108ef611f46565b5b602002602001015182828151811061090b5761090a611f46565b5b602002602001018181525050808061092290611fa0565b9150506108d5565b50809350505050919050565b60606001805461094590611e84565b80601f016020809104026020016040519081016040528092919081815260200182805461097190611e84565b80156109bc5780601f10610993576101008083540402835291602001916109bc565b820191905f5260205f20905b81548152906001019060200180831161099f57829003601f168201915b5050505050905090565b6109d86109d1610c8c565b8383610ed0565b5050565b60025481565b5f600254905090565b6109f68484846105b7565b610a0284848484611039565b50505050565b606060075f8381526020019081526020015f208054610a2690611e84565b80601f0160208091040260200160405190810160405280929190818152602001828054610a5290611e84565b8015610a9d5780601f10610a7457610100808354040283529160200191610a9d565b820191905f5260205f20905b815481529060010190602001808311610a8057829003601f168201915b50505050509050919050565b8060075f8481526020019081526020015f209081610ac79190612184565b50610ad233836111eb565b5050565b5f60065f8473ffffffffffffffffffffffffffffffffffffffff1673ffffffffffffffffffffffffffffffffffffffff1681526020019081526020015f205f8373ffffffffffffffffffffffffffffffffffffffff1673ffffffffffffffffffffffffffffffffffffffff1681526020019081526020015f205f9054906101000a900460ff16905092915050565b5f7f01ffc9a7000000000000000000000000000000000000000000000000000000007bffffffffffffffffffffffffffffffffffffffffffffffffffffffff1916827bffffffffffffffffffffffffffffffffffffffffffffffffffffffff1916149050919050565b5f80610bd8836112f5565b90505f73ffffffffffffffffffffffffffffffffffffffff168173ffffffffffffffffffffffffffffffffffffffff1603610c4a57826040517f7e273289000000000000000000000000000000000000000000000000000000008152600401610c419190611b73565b60405180910390fd5b80915050919050565b5f60055f8381526020019081526020015f205f9054906101000a900473ffffffffffffffffffffffffffffffffffffffff169050919050565b5f33905090565b610ca0838383600161132e565b505050565b606060405180606001604052806032815260200161235660329139905090565b5f80610cd0846112f5565b90505f73ffffffffffffffffffffffffffffffffffffffff168373ffffffffffffffffffffffffffffffffffffffff1614610d1157610d108184866114ed565b5b5f73ffffffffffffffffffffffffffffffffffffffff168173ffffffffffffffffffffffffffffffffffffffff1614610d9c57610d505f855f8061132e565b600160045f8373ffffffffffffffffffffffffffffffffffffffff1673ffffffffffffffffffffffffffffffffffffffff1681526020019081526020015f205f82825403925050819055505b5f73ffffffffffffffffffffffffffffffffffffffff168573ffffffffffffffffffffffffffffffffffffffff1614610e1b57600160045f8773ffffffffffffffffffffffffffffffffffffffff1673ffffffffffffffffffffffffffffffffffffffff1681526020019081526020015f205f82825401925050819055505b8460035f8681526020019081526020015f205f6101000a81548173ffffffffffffffffffffffffffffffffffffffff021916908373ffffffffffffffffffffffffffffffffffffffff160217905550838573ffffffffffffffffffffffffffffffffffffffff168273ffffffffffffffffffffffffffffffffffffffff167fddf252ad1be2c89b69c2b068fc378daa952ba7f163c4a11628f55a4df523b3ef60405160405180910390a4809150509392505050565b5f73ffffffffffffffffffffffffffffffffffffffff168273ffffffffffffffffffffffffffffffffffffffff1603610f4057816040517f5b08ba18000000000000000000000000000000000000000000000000000000008152600401610f37919061187b565b60405180910390fd5b8060065f8573ffffffffffffffffffffffffffffffffffffffff1673ffffffffffffffffffffffffffffffffffffffff1681526020019081526020015f205f8473ffffffffffffffffffffffffffffffffffffffff1673ffffffffffffffffffffffffffffffffffffffff1681526020019081526020015f205f6101000a81548160ff0219169083151502179055508173ffffffffffffffffffffffffffffffffffffffff168373ffffffffffffffffffffffffffffffffffffffff167f17307eab39ab6107e8899845ad3d59bd9653f200f220920489ca2b5937696c318360405161102c919061171b565b60405180910390a3505050565b5f8373ffffffffffffffffffffffffffffffffffffffff163b11156111e5578273ffffffffffffffffffffffffffffffffffffffff1663150b7a0261107c610c8c565b8685856040518563ffffffff1660e01b815260040161109e94939291906122a5565b6020604051808303815f875af19250505080156110d957506040513d601f19601f820116820180604052508101906110d69190612303565b60015b61115a573d805f8114611107576040519150601f19603f3d011682016040523d82523d5f602084013e61110c565b606091505b505f81510361115257836040517f64a0ae92000000000000000000000000000000000000000000000000000000008152600401611149919061187b565b60405180910390fd5b805181602001fd5b63150b7a0260e01b7bffffffffffffffffffffffffffffffffffffffffffffffffffffffff1916817bffffffffffffffffffffffffffffffffffffffffffffffffffffffff1916146111e357836040517f64a0ae920000000000000000000000000000000000000000000000000000000081526004016111da919061187b565b60405180910390fd5b505b50505050565b5f73ffffffffffffffffffffffffffffffffffffffff168273ffffffffffffffffffffffffffffffffffffffff160361125b575f6040517f64a0ae92000000000000000000000000000000000000000000000000000000008152600401611252919061187b565b60405180910390fd5b5f61126783835f610cc5565b90505f73ffffffffffffffffffffffffffffffffffffffff168173ffffffffffffffffffffffffffffffffffffffff16146112d9575f6040517f73c6ac6e0000000000000000000000000000000000000000000000000000000081526004016112d0919061187b565b60405180910390fd5b60025f8154809291906112eb90611fa0565b9190505550505050565b5f60035f8381526020019081526020015f205f9054906101000a900473ffffffffffffffffffffffffffffffffffffffff169050919050565b808061136657505f73ffffffffffffffffffffffffffffffffffffffff168273ffffffffffffffffffffffffffffffffffffffff1614155b15611498575f61137584610bcd565b90505f73ffffffffffffffffffffffffffffffffffffffff168373ffffffffffffffffffffffffffffffffffffffff16141580156113df57508273ffffffffffffffffffffffffffffffffffffffff168173ffffffffffffffffffffffffffffffffffffffff1614155b80156113f257506113f08184610ad6565b155b1561143457826040517fa9fbf51f00000000000000000000000000000000000000000000000000000000815260040161142b919061187b565b60405180910390fd5b811561149657838573ffffffffffffffffffffffffffffffffffffffff168273ffffffffffffffffffffffffffffffffffffffff167f8c5be1e5ebec7d5bd14f71427d1e84f3dd0314c0f7b2291e5b200ac8c7c3b92560405160405180910390a45b505b8360055f8581526020019081526020015f205f6101000a81548173ffffffffffffffffffffffffffffffffffffffff021916908373ffffffffffffffffffffffffffffffffffffffff16021790555050505050565b6114f88383836115b0565b6115ab575f73ffffffffffffffffffffffffffffffffffffffff168373ffffffffffffffffffffffffffffffffffffffff160361156c57806040517f7e2732890000000000000000000000000000000000000000000000000000000081526004016115639190611b73565b60405180910390fd5b81816040517f177e802f0000000000000000000000000000000000000000000000000000000081526004016115a292919061232e565b60405180910390fd5b505050565b5f8073ffffffffffffffffffffffffffffffffffffffff168373ffffffffffffffffffffffffffffffffffffffff161415801561166757508273ffffffffffffffffffffffffffffffffffffffff168473ffffffffffffffffffffffffffffffffffffffff16148061162857506116278484610ad6565b5b8061166657508273ffffffffffffffffffffffffffffffffffffffff1661164e83610c53565b73ffffffffffffffffffffffffffffffffffffffff16145b5b90509392505050565b5f604051905090565b5f80fd5b5f80fd5b5f7fffffffff0000000000000000000000000000000000000000000000000000000082169050919050565b6116b581611681565b81146116bf575f80fd5b50565b5f813590506116d0816116ac565b92915050565b5f602082840312156116eb576116ea611679565b5b5f6116f8848285016116c2565b91505092915050565b5f8115159050919050565b61171581611701565b82525050565b5f60208201905061172e5f83018461170c565b92915050565b5f81519050919050565b5f82825260208201905092915050565b5f5b8381101561176b578082015181840152602081019050611750565b5f8484015250505050565b5f601f19601f8301169050919050565b5f61179082611734565b61179a818561173e565b93506117aa81856020860161174e565b6117b381611776565b840191505092915050565b5f6020820190508181035f8301526117d68184611786565b905092915050565b5f819050919050565b6117f0816117de565b81146117fa575f80fd5b50565b5f8135905061180b816117e7565b92915050565b5f6020828403121561182657611825611679565b5b5f611833848285016117fd565b91505092915050565b5f73ffffffffffffffffffffffffffffffffffffffff82169050919050565b5f6118658261183c565b9050919050565b6118758161185b565b82525050565b5f60208201905061188e5f83018461186c565b92915050565b61189d8161185b565b81146118a7575f80fd5b50565b5f813590506118b881611894565b92915050565b5f80604083850312156118d4576118d3611679565b5b5f6118e1858286016118aa565b92505060206118f2858286016117fd565b9150509250929050565b5f80fd5b5f80fd5b7f4e487b71000000000000000000000000000000000000000000000000000000005f52604160045260245ffd5b61193a82611776565b810181811067ffffffffffffffff8211171561195957611958611904565b5b80604052505050565b5f61196b611670565b90506119778282611931565b919050565b5f67ffffffffffffffff82111561199657611995611904565b5b61199f82611776565b9050602081019050919050565b828183375f83830152505050565b5f6119cc6119c78461197c565b611962565b9050828152602081018484840111156119e8576119e7611900565b5b6119f38482856119ac565b509392505050565b5f82601f830112611a0f57611a0e6118fc565b5b8135611a1f8482602086016119ba565b91505092915050565b5f60208284031215611a3d57611a3c611679565b5b5f82013567ffffffffffffffff811115611a5a57611a5961167d565b5b611a66848285016119fb565b91505092915050565b5f805f60608486031215611a8657611a85611679565b5b5f611a93868287016118aa565b9350506020611aa4868287016118aa565b9250506040611ab5868287016117fd565b9150509250925092565b611ac881611701565b8114611ad2575f80fd5b50565b5f81359050611ae381611abf565b92915050565b5f805f60608486031215611b0057611aff611679565b5b5f611b0d868287016118aa565b9350506020611b1e868287016118aa565b9250506040611b2f86828701611ad5565b9150509250925092565b5f60208284031215611b4e57611b4d611679565b5b5f611b5b848285016118aa565b91505092915050565b611b6d816117de565b82525050565b5f602082019050611b865f830184611b64565b92915050565b5f81519050919050565b5f82825260208201905092915050565b5f819050602082019050919050565b611bbe816117de565b82525050565b5f611bcf8383611bb5565b60208301905092915050565b5f602082019050919050565b5f611bf182611b8c565b611bfb8185611b96565b9350611c0683611ba6565b805f5b83811015611c36578151611c1d8882611bc4565b9750611c2883611bdb565b925050600181019050611c09565b5085935050505092915050565b5f6020820190508181035f830152611c5b8184611be7565b905092915050565b5f8060408385031215611c7957611c78611679565b5b5f611c86858286016118aa565b9250506020611c9785828601611ad5565b9150509250929050565b5f67ffffffffffffffff821115611cbb57611cba611904565b5b611cc482611776565b9050602081019050919050565b5f611ce3611cde84611ca1565b611962565b905082815260208101848484011115611cff57611cfe611900565b5b611d0a8482856119ac565b509392505050565b5f82601f830112611d2657611d256118fc565b5b8135611d36848260208601611cd1565b91505092915050565b5f805f8060808587031215611d5757611d56611679565b5b5f611d64878288016118aa565b9450506020611d75878288016118aa565b9350506040611d86878288016117fd565b925050606085013567ffffffffffffffff811115611da757611da661167d565b5b611db387828801611d12565b91505092959194509250565b5f8060408385031215611dd557611dd4611679565b5b5f611de2858286016117fd565b925050602083013567ffffffffffffffff811115611e0357611e0261167d565b5b611e0f858286016119fb565b9150509250929050565b5f8060408385031215611e2f57611e2e611679565b5b5f611e3c858286016118aa565b9250506020611e4d858286016118aa565b9150509250929050565b7f4e487b71000000000000000000000000000000000000000000000000000000005f52602260045260245ffd5b5f6002820490506001821680611e9b57607f821691505b602082108103611eae57611ead611e57565b5b50919050565b5f81905092915050565b5f611ec882611734565b611ed28185611eb4565b9350611ee281856020860161174e565b80840191505092915050565b5f611ef98285611ebe565b9150611f058284611ebe565b91508190509392505050565b5f606082019050611f245f83018661186c565b611f316020830185611b64565b611f3e604083018461186c565b949350505050565b7f4e487b71000000000000000000000000000000000000000000000000000000005f52603260045260245ffd5b7f4e487b71000000000000000000000000000000000000000000000000000000005f52601160045260245ffd5b5f611faa826117de565b91507fffffffffffffffffffffffffffffffffffffffffffffffffffffffffffffffff8203611fdc57611fdb611f73565b5b600182019050919050565b5f819050815f5260205f209050919050565b5f6020601f8301049050919050565b5f82821b905092915050565b5f600883026120437fffffffffffffffffffffffffffffffffffffffffffffffffffffffffffffffff82612008565b61204d8683612008565b95508019841693508086168417925050509392505050565b5f819050919050565b5f61208861208361207e846117de565b612065565b6117de565b9050919050565b5f819050919050565b6120a18361206e565b6120b56120ad8261208f565b848454612014565b825550505050565b5f90565b6120c96120bd565b6120d4818484612098565b505050565b5b818110156120f7576120ec5f826120c1565b6001810190506120da565b5050565b601f82111561213c5761210d81611fe7565b61211684611ff9565b81016020851015612125578190505b61213961213185611ff9565b8301826120d9565b50505b505050565b5f82821c905092915050565b5f61215c5f1984600802612141565b1980831691505092915050565b5f612174838361214d565b9150826002028217905092915050565b61218d82611734565b67ffffffffffffffff8111156121a6576121a5611904565b5b6121b08254611e84565b6121bb8282856120fb565b5f60209050601f8311600181146121ec575f84156121da578287015190505b6121e48582612169565b86555061224b565b601f1984166121fa86611fe7565b5f5b82811015612221578489015182556001820191506020850194506020810190506121fc565b8683101561223e578489015161223a601f89168261214d565b8355505b6001600288020188555050505b505050505050565b5f81519050919050565b5f82825260208201905092915050565b5f61227782612253565b612281818561225d565b935061229181856020860161174e565b61229a81611776565b840191505092915050565b5f6080820190506122b85f83018761186c565b6122c5602083018661186c565b6122d26040830185611b64565b81810360608301526122e4818461226d565b905095945050505050565b5f815190506122fd816116ac565b92915050565b5f6020828403121561231857612317611679565b5b5f612325848285016122ef565b91505092915050565b5f6040820190506123415f83018561186c565b61234e6020830184611b64565b939250505056fe68747470733a2f2f636f72616c2d646561722d676962626f6e2d3933302e6d7970696e6174612e636c6f75642f697066732fa264697066735822122061576c8260056190c3c57e00d237e99e57f8f85a2a926586deac2bb74dcc300864736f6c63430008140033",
					"opcodes": "PUSH1 0x80 PUSH1 0x40 MSTORE CALLVALUE DUP1 ISZERO PUSH3 0x10 JUMPI PUSH0 DUP1 REVERT JUMPDEST POP PUSH1 0x40 MLOAD PUSH3 0x295A CODESIZE SUB DUP1 PUSH3 0x295A DUP4 CODECOPY DUP2 DUP2 ADD PUSH1 0x40 MSTORE DUP2 ADD SWAP1 PUSH3 0x36 SWAP2 SWAP1 PUSH3 0x1F1 JUMP JUMPDEST DUP2 DUP2 DUP2 PUSH0 SWAP1 DUP2 PUSH3 0x48 SWAP2 SWAP1 PUSH3 0x4AB JUMP JUMPDEST POP DUP1 PUSH1 0x1 SWAP1 DUP2 PUSH3 0x5A SWAP2 SWAP1 PUSH3 0x4AB JUMP JUMPDEST POP PUSH0 PUSH1 0x2 DUP2 SWAP1 SSTORE POP POP POP POP POP PUSH3 0x58F JUMP JUMPDEST PUSH0 PUSH1 0x40 MLOAD SWAP1 POP SWAP1 JUMP JUMPDEST PUSH0 DUP1 REVERT JUMPDEST PUSH0 DUP1 REVERT JUMPDEST PUSH0 DUP1 REVERT JUMPDEST PUSH0 DUP1 REVERT JUMPDEST PUSH0 PUSH1 0x1F NOT PUSH1 0x1F DUP4 ADD AND SWAP1 POP SWAP2 SWAP1 POP JUMP JUMPDEST PUSH32 0x4E487B7100000000000000000000000000000000000000000000000000000000 PUSH0 MSTORE PUSH1 0x41 PUSH1 0x4 MSTORE PUSH1 0x24 PUSH0 REVERT JUMPDEST PUSH3 0xCD DUP3 PUSH3 0x85 JUMP JUMPDEST DUP2 ADD DUP2 DUP2 LT PUSH8 0xFFFFFFFFFFFFFFFF DUP3 GT OR ISZERO PUSH3 0xEF JUMPI PUSH3 0xEE PUSH3 0x95 JUMP JUMPDEST JUMPDEST DUP1 PUSH1 0x40 MSTORE POP POP POP JUMP JUMPDEST PUSH0 PUSH3 0x103 PUSH3 0x6C JUMP JUMPDEST SWAP1 POP PUSH3 0x111 DUP3 DUP3 PUSH3 0xC2 JUMP JUMPDEST SWAP2 SWAP1 POP JUMP JUMPDEST PUSH0 PUSH8 0xFFFFFFFFFFFFFFFF DUP3 GT ISZERO PUSH3 0x133 JUMPI PUSH3 0x132 PUSH3 0x95 JUMP JUMPDEST JUMPDEST PUSH3 0x13E DUP3 PUSH3 0x85 JUMP JUMPDEST SWAP1 POP PUSH1 0x20 DUP2 ADD SWAP1 POP SWAP2 SWAP1 POP JUMP JUMPDEST PUSH0 JUMPDEST DUP4 DUP2 LT ISZERO PUSH3 0x16A JUMPI DUP1 DUP3 ADD MLOAD DUP2 DUP5 ADD MSTORE PUSH1 0x20 DUP2 ADD SWAP1 POP PUSH3 0x14D JUMP JUMPDEST PUSH0 DUP5 DUP5 ADD MSTORE POP POP POP POP JUMP JUMPDEST PUSH0 PUSH3 0x18B PUSH3 0x185 DUP5 PUSH3 0x116 JUMP JUMPDEST PUSH3 0xF8 JUMP JUMPDEST SWAP1 POP DUP3 DUP2 MSTORE PUSH1 0x20 DUP2 ADD DUP5 DUP5 DUP5 ADD GT ISZERO PUSH3 0x1AA JUMPI PUSH3 0x1A9 PUSH3 0x81 JUMP JUMPDEST JUMPDEST PUSH3 0x1B7 DUP5 DUP3 DUP6 PUSH3 0x14B JUMP JUMPDEST POP SWAP4 SWAP3 POP POP POP JUMP JUMPDEST PUSH0 DUP3 PUSH1 0x1F DUP4 ADD SLT PUSH3 0x1D6 JUMPI PUSH3 0x1D5 PUSH3 0x7D JUMP JUMPDEST JUMPDEST DUP2 MLOAD PUSH3 0x1E8 DUP5 DUP3 PUSH1 0x20 DUP7 ADD PUSH3 0x175 JUMP JUMPDEST SWAP2 POP POP SWAP3 SWAP2 POP POP JUMP JUMPDEST PUSH0 DUP1 PUSH1 0x40 DUP4 DUP6 SUB SLT ISZERO PUSH3 0x20A JUMPI PUSH3 0x209 PUSH3 0x75 JUMP JUMPDEST JUMPDEST PUSH0 DUP4 ADD MLOAD PUSH8 0xFFFFFFFFFFFFFFFF DUP2 GT ISZERO PUSH3 0x22A JUMPI PUSH3 0x229 PUSH3 0x79 JUMP JUMPDEST JUMPDEST PUSH3 0x238 DUP6 DUP3 DUP7 ADD PUSH3 0x1BF JUMP JUMPDEST SWAP3 POP POP PUSH1 0x20 DUP4 ADD MLOAD PUSH8 0xFFFFFFFFFFFFFFFF DUP2 GT ISZERO PUSH3 0x25C JUMPI PUSH3 0x25B PUSH3 0x79 JUMP JUMPDEST JUMPDEST PUSH3 0x26A DUP6 DUP3 DUP7 ADD PUSH3 0x1BF JUMP JUMPDEST SWAP2 POP POP SWAP3 POP SWAP3 SWAP1 POP JUMP JUMPDEST PUSH0 DUP2 MLOAD SWAP1 POP SWAP2 SWAP1 POP JUMP JUMPDEST PUSH32 0x4E487B7100000000000000000000000000000000000000000000000000000000 PUSH0 MSTORE PUSH1 0x22 PUSH1 0x4 MSTORE PUSH1 0x24 PUSH0 REVERT JUMPDEST PUSH0 PUSH1 0x2 DUP3 DIV SWAP1 POP PUSH1 0x1 DUP3 AND DUP1 PUSH3 0x2C3 JUMPI PUSH1 0x7F DUP3 AND SWAP2 POP JUMPDEST PUSH1 0x20 DUP3 LT DUP2 SUB PUSH3 0x2D9 JUMPI PUSH3 0x2D8 PUSH3 0x27E JUMP JUMPDEST JUMPDEST POP SWAP2 SWAP1 POP JUMP JUMPDEST PUSH0 DUP2 SWAP1 POP DUP2 PUSH0 MSTORE PUSH1 0x20 PUSH0 KECCAK256 SWAP1 POP SWAP2 SWAP1 POP JUMP JUMPDEST PUSH0 PUSH1 0x20 PUSH1 0x1F DUP4 ADD DIV SWAP1 POP SWAP2 SWAP1 POP JUMP JUMPDEST PUSH0 DUP3 DUP3 SHL SWAP1 POP SWAP3 SWAP2 POP POP JUMP JUMPDEST PUSH0 PUSH1 0x8 DUP4 MUL PUSH3 0x33D PUSH32 0xFFFFFFFFFFFFFFFFFFFFFFFFFFFFFFFFFFFFFFFFFFFFFFFFFFFFFFFFFFFFFFFF DUP3 PUSH3 0x300 JUMP JUMPDEST PUSH3 0x349 DUP7 DUP4 PUSH3 0x300 JUMP JUMPDEST SWAP6 POP DUP1 NOT DUP5 AND SWAP4 POP DUP1 DUP7 AND DUP5 OR SWAP3 POP POP POP SWAP4 SWAP3 POP POP POP JUMP JUMPDEST PUSH0 DUP2 SWAP1 POP SWAP2 SWAP1 POP JUMP JUMPDEST PUSH0 DUP2 SWAP1 POP SWAP2 SWAP1 POP JUMP JUMPDEST PUSH0 PUSH3 0x393 PUSH3 0x38D PUSH3 0x387 DUP5 PUSH3 0x361 JUMP JUMPDEST PUSH3 0x36A JUMP JUMPDEST PUSH3 0x361 JUMP JUMPDEST SWAP1 POP SWAP2 SWAP1 POP JUMP JUMPDEST PUSH0 DUP2 SWAP1 POP SWAP2 SWAP1 POP JUMP JUMPDEST PUSH3 0x3AE DUP4 PUSH3 0x373 JUMP JUMPDEST PUSH3 0x3C6 PUSH3 0x3BD DUP3 PUSH3 0x39A JUMP JUMPDEST DUP5 DUP5 SLOAD PUSH3 0x30C JUMP JUMPDEST DUP3 SSTORE POP POP POP POP JUMP JUMPDEST PUSH0 SWAP1 JUMP JUMPDEST PUSH3 0x3DC PUSH3 0x3CE JUMP JUMPDEST PUSH3 0x3E9 DUP2 DUP5 DUP5 PUSH3 0x3A3 JUMP JUMPDEST POP POP POP JUMP JUMPDEST JUMPDEST DUP2 DUP2 LT ISZERO PUSH3 0x410 JUMPI PUSH3 0x404 PUSH0 DUP3 PUSH3 0x3D2 JUMP JUMPDEST PUSH1 0x1 DUP2 ADD SWAP1 POP PUSH3 0x3EF JUMP JUMPDEST POP POP JUMP JUMPDEST PUSH1 0x1F DUP3 GT ISZERO PUSH3 0x45F JUMPI PUSH3 0x429 DUP2 PUSH3 0x2DF JUMP JUMPDEST PUSH3 0x434 DUP5 PUSH3 0x2F1 JUMP JUMPDEST DUP2 ADD PUSH1 0x20 DUP6 LT ISZERO PUSH3 0x444 JUMPI DUP2 SWAP1 POP JUMPDEST PUSH3 0x45C PUSH3 0x453 DUP6 PUSH3 0x2F1 JUMP JUMPDEST DUP4 ADD DUP3 PUSH3 0x3EE JUMP JUMPDEST POP POP JUMPDEST POP POP POP JUMP JUMPDEST PUSH0 DUP3 DUP3 SHR SWAP1 POP SWAP3 SWAP2 POP POP JUMP JUMPDEST PUSH0 PUSH3 0x481 PUSH0 NOT DUP5 PUSH1 0x8 MUL PUSH3 0x464 JUMP JUMPDEST NOT DUP1 DUP4 AND SWAP2 POP POP SWAP3 SWAP2 POP POP JUMP JUMPDEST PUSH0 PUSH3 0x49B DUP4 DUP4 PUSH3 0x470 JUMP JUMPDEST SWAP2 POP DUP3 PUSH1 0x2 MUL DUP3 OR SWAP1 POP SWAP3 SWAP2 POP POP JUMP JUMPDEST PUSH3 0x4B6 DUP3 PUSH3 0x274 JUMP JUMPDEST PUSH8 0xFFFFFFFFFFFFFFFF DUP2 GT ISZERO PUSH3 0x4D2 JUMPI PUSH3 0x4D1 PUSH3 0x95 JUMP JUMPDEST JUMPDEST PUSH3 0x4DE DUP3 SLOAD PUSH3 0x2AB JUMP JUMPDEST PUSH3 0x4EB DUP3 DUP3 DUP6 PUSH3 0x414 JUMP JUMPDEST PUSH0 PUSH1 0x20 SWAP1 POP PUSH1 0x1F DUP4 GT PUSH1 0x1 DUP2 EQ PUSH3 0x521 JUMPI PUSH0 DUP5 ISZERO PUSH3 0x50C JUMPI DUP3 DUP8 ADD MLOAD SWAP1 POP JUMPDEST PUSH3 0x518 DUP6 DUP3 PUSH3 0x48E JUMP JUMPDEST DUP7 SSTORE POP PUSH3 0x587 JUMP JUMPDEST PUSH1 0x1F NOT DUP5 AND PUSH3 0x531 DUP7 PUSH3 0x2DF JUMP JUMPDEST PUSH0 JUMPDEST DUP3 DUP2 LT ISZERO PUSH3 0x55A JUMPI DUP5 DUP10 ADD MLOAD DUP3 SSTORE PUSH1 0x1 DUP3 ADD SWAP2 POP PUSH1 0x20 DUP6 ADD SWAP5 POP PUSH1 0x20 DUP2 ADD SWAP1 POP PUSH3 0x533 JUMP JUMPDEST DUP7 DUP4 LT ISZERO PUSH3 0x57A JUMPI DUP5 DUP10 ADD MLOAD PUSH3 0x576 PUSH1 0x1F DUP10 AND DUP3 PUSH3 0x470 JUMP JUMPDEST DUP4 SSTORE POP JUMPDEST PUSH1 0x1 PUSH1 0x2 DUP9 MUL ADD DUP9 SSTORE POP POP POP JUMPDEST POP POP POP POP POP POP JUMP JUMPDEST PUSH2 0x23BD DUP1 PUSH3 0x59D PUSH0 CODECOPY PUSH0 RETURN INVALID PUSH1 0x80 PUSH1 0x40 MSTORE CALLVALUE DUP1 ISZERO PUSH2 0xF JUMPI PUSH0 DUP1 REVERT JUMPDEST POP PUSH1 0x4 CALLDATASIZE LT PUSH2 0x11F JUMPI PUSH0 CALLDATALOAD PUSH1 0xE0 SHR DUP1 PUSH4 0x70A08231 GT PUSH2 0xAB JUMPI DUP1 PUSH4 0xABEC7101 GT PUSH2 0x6F JUMPI DUP1 PUSH4 0xABEC7101 EQ PUSH2 0x329 JUMPI DUP1 PUSH4 0xB88D4FDE EQ PUSH2 0x347 JUMPI DUP1 PUSH4 0xC87B56DD EQ PUSH2 0x363 JUMPI DUP1 PUSH4 0xE2C4C4B2 EQ PUSH2 0x393 JUMPI DUP1 PUSH4 0xE985E9C5 EQ PUSH2 0x3AF JUMPI PUSH2 0x11F JUMP JUMPDEST DUP1 PUSH4 0x70A08231 EQ PUSH2 0x271 JUMPI DUP1 PUSH4 0x828E7A01 EQ PUSH2 0x2A1 JUMPI DUP1 PUSH4 0x95D89B41 EQ PUSH2 0x2D1 JUMPI DUP1 PUSH4 0xA22CB465 EQ PUSH2 0x2EF JUMPI DUP1 PUSH4 0xA393DC44 EQ PUSH2 0x30B JUMPI PUSH2 0x11F JUMP JUMPDEST DUP1 PUSH4 0x1B00FD16 GT PUSH2 0xF2 JUMPI DUP1 PUSH4 0x1B00FD16 EQ PUSH2 0x1BD JUMPI DUP1 PUSH4 0x23B872DD EQ PUSH2 0x1ED JUMPI DUP1 PUSH4 0x29D6724E EQ PUSH2 0x209 JUMPI DUP1 PUSH4 0x42842E0E EQ PUSH2 0x225 JUMPI DUP1 PUSH4 0x6352211E EQ PUSH2 0x241 JUMPI PUSH2 0x11F JUMP JUMPDEST DUP1 PUSH4 0x1FFC9A7 EQ PUSH2 0x123 JUMPI DUP1 PUSH4 0x6FDDE03 EQ PUSH2 0x153 JUMPI DUP1 PUSH4 0x81812FC EQ PUSH2 0x171 JUMPI DUP1 PUSH4 0x95EA7B3 EQ PUSH2 0x1A1 JUMPI JUMPDEST PUSH0 DUP1 REVERT JUMPDEST PUSH2 0x13D PUSH1 0x4 DUP1 CALLDATASIZE SUB DUP2 ADD SWAP1 PUSH2 0x138 SWAP2 SWAP1 PUSH2 0x16D6 JUMP JUMPDEST PUSH2 0x3DF JUMP JUMPDEST PUSH1 0x40 MLOAD PUSH2 0x14A SWAP2 SWAP1 PUSH2 0x171B JUMP JUMPDEST PUSH1 0x40 MLOAD DUP1 SWAP2 SUB SWAP1 RETURN JUMPDEST PUSH2 0x15B PUSH2 0x4C0 JUMP JUMPDEST PUSH1 0x40 MLOAD PUSH2 0x168 SWAP2 SWAP1 PUSH2 0x17BE JUMP JUMPDEST PUSH1 0x40 MLOAD DUP1 SWAP2 SUB SWAP1 RETURN JUMPDEST PUSH2 0x18B PUSH1 0x4 DUP1 CALLDATASIZE SUB DUP2 ADD SWAP1 PUSH2 0x186 SWAP2 SWAP1 PUSH2 0x1811 JUMP JUMPDEST PUSH2 0x54F JUMP JUMPDEST PUSH1 0x40 MLOAD PUSH2 0x198 SWAP2 SWAP1 PUSH2 0x187B JUMP JUMPDEST PUSH1 0x40 MLOAD DUP1 SWAP2 SUB SWAP1 RETURN JUMPDEST PUSH2 0x1BB PUSH1 0x4 DUP1 CALLDATASIZE SUB DUP2 ADD SWAP1 PUSH2 0x1B6 SWAP2 SWAP1 PUSH2 0x18BE JUMP JUMPDEST PUSH2 0x56A JUMP JUMPDEST STOP JUMPDEST PUSH2 0x1D7 PUSH1 0x4 DUP1 CALLDATASIZE SUB DUP2 ADD SWAP1 PUSH2 0x1D2 SWAP2 SWAP1 PUSH2 0x1A28 JUMP JUMPDEST PUSH2 0x580 JUMP JUMPDEST PUSH1 0x40 MLOAD PUSH2 0x1E4 SWAP2 SWAP1 PUSH2 0x17BE JUMP JUMPDEST PUSH1 0x40 MLOAD DUP1 SWAP2 SUB SWAP1 RETURN JUMPDEST PUSH2 0x207 PUSH1 0x4 DUP1 CALLDATASIZE SUB DUP2 ADD SWAP1 PUSH2 0x202 SWAP2 SWAP1 PUSH2 0x1A6F JUMP JUMPDEST PUSH2 0x5B7 JUMP JUMPDEST STOP JUMPDEST PUSH2 0x223 PUSH1 0x4 DUP1 CALLDATASIZE SUB DUP2 ADD SWAP1 PUSH2 0x21E SWAP2 SWAP1 PUSH2 0x1AE9 JUMP JUMPDEST PUSH2 0x6B6 JUMP JUMPDEST STOP JUMPDEST PUSH2 0x23F PUSH1 0x4 DUP1 CALLDATASIZE SUB DUP2 ADD SWAP1 PUSH2 0x23A SWAP2 SWAP1 PUSH2 0x1A6F JUMP JUMPDEST PUSH2 0x6C6 JUMP JUMPDEST STOP JUMPDEST PUSH2 0x25B PUSH1 0x4 DUP1 CALLDATASIZE SUB DUP2 ADD SWAP1 PUSH2 0x256 SWAP2 SWAP1 PUSH2 0x1811 JUMP JUMPDEST PUSH2 0x6E5 JUMP JUMPDEST PUSH1 0x40 MLOAD PUSH2 0x268 SWAP2 SWAP1 PUSH2 0x187B JUMP JUMPDEST PUSH1 0x40 MLOAD DUP1 SWAP2 SUB SWAP1 RETURN JUMPDEST PUSH2 0x28B PUSH1 0x4 DUP1 CALLDATASIZE SUB DUP2 ADD SWAP1 PUSH2 0x286 SWAP2 SWAP1 PUSH2 0x1B39 JUMP JUMPDEST PUSH2 0x6F6 JUMP JUMPDEST PUSH1 0x40 MLOAD PUSH2 0x298 SWAP2 SWAP1 PUSH2 0x1B73 JUMP JUMPDEST PUSH1 0x40 MLOAD DUP1 SWAP2 SUB SWAP1 RETURN JUMPDEST PUSH2 0x2BB PUSH1 0x4 DUP1 CALLDATASIZE SUB DUP2 ADD SWAP1 PUSH2 0x2B6 SWAP2 SWAP1 PUSH2 0x1B39 JUMP JUMPDEST PUSH2 0x7AC JUMP JUMPDEST PUSH1 0x40 MLOAD PUSH2 0x2C8 SWAP2 SWAP1 PUSH2 0x1C43 JUMP JUMPDEST PUSH1 0x40 MLOAD DUP1 SWAP2 SUB SWAP1 RETURN JUMPDEST PUSH2 0x2D9 PUSH2 0x936 JUMP JUMPDEST PUSH1 0x40 MLOAD PUSH2 0x2E6 SWAP2 SWAP1 PUSH2 0x17BE JUMP JUMPDEST PUSH1 0x40 MLOAD DUP1 SWAP2 SUB SWAP1 RETURN JUMPDEST PUSH2 0x309 PUSH1 0x4 DUP1 CALLDATASIZE SUB DUP2 ADD SWAP1 PUSH2 0x304 SWAP2 SWAP1 PUSH2 0x1C63 JUMP JUMPDEST PUSH2 0x9C6 JUMP JUMPDEST STOP JUMPDEST PUSH2 0x313 PUSH2 0x9DC JUMP JUMPDEST PUSH1 0x40 MLOAD PUSH2 0x320 SWAP2 SWAP1 PUSH2 0x1B73 JUMP JUMPDEST PUSH1 0x40 MLOAD DUP1 SWAP2 SUB SWAP1 RETURN JUMPDEST PUSH2 0x331 PUSH2 0x9E2 JUMP JUMPDEST PUSH1 0x40 MLOAD PUSH2 0x33E SWAP2 SWAP1 PUSH2 0x1B73 JUMP JUMPDEST PUSH1 0x40 MLOAD DUP1 SWAP2 SUB SWAP1 RETURN JUMPDEST PUSH2 0x361 PUSH1 0x4 DUP1 CALLDATASIZE SUB DUP2 ADD SWAP1 PUSH2 0x35C SWAP2 SWAP1 PUSH2 0x1D3F JUMP JUMPDEST PUSH2 0x9EB JUMP JUMPDEST STOP JUMPDEST PUSH2 0x37D PUSH1 0x4 DUP1 CALLDATASIZE SUB DUP2 ADD SWAP1 PUSH2 0x378 SWAP2 SWAP1 PUSH2 0x1811 JUMP JUMPDEST PUSH2 0xA08 JUMP JUMPDEST PUSH1 0x40 MLOAD PUSH2 0x38A SWAP2 SWAP1 PUSH2 0x17BE JUMP JUMPDEST PUSH1 0x40 MLOAD DUP1 SWAP2 SUB SWAP1 RETURN JUMPDEST PUSH2 0x3AD PUSH1 0x4 DUP1 CALLDATASIZE SUB DUP2 ADD SWAP1 PUSH2 0x3A8 SWAP2 SWAP1 PUSH2 0x1DBF JUMP JUMPDEST PUSH2 0xAA9 JUMP JUMPDEST STOP JUMPDEST PUSH2 0x3C9 PUSH1 0x4 DUP1 CALLDATASIZE SUB DUP2 ADD SWAP1 PUSH2 0x3C4 SWAP2 SWAP1 PUSH2 0x1E19 JUMP JUMPDEST PUSH2 0xAD6 JUMP JUMPDEST PUSH1 0x40 MLOAD PUSH2 0x3D6 SWAP2 SWAP1 PUSH2 0x171B JUMP JUMPDEST PUSH1 0x40 MLOAD DUP1 SWAP2 SUB SWAP1 RETURN JUMPDEST PUSH0 PUSH32 0x80AC58CD00000000000000000000000000000000000000000000000000000000 PUSH28 0xFFFFFFFFFFFFFFFFFFFFFFFFFFFFFFFFFFFFFFFFFFFFFFFFFFFFFFFF NOT AND DUP3 PUSH28 0xFFFFFFFFFFFFFFFFFFFFFFFFFFFFFFFFFFFFFFFFFFFFFFFFFFFFFFFF NOT AND EQ DUP1 PUSH2 0x4A9 JUMPI POP PUSH32 0x5B5E139F00000000000000000000000000000000000000000000000000000000 PUSH28 0xFFFFFFFFFFFFFFFFFFFFFFFFFFFFFFFFFFFFFFFFFFFFFFFFFFFFFFFF NOT AND DUP3 PUSH28 0xFFFFFFFFFFFFFFFFFFFFFFFFFFFFFFFFFFFFFFFFFFFFFFFFFFFFFFFF NOT AND EQ JUMPDEST DUP1 PUSH2 0x4B9 JUMPI POP PUSH2 0x4B8 DUP3 PUSH2 0xB64 JUMP JUMPDEST JUMPDEST SWAP1 POP SWAP2 SWAP1 POP JUMP JUMPDEST PUSH1 0x60 PUSH0 DUP1 SLOAD PUSH2 0x4CE SWAP1 PUSH2 0x1E84 JUMP JUMPDEST DUP1 PUSH1 0x1F ADD PUSH1 0x20 DUP1 SWAP2 DIV MUL PUSH1 0x20 ADD PUSH1 0x40 MLOAD SWAP1 DUP2 ADD PUSH1 0x40 MSTORE DUP1 SWAP3 SWAP2 SWAP1 DUP2 DUP2 MSTORE PUSH1 0x20 ADD DUP3 DUP1 SLOAD PUSH2 0x4FA SWAP1 PUSH2 0x1E84 JUMP JUMPDEST DUP1 ISZERO PUSH2 0x545 JUMPI DUP1 PUSH1 0x1F LT PUSH2 0x51C JUMPI PUSH2 0x100 DUP1 DUP4 SLOAD DIV MUL DUP4 MSTORE SWAP2 PUSH1 0x20 ADD SWAP2 PUSH2 0x545 JUMP JUMPDEST DUP3 ADD SWAP2 SWAP1 PUSH0 MSTORE PUSH1 0x20 PUSH0 KECCAK256 SWAP1 JUMPDEST DUP2 SLOAD DUP2 MSTORE SWAP1 PUSH1 0x1 ADD SWAP1 PUSH1 0x20 ADD DUP1 DUP4 GT PUSH2 0x528 JUMPI DUP3 SWAP1 SUB PUSH1 0x1F AND DUP3 ADD SWAP2 JUMPDEST POP POP POP POP POP SWAP1 POP SWAP1 JUMP JUMPDEST PUSH0 PUSH2 0x559 DUP3 PUSH2 0xBCD JUMP JUMPDEST POP PUSH2 0x563 DUP3 PUSH2 0xC53 JUMP JUMPDEST SWAP1 POP SWAP2 SWAP1 POP JUMP JUMPDEST PUSH2 0x57C DUP3 DUP3 PUSH2 0x577 PUSH2 0xC8C JUMP JUMPDEST PUSH2 0xC93 JUMP JUMPDEST POP POP JUMP JUMPDEST PUSH1 0x60 PUSH0 PUSH2 0x58B PUSH2 0xCA5 JUMP JUMPDEST SWAP1 POP DUP1 DUP4 PUSH1 0x40 MLOAD PUSH1 0x20 ADD PUSH2 0x5A0 SWAP3 SWAP2 SWAP1 PUSH2 0x1EEE JUMP JUMPDEST PUSH1 0x40 MLOAD PUSH1 0x20 DUP2 DUP4 SUB SUB DUP2 MSTORE SWAP1 PUSH1 0x40 MSTORE SWAP2 POP POP SWAP2 SWAP1 POP JUMP JUMPDEST PUSH0 PUSH20 0xFFFFFFFFFFFFFFFFFFFFFFFFFFFFFFFFFFFFFFFF AND DUP3 PUSH20 0xFFFFFFFFFFFFFFFFFFFFFFFFFFFFFFFFFFFFFFFF AND SUB PUSH2 0x627 JUMPI PUSH0 PUSH1 0x40 MLOAD PUSH32 0x64A0AE9200000000000000000000000000000000000000000000000000000000 DUP2 MSTORE PUSH1 0x4 ADD PUSH2 0x61E SWAP2 SWAP1 PUSH2 0x187B JUMP JUMPDEST PUSH1 0x40 MLOAD DUP1 SWAP2 SUB SWAP1 REVERT JUMPDEST PUSH0 PUSH2 0x63A DUP4 DUP4 PUSH2 0x635 PUSH2 0xC8C JUMP JUMPDEST PUSH2 0xCC5 JUMP JUMPDEST SWAP1 POP DUP4 PUSH20 0xFFFFFFFFFFFFFFFFFFFFFFFFFFFFFFFFFFFFFFFF AND DUP2 PUSH20 0xFFFFFFFFFFFFFFFFFFFFFFFFFFFFFFFFFFFFFFFF AND EQ PUSH2 0x6B0 JUMPI DUP4 DUP3 DUP3 PUSH1 0x40 MLOAD PUSH32 0x64283D7B00000000000000000000000000000000000000000000000000000000 DUP2 MSTORE PUSH1 0x4 ADD PUSH2 0x6A7 SWAP4 SWAP3 SWAP2 SWAP1 PUSH2 0x1F11 JUMP JUMPDEST PUSH1 0x40 MLOAD DUP1 SWAP2 SUB SWAP1 REVERT JUMPDEST POP POP POP POP JUMP JUMPDEST PUSH2 0x6C1 DUP4 DUP4 DUP4 PUSH2 0xED0 JUMP JUMPDEST POP POP POP JUMP JUMPDEST PUSH2 0x6E0 DUP4 DUP4 DUP4 PUSH1 0x40 MLOAD DUP1 PUSH1 0x20 ADD PUSH1 0x40 MSTORE DUP1 PUSH0 DUP2 MSTORE POP PUSH2 0x9EB JUMP JUMPDEST POP POP POP JUMP JUMPDEST PUSH0 PUSH2 0x6EF DUP3 PUSH2 0xBCD JUMP JUMPDEST SWAP1 POP SWAP2 SWAP1 POP JUMP JUMPDEST PUSH0 DUP1 PUSH20 0xFFFFFFFFFFFFFFFFFFFFFFFFFFFFFFFFFFFFFFFF AND DUP3 PUSH20 0xFFFFFFFFFFFFFFFFFFFFFFFFFFFFFFFFFFFFFFFF AND SUB PUSH2 0x767 JUMPI PUSH0 PUSH1 0x40 MLOAD PUSH32 0x89C62B6400000000000000000000000000000000000000000000000000000000 DUP2 MSTORE PUSH1 0x4 ADD PUSH2 0x75E SWAP2 SWAP1 PUSH2 0x187B JUMP JUMPDEST PUSH1 0x40 MLOAD DUP1 SWAP2 SUB SWAP1 REVERT JUMPDEST PUSH1 0x4 PUSH0 DUP4 PUSH20 0xFFFFFFFFFFFFFFFFFFFFFFFFFFFFFFFFFFFFFFFF AND PUSH20 0xFFFFFFFFFFFFFFFFFFFFFFFFFFFFFFFFFFFFFFFF AND DUP2 MSTORE PUSH1 0x20 ADD SWAP1 DUP2 MSTORE PUSH1 0x20 ADD PUSH0 KECCAK256 SLOAD SWAP1 POP SWAP2 SWAP1 POP JUMP JUMPDEST PUSH1 0x60 PUSH0 PUSH1 0x2 SLOAD PUSH8 0xFFFFFFFFFFFFFFFF DUP2 GT ISZERO PUSH2 0x7CB JUMPI PUSH2 0x7CA PUSH2 0x1904 JUMP JUMPDEST JUMPDEST PUSH1 0x40 MLOAD SWAP1 DUP1 DUP3 MSTORE DUP1 PUSH1 0x20 MUL PUSH1 0x20 ADD DUP3 ADD PUSH1 0x40 MSTORE DUP1 ISZERO PUSH2 0x7F9 JUMPI DUP2 PUSH1 0x20 ADD PUSH1 0x20 DUP3 MUL DUP1 CALLDATASIZE DUP4 CALLDATACOPY DUP1 DUP3 ADD SWAP2 POP POP SWAP1 POP JUMPDEST POP SWAP1 POP PUSH0 DUP1 JUMPDEST PUSH1 0x2 SLOAD DUP2 LT ISZERO PUSH2 0x886 JUMPI PUSH2 0x812 DUP2 PUSH2 0x6E5 JUMP JUMPDEST PUSH20 0xFFFFFFFFFFFFFFFFFFFFFFFFFFFFFFFFFFFFFFFF AND DUP6 PUSH20 0xFFFFFFFFFFFFFFFFFFFFFFFFFFFFFFFFFFFFFFFF AND SUB PUSH2 0x873 JUMPI DUP1 DUP4 DUP4 DUP2 MLOAD DUP2 LT PUSH2 0x858 JUMPI PUSH2 0x857 PUSH2 0x1F46 JUMP JUMPDEST JUMPDEST PUSH1 0x20 MUL PUSH1 0x20 ADD ADD DUP2 DUP2 MSTORE POP POP DUP2 DUP1 PUSH2 0x86F SWAP1 PUSH2 0x1FA0 JUMP JUMPDEST SWAP3 POP POP JUMPDEST DUP1 DUP1 PUSH2 0x87E SWAP1 PUSH2 0x1FA0 JUMP JUMPDEST SWAP2 POP POP PUSH2 0x7FF JUMP JUMPDEST POP PUSH0 DUP2 PUSH8 0xFFFFFFFFFFFFFFFF DUP2 GT ISZERO PUSH2 0x8A2 JUMPI PUSH2 0x8A1 PUSH2 0x1904 JUMP JUMPDEST JUMPDEST PUSH1 0x40 MLOAD SWAP1 DUP1 DUP3 MSTORE DUP1 PUSH1 0x20 MUL PUSH1 0x20 ADD DUP3 ADD PUSH1 0x40 MSTORE DUP1 ISZERO PUSH2 0x8D0 JUMPI DUP2 PUSH1 0x20 ADD PUSH1 0x20 DUP3 MUL DUP1 CALLDATASIZE DUP4 CALLDATACOPY DUP1 DUP3 ADD SWAP2 POP POP SWAP1 POP JUMPDEST POP SWAP1 POP PUSH0 JUMPDEST DUP3 DUP2 LT ISZERO PUSH2 0x92A JUMPI DUP4 DUP2 DUP2 MLOAD DUP2 LT PUSH2 0x8F0 JUMPI PUSH2 0x8EF PUSH2 0x1F46 JUMP JUMPDEST JUMPDEST PUSH1 0x20 MUL PUSH1 0x20 ADD ADD MLOAD DUP3 DUP3 DUP2 MLOAD DUP2 LT PUSH2 0x90B JUMPI PUSH2 0x90A PUSH2 0x1F46 JUMP JUMPDEST JUMPDEST PUSH1 0x20 MUL PUSH1 0x20 ADD ADD DUP2 DUP2 MSTORE POP POP DUP1 DUP1 PUSH2 0x922 SWAP1 PUSH2 0x1FA0 JUMP JUMPDEST SWAP2 POP POP PUSH2 0x8D5 JUMP JUMPDEST POP DUP1 SWAP4 POP POP POP POP SWAP2 SWAP1 POP JUMP JUMPDEST PUSH1 0x60 PUSH1 0x1 DUP1 SLOAD PUSH2 0x945 SWAP1 PUSH2 0x1E84 JUMP JUMPDEST DUP1 PUSH1 0x1F ADD PUSH1 0x20 DUP1 SWAP2 DIV MUL PUSH1 0x20 ADD PUSH1 0x40 MLOAD SWAP1 DUP2 ADD PUSH1 0x40 MSTORE DUP1 SWAP3 SWAP2 SWAP1 DUP2 DUP2 MSTORE PUSH1 0x20 ADD DUP3 DUP1 SLOAD PUSH2 0x971 SWAP1 PUSH2 0x1E84 JUMP JUMPDEST DUP1 ISZERO PUSH2 0x9BC JUMPI DUP1 PUSH1 0x1F LT PUSH2 0x993 JUMPI PUSH2 0x100 DUP1 DUP4 SLOAD DIV MUL DUP4 MSTORE SWAP2 PUSH1 0x20 ADD SWAP2 PUSH2 0x9BC JUMP JUMPDEST DUP3 ADD SWAP2 SWAP1 PUSH0 MSTORE PUSH1 0x20 PUSH0 KECCAK256 SWAP1 JUMPDEST DUP2 SLOAD DUP2 MSTORE SWAP1 PUSH1 0x1 ADD SWAP1 PUSH1 0x20 ADD DUP1 DUP4 GT PUSH2 0x99F JUMPI DUP3 SWAP1 SUB PUSH1 0x1F AND DUP3 ADD SWAP2 JUMPDEST POP POP POP POP POP SWAP1 POP SWAP1 JUMP JUMPDEST PUSH2 0x9D8 PUSH2 0x9D1 PUSH2 0xC8C JUMP JUMPDEST DUP4 DUP4 PUSH2 0xED0 JUMP JUMPDEST POP POP JUMP JUMPDEST PUSH1 0x2 SLOAD DUP2 JUMP JUMPDEST PUSH0 PUSH1 0x2 SLOAD SWAP1 POP SWAP1 JUMP JUMPDEST PUSH2 0x9F6 DUP5 DUP5 DUP5 PUSH2 0x5B7 JUMP JUMPDEST PUSH2 0xA02 DUP5 DUP5 DUP5 DUP5 PUSH2 0x1039 JUMP JUMPDEST POP POP POP POP JUMP JUMPDEST PUSH1 0x60 PUSH1 0x7 PUSH0 DUP4 DUP2 MSTORE PUSH1 0x20 ADD SWAP1 DUP2 MSTORE PUSH1 0x20 ADD PUSH0 KECCAK256 DUP1 SLOAD PUSH2 0xA26 SWAP1 PUSH2 0x1E84 JUMP JUMPDEST DUP1 PUSH1 0x1F ADD PUSH1 0x20 DUP1 SWAP2 DIV MUL PUSH1 0x20 ADD PUSH1 0x40 MLOAD SWAP1 DUP2 ADD PUSH1 0x40 MSTORE DUP1 SWAP3 SWAP2 SWAP1 DUP2 DUP2 MSTORE PUSH1 0x20 ADD DUP3 DUP1 SLOAD PUSH2 0xA52 SWAP1 PUSH2 0x1E84 JUMP JUMPDEST DUP1 ISZERO PUSH2 0xA9D JUMPI DUP1 PUSH1 0x1F LT PUSH2 0xA74 JUMPI PUSH2 0x100 DUP1 DUP4 SLOAD DIV MUL DUP4 MSTORE SWAP2 PUSH1 0x20 ADD SWAP2 PUSH2 0xA9D JUMP JUMPDEST DUP3 ADD SWAP2 SWAP1 PUSH0 MSTORE PUSH1 0x20 PUSH0 KECCAK256 SWAP1 JUMPDEST DUP2 SLOAD DUP2 MSTORE SWAP1 PUSH1 0x1 ADD SWAP1 PUSH1 0x20 ADD DUP1 DUP4 GT PUSH2 0xA80 JUMPI DUP3 SWAP1 SUB PUSH1 0x1F AND DUP3 ADD SWAP2 JUMPDEST POP POP POP POP POP SWAP1 POP SWAP2 SWAP1 POP JUMP JUMPDEST DUP1 PUSH1 0x7 PUSH0 DUP5 DUP2 MSTORE PUSH1 0x20 ADD SWAP1 DUP2 MSTORE PUSH1 0x20 ADD PUSH0 KECCAK256 SWAP1 DUP2 PUSH2 0xAC7 SWAP2 SWAP1 PUSH2 0x2184 JUMP JUMPDEST POP PUSH2 0xAD2 CALLER DUP4 PUSH2 0x11EB JUMP JUMPDEST POP POP JUMP JUMPDEST PUSH0 PUSH1 0x6 PUSH0 DUP5 PUSH20 0xFFFFFFFFFFFFFFFFFFFFFFFFFFFFFFFFFFFFFFFF AND PUSH20 0xFFFFFFFFFFFFFFFFFFFFFFFFFFFFFFFFFFFFFFFF AND DUP2 MSTORE PUSH1 0x20 ADD SWAP1 DUP2 MSTORE PUSH1 0x20 ADD PUSH0 KECCAK256 PUSH0 DUP4 PUSH20 0xFFFFFFFFFFFFFFFFFFFFFFFFFFFFFFFFFFFFFFFF AND PUSH20 0xFFFFFFFFFFFFFFFFFFFFFFFFFFFFFFFFFFFFFFFF AND DUP2 MSTORE PUSH1 0x20 ADD SWAP1 DUP2 MSTORE PUSH1 0x20 ADD PUSH0 KECCAK256 PUSH0 SWAP1 SLOAD SWAP1 PUSH2 0x100 EXP SWAP1 DIV PUSH1 0xFF AND SWAP1 POP SWAP3 SWAP2 POP POP JUMP JUMPDEST PUSH0 PUSH32 0x1FFC9A700000000000000000000000000000000000000000000000000000000 PUSH28 0xFFFFFFFFFFFFFFFFFFFFFFFFFFFFFFFFFFFFFFFFFFFFFFFFFFFFFFFF NOT AND DUP3 PUSH28 0xFFFFFFFFFFFFFFFFFFFFFFFFFFFFFFFFFFFFFFFFFFFFFFFFFFFFFFFF NOT AND EQ SWAP1 POP SWAP2 SWAP1 POP JUMP JUMPDEST PUSH0 DUP1 PUSH2 0xBD8 DUP4 PUSH2 0x12F5 JUMP JUMPDEST SWAP1 POP PUSH0 PUSH20 0xFFFFFFFFFFFFFFFFFFFFFFFFFFFFFFFFFFFFFFFF AND DUP2 PUSH20 0xFFFFFFFFFFFFFFFFFFFFFFFFFFFFFFFFFFFFFFFF AND SUB PUSH2 0xC4A JUMPI DUP3 PUSH1 0x40 MLOAD PUSH32 0x7E27328900000000000000000000000000000000000000000000000000000000 DUP2 MSTORE PUSH1 0x4 ADD PUSH2 0xC41 SWAP2 SWAP1 PUSH2 0x1B73 JUMP JUMPDEST PUSH1 0x40 MLOAD DUP1 SWAP2 SUB SWAP1 REVERT JUMPDEST DUP1 SWAP2 POP POP SWAP2 SWAP1 POP JUMP JUMPDEST PUSH0 PUSH1 0x5 PUSH0 DUP4 DUP2 MSTORE PUSH1 0x20 ADD SWAP1 DUP2 MSTORE PUSH1 0x20 ADD PUSH0 KECCAK256 PUSH0 SWAP1 SLOAD SWAP1 PUSH2 0x100 EXP SWAP1 DIV PUSH20 0xFFFFFFFFFFFFFFFFFFFFFFFFFFFFFFFFFFFFFFFF AND SWAP1 POP SWAP2 SWAP1 POP JUMP JUMPDEST PUSH0 CALLER SWAP1 POP SWAP1 JUMP JUMPDEST PUSH2 0xCA0 DUP4 DUP4 DUP4 PUSH1 0x1 PUSH2 0x132E JUMP JUMPDEST POP POP POP JUMP JUMPDEST PUSH1 0x60 PUSH1 0x40 MLOAD DUP1 PUSH1 0x60 ADD PUSH1 0x40 MSTORE DUP1 PUSH1 0x32 DUP2 MSTORE PUSH1 0x20 ADD PUSH2 0x2356 PUSH1 0x32 SWAP2 CODECOPY SWAP1 POP SWAP1 JUMP JUMPDEST PUSH0 DUP1 PUSH2 0xCD0 DUP5 PUSH2 0x12F5 JUMP JUMPDEST SWAP1 POP PUSH0 PUSH20 0xFFFFFFFFFFFFFFFFFFFFFFFFFFFFFFFFFFFFFFFF AND DUP4 PUSH20 0xFFFFFFFFFFFFFFFFFFFFFFFFFFFFFFFFFFFFFFFF AND EQ PUSH2 0xD11 JUMPI PUSH2 0xD10 DUP2 DUP5 DUP7 PUSH2 0x14ED JUMP JUMPDEST JUMPDEST PUSH0 PUSH20 0xFFFFFFFFFFFFFFFFFFFFFFFFFFFFFFFFFFFFFFFF AND DUP2 PUSH20 0xFFFFFFFFFFFFFFFFFFFFFFFFFFFFFFFFFFFFFFFF AND EQ PUSH2 0xD9C JUMPI PUSH2 0xD50 PUSH0 DUP6 PUSH0 DUP1 PUSH2 0x132E JUMP JUMPDEST PUSH1 0x1 PUSH1 0x4 PUSH0 DUP4 PUSH20 0xFFFFFFFFFFFFFFFFFFFFFFFFFFFFFFFFFFFFFFFF AND PUSH20 0xFFFFFFFFFFFFFFFFFFFFFFFFFFFFFFFFFFFFFFFF AND DUP2 MSTORE PUSH1 0x20 ADD SWAP1 DUP2 MSTORE PUSH1 0x20 ADD PUSH0 KECCAK256 PUSH0 DUP3 DUP3 SLOAD SUB SWAP3 POP POP DUP2 SWAP1 SSTORE POP JUMPDEST PUSH0 PUSH20 0xFFFFFFFFFFFFFFFFFFFFFFFFFFFFFFFFFFFFFFFF AND DUP6 PUSH20 0xFFFFFFFFFFFFFFFFFFFFFFFFFFFFFFFFFFFFFFFF AND EQ PUSH2 0xE1B JUMPI PUSH1 0x1 PUSH1 0x4 PUSH0 DUP8 PUSH20 0xFFFFFFFFFFFFFFFFFFFFFFFFFFFFFFFFFFFFFFFF AND PUSH20 0xFFFFFFFFFFFFFFFFFFFFFFFFFFFFFFFFFFFFFFFF AND DUP2 MSTORE PUSH1 0x20 ADD SWAP1 DUP2 MSTORE PUSH1 0x20 ADD PUSH0 KECCAK256 PUSH0 DUP3 DUP3 SLOAD ADD SWAP3 POP POP DUP2 SWAP1 SSTORE POP JUMPDEST DUP5 PUSH1 0x3 PUSH0 DUP7 DUP2 MSTORE PUSH1 0x20 ADD SWAP1 DUP2 MSTORE PUSH1 0x20 ADD PUSH0 KECCAK256 PUSH0 PUSH2 0x100 EXP DUP2 SLOAD DUP2 PUSH20 0xFFFFFFFFFFFFFFFFFFFFFFFFFFFFFFFFFFFFFFFF MUL NOT AND SWAP1 DUP4 PUSH20 0xFFFFFFFFFFFFFFFFFFFFFFFFFFFFFFFFFFFFFFFF AND MUL OR SWAP1 SSTORE POP DUP4 DUP6 PUSH20 0xFFFFFFFFFFFFFFFFFFFFFFFFFFFFFFFFFFFFFFFF AND DUP3 PUSH20 0xFFFFFFFFFFFFFFFFFFFFFFFFFFFFFFFFFFFFFFFF AND PUSH32 0xDDF252AD1BE2C89B69C2B068FC378DAA952BA7F163C4A11628F55A4DF523B3EF PUSH1 0x40 MLOAD PUSH1 0x40 MLOAD DUP1 SWAP2 SUB SWAP1 LOG4 DUP1 SWAP2 POP POP SWAP4 SWAP3 POP POP POP JUMP JUMPDEST PUSH0 PUSH20 0xFFFFFFFFFFFFFFFFFFFFFFFFFFFFFFFFFFFFFFFF AND DUP3 PUSH20 0xFFFFFFFFFFFFFFFFFFFFFFFFFFFFFFFFFFFFFFFF AND SUB PUSH2 0xF40 JUMPI DUP2 PUSH1 0x40 MLOAD PUSH32 0x5B08BA1800000000000000000000000000000000000000000000000000000000 DUP2 MSTORE PUSH1 0x4 ADD PUSH2 0xF37 SWAP2 SWAP1 PUSH2 0x187B JUMP JUMPDEST PUSH1 0x40 MLOAD DUP1 SWAP2 SUB SWAP1 REVERT JUMPDEST DUP1 PUSH1 0x6 PUSH0 DUP6 PUSH20 0xFFFFFFFFFFFFFFFFFFFFFFFFFFFFFFFFFFFFFFFF AND PUSH20 0xFFFFFFFFFFFFFFFFFFFFFFFFFFFFFFFFFFFFFFFF AND DUP2 MSTORE PUSH1 0x20 ADD SWAP1 DUP2 MSTORE PUSH1 0x20 ADD PUSH0 KECCAK256 PUSH0 DUP5 PUSH20 0xFFFFFFFFFFFFFFFFFFFFFFFFFFFFFFFFFFFFFFFF AND PUSH20 0xFFFFFFFFFFFFFFFFFFFFFFFFFFFFFFFFFFFFFFFF AND DUP2 MSTORE PUSH1 0x20 ADD SWAP1 DUP2 MSTORE PUSH1 0x20 ADD PUSH0 KECCAK256 PUSH0 PUSH2 0x100 EXP DUP2 SLOAD DUP2 PUSH1 0xFF MUL NOT AND SWAP1 DUP4 ISZERO ISZERO MUL OR SWAP1 SSTORE POP DUP2 PUSH20 0xFFFFFFFFFFFFFFFFFFFFFFFFFFFFFFFFFFFFFFFF AND DUP4 PUSH20 0xFFFFFFFFFFFFFFFFFFFFFFFFFFFFFFFFFFFFFFFF AND PUSH32 0x17307EAB39AB6107E8899845AD3D59BD9653F200F220920489CA2B5937696C31 DUP4 PUSH1 0x40 MLOAD PUSH2 0x102C SWAP2 SWAP1 PUSH2 0x171B JUMP JUMPDEST PUSH1 0x40 MLOAD DUP1 SWAP2 SUB SWAP1 LOG3 POP POP POP JUMP JUMPDEST PUSH0 DUP4 PUSH20 0xFFFFFFFFFFFFFFFFFFFFFFFFFFFFFFFFFFFFFFFF AND EXTCODESIZE GT ISZERO PUSH2 0x11E5 JUMPI DUP3 PUSH20 0xFFFFFFFFFFFFFFFFFFFFFFFFFFFFFFFFFFFFFFFF AND PUSH4 0x150B7A02 PUSH2 0x107C PUSH2 0xC8C JUMP JUMPDEST DUP7 DUP6 DUP6 PUSH1 0x40 MLOAD DUP6 PUSH4 0xFFFFFFFF AND PUSH1 0xE0 SHL DUP2 MSTORE PUSH1 0x4 ADD PUSH2 0x109E SWAP5 SWAP4 SWAP3 SWAP2 SWAP1 PUSH2 0x22A5 JUMP JUMPDEST PUSH1 0x20 PUSH1 0x40 MLOAD DUP1 DUP4 SUB DUP2 PUSH0 DUP8 GAS CALL SWAP3 POP POP POP DUP1 ISZERO PUSH2 0x10D9 JUMPI POP PUSH1 0x40 MLOAD RETURNDATASIZE PUSH1 0x1F NOT PUSH1 0x1F DUP3 ADD AND DUP3 ADD DUP1 PUSH1 0x40 MSTORE POP DUP2 ADD SWAP1 PUSH2 0x10D6 SWAP2 SWAP1 PUSH2 0x2303 JUMP JUMPDEST PUSH1 0x1 JUMPDEST PUSH2 0x115A JUMPI RETURNDATASIZE DUP1 PUSH0 DUP2 EQ PUSH2 0x1107 JUMPI PUSH1 0x40 MLOAD SWAP2 POP PUSH1 0x1F NOT PUSH1 0x3F RETURNDATASIZE ADD AND DUP3 ADD PUSH1 0x40 MSTORE RETURNDATASIZE DUP3 MSTORE RETURNDATASIZE PUSH0 PUSH1 0x20 DUP5 ADD RETURNDATACOPY PUSH2 0x110C JUMP JUMPDEST PUSH1 0x60 SWAP2 POP JUMPDEST POP PUSH0 DUP2 MLOAD SUB PUSH2 0x1152 JUMPI DUP4 PUSH1 0x40 MLOAD PUSH32 0x64A0AE9200000000000000000000000000000000000000000000000000000000 DUP2 MSTORE PUSH1 0x4 ADD PUSH2 0x1149 SWAP2 SWAP1 PUSH2 0x187B JUMP JUMPDEST PUSH1 0x40 MLOAD DUP1 SWAP2 SUB SWAP1 REVERT JUMPDEST DUP1 MLOAD DUP2 PUSH1 0x20 ADD REVERT JUMPDEST PUSH4 0x150B7A02 PUSH1 0xE0 SHL PUSH28 0xFFFFFFFFFFFFFFFFFFFFFFFFFFFFFFFFFFFFFFFFFFFFFFFFFFFFFFFF NOT AND DUP2 PUSH28 0xFFFFFFFFFFFFFFFFFFFFFFFFFFFFFFFFFFFFFFFFFFFFFFFFFFFFFFFF NOT AND EQ PUSH2 0x11E3 JUMPI DUP4 PUSH1 0x40 MLOAD PUSH32 0x64A0AE9200000000000000000000000000000000000000000000000000000000 DUP2 MSTORE PUSH1 0x4 ADD PUSH2 0x11DA SWAP2 SWAP1 PUSH2 0x187B JUMP JUMPDEST PUSH1 0x40 MLOAD DUP1 SWAP2 SUB SWAP1 REVERT JUMPDEST POP JUMPDEST POP POP POP POP JUMP JUMPDEST PUSH0 PUSH20 0xFFFFFFFFFFFFFFFFFFFFFFFFFFFFFFFFFFFFFFFF AND DUP3 PUSH20 0xFFFFFFFFFFFFFFFFFFFFFFFFFFFFFFFFFFFFFFFF AND SUB PUSH2 0x125B JUMPI PUSH0 PUSH1 0x40 MLOAD PUSH32 0x64A0AE9200000000000000000000000000000000000000000000000000000000 DUP2 MSTORE PUSH1 0x4 ADD PUSH2 0x1252 SWAP2 SWAP1 PUSH2 0x187B JUMP JUMPDEST PUSH1 0x40 MLOAD DUP1 SWAP2 SUB SWAP1 REVERT JUMPDEST PUSH0 PUSH2 0x1267 DUP4 DUP4 PUSH0 PUSH2 0xCC5 JUMP JUMPDEST SWAP1 POP PUSH0 PUSH20 0xFFFFFFFFFFFFFFFFFFFFFFFFFFFFFFFFFFFFFFFF AND DUP2 PUSH20 0xFFFFFFFFFFFFFFFFFFFFFFFFFFFFFFFFFFFFFFFF AND EQ PUSH2 0x12D9 JUMPI PUSH0 PUSH1 0x40 MLOAD PUSH32 0x73C6AC6E00000000000000000000000000000000000000000000000000000000 DUP2 MSTORE PUSH1 0x4 ADD PUSH2 0x12D0 SWAP2 SWAP1 PUSH2 0x187B JUMP JUMPDEST PUSH1 0x40 MLOAD DUP1 SWAP2 SUB SWAP1 REVERT JUMPDEST PUSH1 0x2 PUSH0 DUP2 SLOAD DUP1 SWAP3 SWAP2 SWAP1 PUSH2 0x12EB SWAP1 PUSH2 0x1FA0 JUMP JUMPDEST SWAP2 SWAP1 POP SSTORE POP POP POP POP JUMP JUMPDEST PUSH0 PUSH1 0x3 PUSH0 DUP4 DUP2 MSTORE PUSH1 0x20 ADD SWAP1 DUP2 MSTORE PUSH1 0x20 ADD PUSH0 KECCAK256 PUSH0 SWAP1 SLOAD SWAP1 PUSH2 0x100 EXP SWAP1 DIV PUSH20 0xFFFFFFFFFFFFFFFFFFFFFFFFFFFFFFFFFFFFFFFF AND SWAP1 POP SWAP2 SWAP1 POP JUMP JUMPDEST DUP1 DUP1 PUSH2 0x1366 JUMPI POP PUSH0 PUSH20 0xFFFFFFFFFFFFFFFFFFFFFFFFFFFFFFFFFFFFFFFF AND DUP3 PUSH20 0xFFFFFFFFFFFFFFFFFFFFFFFFFFFFFFFFFFFFFFFF AND EQ ISZERO JUMPDEST ISZERO PUSH2 0x1498 JUMPI PUSH0 PUSH2 0x1375 DUP5 PUSH2 0xBCD JUMP JUMPDEST SWAP1 POP PUSH0 PUSH20 0xFFFFFFFFFFFFFFFFFFFFFFFFFFFFFFFFFFFFFFFF AND DUP4 PUSH20 0xFFFFFFFFFFFFFFFFFFFFFFFFFFFFFFFFFFFFFFFF AND EQ ISZERO DUP1 ISZERO PUSH2 0x13DF JUMPI POP DUP3 PUSH20 0xFFFFFFFFFFFFFFFFFFFFFFFFFFFFFFFFFFFFFFFF AND DUP2 PUSH20 0xFFFFFFFFFFFFFFFFFFFFFFFFFFFFFFFFFFFFFFFF AND EQ ISZERO JUMPDEST DUP1 ISZERO PUSH2 0x13F2 JUMPI POP PUSH2 0x13F0 DUP2 DUP5 PUSH2 0xAD6 JUMP JUMPDEST ISZERO JUMPDEST ISZERO PUSH2 0x1434 JUMPI DUP3 PUSH1 0x40 MLOAD PUSH32 0xA9FBF51F00000000000000000000000000000000000000000000000000000000 DUP2 MSTORE PUSH1 0x4 ADD PUSH2 0x142B SWAP2 SWAP1 PUSH2 0x187B JUMP JUMPDEST PUSH1 0x40 MLOAD DUP1 SWAP2 SUB SWAP1 REVERT JUMPDEST DUP2 ISZERO PUSH2 0x1496 JUMPI DUP4 DUP6 PUSH20 0xFFFFFFFFFFFFFFFFFFFFFFFFFFFFFFFFFFFFFFFF AND DUP3 PUSH20 0xFFFFFFFFFFFFFFFFFFFFFFFFFFFFFFFFFFFFFFFF AND PUSH32 0x8C5BE1E5EBEC7D5BD14F71427D1E84F3DD0314C0F7B2291E5B200AC8C7C3B925 PUSH1 0x40 MLOAD PUSH1 0x40 MLOAD DUP1 SWAP2 SUB SWAP1 LOG4 JUMPDEST POP JUMPDEST DUP4 PUSH1 0x5 PUSH0 DUP6 DUP2 MSTORE PUSH1 0x20 ADD SWAP1 DUP2 MSTORE PUSH1 0x20 ADD PUSH0 KECCAK256 PUSH0 PUSH2 0x100 EXP DUP2 SLOAD DUP2 PUSH20 0xFFFFFFFFFFFFFFFFFFFFFFFFFFFFFFFFFFFFFFFF MUL NOT AND SWAP1 DUP4 PUSH20 0xFFFFFFFFFFFFFFFFFFFFFFFFFFFFFFFFFFFFFFFF AND MUL OR SWAP1 SSTORE POP POP POP POP POP JUMP JUMPDEST PUSH2 0x14F8 DUP4 DUP4 DUP4 PUSH2 0x15B0 JUMP JUMPDEST PUSH2 0x15AB JUMPI PUSH0 PUSH20 0xFFFFFFFFFFFFFFFFFFFFFFFFFFFFFFFFFFFFFFFF AND DUP4 PUSH20 0xFFFFFFFFFFFFFFFFFFFFFFFFFFFFFFFFFFFFFFFF AND SUB PUSH2 0x156C JUMPI DUP1 PUSH1 0x40 MLOAD PUSH32 0x7E27328900000000000000000000000000000000000000000000000000000000 DUP2 MSTORE PUSH1 0x4 ADD PUSH2 0x1563 SWAP2 SWAP1 PUSH2 0x1B73 JUMP JUMPDEST PUSH1 0x40 MLOAD DUP1 SWAP2 SUB SWAP1 REVERT JUMPDEST DUP2 DUP2 PUSH1 0x40 MLOAD PUSH32 0x177E802F00000000000000000000000000000000000000000000000000000000 DUP2 MSTORE PUSH1 0x4 ADD PUSH2 0x15A2 SWAP3 SWAP2 SWAP1 PUSH2 0x232E JUMP JUMPDEST PUSH1 0x40 MLOAD DUP1 SWAP2 SUB SWAP1 REVERT JUMPDEST POP POP POP JUMP JUMPDEST PUSH0 DUP1 PUSH20 0xFFFFFFFFFFFFFFFFFFFFFFFFFFFFFFFFFFFFFFFF AND DUP4 PUSH20 0xFFFFFFFFFFFFFFFFFFFFFFFFFFFFFFFFFFFFFFFF AND EQ ISZERO DUP1 ISZERO PUSH2 0x1667 JUMPI POP DUP3 PUSH20 0xFFFFFFFFFFFFFFFFFFFFFFFFFFFFFFFFFFFFFFFF AND DUP5 PUSH20 0xFFFFFFFFFFFFFFFFFFFFFFFFFFFFFFFFFFFFFFFF AND EQ DUP1 PUSH2 0x1628 JUMPI POP PUSH2 0x1627 DUP5 DUP5 PUSH2 0xAD6 JUMP JUMPDEST JUMPDEST DUP1 PUSH2 0x1666 JUMPI POP DUP3 PUSH20 0xFFFFFFFFFFFFFFFFFFFFFFFFFFFFFFFFFFFFFFFF AND PUSH2 0x164E DUP4 PUSH2 0xC53 JUMP JUMPDEST PUSH20 0xFFFFFFFFFFFFFFFFFFFFFFFFFFFFFFFFFFFFFFFF AND EQ JUMPDEST JUMPDEST SWAP1 POP SWAP4 SWAP3 POP POP POP JUMP JUMPDEST PUSH0 PUSH1 0x40 MLOAD SWAP1 POP SWAP1 JUMP JUMPDEST PUSH0 DUP1 REVERT JUMPDEST PUSH0 DUP1 REVERT JUMPDEST PUSH0 PUSH32 0xFFFFFFFF00000000000000000000000000000000000000000000000000000000 DUP3 AND SWAP1 POP SWAP2 SWAP1 POP JUMP JUMPDEST PUSH2 0x16B5 DUP2 PUSH2 0x1681 JUMP JUMPDEST DUP2 EQ PUSH2 0x16BF JUMPI PUSH0 DUP1 REVERT JUMPDEST POP JUMP JUMPDEST PUSH0 DUP2 CALLDATALOAD SWAP1 POP PUSH2 0x16D0 DUP2 PUSH2 0x16AC JUMP JUMPDEST SWAP3 SWAP2 POP POP JUMP JUMPDEST PUSH0 PUSH1 0x20 DUP3 DUP5 SUB SLT ISZERO PUSH2 0x16EB JUMPI PUSH2 0x16EA PUSH2 0x1679 JUMP JUMPDEST JUMPDEST PUSH0 PUSH2 0x16F8 DUP5 DUP3 DUP6 ADD PUSH2 0x16C2 JUMP JUMPDEST SWAP2 POP POP SWAP3 SWAP2 POP POP JUMP JUMPDEST PUSH0 DUP2 ISZERO ISZERO SWAP1 POP SWAP2 SWAP1 POP JUMP JUMPDEST PUSH2 0x1715 DUP2 PUSH2 0x1701 JUMP JUMPDEST DUP3 MSTORE POP POP JUMP JUMPDEST PUSH0 PUSH1 0x20 DUP3 ADD SWAP1 POP PUSH2 0x172E PUSH0 DUP4 ADD DUP5 PUSH2 0x170C JUMP JUMPDEST SWAP3 SWAP2 POP POP JUMP JUMPDEST PUSH0 DUP2 MLOAD SWAP1 POP SWAP2 SWAP1 POP JUMP JUMPDEST PUSH0 DUP3 DUP3 MSTORE PUSH1 0x20 DUP3 ADD SWAP1 POP SWAP3 SWAP2 POP POP JUMP JUMPDEST PUSH0 JUMPDEST DUP4 DUP2 LT ISZERO PUSH2 0x176B JUMPI DUP1 DUP3 ADD MLOAD DUP2 DUP5 ADD MSTORE PUSH1 0x20 DUP2 ADD SWAP1 POP PUSH2 0x1750 JUMP JUMPDEST PUSH0 DUP5 DUP5 ADD MSTORE POP POP POP POP JUMP JUMPDEST PUSH0 PUSH1 0x1F NOT PUSH1 0x1F DUP4 ADD AND SWAP1 POP SWAP2 SWAP1 POP JUMP JUMPDEST PUSH0 PUSH2 0x1790 DUP3 PUSH2 0x1734 JUMP JUMPDEST PUSH2 0x179A DUP2 DUP6 PUSH2 0x173E JUMP JUMPDEST SWAP4 POP PUSH2 0x17AA DUP2 DUP6 PUSH1 0x20 DUP7 ADD PUSH2 0x174E JUMP JUMPDEST PUSH2 0x17B3 DUP2 PUSH2 0x1776 JUMP JUMPDEST DUP5 ADD SWAP2 POP POP SWAP3 SWAP2 POP POP JUMP JUMPDEST PUSH0 PUSH1 0x20 DUP3 ADD SWAP1 POP DUP2 DUP2 SUB PUSH0 DUP4 ADD MSTORE PUSH2 0x17D6 DUP2 DUP5 PUSH2 0x1786 JUMP JUMPDEST SWAP1 POP SWAP3 SWAP2 POP POP JUMP JUMPDEST PUSH0 DUP2 SWAP1 POP SWAP2 SWAP1 POP JUMP JUMPDEST PUSH2 0x17F0 DUP2 PUSH2 0x17DE JUMP JUMPDEST DUP2 EQ PUSH2 0x17FA JUMPI PUSH0 DUP1 REVERT JUMPDEST POP JUMP JUMPDEST PUSH0 DUP2 CALLDATALOAD SWAP1 POP PUSH2 0x180B DUP2 PUSH2 0x17E7 JUMP JUMPDEST SWAP3 SWAP2 POP POP JUMP JUMPDEST PUSH0 PUSH1 0x20 DUP3 DUP5 SUB SLT ISZERO PUSH2 0x1826 JUMPI PUSH2 0x1825 PUSH2 0x1679 JUMP JUMPDEST JUMPDEST PUSH0 PUSH2 0x1833 DUP5 DUP3 DUP6 ADD PUSH2 0x17FD JUMP JUMPDEST SWAP2 POP POP SWAP3 SWAP2 POP POP JUMP JUMPDEST PUSH0 PUSH20 0xFFFFFFFFFFFFFFFFFFFFFFFFFFFFFFFFFFFFFFFF DUP3 AND SWAP1 POP SWAP2 SWAP1 POP JUMP JUMPDEST PUSH0 PUSH2 0x1865 DUP3 PUSH2 0x183C JUMP JUMPDEST SWAP1 POP SWAP2 SWAP1 POP JUMP JUMPDEST PUSH2 0x1875 DUP2 PUSH2 0x185B JUMP JUMPDEST DUP3 MSTORE POP POP JUMP JUMPDEST PUSH0 PUSH1 0x20 DUP3 ADD SWAP1 POP PUSH2 0x188E PUSH0 DUP4 ADD DUP5 PUSH2 0x186C JUMP JUMPDEST SWAP3 SWAP2 POP POP JUMP JUMPDEST PUSH2 0x189D DUP2 PUSH2 0x185B JUMP JUMPDEST DUP2 EQ PUSH2 0x18A7 JUMPI PUSH0 DUP1 REVERT JUMPDEST POP JUMP JUMPDEST PUSH0 DUP2 CALLDATALOAD SWAP1 POP PUSH2 0x18B8 DUP2 PUSH2 0x1894 JUMP JUMPDEST SWAP3 SWAP2 POP POP JUMP JUMPDEST PUSH0 DUP1 PUSH1 0x40 DUP4 DUP6 SUB SLT ISZERO PUSH2 0x18D4 JUMPI PUSH2 0x18D3 PUSH2 0x1679 JUMP JUMPDEST JUMPDEST PUSH0 PUSH2 0x18E1 DUP6 DUP3 DUP7 ADD PUSH2 0x18AA JUMP JUMPDEST SWAP3 POP POP PUSH1 0x20 PUSH2 0x18F2 DUP6 DUP3 DUP7 ADD PUSH2 0x17FD JUMP JUMPDEST SWAP2 POP POP SWAP3 POP SWAP3 SWAP1 POP JUMP JUMPDEST PUSH0 DUP1 REVERT JUMPDEST PUSH0 DUP1 REVERT JUMPDEST PUSH32 0x4E487B7100000000000000000000000000000000000000000000000000000000 PUSH0 MSTORE PUSH1 0x41 PUSH1 0x4 MSTORE PUSH1 0x24 PUSH0 REVERT JUMPDEST PUSH2 0x193A DUP3 PUSH2 0x1776 JUMP JUMPDEST DUP2 ADD DUP2 DUP2 LT PUSH8 0xFFFFFFFFFFFFFFFF DUP3 GT OR ISZERO PUSH2 0x1959 JUMPI PUSH2 0x1958 PUSH2 0x1904 JUMP JUMPDEST JUMPDEST DUP1 PUSH1 0x40 MSTORE POP POP POP JUMP JUMPDEST PUSH0 PUSH2 0x196B PUSH2 0x1670 JUMP JUMPDEST SWAP1 POP PUSH2 0x1977 DUP3 DUP3 PUSH2 0x1931 JUMP JUMPDEST SWAP2 SWAP1 POP JUMP JUMPDEST PUSH0 PUSH8 0xFFFFFFFFFFFFFFFF DUP3 GT ISZERO PUSH2 0x1996 JUMPI PUSH2 0x1995 PUSH2 0x1904 JUMP JUMPDEST JUMPDEST PUSH2 0x199F DUP3 PUSH2 0x1776 JUMP JUMPDEST SWAP1 POP PUSH1 0x20 DUP2 ADD SWAP1 POP SWAP2 SWAP1 POP JUMP JUMPDEST DUP3 DUP2 DUP4 CALLDATACOPY PUSH0 DUP4 DUP4 ADD MSTORE POP POP POP JUMP JUMPDEST PUSH0 PUSH2 0x19CC PUSH2 0x19C7 DUP5 PUSH2 0x197C JUMP JUMPDEST PUSH2 0x1962 JUMP JUMPDEST SWAP1 POP DUP3 DUP2 MSTORE PUSH1 0x20 DUP2 ADD DUP5 DUP5 DUP5 ADD GT ISZERO PUSH2 0x19E8 JUMPI PUSH2 0x19E7 PUSH2 0x1900 JUMP JUMPDEST JUMPDEST PUSH2 0x19F3 DUP5 DUP3 DUP6 PUSH2 0x19AC JUMP JUMPDEST POP SWAP4 SWAP3 POP POP POP JUMP JUMPDEST PUSH0 DUP3 PUSH1 0x1F DUP4 ADD SLT PUSH2 0x1A0F JUMPI PUSH2 0x1A0E PUSH2 0x18FC JUMP JUMPDEST JUMPDEST DUP2 CALLDATALOAD PUSH2 0x1A1F DUP5 DUP3 PUSH1 0x20 DUP7 ADD PUSH2 0x19BA JUMP JUMPDEST SWAP2 POP POP SWAP3 SWAP2 POP POP JUMP JUMPDEST PUSH0 PUSH1 0x20 DUP3 DUP5 SUB SLT ISZERO PUSH2 0x1A3D JUMPI PUSH2 0x1A3C PUSH2 0x1679 JUMP JUMPDEST JUMPDEST PUSH0 DUP3 ADD CALLDATALOAD PUSH8 0xFFFFFFFFFFFFFFFF DUP2 GT ISZERO PUSH2 0x1A5A JUMPI PUSH2 0x1A59 PUSH2 0x167D JUMP JUMPDEST JUMPDEST PUSH2 0x1A66 DUP5 DUP3 DUP6 ADD PUSH2 0x19FB JUMP JUMPDEST SWAP2 POP POP SWAP3 SWAP2 POP POP JUMP JUMPDEST PUSH0 DUP1 PUSH0 PUSH1 0x60 DUP5 DUP7 SUB SLT ISZERO PUSH2 0x1A86 JUMPI PUSH2 0x1A85 PUSH2 0x1679 JUMP JUMPDEST JUMPDEST PUSH0 PUSH2 0x1A93 DUP7 DUP3 DUP8 ADD PUSH2 0x18AA JUMP JUMPDEST SWAP4 POP POP PUSH1 0x20 PUSH2 0x1AA4 DUP7 DUP3 DUP8 ADD PUSH2 0x18AA JUMP JUMPDEST SWAP3 POP POP PUSH1 0x40 PUSH2 0x1AB5 DUP7 DUP3 DUP8 ADD PUSH2 0x17FD JUMP JUMPDEST SWAP2 POP POP SWAP3 POP SWAP3 POP SWAP3 JUMP JUMPDEST PUSH2 0x1AC8 DUP2 PUSH2 0x1701 JUMP JUMPDEST DUP2 EQ PUSH2 0x1AD2 JUMPI PUSH0 DUP1 REVERT JUMPDEST POP JUMP JUMPDEST PUSH0 DUP2 CALLDATALOAD SWAP1 POP PUSH2 0x1AE3 DUP2 PUSH2 0x1ABF JUMP JUMPDEST SWAP3 SWAP2 POP POP JUMP JUMPDEST PUSH0 DUP1 PUSH0 PUSH1 0x60 DUP5 DUP7 SUB SLT ISZERO PUSH2 0x1B00 JUMPI PUSH2 0x1AFF PUSH2 0x1679 JUMP JUMPDEST JUMPDEST PUSH0 PUSH2 0x1B0D DUP7 DUP3 DUP8 ADD PUSH2 0x18AA JUMP JUMPDEST SWAP4 POP POP PUSH1 0x20 PUSH2 0x1B1E DUP7 DUP3 DUP8 ADD PUSH2 0x18AA JUMP JUMPDEST SWAP3 POP POP PUSH1 0x40 PUSH2 0x1B2F DUP7 DUP3 DUP8 ADD PUSH2 0x1AD5 JUMP JUMPDEST SWAP2 POP POP SWAP3 POP SWAP3 POP SWAP3 JUMP JUMPDEST PUSH0 PUSH1 0x20 DUP3 DUP5 SUB SLT ISZERO PUSH2 0x1B4E JUMPI PUSH2 0x1B4D PUSH2 0x1679 JUMP JUMPDEST JUMPDEST PUSH0 PUSH2 0x1B5B DUP5 DUP3 DUP6 ADD PUSH2 0x18AA JUMP JUMPDEST SWAP2 POP POP SWAP3 SWAP2 POP POP JUMP JUMPDEST PUSH2 0x1B6D DUP2 PUSH2 0x17DE JUMP JUMPDEST DUP3 MSTORE POP POP JUMP JUMPDEST PUSH0 PUSH1 0x20 DUP3 ADD SWAP1 POP PUSH2 0x1B86 PUSH0 DUP4 ADD DUP5 PUSH2 0x1B64 JUMP JUMPDEST SWAP3 SWAP2 POP POP JUMP JUMPDEST PUSH0 DUP2 MLOAD SWAP1 POP SWAP2 SWAP1 POP JUMP JUMPDEST PUSH0 DUP3 DUP3 MSTORE PUSH1 0x20 DUP3 ADD SWAP1 POP SWAP3 SWAP2 POP POP JUMP JUMPDEST PUSH0 DUP2 SWAP1 POP PUSH1 0x20 DUP3 ADD SWAP1 POP SWAP2 SWAP1 POP JUMP JUMPDEST PUSH2 0x1BBE DUP2 PUSH2 0x17DE JUMP JUMPDEST DUP3 MSTORE POP POP JUMP JUMPDEST PUSH0 PUSH2 0x1BCF DUP4 DUP4 PUSH2 0x1BB5 JUMP JUMPDEST PUSH1 0x20 DUP4 ADD SWAP1 POP SWAP3 SWAP2 POP POP JUMP JUMPDEST PUSH0 PUSH1 0x20 DUP3 ADD SWAP1 POP SWAP2 SWAP1 POP JUMP JUMPDEST PUSH0 PUSH2 0x1BF1 DUP3 PUSH2 0x1B8C JUMP JUMPDEST PUSH2 0x1BFB DUP2 DUP6 PUSH2 0x1B96 JUMP JUMPDEST SWAP4 POP PUSH2 0x1C06 DUP4 PUSH2 0x1BA6 JUMP JUMPDEST DUP1 PUSH0 JUMPDEST DUP4 DUP2 LT ISZERO PUSH2 0x1C36 JUMPI DUP2 MLOAD PUSH2 0x1C1D DUP9 DUP3 PUSH2 0x1BC4 JUMP JUMPDEST SWAP8 POP PUSH2 0x1C28 DUP4 PUSH2 0x1BDB JUMP JUMPDEST SWAP3 POP POP PUSH1 0x1 DUP2 ADD SWAP1 POP PUSH2 0x1C09 JUMP JUMPDEST POP DUP6 SWAP4 POP POP POP POP SWAP3 SWAP2 POP POP JUMP JUMPDEST PUSH0 PUSH1 0x20 DUP3 ADD SWAP1 POP DUP2 DUP2 SUB PUSH0 DUP4 ADD MSTORE PUSH2 0x1C5B DUP2 DUP5 PUSH2 0x1BE7 JUMP JUMPDEST SWAP1 POP SWAP3 SWAP2 POP POP JUMP JUMPDEST PUSH0 DUP1 PUSH1 0x40 DUP4 DUP6 SUB SLT ISZERO PUSH2 0x1C79 JUMPI PUSH2 0x1C78 PUSH2 0x1679 JUMP JUMPDEST JUMPDEST PUSH0 PUSH2 0x1C86 DUP6 DUP3 DUP7 ADD PUSH2 0x18AA JUMP JUMPDEST SWAP3 POP POP PUSH1 0x20 PUSH2 0x1C97 DUP6 DUP3 DUP7 ADD PUSH2 0x1AD5 JUMP JUMPDEST SWAP2 POP POP SWAP3 POP SWAP3 SWAP1 POP JUMP JUMPDEST PUSH0 PUSH8 0xFFFFFFFFFFFFFFFF DUP3 GT ISZERO PUSH2 0x1CBB JUMPI PUSH2 0x1CBA PUSH2 0x1904 JUMP JUMPDEST JUMPDEST PUSH2 0x1CC4 DUP3 PUSH2 0x1776 JUMP JUMPDEST SWAP1 POP PUSH1 0x20 DUP2 ADD SWAP1 POP SWAP2 SWAP1 POP JUMP JUMPDEST PUSH0 PUSH2 0x1CE3 PUSH2 0x1CDE DUP5 PUSH2 0x1CA1 JUMP JUMPDEST PUSH2 0x1962 JUMP JUMPDEST SWAP1 POP DUP3 DUP2 MSTORE PUSH1 0x20 DUP2 ADD DUP5 DUP5 DUP5 ADD GT ISZERO PUSH2 0x1CFF JUMPI PUSH2 0x1CFE PUSH2 0x1900 JUMP JUMPDEST JUMPDEST PUSH2 0x1D0A DUP5 DUP3 DUP6 PUSH2 0x19AC JUMP JUMPDEST POP SWAP4 SWAP3 POP POP POP JUMP JUMPDEST PUSH0 DUP3 PUSH1 0x1F DUP4 ADD SLT PUSH2 0x1D26 JUMPI PUSH2 0x1D25 PUSH2 0x18FC JUMP JUMPDEST JUMPDEST DUP2 CALLDATALOAD PUSH2 0x1D36 DUP5 DUP3 PUSH1 0x20 DUP7 ADD PUSH2 0x1CD1 JUMP JUMPDEST SWAP2 POP POP SWAP3 SWAP2 POP POP JUMP JUMPDEST PUSH0 DUP1 PUSH0 DUP1 PUSH1 0x80 DUP6 DUP8 SUB SLT ISZERO PUSH2 0x1D57 JUMPI PUSH2 0x1D56 PUSH2 0x1679 JUMP JUMPDEST JUMPDEST PUSH0 PUSH2 0x1D64 DUP8 DUP3 DUP9 ADD PUSH2 0x18AA JUMP JUMPDEST SWAP5 POP POP PUSH1 0x20 PUSH2 0x1D75 DUP8 DUP3 DUP9 ADD PUSH2 0x18AA JUMP JUMPDEST SWAP4 POP POP PUSH1 0x40 PUSH2 0x1D86 DUP8 DUP3 DUP9 ADD PUSH2 0x17FD JUMP JUMPDEST SWAP3 POP POP PUSH1 0x60 DUP6 ADD CALLDATALOAD PUSH8 0xFFFFFFFFFFFFFFFF DUP2 GT ISZERO PUSH2 0x1DA7 JUMPI PUSH2 0x1DA6 PUSH2 0x167D JUMP JUMPDEST JUMPDEST PUSH2 0x1DB3 DUP8 DUP3 DUP9 ADD PUSH2 0x1D12 JUMP JUMPDEST SWAP2 POP POP SWAP3 SWAP6 SWAP2 SWAP5 POP SWAP3 POP JUMP JUMPDEST PUSH0 DUP1 PUSH1 0x40 DUP4 DUP6 SUB SLT ISZERO PUSH2 0x1DD5 JUMPI PUSH2 0x1DD4 PUSH2 0x1679 JUMP JUMPDEST JUMPDEST PUSH0 PUSH2 0x1DE2 DUP6 DUP3 DUP7 ADD PUSH2 0x17FD JUMP JUMPDEST SWAP3 POP POP PUSH1 0x20 DUP4 ADD CALLDATALOAD PUSH8 0xFFFFFFFFFFFFFFFF DUP2 GT ISZERO PUSH2 0x1E03 JUMPI PUSH2 0x1E02 PUSH2 0x167D JUMP JUMPDEST JUMPDEST PUSH2 0x1E0F DUP6 DUP3 DUP7 ADD PUSH2 0x19FB JUMP JUMPDEST SWAP2 POP POP SWAP3 POP SWAP3 SWAP1 POP JUMP JUMPDEST PUSH0 DUP1 PUSH1 0x40 DUP4 DUP6 SUB SLT ISZERO PUSH2 0x1E2F JUMPI PUSH2 0x1E2E PUSH2 0x1679 JUMP JUMPDEST JUMPDEST PUSH0 PUSH2 0x1E3C DUP6 DUP3 DUP7 ADD PUSH2 0x18AA JUMP JUMPDEST SWAP3 POP POP PUSH1 0x20 PUSH2 0x1E4D DUP6 DUP3 DUP7 ADD PUSH2 0x18AA JUMP JUMPDEST SWAP2 POP POP SWAP3 POP SWAP3 SWAP1 POP JUMP JUMPDEST PUSH32 0x4E487B7100000000000000000000000000000000000000000000000000000000 PUSH0 MSTORE PUSH1 0x22 PUSH1 0x4 MSTORE PUSH1 0x24 PUSH0 REVERT JUMPDEST PUSH0 PUSH1 0x2 DUP3 DIV SWAP1 POP PUSH1 0x1 DUP3 AND DUP1 PUSH2 0x1E9B JUMPI PUSH1 0x7F DUP3 AND SWAP2 POP JUMPDEST PUSH1 0x20 DUP3 LT DUP2 SUB PUSH2 0x1EAE JUMPI PUSH2 0x1EAD PUSH2 0x1E57 JUMP JUMPDEST JUMPDEST POP SWAP2 SWAP1 POP JUMP JUMPDEST PUSH0 DUP2 SWAP1 POP SWAP3 SWAP2 POP POP JUMP JUMPDEST PUSH0 PUSH2 0x1EC8 DUP3 PUSH2 0x1734 JUMP JUMPDEST PUSH2 0x1ED2 DUP2 DUP6 PUSH2 0x1EB4 JUMP JUMPDEST SWAP4 POP PUSH2 0x1EE2 DUP2 DUP6 PUSH1 0x20 DUP7 ADD PUSH2 0x174E JUMP JUMPDEST DUP1 DUP5 ADD SWAP2 POP POP SWAP3 SWAP2 POP POP JUMP JUMPDEST PUSH0 PUSH2 0x1EF9 DUP3 DUP6 PUSH2 0x1EBE JUMP JUMPDEST SWAP2 POP PUSH2 0x1F05 DUP3 DUP5 PUSH2 0x1EBE JUMP JUMPDEST SWAP2 POP DUP2 SWAP1 POP SWAP4 SWAP3 POP POP POP JUMP JUMPDEST PUSH0 PUSH1 0x60 DUP3 ADD SWAP1 POP PUSH2 0x1F24 PUSH0 DUP4 ADD DUP7 PUSH2 0x186C JUMP JUMPDEST PUSH2 0x1F31 PUSH1 0x20 DUP4 ADD DUP6 PUSH2 0x1B64 JUMP JUMPDEST PUSH2 0x1F3E PUSH1 0x40 DUP4 ADD DUP5 PUSH2 0x186C JUMP JUMPDEST SWAP5 SWAP4 POP POP POP POP JUMP JUMPDEST PUSH32 0x4E487B7100000000000000000000000000000000000000000000000000000000 PUSH0 MSTORE PUSH1 0x32 PUSH1 0x4 MSTORE PUSH1 0x24 PUSH0 REVERT JUMPDEST PUSH32 0x4E487B7100000000000000000000000000000000000000000000000000000000 PUSH0 MSTORE PUSH1 0x11 PUSH1 0x4 MSTORE PUSH1 0x24 PUSH0 REVERT JUMPDEST PUSH0 PUSH2 0x1FAA DUP3 PUSH2 0x17DE JUMP JUMPDEST SWAP2 POP PUSH32 0xFFFFFFFFFFFFFFFFFFFFFFFFFFFFFFFFFFFFFFFFFFFFFFFFFFFFFFFFFFFFFFFF DUP3 SUB PUSH2 0x1FDC JUMPI PUSH2 0x1FDB PUSH2 0x1F73 JUMP JUMPDEST JUMPDEST PUSH1 0x1 DUP3 ADD SWAP1 POP SWAP2 SWAP1 POP JUMP JUMPDEST PUSH0 DUP2 SWAP1 POP DUP2 PUSH0 MSTORE PUSH1 0x20 PUSH0 KECCAK256 SWAP1 POP SWAP2 SWAP1 POP JUMP JUMPDEST PUSH0 PUSH1 0x20 PUSH1 0x1F DUP4 ADD DIV SWAP1 POP SWAP2 SWAP1 POP JUMP JUMPDEST PUSH0 DUP3 DUP3 SHL SWAP1 POP SWAP3 SWAP2 POP POP JUMP JUMPDEST PUSH0 PUSH1 0x8 DUP4 MUL PUSH2 0x2043 PUSH32 0xFFFFFFFFFFFFFFFFFFFFFFFFFFFFFFFFFFFFFFFFFFFFFFFFFFFFFFFFFFFFFFFF DUP3 PUSH2 0x2008 JUMP JUMPDEST PUSH2 0x204D DUP7 DUP4 PUSH2 0x2008 JUMP JUMPDEST SWAP6 POP DUP1 NOT DUP5 AND SWAP4 POP DUP1 DUP7 AND DUP5 OR SWAP3 POP POP POP SWAP4 SWAP3 POP POP POP JUMP JUMPDEST PUSH0 DUP2 SWAP1 POP SWAP2 SWAP1 POP JUMP JUMPDEST PUSH0 PUSH2 0x2088 PUSH2 0x2083 PUSH2 0x207E DUP5 PUSH2 0x17DE JUMP JUMPDEST PUSH2 0x2065 JUMP JUMPDEST PUSH2 0x17DE JUMP JUMPDEST SWAP1 POP SWAP2 SWAP1 POP JUMP JUMPDEST PUSH0 DUP2 SWAP1 POP SWAP2 SWAP1 POP JUMP JUMPDEST PUSH2 0x20A1 DUP4 PUSH2 0x206E JUMP JUMPDEST PUSH2 0x20B5 PUSH2 0x20AD DUP3 PUSH2 0x208F JUMP JUMPDEST DUP5 DUP5 SLOAD PUSH2 0x2014 JUMP JUMPDEST DUP3 SSTORE POP POP POP POP JUMP JUMPDEST PUSH0 SWAP1 JUMP JUMPDEST PUSH2 0x20C9 PUSH2 0x20BD JUMP JUMPDEST PUSH2 0x20D4 DUP2 DUP5 DUP5 PUSH2 0x2098 JUMP JUMPDEST POP POP POP JUMP JUMPDEST JUMPDEST DUP2 DUP2 LT ISZERO PUSH2 0x20F7 JUMPI PUSH2 0x20EC PUSH0 DUP3 PUSH2 0x20C1 JUMP JUMPDEST PUSH1 0x1 DUP2 ADD SWAP1 POP PUSH2 0x20DA JUMP JUMPDEST POP POP JUMP JUMPDEST PUSH1 0x1F DUP3 GT ISZERO PUSH2 0x213C JUMPI PUSH2 0x210D DUP2 PUSH2 0x1FE7 JUMP JUMPDEST PUSH2 0x2116 DUP5 PUSH2 0x1FF9 JUMP JUMPDEST DUP2 ADD PUSH1 0x20 DUP6 LT ISZERO PUSH2 0x2125 JUMPI DUP2 SWAP1 POP JUMPDEST PUSH2 0x2139 PUSH2 0x2131 DUP6 PUSH2 0x1FF9 JUMP JUMPDEST DUP4 ADD DUP3 PUSH2 0x20D9 JUMP JUMPDEST POP POP JUMPDEST POP POP POP JUMP JUMPDEST PUSH0 DUP3 DUP3 SHR SWAP1 POP SWAP3 SWAP2 POP POP JUMP JUMPDEST PUSH0 PUSH2 0x215C PUSH0 NOT DUP5 PUSH1 0x8 MUL PUSH2 0x2141 JUMP JUMPDEST NOT DUP1 DUP4 AND SWAP2 POP POP SWAP3 SWAP2 POP POP JUMP JUMPDEST PUSH0 PUSH2 0x2174 DUP4 DUP4 PUSH2 0x214D JUMP JUMPDEST SWAP2 POP DUP3 PUSH1 0x2 MUL DUP3 OR SWAP1 POP SWAP3 SWAP2 POP POP JUMP JUMPDEST PUSH2 0x218D DUP3 PUSH2 0x1734 JUMP JUMPDEST PUSH8 0xFFFFFFFFFFFFFFFF DUP2 GT ISZERO PUSH2 0x21A6 JUMPI PUSH2 0x21A5 PUSH2 0x1904 JUMP JUMPDEST JUMPDEST PUSH2 0x21B0 DUP3 SLOAD PUSH2 0x1E84 JUMP JUMPDEST PUSH2 0x21BB DUP3 DUP3 DUP6 PUSH2 0x20FB JUMP JUMPDEST PUSH0 PUSH1 0x20 SWAP1 POP PUSH1 0x1F DUP4 GT PUSH1 0x1 DUP2 EQ PUSH2 0x21EC JUMPI PUSH0 DUP5 ISZERO PUSH2 0x21DA JUMPI DUP3 DUP8 ADD MLOAD SWAP1 POP JUMPDEST PUSH2 0x21E4 DUP6 DUP3 PUSH2 0x2169 JUMP JUMPDEST DUP7 SSTORE POP PUSH2 0x224B JUMP JUMPDEST PUSH1 0x1F NOT DUP5 AND PUSH2 0x21FA DUP7 PUSH2 0x1FE7 JUMP JUMPDEST PUSH0 JUMPDEST DUP3 DUP2 LT ISZERO PUSH2 0x2221 JUMPI DUP5 DUP10 ADD MLOAD DUP3 SSTORE PUSH1 0x1 DUP3 ADD SWAP2 POP PUSH1 0x20 DUP6 ADD SWAP5 POP PUSH1 0x20 DUP2 ADD SWAP1 POP PUSH2 0x21FC JUMP JUMPDEST DUP7 DUP4 LT ISZERO PUSH2 0x223E JUMPI DUP5 DUP10 ADD MLOAD PUSH2 0x223A PUSH1 0x1F DUP10 AND DUP3 PUSH2 0x214D JUMP JUMPDEST DUP4 SSTORE POP JUMPDEST PUSH1 0x1 PUSH1 0x2 DUP9 MUL ADD DUP9 SSTORE POP POP POP JUMPDEST POP POP POP POP POP POP JUMP JUMPDEST PUSH0 DUP2 MLOAD SWAP1 POP SWAP2 SWAP1 POP JUMP JUMPDEST PUSH0 DUP3 DUP3 MSTORE PUSH1 0x20 DUP3 ADD SWAP1 POP SWAP3 SWAP2 POP POP JUMP JUMPDEST PUSH0 PUSH2 0x2277 DUP3 PUSH2 0x2253 JUMP JUMPDEST PUSH2 0x2281 DUP2 DUP6 PUSH2 0x225D JUMP JUMPDEST SWAP4 POP PUSH2 0x2291 DUP2 DUP6 PUSH1 0x20 DUP7 ADD PUSH2 0x174E JUMP JUMPDEST PUSH2 0x229A DUP2 PUSH2 0x1776 JUMP JUMPDEST DUP5 ADD SWAP2 POP POP SWAP3 SWAP2 POP POP JUMP JUMPDEST PUSH0 PUSH1 0x80 DUP3 ADD SWAP1 POP PUSH2 0x22B8 PUSH0 DUP4 ADD DUP8 PUSH2 0x186C JUMP JUMPDEST PUSH2 0x22C5 PUSH1 0x20 DUP4 ADD DUP7 PUSH2 0x186C JUMP JUMPDEST PUSH2 0x22D2 PUSH1 0x40 DUP4 ADD DUP6 PUSH2 0x1B64 JUMP JUMPDEST DUP2 DUP2 SUB PUSH1 0x60 DUP4 ADD MSTORE PUSH2 0x22E4 DUP2 DUP5 PUSH2 0x226D JUMP JUMPDEST SWAP1 POP SWAP6 SWAP5 POP POP POP POP POP JUMP JUMPDEST PUSH0 DUP2 MLOAD SWAP1 POP PUSH2 0x22FD DUP2 PUSH2 0x16AC JUMP JUMPDEST SWAP3 SWAP2 POP POP JUMP JUMPDEST PUSH0 PUSH1 0x20 DUP3 DUP5 SUB SLT ISZERO PUSH2 0x2318 JUMPI PUSH2 0x2317 PUSH2 0x1679 JUMP JUMPDEST JUMPDEST PUSH0 PUSH2 0x2325 DUP5 DUP3 DUP6 ADD PUSH2 0x22EF JUMP JUMPDEST SWAP2 POP POP SWAP3 SWAP2 POP POP JUMP JUMPDEST PUSH0 PUSH1 0x40 DUP3 ADD SWAP1 POP PUSH2 0x2341 PUSH0 DUP4 ADD DUP6 PUSH2 0x186C JUMP JUMPDEST PUSH2 0x234E PUSH1 0x20 DUP4 ADD DUP5 PUSH2 0x1B64 JUMP JUMPDEST SWAP4 SWAP3 POP POP POP JUMP INVALID PUSH9 0x747470733A2F2F636F PUSH19 0x616C2D646561722D676962626F6E2D3933302E PUSH14 0x7970696E6174612E636C6F75642F PUSH10 0x7066732FA26469706673 PC 0x22 SLT KECCAK256 PUSH2 0x576C DUP3 PUSH1 0x5 PUSH2 0x90C3 0xC5 PUSH31 0xD237E99E57F8F85A2A926586DEAC2BB74DCC300864736F6C634300081400 CALLER "
				},
				"gasEstimates": {
					"creation": {
						"codeDepositCost": "1829800",
						"executionCost": "infinite",
						"totalCost": "infinite"
					},
					"external": {
						"_totalsupply()": "2536",
						"approve(address,uint256)": "infinite",
						"balanceOf(address)": "infinite",
						"getApproved(uint256)": "infinite",
						"isApprovedForAll(address,address)": "infinite",
						"minting(uint256,string)": "infinite",
						"msgsenderOwntoken(address)": "infinite",
						"name()": "infinite",
						"ownerOf(uint256)": "infinite",
						"safeTransferFrom(address,address,uint256)": "infinite",
						"safeTransferFrom(address,address,uint256,bytes)": "infinite",
						"setAppAll(address,address,bool)": "infinite",
						"setApprovalForAll(address,bool)": "infinite",
						"showtotalsupply()": "2454",
						"supportsInterface(bytes4)": "787",
						"symbol()": "infinite",
						"tokenURI(uint256)": "infinite",
						"transferFrom(address,address,uint256)": "infinite",
						"urlmaker(string)": "infinite"
					},
					"internal": {
						"_baseURI()": "infinite"
					}
				},
				"methodIdentifiers": {
					"_totalsupply()": "a393dc44",
					"approve(address,uint256)": "095ea7b3",
					"balanceOf(address)": "70a08231",
					"getApproved(uint256)": "081812fc",
					"isApprovedForAll(address,address)": "e985e9c5",
					"minting(uint256,string)": "e2c4c4b2",
					"msgsenderOwntoken(address)": "828e7a01",
					"name()": "06fdde03",
					"ownerOf(uint256)": "6352211e",
					"safeTransferFrom(address,address,uint256)": "42842e0e",
					"safeTransferFrom(address,address,uint256,bytes)": "b88d4fde",
					"setAppAll(address,address,bool)": "29d6724e",
					"setApprovalForAll(address,bool)": "a22cb465",
					"showtotalsupply()": "abec7101",
					"supportsInterface(bytes4)": "01ffc9a7",
					"symbol()": "95d89b41",
					"tokenURI(uint256)": "c87b56dd",
					"transferFrom(address,address,uint256)": "23b872dd",
					"urlmaker(string)": "1b00fd16"
				}
			},
			"storageLayout": {
				"storage": [
					{
						"astId": 271,
						"contract": "myNFT.sol:MyNFT",
						"label": "_name",
						"offset": 0,
						"slot": "0",
						"type": "t_string_storage"
					},
					{
						"astId": 273,
						"contract": "myNFT.sol:MyNFT",
						"label": "_symbol",
						"offset": 0,
						"slot": "1",
						"type": "t_string_storage"
					},
					{
						"astId": 275,
						"contract": "myNFT.sol:MyNFT",
						"label": "_totalsupply",
						"offset": 0,
						"slot": "2",
						"type": "t_uint256"
					},
					{
						"astId": 279,
						"contract": "myNFT.sol:MyNFT",
						"label": "_owners",
						"offset": 0,
						"slot": "3",
						"type": "t_mapping(t_uint256,t_address)"
					},
					{
						"astId": 283,
						"contract": "myNFT.sol:MyNFT",
						"label": "_balances",
						"offset": 0,
						"slot": "4",
						"type": "t_mapping(t_address,t_uint256)"
					},
					{
						"astId": 287,
						"contract": "myNFT.sol:MyNFT",
						"label": "_tokenApprovals",
						"offset": 0,
						"slot": "5",
						"type": "t_mapping(t_uint256,t_address)"
					},
					{
						"astId": 293,
						"contract": "myNFT.sol:MyNFT",
						"label": "_operatorApprovals",
						"offset": 0,
						"slot": "6",
						"type": "t_mapping(t_address,t_mapping(t_address,t_bool))"
					},
					{
						"astId": 20,
						"contract": "myNFT.sol:MyNFT",
						"label": "_tokenURIs",
						"offset": 0,
						"slot": "7",
						"type": "t_mapping(t_uint256,t_string_storage)"
					}
				],
				"types": {
					"t_address": {
						"encoding": "inplace",
						"label": "address",
						"numberOfBytes": "20"
					},
					"t_bool": {
						"encoding": "inplace",
						"label": "bool",
						"numberOfBytes": "1"
					},
					"t_mapping(t_address,t_bool)": {
						"encoding": "mapping",
						"key": "t_address",
						"label": "mapping(address => bool)",
						"numberOfBytes": "32",
						"value": "t_bool"
					},
					"t_mapping(t_address,t_mapping(t_address,t_bool))": {
						"encoding": "mapping",
						"key": "t_address",
						"label": "mapping(address => mapping(address => bool))",
						"numberOfBytes": "32",
						"value": "t_mapping(t_address,t_bool)"
					},
					"t_mapping(t_address,t_uint256)": {
						"encoding": "mapping",
						"key": "t_address",
						"label": "mapping(address => uint256)",
						"numberOfBytes": "32",
						"value": "t_uint256"
					},
					"t_mapping(t_uint256,t_address)": {
						"encoding": "mapping",
						"key": "t_uint256",
						"label": "mapping(uint256 => address)",
						"numberOfBytes": "32",
						"value": "t_address"
					},
					"t_mapping(t_uint256,t_string_storage)": {
						"encoding": "mapping",
						"key": "t_uint256",
						"label": "mapping(uint256 => string)",
						"numberOfBytes": "32",
						"value": "t_string_storage"
					},
					"t_string_storage": {
						"encoding": "bytes",
						"label": "string",
						"numberOfBytes": "32"
					},
					"t_uint256": {
						"encoding": "inplace",
						"label": "uint256",
						"numberOfBytes": "32"
					}
				}
			},
			"userdoc": {
				"kind": "user",
				"methods": {},
				"version": 1
			}
		}
	}
}